{
	"data": {
		"bytecode": {
			"linkReferences": {},
			"object": "608060405260006006556040518061080001604052806040518060a001604052806040518060400160405280600781526020017f233666346366660000000000000000000000000000000000000000000000000081525081526020016040518060400160405280600881526020017f234646463539442000000000000000000000000000000000000000000000000081525081526020016040518060400160405280600781526020017f234345393344380000000000000000000000000000000000000000000000000081525081526020016040518060400160405280600781526020017f234232444644420000000000000000000000000000000000000000000000000081525081526020016040518060400160405280600781526020017f234646434338300000000000000000000000000000000000000000000000000081525081525081526020016040518060a001604052806040518060400160405280600781526020017f233666346366660000000000000000000000000000000000000000000000000081525081526020016040518060400160405280600881526020017f234646463539442000000000000000000000000000000000000000000000000081525081526020016040518060400160405280600781526020017f234345393344380000000000000000000000000000000000000000000000000081525081526020016040518060400160405280600781526020017f234646434338300000000000000000000000000000000000000000000000000081525081526020016040518060400160405280600781526020017f234232444644420000000000000000000000000000000000000000000000000081525081525081526020016040518060a001604052806040518060400160405280600781526020017f233666346366660000000000000000000000000000000000000000000000000081525081526020016040518060400160405280600881526020017f234646463539442000000000000000000000000000000000000000000000000081525081526020016040518060400160405280600781526020017f234232444644420000000000000000000000000000000000000000000000000081525081526020016040518060400160405280600781526020017f234345393344380000000000000000000000000000000000000000000000000081525081526020016040518060400160405280600781526020017f234646434338300000000000000000000000000000000000000000000000000081525081525081526020016040518060a001604052806040518060400160405280600781526020017f233666346366660000000000000000000000000000000000000000000000000081525081526020016040518060400160405280600881526020017f234646463539442000000000000000000000000000000000000000000000000081525081526020016040518060400160405280600781526020017f234232444644420000000000000000000000000000000000000000000000000081525081526020016040518060400160405280600781526020017f234646434338300000000000000000000000000000000000000000000000000081525081526020016040518060400160405280600781526020017f234345393344380000000000000000000000000000000000000000000000000081525081525081526020016040518060a001604052806040518060400160405280600781526020017f233666346366660000000000000000000000000000000000000000000000000081525081526020016040518060400160405280600881526020017f234646463539442000000000000000000000000000000000000000000000000081525081526020016040518060400160405280600781526020017f234646434338300000000000000000000000000000000000000000000000000081525081526020016040518060400160405280600781526020017f234232444644420000000000000000000000000000000000000000000000000081525081526020016040518060400160405280600781526020017f234345393344380000000000000000000000000000000000000000000000000081525081525081526020016040518060a001604052806040518060400160405280600781526020017f233666346366660000000000000000000000000000000000000000000000000081525081526020016040518060400160405280600881526020017f234646463539442000000000000000000000000000000000000000000000000081525081526020016040518060400160405280600781526020017f234646434338300000000000000000000000000000000000000000000000000081525081526020016040518060400160405280600781526020017f234345393344380000000000000000000000000000000000000000000000000081525081526020016040518060400160405280600781526020017f234232444644420000000000000000000000000000000000000000000000000081525081525081526020016040518060a001604052806040518060400160405280600781526020017f234632384438440000000000000000000000000000000000000000000000000081525081526020016040518060400160405280600781526020017f234632423941430000000000000000000000000000000000000000000000000081525081526020016040518060400160405280600781526020017f234445443046320000000000000000000000000000000000000000000000000081525081526020016040518060400160405280600781526020017f233931414146320000000000000000000000000000000000000000000000000081525081526020016040518060400160405280600781526020017f233642393846320000000000000000000000000000000000000000000000000081525081525081526020016040518060a001604052806040518060400160405280600781526020017f234632384438440000000000000000000000000000000000000000000000000081525081526020016040518060400160405280600781526020017f234632423941430000000000000000000000000000000000000000000000000081525081526020016040518060400160405280600781526020017f234445443046320000000000000000000000000000000000000000000000000081525081526020016040518060400160405280600781526020017f233642393846320000000000000000000000000000000000000000000000000081525081526020016040518060400160405280600781526020017f233931414146320000000000000000000000000000000000000000000000000081525081525081526020016040518060a001604052806040518060400160405280600781526020017f234632384438440000000000000000000000000000000000000000000000000081525081526020016040518060400160405280600781526020017f234632423941430000000000000000000000000000000000000000000000000081525081526020016040518060400160405280600781526020017f233931414146320000000000000000000000000000000000000000000000000081525081526020016040518060400160405280600781526020017f234445443046320000000000000000000000000000000000000000000000000081525081526020016040518060400160405280600781526020017f233642393846320000000000000000000000000000000000000000000000000081525081525081526020016040518060a001604052806040518060400160405280600781526020017f234632384438440000000000000000000000000000000000000000000000000081525081526020016040518060400160405280600781526020017f234632423941430000000000000000000000000000000000000000000000000081525081526020016040518060400160405280600781526020017f233931414146320000000000000000000000000000000000000000000000000081525081526020016040518060400160405280600781526020017f233642393846320000000000000000000000000000000000000000000000000081525081526020016040518060400160405280600781526020017f234445443046320000000000000000000000000000000000000000000000000081525081525081526020016040518060a001604052806040518060400160405280600781526020017f234632384438440000000000000000000000000000000000000000000000000081525081526020016040518060400160405280600781526020017f234632423941430000000000000000000000000000000000000000000000000081525081526020016040518060400160405280600781526020017f233642393846320000000000000000000000000000000000000000000000000081525081526020016040518060400160405280600781526020017f233931414146320000000000000000000000000000000000000000000000000081525081526020016040518060400160405280600781526020017f234445443046320000000000000000000000000000000000000000000000000081525081525081526020016040518060a001604052806040518060400160405280600781526020017f234632384438440000000000000000000000000000000000000000000000000081525081526020016040518060400160405280600781526020017f234632423941430000000000000000000000000000000000000000000000000081525081526020016040518060400160405280600781526020017f233642393846320000000000000000000000000000000000000000000000000081525081526020016040518060400160405280600881526020017f232044454430463200000000000000000000000000000000000000000000000081525081526020016040518060400160405280600781526020017f233931414146320000000000000000000000000000000000000000000000000081525081525081526020016040518060a001604052806040518060400160405280600781526020017f233430384238300000000000000000000000000000000000000000000000000081525081526020016040518060400160405280600781526020017f234646433942330000000000000000000000000000000000000000000000000081525081526020016040518060400160405280600781526020017f234232383537320000000000000000000000000000000000000000000000000081525081526020016040518060400160405280600781526020017f233946453046360000000000000000000000000000000000000000000000000081525081526020016040518060400160405280600781526020017f234241363843380000000000000000000000000000000000000000000000000081525081525081526020016040518060a001604052806040518060400160405280600781526020017f233430384238300000000000000000000000000000000000000000000000000081525081526020016040518060400160405280600781526020017f234646433942330000000000000000000000000000000000000000000000000081525081526020016040518060400160405280600781526020017f234232383537320000000000000000000000000000000000000000000000000081525081526020016040518060400160405280600781526020017f234241363843380000000000000000000000000000000000000000000000000081525081526020016040518060400160405280600881526020017f202339464530463600000000000000000000000000000000000000000000000081525081525081526020016040518060a001604052806040518060400160405280600781526020017f233430384238300000000000000000000000000000000000000000000000000081525081526020016040518060400160405280600781526020017f234646433942330000000000000000000000000000000000000000000000000081525081526020016040518060400160405280600781526020017f233946453046360000000000000000000000000000000000000000000000000081525081526020016040518060400160405280600781526020017f234232383537320000000000000000000000000000000000000000000000000081525081526020016040518060400160405280600781526020017f234241363843380000000000000000000000000000000000000000000000000081525081525081526020016040518060a001604052806040518060400160405280600781526020017f233430384238300000000000000000000000000000000000000000000000000081525081526020016040518060400160405280600781526020017f234646433942330000000000000000000000000000000000000000000000000081525081526020016040518060400160405280600781526020017f233946453046360000000000000000000000000000000000000000000000000081525081526020016040518060400160405280600781526020017f234241363843380000000000000000000000000000000000000000000000000081525081526020016040518060400160405280600881526020017f202342323835373200000000000000000000000000000000000000000000000081525081525081526020016040518060a001604052806040518060400160405280600781526020017f233430384238300000000000000000000000000000000000000000000000000081525081526020016040518060400160405280600781526020017f234646433942330000000000000000000000000000000000000000000000000081525081526020016040518060400160405280600881526020017f234241363843382000000000000000000000000000000000000000000000000081525081526020016040518060400160405280600781526020017f233946453046360000000000000000000000000000000000000000000000000081525081526020016040518060400160405280600781526020017f234232383537320000000000000000000000000000000000000000000000000081525081525081526020016040518060a001604052806040518060400160405280600781526020017f233430384238300000000000000000000000000000000000000000000000000081525081526020016040518060400160405280600781526020017f234646433942330000000000000000000000000000000000000000000000000081525081526020016040518060400160405280600881526020017f234241363843382000000000000000000000000000000000000000000000000081525081526020016040518060400160405280600781526020017f234232383537320000000000000000000000000000000000000000000000000081525081526020016040518060400160405280600881526020017f202339464530463600000000000000000000000000000000000000000000000081525081525081526020016040518060a001604052806040518060400160405280600781526020017f233145383845350000000000000000000000000000000000000000000000000081525081526020016040518060400160405280600781526020017f234632443738350000000000000000000000000000000000000000000000000081525081526020016040518060400160405280600781526020017f234246383039310000000000000000000000000000000000000000000000000081525081526020016040518060400160405280600781526020017f233644394241360000000000000000000000000000000000000000000000000081525081526020016040518060400160405280600781526020017f234632424443370000000000000000000000000000000000000000000000000081525081525081526020016040518060a001604052806040518060400160405280600781526020017f233145383845350000000000000000000000000000000000000000000000000081525081526020016040518060400160405280600781526020017f234632443738350000000000000000000000000000000000000000000000000081525081526020016040518060400160405280600781526020017f234246383039310000000000000000000000000000000000000000000000000081525081526020016040518060400160405280600781526020017f234632424443370000000000000000000000000000000000000000000000000081525081526020016040518060400160405280600781526020017f233644394241360000000000000000000000000000000000000000000000000081525081525081526020016040518060a001604052806040518060400160405280600781526020017f233145383845350000000000000000000000000000000000000000000000000081525081526020016040518060400160405280600781526020017f234632443738350000000000000000000000000000000000000000000000000081525081526020016040518060400160405280600881526020017f233644394241362000000000000000000000000000000000000000000000000081525081526020016040518060400160405280600781526020017f234246383039310000000000000000000000000000000000000000000000000081525081526020016040518060400160405280600781526020017f234632424443370000000000000000000000000000000000000000000000000081525081525081526020016040518060a001604052806040518060400160405280600781526020017f233145383845350000000000000000000000000000000000000000000000000081525081526020016040518060400160405280600781526020017f234632443738350000000000000000000000000000000000000000000000000081525081526020016040518060400160405280600881526020017f233644394241362000000000000000000000000000000000000000000000000081525081526020016040518060400160405280600781526020017f234632424443370000000000000000000000000000000000000000000000000081525081526020016040518060400160405280600881526020017f202342463830393100000000000000000000000000000000000000000000000081525081525081526020016040518060a001604052806040518060400160405280600781526020017f233145383845350000000000000000000000000000000000000000000000000081525081526020016040518060400160405280600781526020017f234632443738350000000000000000000000000000000000000000000000000081525081526020016040518060400160405280600881526020017f234632424443372000000000000000000000000000000000000000000000000081525081526020016040518060400160405280600781526020017f233644394241360000000000000000000000000000000000000000000000000081525081526020016040518060400160405280600781526020017f234246383039310000000000000000000000000000000000000000000000000081525081525081526020016040518060a001604052806040518060400160405280600781526020017f233145383845350000000000000000000000000000000000000000000000000081525081526020016040518060400160405280600781526020017f234632443738350000000000000000000000000000000000000000000000000081525081526020016040518060400160405280600881526020017f234632424443372000000000000000000000000000000000000000000000000081525081526020016040518060400160405280600781526020017f234246383039310000000000000000000000000000000000000000000000000081525081526020016040518060400160405280600781526020017f233644394241360000000000000000000000000000000000000000000000000081525081525081526020016040518060a001604052806040518060400160405280600781526020017f234642433032440000000000000000000000000000000000000000000000000081525081526020016040518060400160405280600781526020017f234333373543440000000000000000000000000000000000000000000000000081525081526020016040518060400160405280600781526020017f233443414635300000000000000000000000000000000000000000000000000081525081526020016040518060400160405280600781526020017f234630363237440000000000000000000000000000000000000000000000000081525081526020016040518060400160405280600781526020017f233432413546350000000000000000000000000000000000000000000000000081525081525081526020016040518060a001604052806040518060400160405280600781526020017f234642433032440000000000000000000000000000000000000000000000000081525081526020016040518060400160405280600781526020017f234333373543440000000000000000000000000000000000000000000000000081525081526020016040518060400160405280600781526020017f233443414635300000000000000000000000000000000000000000000000000081525081526020016040518060400160405280600781526020017f233432413546350000000000000000000000000000000000000000000000000081525081526020016040518060400160405280600781526020017f234630363237440000000000000000000000000000000000000000000000000081525081525081526020016040518060a001604052806040518060400160405280600781526020017f234642433032440000000000000000000000000000000000000000000000000081525081526020016040518060400160405280600781526020017f234333373543440000000000000000000000000000000000000000000000000081525081526020016040518060400160405280600781526020017f234630363237440000000000000000000000000000000000000000000000000081525081526020016040518060400160405280600781526020017f233443414635300000000000000000000000000000000000000000000000000081525081526020016040518060400160405280600781526020017f233432413546350000000000000000000000000000000000000000000000000081525081525081526020016040518060a001604052806040518060400160405280600781526020017f234642433032440000000000000000000000000000000000000000000000000081525081526020016040518060400160405280600781526020017f234333373543440000000000000000000000000000000000000000000000000081525081526020016040518060400160405280600781526020017f234630363237440000000000000000000000000000000000000000000000000081525081526020016040518060400160405280600781526020017f233432413546350000000000000000000000000000000000000000000000000081525081526020016040518060400160405280600781526020017f233443414635300000000000000000000000000000000000000000000000000081525081525081526020016040518060a001604052806040518060400160405280600781526020017f234642433032440000000000000000000000000000000000000000000000000081525081526020016040518060400160405280600781526020017f234333373543440000000000000000000000000000000000000000000000000081525081526020016040518060400160405280600781526020017f233432413546350000000000000000000000000000000000000000000000000081525081526020016040518060400160405280600781526020017f234630363237440000000000000000000000000000000000000000000000000081525081526020016040518060400160405280600781526020017f233443414635300000000000000000000000000000000000000000000000000081525081525081526020016040518060a001604052806040518060400160405280600781526020017f234642433032440000000000000000000000000000000000000000000000000081525081526020016040518060400160405280600781526020017f234333373543440000000000000000000000000000000000000000000000000081525081526020016040518060400160405280600781526020017f233432413546350000000000000000000000000000000000000000000000000081525081526020016040518060400160405280600881526020017f233443414635302000000000000000000000000000000000000000000000000081525081526020016040518060400160405280600781526020017f234630363237440000000000000000000000000000000000000000000000000081525081525081526020016040518060a001604052806040518060400160405280600781526020017f233535443939420000000000000000000000000000000000000000000000000081525081526020016040518060400160405280600781526020017f234632433436440000000000000000000000000000000000000000000000000081525081526020016040518060400160405280600781526020017f233341333635390000000000000000000000000000000000000000000000000081525081526020016040518060400160405280600781526020017f234334463245450000000000000000000000000000000000000000000000000081525081526020016040518060400160405280600781526020017f233636374246320000000000000000000000000000000000000000000000000081525081525081526020016040518060a001604052806040518060400160405280600781526020017f233535443939420000000000000000000000000000000000000000000000000081525081526020016040518060400160405280600781526020017f234632433436440000000000000000000000000000000000000000000000000081525081526020016040518060400160405280600781526020017f233341333635390000000000000000000000000000000000000000000000000081525081526020016040518060400160405280600781526020017f233636374246320000000000000000000000000000000000000000000000000081525081526020016040518060400160405280600781526020017f234334463245450000000000000000000000000000000000000000000000000081525081525081526020016040518060a001604052806040518060400160405280600781526020017f233535443939420000000000000000000000000000000000000000000000000081525081526020016040518060400160405280600781526020017f234632433436440000000000000000000000000000000000000000000000000081525081526020016040518060400160405280600781526020017f234334463245450000000000000000000000000000000000000000000000000081525081526020016040518060400160405280600781526020017f233341333635390000000000000000000000000000000000000000000000000081525081526020016040518060400160405280600781526020017f233636374246320000000000000000000000000000000000000000000000000081525081525081526020016040518060a001604052806040518060400160405280600781526020017f233535443939420000000000000000000000000000000000000000000000000081525081526020016040518060400160405280600781526020017f234632433436440000000000000000000000000000000000000000000000000081525081526020016040518060400160405280600781526020017f234334463245450000000000000000000000000000000000000000000000000081525081526020016040518060400160405280600781526020017f233636374246320000000000000000000000000000000000000000000000000081525081526020016040518060400160405280600781526020017f233341333635390000000000000000000000000000000000000000000000000081525081525081526020016040518060a001604052806040518060400160405280600781526020017f233535443939420000000000000000000000000000000000000000000000000081525081526020016040518060400160405280600781526020017f234632433436440000000000000000000000000000000000000000000000000081525081526020016040518060400160405280600781526020017f233636374246320000000000000000000000000000000000000000000000000081525081526020016040518060400160405280600781526020017f234334463245450000000000000000000000000000000000000000000000000081525081526020016040518060400160405280600781526020017f233341333635390000000000000000000000000000000000000000000000000081525081525081526020016040518060a001604052806040518060400160405280600781526020017f233535443939420000000000000000000000000000000000000000000000000081525081526020016040518060400160405280600781526020017f234632433436440000000000000000000000000000000000000000000000000081525081526020016040518060400160405280600781526020017f233636374246320000000000000000000000000000000000000000000000000081525081526020016040518060400160405280600781526020017f233341333635390000000000000000000000000000000000000000000000000081525081526020016040518060400160405280600781526020017f234334463245450000000000000000000000000000000000000000000000000081525081525081526020016040518060a001604052806040518060400160405280600781526020017f234246333641380000000000000000000000000000000000000000000000000081525081526020016040518060400160405280600781526020017f234439353538350000000000000000000000000000000000000000000000000081525081526020016040518060400160405280600781526020017f233430324342460000000000000000000000000000000000000000000000000081525081526020016040518060400160405280600781526020017f233334313934300000000000000000000000000000000000000000000000000081525081526020016040518060400160405280600781526020017f233330353442460000000000000000000000000000000000000000000000000081525081525081526020016040518060a001604052806040518060400160405280600781526020017f234246333641380000000000000000000000000000000000000000000000000081525081526020016040518060400160405280600781526020017f234439353538350000000000000000000000000000000000000000000000000081525081526020016040518060400160405280600781526020017f233430324342460000000000000000000000000000000000000000000000000081525081526020016040518060400160405280600781526020017f233330353442460000000000000000000000000000000000000000000000000081525081526020016040518060400160405280600781526020017f233334313934300000000000000000000000000000000000000000000000000081525081525081526020016040518060a001604052806040518060400160405280600781526020017f234246333641380000000000000000000000000000000000000000000000000081525081526020016040518060400160405280600781526020017f234439353538350000000000000000000000000000000000000000000000000081525081526020016040518060400160405280600781526020017f233330353442460000000000000000000000000000000000000000000000000081525081526020016040518060400160405280600781526020017f233334313934300000000000000000000000000000000000000000000000000081525081526020016040518060400160405280600781526020017f233430324342460000000000000000000000000000000000000000000000000081525081525081526020016040518060a001604052806040518060400160405280600781526020017f234246333641380000000000000000000000000000000000000000000000000081525081526020016040518060400160405280600781526020017f234439353538350000000000000000000000000000000000000000000000000081525081526020016040518060400160405280600781526020017f233330353442460000000000000000000000000000000000000000000000000081525081526020016040518060400160405280600781526020017f233430324342460000000000000000000000000000000000000000000000000081525081526020016040518060400160405280600781526020017f233334313934300000000000000000000000000000000000000000000000000081525081525081526020016040518060a001604052806040518060400160405280600781526020017f234246333641380000000000000000000000000000000000000000000000000081525081526020016040518060400160405280600781526020017f234439353538350000000000000000000000000000000000000000000000000081525081526020016040518060400160405280600781526020017f233334313934300000000000000000000000000000000000000000000000000081525081526020016040518060400160405280600781526020017f233430324342460000000000000000000000000000000000000000000000000081525081526020016040518060400160405280600781526020017f233330353442460000000000000000000000000000000000000000000000000081525081525081526020016040518060a001604052806040518060400160405280600781526020017f234246333641380000000000000000000000000000000000000000000000000081525081526020016040518060400160405280600781526020017f234439353538350000000000000000000000000000000000000000000000000081525081526020016040518060400160405280600781526020017f233334313934300000000000000000000000000000000000000000000000000081525081526020016040518060400160405280600781526020017f233330353442460000000000000000000000000000000000000000000000000081525081526020016040518060400160405280600781526020017f233430324342460000000000000000000000000000000000000000000000000081525081525081526020016040518060a001604052806040518060400160405280600781526020017f233338424446320000000000000000000000000000000000000000000000000081525081526020016040518060400160405280600781526020017f234632414537320000000000000000000000000000000000000000000000000081525081526020016040518060400160405280600781526020017f233644324244340000000000000000000000000000000000000000000000000081525081526020016040518060400160405280600781526020017f234439373934310000000000000000000000000000000000000000000000000081525081526020016040518060400160405280600781526020017f233044423943430000000000000000000000000000000000000000000000000081525081525081526020016040518060a001604052806040518060400160405280600781526020017f233338424446320000000000000000000000000000000000000000000000000081525081526020016040518060400160405280600781526020017f234632414537320000000000000000000000000000000000000000000000000081525081526020016040518060400160405280600781526020017f233644324244340000000000000000000000000000000000000000000000000081525081526020016040518060400160405280600781526020017f233044423943430000000000000000000000000000000000000000000000000081525081526020016040518060400160405280600781526020017f234439373934310000000000000000000000000000000000000000000000000081525081525081526020016040518060a001604052806040518060400160405280600781526020017f233338424446320000000000000000000000000000000000000000000000000081525081526020016040518060400160405280600781526020017f234632414537320000000000000000000000000000000000000000000000000081525081526020016040518060400160405280600781526020017f233044423943430000000000000000000000000000000000000000000000000081525081526020016040518060400160405280600781526020017f234439373934310000000000000000000000000000000000000000000000000081525081526020016040518060400160405280600781526020017f233644324244340000000000000000000000000000000000000000000000000081525081525081526020016040518060a001604052806040518060400160405280600781526020017f233338424446320000000000000000000000000000000000000000000000000081525081526020016040518060400160405280600781526020017f234632414537320000000000000000000000000000000000000000000000000081525081526020016040518060400160405280600781526020017f233044423943430000000000000000000000000000000000000000000000000081525081526020016040518060400160405280600781526020017f233644324244340000000000000000000000000000000000000000000000000081525081526020016040518060400160405280600781526020017f234439373934310000000000000000000000000000000000000000000000000081525081525081526020016040518060a001604052806040518060400160405280600781526020017f233338424446320000000000000000000000000000000000000000000000000081525081526020016040518060400160405280600781526020017f234632414537320000000000000000000000000000000000000000000000000081525081526020016040518060400160405280600781526020017f233044423943430000000000000000000000000000000000000000000000000081525081526020016040518060400160405280600781526020017f234439373934310000000000000000000000000000000000000000000000000081525081526020016040518060400160405280600781526020017f233644324244340000000000000000000000000000000000000000000000000081525081525081526020016040518060a001604052806040518060400160405280600781526020017f233338424446320000000000000000000000000000000000000000000000000081525081526020016040518060400160405280600781526020017f234632414537320000000000000000000000000000000000000000000000000081525081526020016040518060400160405280600781526020017f233044423943430000000000000000000000000000000000000000000000000081525081526020016040518060400160405280600781526020017f233644324244340000000000000000000000000000000000000000000000000081525081526020016040518060400160405280600781526020017f234439373934310000000000000000000000000000000000000000000000000081525081525081526020016040518060a001604052806040518060400160405280600781526020017f234632364231440000000000000000000000000000000000000000000000000081525081526020016040518060400160405280600781526020017f233844354546320000000000000000000000000000000000000000000000000081525081526020016040518060400160405280600781526020017f234632373743370000000000000000000000000000000000000000000000000081525081526020016040518060400160405280600781526020017f233542343446320000000000000000000000000000000000000000000000000081525081526020016040518060400160405280600781526020017f234632453835320000000000000000000000000000000000000000000000000081525081525081526020016040518060a001604052806040518060400160405280600781526020017f234632364231440000000000000000000000000000000000000000000000000081525081526020016040518060400160405280600781526020017f233844354546320000000000000000000000000000000000000000000000000081525081526020016040518060400160405280600781526020017f234632373743370000000000000000000000000000000000000000000000000081525081526020016040518060400160405280600781526020017f234632453835320000000000000000000000000000000000000000000000000081525081526020016040518060400160405280600781526020017f233542343446320000000000000000000000000000000000000000000000000081525081525081526020016040518060a001604052806040518060400160405280600781526020017f234632364231440000000000000000000000000000000000000000000000000081525081526020016040518060400160405280600781526020017f233844354546320000000000000000000000000000000000000000000000000081525081526020016040518060400160405280600781526020017f233542343446320000000000000000000000000000000000000000000000000081525081526020016040518060400160405280600781526020017f234632373743370000000000000000000000000000000000000000000000000081525081526020016040518060400160405280600781526020017f234632453835320000000000000000000000000000000000000000000000000081525081525081526020016040518060a001604052806040518060400160405280600781526020017f234632364231440000000000000000000000000000000000000000000000000081525081526020016040518060400160405280600781526020017f233844354546320000000000000000000000000000000000000000000000000081525081526020016040518060400160405280600781526020017f233542343446320000000000000000000000000000000000000000000000000081525081526020016040518060400160405280600781526020017f234632453835320000000000000000000000000000000000000000000000000081525081526020016040518060400160405280600781526020017f234632373743370000000000000000000000000000000000000000000000000081525081525081526020016040518060a001604052806040518060400160405280600781526020017f234632364231440000000000000000000000000000000000000000000000000081525081526020016040518060400160405280600781526020017f233844354546320000000000000000000000000000000000000000000000000081525081526020016040518060400160405280600881526020017f234632453835322000000000000000000000000000000000000000000000000081525081526020016040518060400160405280600781526020017f233542343446320000000000000000000000000000000000000000000000000081525081526020016040518060400160405280600781526020017f234632373743370000000000000000000000000000000000000000000000000081525081525081526020016040518060a001604052806040518060400160405280600781526020017f234632364231440000000000000000000000000000000000000000000000000081525081526020016040518060400160405280600781526020017f233844354546320000000000000000000000000000000000000000000000000081525081526020016040518060400160405280600881526020017f234632453835322000000000000000000000000000000000000000000000000081525081526020016040518060400160405280600881526020017f232046323737433700000000000000000000000000000000000000000000000081525081526020016040518060400160405280600781526020017f233542343446320000000000000000000000000000000000000000000000000081525081525081526020016040518060a001604052806040518060400160405280600781526020017f233634353838430000000000000000000000000000000000000000000000000081525081526020016040518060400160405280600781526020017f234145453646320000000000000000000000000000000000000000000000000081525081526020016040518060400160405280600781526020017f234134393644390000000000000000000000000000000000000000000000000081525081526020016040518060400160405280600781526020017f233733353634350000000000000000000000000000000000000000000000000081525081526020016040518060400160405280600781526020017f234632413741370000000000000000000000000000000000000000000000000081525081525081526020016040518060a001604052806040518060400160405280600781526020017f233634353838430000000000000000000000000000000000000000000000000081525081526020016040518060400160405280600781526020017f234145453646320000000000000000000000000000000000000000000000000081525081526020016040518060400160405280600781526020017f234134393644390000000000000000000000000000000000000000000000000081525081526020016040518060400160405280600781526020017f233733353634350000000000000000000000000000000000000000000000000081525081526020016040518060400160405280600781526020017f234632413741370000000000000000000000000000000000000000000000000081525081525081526020016040518060a001604052806040518060400160405280600781526020017f233634353838430000000000000000000000000000000000000000000000000081525081526020016040518060400160405280600781526020017f234145453646320000000000000000000000000000000000000000000000000081525081526020016040518060400160405280600881526020017f234632413741372000000000000000000000000000000000000000000000000081525081526020016040518060400160405280600781526020017f233733353634350000000000000000000000000000000000000000000000000081525081526020016040518060400160405280600781526020017f234134393644390000000000000000000000000000000000000000000000000081525081525081526020016040518060a001604052806040518060400160405280600781526020017f233634353838430000000000000000000000000000000000000000000000000081525081526020016040518060400160405280600781526020017f234145453646320000000000000000000000000000000000000000000000000081525081526020016040518060400160405280600881526020017f234632413741372000000000000000000000000000000000000000000000000081525081526020016040518060400160405280600781526020017f234134393644390000000000000000000000000000000000000000000000000081525081526020016040518060400160405280600781526020017f233733353634350000000000000000000000000000000000000000000000000081525081525081526020016040518060a001604052806040518060400160405280600781526020017f233634353838430000000000000000000000000000000000000000000000000081525081526020016040518060400160405280600781526020017f234145453646320000000000000000000000000000000000000000000000000081525081526020016040518060400160405280600781526020017f234632413741370000000000000000000000000000000000000000000000000081525081526020016040518060400160405280600781526020017f233733353634350000000000000000000000000000000000000000000000000081525081526020016040518060400160405280600781526020017f234134393644390000000000000000000000000000000000000000000000000081525081525081526020016040518060a001604052806040518060400160405280600781526020017f233634353838430000000000000000000000000000000000000000000000000081525081526020016040518060400160405280600781526020017f234145453646320000000000000000000000000000000000000000000000000081525081526020016040518060400160405280600781526020017f234632413741370000000000000000000000000000000000000000000000000081525081526020016040518060400160405280600781526020017f234134393644390000000000000000000000000000000000000000000000000081525081526020016040518060400160405280600781526020017f233733353634350000000000000000000000000000000000000000000000000081525081525081526020016040518060a001604052806040518060400160405280600781526020017f233733323933370000000000000000000000000000000000000000000000000081525081526020016040518060400160405280600781526020017f234632453243450000000000000000000000000000000000000000000000000081525081526020016040518060400160405280600781526020017f234246394438410000000000000000000000000000000000000000000000000081525081526020016040518060400160405280600781526020017f233944334536300000000000000000000000000000000000000000000000000081525081526020016040518060400160405280600781526020017f234243363836380000000000000000000000000000000000000000000000000081525081525081526020016040518060a001604052806040518060400160405280600781526020017f233733323933370000000000000000000000000000000000000000000000000081525081526020016040518060400160405280600781526020017f234632453243450000000000000000000000000000000000000000000000000081525081526020016040518060400160405280600781526020017f234246394438410000000000000000000000000000000000000000000000000081525081526020016040518060400160405280600781526020017f234243363836380000000000000000000000000000000000000000000000000081525081526020016040518060400160405280600781526020017f233944334536300000000000000000000000000000000000000000000000000081525081525081526020016040518060a001604052806040518060400160405280600781526020017f233733323933370000000000000000000000000000000000000000000000000081525081526020016040518060400160405280600781526020017f234632453243450000000000000000000000000000000000000000000000000081525081526020016040518060400160405280600781526020017f233944334536300000000000000000000000000000000000000000000000000081525081526020016040518060400160405280600781526020017f234246394438410000000000000000000000000000000000000000000000000081525081526020016040518060400160405280600781526020017f234243363836380000000000000000000000000000000000000000000000000081525081525081526020016040518060a001604052806040518060400160405280600781526020017f233733323933370000000000000000000000000000000000000000000000000081525081526020016040518060400160405280600781526020017f234632453243450000000000000000000000000000000000000000000000000081525081526020016040518060400160405280600781526020017f233944334536300000000000000000000000000000000000000000000000000081525081526020016040518060400160405280600781526020017f234243363836380000000000000000000000000000000000000000000000000081525081526020016040518060400160405280600781526020017f2342463944384100000000000000000000000000000000000000000000000000815250815250815250600790604062004d6592919062004f09565b506040518061010001604052806040518060600160405280603981526020016200aa276039913981526020016040518060600160405280602681526020016200aa8a6026913981526020016040518060400160405280602081526020017f52656d656d6265722074686174206375726174696f6e206973207269736b792e81525081526020016040518060600160405280602181526020016200aab06021913981526020016040518060600160405280603781526020016200aad16037913981526020016040518060600160405280602a81526020016200aa60602a913981526020016040518060600160405280602481526020016200aa036024913981526020016040518060600160405280602a81526020016200aa60602a913981525061014790600862004e9792919062004f61565b5034801562004ea557600080fd5b506040516200ab083803806200ab08833981810160405281019062004ecb9190620051e2565b8181816000908051906020019062004ee592919062004fbb565b50806001908051906020019062004efe92919062004fbb565b5050505050620053c5565b826040600502810192821562004f4e579160200282015b8281111562004f4d5782518290600562004f3c9291906200504c565b509160200191906005019062004f20565b5b50905062004f5d9190620050a6565b5090565b826008810192821562004fa8579160200282015b8281111562004fa757825182908051906020019062004f9692919062004fbb565b509160200191906001019062004f75565b5b50905062004fb79190620050ce565b5090565b82805462004fc990620052ea565b90600052602060002090601f01602090048101928262004fed576000855562005039565b82601f106200500857805160ff191683800117855562005039565b8280016001018555821562005039579182015b82811115620050385782518255916020019190600101906200501b565b5b509050620050489190620050f6565b5090565b826005810192821562005093579160200282015b82811115620050925782518290805190602001906200508192919062004fbb565b509160200191906001019062005060565b5b509050620050a29190620050ce565b5090565b5b80821115620050ca5760008181620050c0919062005115565b50600501620050a7565b5090565b5b80821115620050f25760008181620050e891906200512a565b50600101620050cf565b5090565b5b8082111562005111576000816000905550600101620050f7565b5090565b508060050190620051279190620050ce565b50565b5080546200513890620052ea565b6000825580601f106200514c57506200516d565b601f0160209004906000526020600020908101906200516c9190620050f6565b5b50565b60006200518762005181846200527e565b62005255565b905082815260208101848484011115620051a057600080fd5b620051ad848285620052b4565b509392505050565b600082601f830112620051c757600080fd5b8151620051d984826020860162005170565b91505092915050565b60008060408385031215620051f657600080fd5b600083015167ffffffffffffffff8111156200521157600080fd5b6200521f85828601620051b5565b925050602083015167ffffffffffffffff8111156200523d57600080fd5b6200524b85828601620051b5565b9150509250929050565b60006200526162005274565b90506200526f828262005320565b919050565b6000604051905090565b600067ffffffffffffffff8211156200529c576200529b62005385565b5b620052a782620053b4565b9050602081019050919050565b60005b83811015620052d4578082015181840152602081019050620052b7565b83811115620052e4576000848401525b50505050565b600060028204905060018216806200530357607f821691505b602082108114156200531a576200531962005356565b5b50919050565b6200532b82620053b4565b810181811067ffffffffffffffff821117156200534d576200534c62005385565b5b80604052505050565b7f4e487b7100000000000000000000000000000000000000000000000000000000600052602260045260246000fd5b7f4e487b7100000000000000000000000000000000000000000000000000000000600052604160045260246000fd5b6000601f19601f8301169050919050565b61562e80620053d56000396000f3fe608060405234801561001057600080fd5b50600436106101165760003560e01c80636fa700bf116100a2578063b88d4fde11610071578063b88d4fde14610306578063c75440e114610322578063c87b56dd14610352578063e985e9c514610382578063f434e8e0146103b257610116565b80636fa700bf1461026b57806370a082311461029c57806395d89b41146102cc578063a22cb465146102ea57610116565b80631249c58b116100e95780631249c58b146101b557806323b872dd146101d357806342842e0e146101ef5780635e57966d1461020b5780636352211e1461023b57610116565b806301ffc9a71461011b57806306fdde031461014b578063081812fc14610169578063095ea7b314610199575b600080fd5b610135600480360381019061013091906128f0565b6103e2565b6040516101429190613408565b60405180910390f35b6101536104c4565b6040516101609190613423565b60405180910390f35b610183600480360381019061017e9190612942565b610556565b6040516101909190613378565b60405180910390f35b6101b360048036038101906101ae91906128b4565b6105db565b005b6101bd6106f3565b6040516101ca91906135e5565b60405180910390f35b6101ed60048036038101906101e891906127ae565b6107d0565b005b610209600480360381019061020491906127ae565b610830565b005b61022560048036038101906102209190612749565b610850565b6040516102329190613423565b60405180910390f35b61025560048036038101906102509190612942565b610cb1565b6040516102629190613378565b60405180910390f35b61028560048036038101906102809190612942565b610d63565b6040516102939291906133df565b60405180910390f35b6102b660048036038101906102b19190612749565b610da8565b6040516102c391906135e5565b60405180910390f35b6102d4610e60565b6040516102e19190613423565b60405180910390f35b61030460048036038101906102ff9190612878565b610ef2565b005b610320600480360381019061031b91906127fd565b611073565b005b61033c60048036038101906103379190612942565b6110d5565b6040516103499190613423565b60405180910390f35b61036c60048036038101906103679190612942565b611528565b6040516103799190613423565b60405180910390f35b61039c60048036038101906103979190612772565b6115ec565b6040516103a99190613408565b60405180910390f35b6103cc60048036038101906103c7919061296b565b611680565b6040516103d99190613423565b60405180910390f35b60007f80ac58cd000000000000000000000000000000000000000000000000000000007bffffffffffffffffffffffffffffffffffffffffffffffffffffffff1916827bffffffffffffffffffffffffffffffffffffffffffffffffffffffff191614806104ad57507f5b5e139f000000000000000000000000000000000000000000000000000000007bffffffffffffffffffffffffffffffffffffffffffffffffffffffff1916827bffffffffffffffffffffffffffffffffffffffffffffffffffffffff1916145b806104bd57506104bc82611a31565b5b9050919050565b6060600080546104d390613871565b80601f01602080910402602001604051908101604052809291908181526020018280546104ff90613871565b801561054c5780601f106105215761010080835404028352916020019161054c565b820191906000526020600020905b81548152906001019060200180831161052f57829003601f168201915b5050505050905090565b600061056182611a9b565b6105a0576040517f08c379a000000000000000000000000000000000000000000000000000000000815260040161059790613565565b60405180910390fd5b6004600083815260200190815260200160002060009054906101000a900473ffffffffffffffffffffffffffffffffffffffff169050919050565b60006105e682610cb1565b90508073ffffffffffffffffffffffffffffffffffffffff168373ffffffffffffffffffffffffffffffffffffffff161415610657576040517f08c379a000000000000000000000000000000000000000000000000000000000815260040161064e906135a5565b60405180910390fd5b8073ffffffffffffffffffffffffffffffffffffffff16610676611b07565b73ffffffffffffffffffffffffffffffffffffffff1614806106a557506106a48161069f611b07565b6115ec565b5b6106e4576040517f08c379a00000000000000000000000000000000000000000000000000000000081526004016106db906134e5565b60405180910390fd5b6106ee8383611b0f565b505050565b6000600654905060016006546107099190613699565b600681905550610717612633565b33816000019073ffffffffffffffffffffffffffffffffffffffff16908173ffffffffffffffffffffffffffffffffffffffff1681525050428160200181815250508061014f600084815260200190815260200160002060008201518160000160006101000a81548173ffffffffffffffffffffffffffffffffffffffff021916908373ffffffffffffffffffffffffffffffffffffffff160217905550602082015181600101559050506107cc3383611bc8565b5090565b6107e16107db611b07565b82611d96565b610820576040517f08c379a0000000000000000000000000000000000000000000000000000000008152600401610817906135c5565b60405180910390fd5b61082b838383611e74565b505050565b61084b83838360405180602001604052806000815250611073565b505050565b606060008273ffffffffffffffffffffffffffffffffffffffff1660001b905060006040518060400160405280601081526020017f303132333435363738396162636465660000000000000000000000000000000081525090506000603367ffffffffffffffff8111156108ed577f4e487b7100000000000000000000000000000000000000000000000000000000600052604160045260246000fd5b6040519080825280601f01601f19166020018201604052801561091f5781602001600182028036833780820191505090505b5090507f30000000000000000000000000000000000000000000000000000000000000008160008151811061097d577f4e487b7100000000000000000000000000000000000000000000000000000000600052603260045260246000fd5b60200101907effffffffffffffffffffffffffffffffffffffffffffffffffffffffffffff1916908160001a9053507f780000000000000000000000000000000000000000000000000000000000000081600181518110610a07577f4e487b7100000000000000000000000000000000000000000000000000000000600052603260045260246000fd5b60200101907effffffffffffffffffffffffffffffffffffffffffffffffffffffffffffff1916908160001a90535060005b6014811015610ca55782600485600c84610a539190613699565b60208110610a8a577f4e487b7100000000000000000000000000000000000000000000000000000000600052603260045260246000fd5b1a60f81b7effffffffffffffffffffffffffffffffffffffffffffffffffffffffffffff1916901c60f81c60ff1681518110610aef577f4e487b7100000000000000000000000000000000000000000000000000000000600052603260045260246000fd5b602001015160f81c60f81b82600283610b089190613720565b6002610b149190613699565b81518110610b4b577f4e487b7100000000000000000000000000000000000000000000000000000000600052603260045260246000fd5b60200101907effffffffffffffffffffffffffffffffffffffffffffffffffffffffffffff1916908160001a90535082600f60f81b85600c84610b8e9190613699565b60208110610bc5577f4e487b7100000000000000000000000000000000000000000000000000000000600052603260045260246000fd5b1a60f81b1660f81c60ff1681518110610c07577f4e487b7100000000000000000000000000000000000000000000000000000000600052603260045260246000fd5b602001015160f81c60f81b82600283610c209190613720565b6003610c2c9190613699565b81518110610c63577f4e487b7100000000000000000000000000000000000000000000000000000000600052603260045260246000fd5b60200101907effffffffffffffffffffffffffffffffffffffffffffffffffffffffffffff1916908160001a9053508080610c9d906138d4565b915050610a39565b50809350505050919050565b6000806002600084815260200190815260200160002060009054906101000a900473ffffffffffffffffffffffffffffffffffffffff169050600073ffffffffffffffffffffffffffffffffffffffff168173ffffffffffffffffffffffffffffffffffffffff161415610d5a576040517f08c379a0000000000000000000000000000000000000000000000000000000008152600401610d5190613525565b60405180910390fd5b80915050919050565b61014f6020528060005260406000206000915090508060000160009054906101000a900473ffffffffffffffffffffffffffffffffffffffff16908060010154905082565b60008073ffffffffffffffffffffffffffffffffffffffff168273ffffffffffffffffffffffffffffffffffffffff161415610e19576040517f08c379a0000000000000000000000000000000000000000000000000000000008152600401610e1090613505565b60405180910390fd5b600360008373ffffffffffffffffffffffffffffffffffffffff1673ffffffffffffffffffffffffffffffffffffffff168152602001908152602001600020549050919050565b606060018054610e6f90613871565b80601f0160208091040260200160405190810160405280929190818152602001828054610e9b90613871565b8015610ee85780601f10610ebd57610100808354040283529160200191610ee8565b820191906000526020600020905b815481529060010190602001808311610ecb57829003601f168201915b5050505050905090565b610efa611b07565b73ffffffffffffffffffffffffffffffffffffffff168273ffffffffffffffffffffffffffffffffffffffff161415610f68576040517f08c379a0000000000000000000000000000000000000000000000000000000008152600401610f5f906134a5565b60405180910390fd5b8060056000610f75611b07565b73ffffffffffffffffffffffffffffffffffffffff1673ffffffffffffffffffffffffffffffffffffffff16815260200190815260200160002060008473ffffffffffffffffffffffffffffffffffffffff1673ffffffffffffffffffffffffffffffffffffffff16815260200190815260200160002060006101000a81548160ff0219169083151502179055508173ffffffffffffffffffffffffffffffffffffffff16611022611b07565b73ffffffffffffffffffffffffffffffffffffffff167f17307eab39ab6107e8899845ad3d59bd9653f200f220920489ca2b5937696c31836040516110679190613408565b60405180910390a35050565b61108461107e611b07565b83611d96565b6110c3576040517f08c379a00000000000000000000000000000000000000000000000000000000081526004016110ba906135c5565b60405180910390fd5b6110cf848484846120d0565b50505050565b6060600061111961014f600085815260200190815260200160002060000160009054906101000a900473ffffffffffffffffffffffffffffffffffffffff16610850565b905060006111268461212c565b905060006040518060400160405280600481526020017f3235303100000000000000000000000000000000000000000000000000000000815250905060006040518060400160405280600281526020017f3231000000000000000000000000000000000000000000000000000000000000815250905060006040518060400160405280600a81526020017f323032302e31312e31310000000000000000000000000000000000000000000081525090506000603f881690506000600761014f60008b81526020019081526020016000206001015416905060006101478260ff166008811061123d577f4e487b7100000000000000000000000000000000000000000000000000000000600052603260045260246000fd5b01805461124990613871565b80601f016020809104026020016040519081016040528092919081815260200182805461127590613871565b80156112c25780601f10611297576101008083540402835291602001916112c2565b820191906000526020600020905b8154815290600101906020018083116112a557829003601f168201915b50505050509050600060078460ff1660408110611308577f4e487b7100000000000000000000000000000000000000000000000000000000600052603260045260246000fd5b60050201600060058110611345577f4e487b7100000000000000000000000000000000000000000000000000000000600052603260045260246000fd5b01805461135190613871565b80601f016020809104026020016040519081016040528092919081815260200182805461137d90613871565b80156113ca5780601f1061139f576101008083540402835291602001916113ca565b820191906000526020600020905b8154815290600101906020018083116113ad57829003601f168201915b50505050509050600060078560ff1660408110611410577f4e487b7100000000000000000000000000000000000000000000000000000000600052603260045260246000fd5b6005020160016005811061144d577f4e487b7100000000000000000000000000000000000000000000000000000000600052603260045260246000fd5b01805461145990613871565b80601f016020809104026020016040519081016040528092919081815260200182805461148590613871565b80156114d25780601f106114a7576101008083540402835291602001916114d2565b820191906000526020600020905b8154815290600101906020018083116114b557829003601f168201915b5050505050905060006114e486611680565b905082828c8c8c8c8c8a88604051602001611507999897969594939291906130d2565b6040516020818303038152906040529b505050505050505050505050919050565b606060006040518060400160405280601e81526020017f5468652047726170682043757261746f72204d6574616669636174696f6e00008152509050600060405180610120016040528060fb815260200161506460fb913990506000611595611590866110d5565b6122d9565b90506115c38383836040516020016115af9392919061306a565b6040516020818303038152906040526122d9565b6040516020016115d3919061327a565b6040516020818303038152906040529350505050919050565b6000600560008473ffffffffffffffffffffffffffffffffffffffff1673ffffffffffffffffffffffffffffffffffffffff16815260200190815260200160002060008373ffffffffffffffffffffffffffffffffffffffff1673ffffffffffffffffffffffffffffffffffffffff16815260200190815260200160002060009054906101000a900460ff16905092915050565b6060600060078360ff16604081106116c1577f4e487b7100000000000000000000000000000000000000000000000000000000600052603260045260246000fd5b600502016002600581106116fe577f4e487b7100000000000000000000000000000000000000000000000000000000600052603260045260246000fd5b01805461170a90613871565b80601f016020809104026020016040519081016040528092919081815260200182805461173690613871565b80156117835780601f1061175857610100808354040283529160200191611783565b820191906000526020600020905b81548152906001019060200180831161176657829003601f168201915b50505050509050600060078460ff16604081106117c9577f4e487b7100000000000000000000000000000000000000000000000000000000600052603260045260246000fd5b60050201600360058110611806577f4e487b7100000000000000000000000000000000000000000000000000000000600052603260045260246000fd5b01805461181290613871565b80601f016020809104026020016040519081016040528092919081815260200182805461183e90613871565b801561188b5780601f106118605761010080835404028352916020019161188b565b820191906000526020600020905b81548152906001019060200180831161186e57829003601f168201915b50505050509050600060078560ff16604081106118d1577f4e487b7100000000000000000000000000000000000000000000000000000000600052603260045260246000fd5b6005020160046005811061190e577f4e487b7100000000000000000000000000000000000000000000000000000000600052603260045260246000fd5b01805461191a90613871565b80601f016020809104026020016040519081016040528092919081815260200182805461194690613871565b80156119935780601f1061196857610100808354040283529160200191611993565b820191906000526020600020905b81548152906001019060200180831161197657829003601f168201915b505050505090506000604051806104c0016040528061049a815260200161515f61049a913990506000604051806105a001604052806105678152602001614850610567913990506000604051806102a0016040528061026d8152602001614df761026d91399050858386848785604051602001611a159695949392919061329c565b6040516020818303038152906040529650505050505050919050565b60007f01ffc9a7000000000000000000000000000000000000000000000000000000007bffffffffffffffffffffffffffffffffffffffffffffffffffffffff1916827bffffffffffffffffffffffffffffffffffffffffffffffffffffffff1916149050919050565b60008073ffffffffffffffffffffffffffffffffffffffff166002600084815260200190815260200160002060009054906101000a900473ffffffffffffffffffffffffffffffffffffffff1673ffffffffffffffffffffffffffffffffffffffff1614159050919050565b600033905090565b816004600083815260200190815260200160002060006101000a81548173ffffffffffffffffffffffffffffffffffffffff021916908373ffffffffffffffffffffffffffffffffffffffff160217905550808273ffffffffffffffffffffffffffffffffffffffff16611b8283610cb1565b73ffffffffffffffffffffffffffffffffffffffff167f8c5be1e5ebec7d5bd14f71427d1e84f3dd0314c0f7b2291e5b200ac8c7c3b92560405160405180910390a45050565b600073ffffffffffffffffffffffffffffffffffffffff168273ffffffffffffffffffffffffffffffffffffffff161415611c38576040517f08c379a0000000000000000000000000000000000000000000000000000000008152600401611c2f90613545565b60405180910390fd5b611c4181611a9b565b15611c81576040517f08c379a0000000000000000000000000000000000000000000000000000000008152600401611c7890613465565b60405180910390fd5b611c8d60008383612484565b6001600360008473ffffffffffffffffffffffffffffffffffffffff1673ffffffffffffffffffffffffffffffffffffffff1681526020019081526020016000206000828254611cdd9190613699565b92505081905550816002600083815260200190815260200160002060006101000a81548173ffffffffffffffffffffffffffffffffffffffff021916908373ffffffffffffffffffffffffffffffffffffffff160217905550808273ffffffffffffffffffffffffffffffffffffffff16600073ffffffffffffffffffffffffffffffffffffffff167fddf252ad1be2c89b69c2b068fc378daa952ba7f163c4a11628f55a4df523b3ef60405160405180910390a45050565b6000611da182611a9b565b611de0576040517f08c379a0000000000000000000000000000000000000000000000000000000008152600401611dd7906134c5565b60405180910390fd5b6000611deb83610cb1565b90508073ffffffffffffffffffffffffffffffffffffffff168473ffffffffffffffffffffffffffffffffffffffff161480611e5a57508373ffffffffffffffffffffffffffffffffffffffff16611e4284610556565b73ffffffffffffffffffffffffffffffffffffffff16145b80611e6b5750611e6a81856115ec565b5b91505092915050565b8273ffffffffffffffffffffffffffffffffffffffff16611e9482610cb1565b73ffffffffffffffffffffffffffffffffffffffff1614611eea576040517f08c379a0000000000000000000000000000000000000000000000000000000008152600401611ee190613585565b60405180910390fd5b600073ffffffffffffffffffffffffffffffffffffffff168273ffffffffffffffffffffffffffffffffffffffff161415611f5a576040517f08c379a0000000000000000000000000000000000000000000000000000000008152600401611f5190613485565b60405180910390fd5b611f65838383612484565b611f70600082611b0f565b6001600360008573ffffffffffffffffffffffffffffffffffffffff1673ffffffffffffffffffffffffffffffffffffffff1681526020019081526020016000206000828254611fc0919061377a565b925050819055506001600360008473ffffffffffffffffffffffffffffffffffffffff1673ffffffffffffffffffffffffffffffffffffffff16815260200190815260200160002060008282546120179190613699565b92505081905550816002600083815260200190815260200160002060006101000a81548173ffffffffffffffffffffffffffffffffffffffff021916908373ffffffffffffffffffffffffffffffffffffffff160217905550808273ffffffffffffffffffffffffffffffffffffffff168473ffffffffffffffffffffffffffffffffffffffff167fddf252ad1be2c89b69c2b068fc378daa952ba7f163c4a11628f55a4df523b3ef60405160405180910390a4505050565b6120db848484611e74565b6120e784848484612489565b612126576040517f08c379a000000000000000000000000000000000000000000000000000000000815260040161211d90613445565b60405180910390fd5b50505050565b60606000821415612174576040518060400160405280600181526020017f300000000000000000000000000000000000000000000000000000000000000081525090506122d4565b600082905060005b600082146121a657808061218f906138d4565b915050600a8261219f91906136ef565b915061217c565b60008167ffffffffffffffff8111156121e8577f4e487b7100000000000000000000000000000000000000000000000000000000600052604160045260246000fd5b6040519080825280601f01601f19166020018201604052801561221a5781602001600182028036833780820191505090505b5090505b600085146122cd57600182612233919061377a565b9150600a85612242919061391d565b603061224e9190613699565b60f81b81838151811061228a577f4e487b7100000000000000000000000000000000000000000000000000000000600052603260045260246000fd5b60200101907effffffffffffffffffffffffffffffffffffffffffffffffffffffffffffff1916908160001a905350600a856122c691906136ef565b945061221e565b8093505050505b919050565b60606000825114156122fc5760405180602001604052806000815250905061247f565b6000604051806060016040528060408152602001614db7604091399050600060036002855161232b9190613699565b61233591906136ef565b60046123419190613720565b905060006020826123529190613699565b67ffffffffffffffff811115612391577f4e487b7100000000000000000000000000000000000000000000000000000000600052604160045260246000fd5b6040519080825280601f01601f1916602001820160405280156123c35781602001600182028036833780820191505090505b509050818152600183018586518101602084015b8183101561243e576003830192508251603f8160121c1685015160f81b8252600182019150603f81600c1c1685015160f81b8252600182019150603f8160061c1685015160f81b8252600182019150603f811685015160f81b8252600182019150506123d7565b600389510660018114612458576002811461246857612473565b613d3d60f01b6002830352612473565b603d60f81b60018303525b50505050508093505050505b919050565b505050565b60006124aa8473ffffffffffffffffffffffffffffffffffffffff16612620565b15612613578373ffffffffffffffffffffffffffffffffffffffff1663150b7a026124d3611b07565b8786866040518563ffffffff1660e01b81526004016124f59493929190613393565b602060405180830381600087803b15801561250f57600080fd5b505af192505050801561254057506040513d601f19601f8201168201806040525081019061253d9190612919565b60015b6125c3573d8060008114612570576040519150601f19603f3d011682016040523d82523d6000602084013e612575565b606091505b506000815114156125bb576040517f08c379a00000000000000000000000000000000000000000000000000000000081526004016125b290613445565b60405180910390fd5b805181602001fd5b63150b7a0260e01b7bffffffffffffffffffffffffffffffffffffffffffffffffffffffff1916817bffffffffffffffffffffffffffffffffffffffffffffffffffffffff191614915050612618565b600190505b949350505050565b600080823b905060008111915050919050565b6040518060400160405280600073ffffffffffffffffffffffffffffffffffffffff168152602001600081525090565b600061267661267184613625565b613600565b90508281526020810184848401111561268e57600080fd5b61269984828561382f565b509392505050565b6000813590506126b0816147dc565b92915050565b6000813590506126c5816147f3565b92915050565b6000813590506126da8161480a565b92915050565b6000815190506126ef8161480a565b92915050565b600082601f83011261270657600080fd5b8135612716848260208601612663565b91505092915050565b60008135905061272e81614821565b92915050565b60008135905061274381614838565b92915050565b60006020828403121561275b57600080fd5b6000612769848285016126a1565b91505092915050565b6000806040838503121561278557600080fd5b6000612793858286016126a1565b92505060206127a4858286016126a1565b9150509250929050565b6000806000606084860312156127c357600080fd5b60006127d1868287016126a1565b93505060206127e2868287016126a1565b92505060406127f38682870161271f565b9150509250925092565b6000806000806080858703121561281357600080fd5b6000612821878288016126a1565b9450506020612832878288016126a1565b93505060406128438782880161271f565b925050606085013567ffffffffffffffff81111561286057600080fd5b61286c878288016126f5565b91505092959194509250565b6000806040838503121561288b57600080fd5b6000612899858286016126a1565b92505060206128aa858286016126b6565b9150509250929050565b600080604083850312156128c757600080fd5b60006128d5858286016126a1565b92505060206128e68582860161271f565b9150509250929050565b60006020828403121561290257600080fd5b6000612910848285016126cb565b91505092915050565b60006020828403121561292b57600080fd5b6000612939848285016126e0565b91505092915050565b60006020828403121561295457600080fd5b60006129628482850161271f565b91505092915050565b60006020828403121561297d57600080fd5b600061298b84828501612734565b91505092915050565b61299d816137ae565b82525050565b6129ac816137c0565b82525050565b60006129bd82613656565b6129c7818561366c565b93506129d781856020860161383e565b6129e081613a0a565b840191505092915050565b60006129f682613661565b612a00818561367d565b9350612a1081856020860161383e565b612a1981613a0a565b840191505092915050565b6000612a2f82613661565b612a39818561368e565b9350612a4981856020860161383e565b80840191505092915050565b6000612a6260398361368e565b9150612a6d82613a1b565b603982019050919050565b6000612a8560098361368e565b9150612a9082613a6a565b600982019050919050565b6000612aa8601c8361368e565b9150612ab382613a93565b601c82019050919050565b6000612acb60328361367d565b9150612ad682613abc565b604082019050919050565b6000612aef6101e08361368e565b9150612afa82613b0b565b6101e082019050919050565b6000612b1360238361368e565b9150612b1e82613d4f565b602382019050919050565b6000612b36601c8361367d565b9150612b4182613d9e565b602082019050919050565b6000612b5960228361368e565b9150612b6482613dc7565b602282019050919050565b6000612b7c60438361368e565b9150612b8782613e16565b604382019050919050565b6000612b9f60248361367d565b9150612baa82613e8b565b604082019050919050565b6000612bc260198361367d565b9150612bcd82613eda565b602082019050919050565b6000612be560288361368e565b9150612bf082613f03565b602882019050919050565b6000612c08602c8361367d565b9150612c1382613f52565b604082019050919050565b6000612c2b603a8361368e565b9150612c3682613fa1565b603a82019050919050565b6000612c4e60388361367d565b9150612c5982613ff0565b604082019050919050565b6000612c7160048361368e565b9150612c7c8261403f565b600482019050919050565b6000612c94602a8361367d565b9150612c9f82614068565b604082019050919050565b6000612cb760298361367d565b9150612cc2826140b7565b604082019050919050565b6000612cda602b8361368e565b9150612ce582614106565b602b82019050919050565b6000612cfd60028361368e565b9150612d0882614155565b600282019050919050565b6000612d2060078361368e565b9150612d2b8261417e565b600782019050919050565b6000612d4360208361367d565b9150612d4e826141a7565b602082019050919050565b6000612d66600d8361368e565b9150612d71826141d0565b600d82019050919050565b6000612d8960228361368e565b9150612d94826141f9565b602282019050919050565b6000612dac602c8361367d565b9150612db782614248565b604082019050919050565b6000612dcf60128361368e565b9150612dda82614297565b601282019050919050565b6000612df260308361368e565b9150612dfd826142c0565b603082019050919050565b6000612e1560558361368e565b9150612e208261430f565b605582019050919050565b6000612e3860298361367d565b9150612e4382614384565b604082019050919050565b6000612e5b60048361368e565b9150612e66826143d3565b600482019050919050565b6000612e7e60448361368e565b9150612e89826143fc565b604482019050919050565b6000612ea1602d8361368e565b9150612eac82614471565b602d82019050919050565b6000612ec460218361367d565b9150612ecf826144c0565b604082019050919050565b6000612ee7601d8361368e565b9150612ef28261450f565b601d82019050919050565b6000612f0a600c8361368e565b9150612f1582614538565b600c82019050919050565b6000612f2d60318361367d565b9150612f3882614561565b604082019050919050565b6000612f5060218361368e565b9150612f5b826145b0565b602182019050919050565b6000612f7360308361368e565b9150612f7e826145ff565b603082019050919050565b6000612f96602b8361368e565b9150612fa18261464e565b602b82019050919050565b6000612fb960228361368e565b9150612fc48261469d565b602282019050919050565b6000612fdc60218361368e565b9150612fe7826146ec565b602182019050919050565b6000612fff60068361368e565b915061300a8261473b565b600682019050919050565b6000613022603b8361368e565b915061302d82614764565b603b82019050919050565b6000613045601a8361368e565b9150613050826147b3565b601a82019050919050565b61306481613818565b82525050565b600061307582612a78565b91506130818286612a24565b915061308c82612dc2565b91506130988285612a24565b91506130a382612d59565b91506130ae82613038565b91506130ba8284612a24565b91506130c582612cf0565b9150819050949350505050565b60006130dd82612e08565b91506130e882612e94565b91506130f4828c612a24565b91506130ff82612c64565b915061310a82612b6f565b915061311582612efd565b9150613121828b612a24565b915061312c82612a9b565b915061313782612b06565b9150613143828a612a24565b915061314e82612d13565b915061315982613015565b915061316482612bd8565b91506131708289612a24565b915061317b82612d13565b915061318682612a55565b91506131928288612a24565b915061319d82612d13565b91506131a882612ccd565b91506131b48287612a24565b91506131bf82612d13565b91506131ca82612f66565b91506131d68286612a24565b91506131e182612d13565b91506131ec82612e71565b91506131f782612c1e565b91506132038285612a24565b915061320e82612d13565b915061321982612f43565b915061322482612de5565b915061322f82612d7c565b915061323a82612ae1565b915061324582612e4e565b915061325082612e4e565b915061325c8284612a24565b915061326782612ff2565b91508190509a9950505050505050505050565b600061328582612eda565b91506132918284612a24565b915081905092915050565b60006132a782612fcf565b91506132b282612f89565b91506132be8289612a24565b91506132c982612c64565b91506132d58288612a24565b91506132e082612e4e565b91506132eb82612fac565b91506132f682612f89565b91506133028287612a24565b915061330d82612c64565b91506133198286612a24565b915061332482612e4e565b915061332f82612b4c565b915061333a82612f89565b91506133468285612a24565b915061335182612c64565b915061335d8284612a24565b915061336882612e4e565b9150819050979650505050505050565b600060208201905061338d6000830184612994565b92915050565b60006080820190506133a86000830187612994565b6133b56020830186612994565b6133c2604083018561305b565b81810360608301526133d481846129b2565b905095945050505050565b60006040820190506133f46000830185612994565b613401602083018461305b565b9392505050565b600060208201905061341d60008301846129a3565b92915050565b6000602082019050818103600083015261343d81846129eb565b905092915050565b6000602082019050818103600083015261345e81612abe565b9050919050565b6000602082019050818103600083015261347e81612b29565b9050919050565b6000602082019050818103600083015261349e81612b92565b9050919050565b600060208201905081810360008301526134be81612bb5565b9050919050565b600060208201905081810360008301526134de81612bfb565b9050919050565b600060208201905081810360008301526134fe81612c41565b9050919050565b6000602082019050818103600083015261351e81612c87565b9050919050565b6000602082019050818103600083015261353e81612caa565b9050919050565b6000602082019050818103600083015261355e81612d36565b9050919050565b6000602082019050818103600083015261357e81612d9f565b9050919050565b6000602082019050818103600083015261359e81612e2b565b9050919050565b600060208201905081810360008301526135be81612eb7565b9050919050565b600060208201905081810360008301526135de81612f20565b9050919050565b60006020820190506135fa600083018461305b565b92915050565b600061360a61361b565b905061361682826138a3565b919050565b6000604051905090565b600067ffffffffffffffff8211156136405761363f6139db565b5b61364982613a0a565b9050602081019050919050565b600081519050919050565b600081519050919050565b600082825260208201905092915050565b600082825260208201905092915050565b600081905092915050565b60006136a482613818565b91506136af83613818565b9250827fffffffffffffffffffffffffffffffffffffffffffffffffffffffffffffffff038211156136e4576136e361394e565b5b828201905092915050565b60006136fa82613818565b915061370583613818565b9250826137155761371461397d565b5b828204905092915050565b600061372b82613818565b915061373683613818565b9250817fffffffffffffffffffffffffffffffffffffffffffffffffffffffffffffffff048311821515161561376f5761376e61394e565b5b828202905092915050565b600061378582613818565b915061379083613818565b9250828210156137a3576137a261394e565b5b828203905092915050565b60006137b9826137f8565b9050919050565b60008115159050919050565b60007fffffffff0000000000000000000000000000000000000000000000000000000082169050919050565b600073ffffffffffffffffffffffffffffffffffffffff82169050919050565b6000819050919050565b600060ff82169050919050565b82818337600083830152505050565b60005b8381101561385c578082015181840152602081019050613841565b8381111561386b576000848401525b50505050565b6000600282049050600182168061388957607f821691505b6020821081141561389d5761389c6139ac565b5b50919050565b6138ac82613a0a565b810181811067ffffffffffffffff821117156138cb576138ca6139db565b5b80604052505050565b60006138df82613818565b91507fffffffffffffffffffffffffffffffffffffffffffffffffffffffffffffffff8214156139125761391161394e565b5b600182019050919050565b600061392882613818565b915061393383613818565b9250826139435761394261397d565b5b828206905092915050565b7f4e487b7100000000000000000000000000000000000000000000000000000000600052601160045260246000fd5b7f4e487b7100000000000000000000000000000000000000000000000000000000600052601260045260246000fd5b7f4e487b7100000000000000000000000000000000000000000000000000000000600052602260045260246000fd5b7f4e487b7100000000000000000000000000000000000000000000000000000000600052604160045260246000fd5b6000601f19601f8301169050919050565b7f3c7465787420783d223330352220793d223134362220666f6e742d73697a653d60008201527f2232392220746578742d616e63686f723d22656e64223e312f00000000000000602082015250565b7f7b226e616d65223a220000000000000000000000000000000000000000000000600082015250565b7f2220643d224d33302033313068343630763131304833307a22202f3e00000000600082015250565b7f4552433732313a207472616e7366657220746f206e6f6e20455243373231526560008201527f63656976657220696d706c656d656e7465720000000000000000000000000000602082015250565b7f3c706174682066696c6c2d72756c653d226576656e6f64642220636c69702d7260008201527f756c653d226576656e6f6464222066696c6c3d22236666662220643d224d313360208201527f352e33203130362e32632d372e3120302d31322e382d352e372d31322e382d3160408201527f322e3820302d372e3120352e372d31322e382031322e382d31322e3820372e3160608201527f20302031322e3820352e372031322e382031322e38203020372e312d352e372060808201527f31322e382d31322e382031322e386d302d33326331302e3620302031392e322060a08201527f382e362031392e322031392e32732d382e362031392e322d31392e322031392e60c08201527f322d31392e322d382e362d31392e322d31392e3220382e362d31392e3220313960e08201527f2e322d31392e327a6d31382e332033392e3463312e3320312e3320312e3320336101008201527f2e33203020342e356c2d31322e382031322e38632d312e3320312e332d332e336101208201527f20312e332d342e3520302d312e332d312e332d312e332d332e3320302d342e356101408201527f6c31322e382d31322e3863312e322d312e3320332e332d312e3320342e3520306101608201527f7a6d372e342d33362e32633020312e382d312e3420332e322d332e3220332e326101808201527f2d312e3820302d332e322d312e342d332e322d332e3273312e342d332e3220336101a08201527f2e322d332e3263312e37203020332e3220312e3420332e3220332e327a222f3e6101c082015250565b7f3c7465787420783d2233302220793d2232382220666f6e742d73697a653d223160008201527f37223e0000000000000000000000000000000000000000000000000000000000602082015250565b7f4552433732313a20746f6b656e20616c7265616479206d696e74656400000000600082015250565b7f3c67207472616e73666f726d3d227472616e736c617465283335332c3434382960008201527f223e000000000000000000000000000000000000000000000000000000000000602082015250565b7f3c7265637420783d2233302220793d223430222077696474683d22343630222060008201527f6865696768743d22353230222072783d223236222066696c6c3d22236666662260208201527f202f3e0000000000000000000000000000000000000000000000000000000000604082015250565b7f4552433732313a207472616e7366657220746f20746865207a65726f2061646460008201527f7265737300000000000000000000000000000000000000000000000000000000602082015250565b7f4552433732313a20617070726f766520746f2063616c6c657200000000000000600082015250565b7f3c7465787420783d2234322220793d223134362220666f6e742d73697a653d2260008201527f3239223e49443a20000000000000000000000000000000000000000000000000602082015250565b7f4552433732313a206f70657261746f7220717565727920666f72206e6f6e657860008201527f697374656e7420746f6b656e0000000000000000000000000000000000000000602082015250565b7f3c7465787420746578742d616e63686f723d226d6964646c652220783d22323560008201527f302220793d223336392220666f6e742d73697a653d223135223e000000000000602082015250565b7f4552433732313a20617070726f76652063616c6c6572206973206e6f74206f7760008201527f6e6572206e6f7220617070726f76656420666f7220616c6c0000000000000000602082015250565b7f22202f3e00000000000000000000000000000000000000000000000000000000600082015250565b7f4552433732313a2062616c616e636520717565727920666f7220746865207a6560008201527f726f206164647265737300000000000000000000000000000000000000000000602082015250565b7f4552433732313a206f776e657220717565727920666f72206e6f6e657869737460008201527f656e7420746f6b656e0000000000000000000000000000000000000000000000602082015250565b7f3c7465787420783d2234322220793d223139322220666f6e742d73697a653d2260008201527f3239223e54494d45533a20000000000000000000000000000000000000000000602082015250565b7f227d000000000000000000000000000000000000000000000000000000000000600082015250565b7f3c2f746578743e00000000000000000000000000000000000000000000000000600082015250565b7f4552433732313a206d696e7420746f20746865207a65726f2061646472657373600082015250565b7f222c2022696d616765223a202200000000000000000000000000000000000000600082015250565b7f3c67207472616e73666f726d3d227472616e736c617465282d3838202d35322960008201527f223e000000000000000000000000000000000000000000000000000000000000602082015250565b7f4552433732313a20617070726f76656420717565727920666f72206e6f6e657860008201527f697374656e7420746f6b656e0000000000000000000000000000000000000000602082015250565b7f222c20226465736372697074696f6e223a220000000000000000000000000000600082015250565b7f3c636972636c652063783d223438222063793d2234382220723d22343822206660008201527f696c6c3d222336373437656422202f3e00000000000000000000000000000000602082015250565b7f3c73766720786d6c6e733d22687474703a2f2f7777772e77332e6f72672f323060008201527f30302f737667222077696474683d2235323022206865696768743d223630302260208201527f20666f6e742d66616d696c793d22417269616c223e0000000000000000000000604082015250565b7f4552433732313a207472616e73666572206f6620746f6b656e2074686174206960008201527f73206e6f74206f776e0000000000000000000000000000000000000000000000602082015250565b7f3c2f673e00000000000000000000000000000000000000000000000000000000600082015250565b7f3c7465787420783d2234322220793d223239362220666f6e742d73697a653d2260008201527f3239223e534e415053484f54544544204f4e3a20323032312e372e33303c2f7460208201527f6578743e00000000000000000000000000000000000000000000000000000000604082015250565b7f3c726563742077696474683d2235323022206865696768743d2236303022207260008201527f783d223236222066696c6c3d2200000000000000000000000000000000000000602082015250565b7f4552433732313a20617070726f76616c20746f2063757272656e74206f776e6560008201527f7200000000000000000000000000000000000000000000000000000000000000602082015250565b7f646174613a6170706c69636174696f6e2f6a736f6e3b6261736536342c000000600082015250565b7f3c706174682066696c6c3d220000000000000000000000000000000000000000600082015250565b7f4552433732313a207472616e736665722063616c6c6572206973206e6f74206f60008201527f776e6572206e6f7220617070726f766564000000000000000000000000000000602082015250565b7f3c67207472616e73666f726d3d227472616e736c617465283334382c3630292260008201527f3e00000000000000000000000000000000000000000000000000000000000000602082015250565b7f3c7465787420783d2234322220793d223234322220666f6e742d73697a653d2260008201527f3239223e53544152544544204f4e3a2000000000000000000000000000000000602082015250565b7f3c726563742077696474683d22383822206865696768743d223838222072783d60008201527f223136222066696c6c3d22000000000000000000000000000000000000000000602082015250565b7f3c67207472616e73666f726d3d227472616e736c617465283231362c3434382960008201527f223e000000000000000000000000000000000000000000000000000000000000602082015250565b7f3c67207472616e73666f726d3d227472616e736c6174652837392c343438292260008201527f3e00000000000000000000000000000000000000000000000000000000000000602082015250565b7f3c2f7376673e0000000000000000000000000000000000000000000000000000600082015250565b7f3c7465787420783d2234322220793d2239362220666f6e742d73697a653d223360008201527f31223e5468652047726170682043757261746f723c2f746578743e0000000000602082015250565b7f646174613a696d6167652f7376672b786d6c3b6261736536342c000000000000600082015250565b6147e5816137ae565b81146147f057600080fd5b50565b6147fc816137c0565b811461480757600080fd5b50565b614813816137cc565b811461481e57600080fd5b50565b61482a81613818565b811461483557600080fd5b50565b61484181613822565b811461484c57600080fd5b5056fe3c67207472616e73666f726d3d226d6174726978282e313120302030202e31312031362e352031362e3529223e3c706174682066696c6c3d22236666662220643d224d3139362e382035342e3873312e312d2e3420322e322d2e366331302e322d312e382033322e342031352e322033332e362031362e312031362e332031322e372032342e342031392032372e312032322e3420362e3320372e3820392e372031352e312032302e372032362e3920352e3920362e3420392e3320392e39203131203920342e362d322e342d31322e352d33302e372d31302d363720312e342d31392e3920382e362d34322e322031352e372d34322e3220362e3720302031312e392032302e312031332e392032372e392031322e372034392e352d382e312036382e382036203130372e312031302e372032392e322031342e382033362e362031342e382033362e3620322e3320342e3120372e372031332e3820392e392032372e3320312e3120362e362e372031302e332d2e332031332e372d2e322e352d342031322e322d31332e392031352e322d382e3720322e372d31362e332d332e322d31392e332e362d312e3820322e332e3120352e352d322e3420382e312d3220322d332e392e372d3620322e322d342e3520332e312d2e312031322e322d332e362032322e342d2e3720322e312d322e3720342e382d362e362031302e322d31322e352031372e312d31392e352032312e362d31382e312032372e362e3620322e3420322e3620352e3520312e3520392e36203020302d2e3420312e342d312e3220322e382d342e3520372e352d32362e342031362e362d32392e332031372e382d31362e3920372e312d31392e3420392e352d32332e3720372e362d342e392d322e312d342e372d362e352d31322e372d31302e362d332e342d312e372d342e392d312e372d392e392d342e332d352e392d332e312d352e362d342e312d382e312d352d362e322d322e312d392e3220332e322d32322e3320372e352d392e3120322e392d31332e3620322e332d31352e3120352e392d312e3620332e3820312e3620392e342d2e332031302e362d31202e362d322e322d2e352d332e332e332d312e322e392d2e3320322e382d312e3220342d312e3620322e322d372e352e342d372e382e332d31312e382d332e372d32342e362d322e332d33362e382d342e372d33302e382d362d34382e342d312e332d35312e352d392e392d312e312d332e312e382d342e342d2e362d392d312e382d352e372d352e382d372e332d31342e322d31342e332d392d372e342d31332e362d31312e342d31352e332d31372e372d312e342d352d2e332d39202e362d31332e3120342e362d32302e392e322d32302e3120342e382d34322e3820322e322d31302e3820352e312d31392e312031302e392d33352e3720362e382d31392e362031302e322d32392e342031342e322d33332e3820342e392d352e3520392d372034372d31372e342033332e372d392e322033392e312d31302e342034382e352d392e3920382e352e352031352e3620322e312032392e3520352e332032302e3920342e382032312e3420372e312033332e3820382e3420313520312e352033322e3220302033322e332030203020302031312e322d31332e3220392e392d32332e392d2e372d352e392d352d392e362d31312e322d31342e392d31382e312d31352e362d33342e322d33302e312d34352e382d34362e332d352e332d372e342d382e382d31332e392d362e392d31392e392e392d3320342e312d382e3420392e352d31302e347a22202f3e3c656c6c697073652066696c6c3d2223666666222063783d22333139222063793d223339342e32222072783d223135322e37222072793d2238362e3522202f3e3c2f673e4142434445464748494a4b4c4d4e4f505152535455565758595a6162636465666768696a6b6c6d6e6f707172737475767778797a303132333435363738392b2f3c706174682066696c6c3d22236666662220643d224d32312e34342036332e353263312e3620312e373220352e30342e393220392e32382d312e34342d332e38382d322e362d362e38382d362e342d382e35362d31302e38342d322e343820352e31322d332e313620392e36342d2e37322031322e32387a6d34302e342d33332e333663312e39362d332e383420322e35362d362e393620312e30382d382e362d322e32382d322e35322d362e35362d312e39322d31312e362e353220342e323420312e3620372e393220342e34342031302e353220382e30387a4d34332e342032302e363863312e36203020332e31322e313620342e36342e343820362e38382d332e38382031332e31362d352031362e36342d312e3220322e323420322e343420312e343820362e382d312e31362031312e3932762e30346c2d2e32342e34382e30342e3034632d352e36342031322e34342d31362e35362032332d32392e33322033302e35326c2d2e38342e3532632d352e3820332e342d31302e373620342e35322d31332e3420312e36382d332e35322d332e38342d322e32382d31302e323420312e35362d31372e31322d2e33322d312e35322d2e34382d332e30382d2e34382d342e36382d2e30382d31322e35362031302e30342d32322e36382032322e35362d32322e36387a6d32312e36342031352e3936632e363420322e3132203120342e3336203120362e363820302031322e35322d31302e31322032322e36342d32322e36342032322e36342d322e333620302d342e362d2e33362d362e37322d312031322e362d372e35322032322e31362d31362e38382032382e33362d32382e33327a22202f3e43757261746f727320757365207468656972206b6e6f776c65646765206f662074686520776562332065636f73797374656d20746f2061737365737320616e64207369676e616c206f6e207468652073756267726170687320746861742073686f756c6420626520696e646578656420627920546865204772617068204e6574776f726b2e204d65746166696361746520697320616e206f6e2d636861696e2067656e657261746976652061727420616e6420646563656e7472616c697a6564206365727469666963617465206372656174656420666f7220746865206d657461766572736520616e642074686520776562203320776f726c642e3c706174682066696c6c3d22236666662220643d224d34322e39352033372e303563332e35203020362e3620312e3520382e3920332e383520322e3320322e3420332e3720352e3720332e3720392e332030202e39352d2e3120312e392d2e3320322e38356831352e3863312e3035203020312e332e3620312e3320312e33732d2e323520312e332d312e3320312e33682d3535632d312e303520302d312e332d2e362d312e332d312e33732e32352d312e3320312e332d312e336831342e36632d2e322d2e392d2e332d312e38352d2e332d322e383520302d332e363520312e342d362e393520332e372d392e3320322e332d322e333520352e34352d332e383520382e392d332e38357a4d34342e322036322e37632d312e303520302d312e332d2e362d312e332d312e33732e32352d312e3320312e332d312e336832382e343563312e3035203020312e332e3620312e3320312e33732d2e323520312e332d312e3320312e334834342e327a6d2d33302e342030632d312e303520302d312e332d2e362d312e332d312e33732e32352d312e3320312e332d312e336831342e373563312e3035203020312e332e3620312e3320312e33732d2e323520312e332d312e3320312e334831332e387a6d31372e392d33302e3435632d2e342d2e372d2e31352d312e35352e352d312e3973312e35352d2e313520312e392e354c33352e39203334632e342e372e313520312e35352d2e3520312e3935732d312e35352e31352d312e392d2e356c2d312e382d332e327a6d31302e31352d332e333563302d2e382e36352d312e3420312e342d312e3473312e342e363520312e3420312e3476332e366330202e382d2e363520312e342d312e3420312e34732d312e342d2e36352d312e342d312e34762d332e367a6d31302e343520322e32632e342d2e363520312e32352d2e3920312e392d2e35732e3920312e32352e3520312e396c2d312e3820332e3135632d2e342e372d312e32352e392d312e392e352d2e36352d2e342d2e392d312e32352d2e352d312e396c312e382d332e31357a6d372e3920372e3135632e36352d2e3420312e35352d2e313520312e392e35732e313520312e35352d2e3520312e39356c2d332e3120312e38632d2e36352e342d312e35352e31352d312e392d2e35732d2e31352d312e35352e352d312e39356c332e312d312e387a6d332e33352031302e3135632e38203020312e342e363520312e3420312e342030202e382d2e363520312e342d312e3420312e34682d332e36632d2e3820302d312e342d2e36352d312e342d312e34732e36352d312e3420312e342d312e3468332e367a6d2d34312e3220322e3235632d2e3820302d312e342d2e36352d312e342d312e34732e36352d312e3420312e342d312e34483236632e38203020312e342e363520312e3420312e34732d2e363520312e342d312e3420312e34682d332e36357a6d322e322d31302e3435632d2e372d2e342d2e392d312e32352d2e352d312e392e342d2e3720312e32352d2e3920312e392d2e356c332e313520312e38632e36352e342e3920312e32352e3520312e39732d312e32352e392d312e392e356c2d332e31352d312e387a22202f3ea2646970667358221220d8ca1b403d3d4cb5bd2615d10a9c393328f6e5c124bc4515bfac2ea151457bc664736f6c63430008040033496e2072657475726e2c2063757261746f7273206561726e20717565727920666565732e43757261746f72732061726520637269746963616c20746f2074686520477261706820646563656e7472616c697a65642065636f6e6f6d792e43757261746f7273206d616b6520546865204772617068206e6574776f726b20656666696369656e742e4372656174696e672061207375626772617068206973207065726d697373696f6e6c6573732e412073756267726170682063616e206661696c2064756520746f2061206275672e43757261746f7273206172652065636f6e6f6d6963616c6c7920696e63656e746976697a656420746f207369676e616c206561726c792e",
			"opcodes": "PUSH1 0x80 PUSH1 0x40 MSTORE PUSH1 0x0 PUSH1 0x6 SSTORE PUSH1 0x40 MLOAD DUP1 PUSH2 0x800 ADD PUSH1 0x40 MSTORE DUP1 PUSH1 0x40 MLOAD DUP1 PUSH1 0xA0 ADD PUSH1 0x40 MSTORE DUP1 PUSH1 0x40 MLOAD DUP1 PUSH1 0x40 ADD PUSH1 0x40 MSTORE DUP1 PUSH1 0x7 DUP2 MSTORE PUSH1 0x20 ADD PUSH32 0x2336663463666600000000000000000000000000000000000000000000000000 DUP2 MSTORE POP DUP2 MSTORE PUSH1 0x20 ADD PUSH1 0x40 MLOAD DUP1 PUSH1 0x40 ADD PUSH1 0x40 MSTORE DUP1 PUSH1 0x8 DUP2 MSTORE PUSH1 0x20 ADD PUSH32 0x2346464635394420000000000000000000000000000000000000000000000000 DUP2 MSTORE POP DUP2 MSTORE PUSH1 0x20 ADD PUSH1 0x40 MLOAD DUP1 PUSH1 0x40 ADD PUSH1 0x40 MSTORE DUP1 PUSH1 0x7 DUP2 MSTORE PUSH1 0x20 ADD PUSH32 0x2343453933443800000000000000000000000000000000000000000000000000 DUP2 MSTORE POP DUP2 MSTORE PUSH1 0x20 ADD PUSH1 0x40 MLOAD DUP1 PUSH1 0x40 ADD PUSH1 0x40 MSTORE DUP1 PUSH1 0x7 DUP2 MSTORE PUSH1 0x20 ADD PUSH32 0x2342324446444200000000000000000000000000000000000000000000000000 DUP2 MSTORE POP DUP2 MSTORE PUSH1 0x20 ADD PUSH1 0x40 MLOAD DUP1 PUSH1 0x40 ADD PUSH1 0x40 MSTORE DUP1 PUSH1 0x7 DUP2 MSTORE PUSH1 0x20 ADD PUSH32 0x2346464343383000000000000000000000000000000000000000000000000000 DUP2 MSTORE POP DUP2 MSTORE POP DUP2 MSTORE PUSH1 0x20 ADD PUSH1 0x40 MLOAD DUP1 PUSH1 0xA0 ADD PUSH1 0x40 MSTORE DUP1 PUSH1 0x40 MLOAD DUP1 PUSH1 0x40 ADD PUSH1 0x40 MSTORE DUP1 PUSH1 0x7 DUP2 MSTORE PUSH1 0x20 ADD PUSH32 0x2336663463666600000000000000000000000000000000000000000000000000 DUP2 MSTORE POP DUP2 MSTORE PUSH1 0x20 ADD PUSH1 0x40 MLOAD DUP1 PUSH1 0x40 ADD PUSH1 0x40 MSTORE DUP1 PUSH1 0x8 DUP2 MSTORE PUSH1 0x20 ADD PUSH32 0x2346464635394420000000000000000000000000000000000000000000000000 DUP2 MSTORE POP DUP2 MSTORE PUSH1 0x20 ADD PUSH1 0x40 MLOAD DUP1 PUSH1 0x40 ADD PUSH1 0x40 MSTORE DUP1 PUSH1 0x7 DUP2 MSTORE PUSH1 0x20 ADD PUSH32 0x2343453933443800000000000000000000000000000000000000000000000000 DUP2 MSTORE POP DUP2 MSTORE PUSH1 0x20 ADD PUSH1 0x40 MLOAD DUP1 PUSH1 0x40 ADD PUSH1 0x40 MSTORE DUP1 PUSH1 0x7 DUP2 MSTORE PUSH1 0x20 ADD PUSH32 0x2346464343383000000000000000000000000000000000000000000000000000 DUP2 MSTORE POP DUP2 MSTORE PUSH1 0x20 ADD PUSH1 0x40 MLOAD DUP1 PUSH1 0x40 ADD PUSH1 0x40 MSTORE DUP1 PUSH1 0x7 DUP2 MSTORE PUSH1 0x20 ADD PUSH32 0x2342324446444200000000000000000000000000000000000000000000000000 DUP2 MSTORE POP DUP2 MSTORE POP DUP2 MSTORE PUSH1 0x20 ADD PUSH1 0x40 MLOAD DUP1 PUSH1 0xA0 ADD PUSH1 0x40 MSTORE DUP1 PUSH1 0x40 MLOAD DUP1 PUSH1 0x40 ADD PUSH1 0x40 MSTORE DUP1 PUSH1 0x7 DUP2 MSTORE PUSH1 0x20 ADD PUSH32 0x2336663463666600000000000000000000000000000000000000000000000000 DUP2 MSTORE POP DUP2 MSTORE PUSH1 0x20 ADD PUSH1 0x40 MLOAD DUP1 PUSH1 0x40 ADD PUSH1 0x40 MSTORE DUP1 PUSH1 0x8 DUP2 MSTORE PUSH1 0x20 ADD PUSH32 0x2346464635394420000000000000000000000000000000000000000000000000 DUP2 MSTORE POP DUP2 MSTORE PUSH1 0x20 ADD PUSH1 0x40 MLOAD DUP1 PUSH1 0x40 ADD PUSH1 0x40 MSTORE DUP1 PUSH1 0x7 DUP2 MSTORE PUSH1 0x20 ADD PUSH32 0x2342324446444200000000000000000000000000000000000000000000000000 DUP2 MSTORE POP DUP2 MSTORE PUSH1 0x20 ADD PUSH1 0x40 MLOAD DUP1 PUSH1 0x40 ADD PUSH1 0x40 MSTORE DUP1 PUSH1 0x7 DUP2 MSTORE PUSH1 0x20 ADD PUSH32 0x2343453933443800000000000000000000000000000000000000000000000000 DUP2 MSTORE POP DUP2 MSTORE PUSH1 0x20 ADD PUSH1 0x40 MLOAD DUP1 PUSH1 0x40 ADD PUSH1 0x40 MSTORE DUP1 PUSH1 0x7 DUP2 MSTORE PUSH1 0x20 ADD PUSH32 0x2346464343383000000000000000000000000000000000000000000000000000 DUP2 MSTORE POP DUP2 MSTORE POP DUP2 MSTORE PUSH1 0x20 ADD PUSH1 0x40 MLOAD DUP1 PUSH1 0xA0 ADD PUSH1 0x40 MSTORE DUP1 PUSH1 0x40 MLOAD DUP1 PUSH1 0x40 ADD PUSH1 0x40 MSTORE DUP1 PUSH1 0x7 DUP2 MSTORE PUSH1 0x20 ADD PUSH32 0x2336663463666600000000000000000000000000000000000000000000000000 DUP2 MSTORE POP DUP2 MSTORE PUSH1 0x20 ADD PUSH1 0x40 MLOAD DUP1 PUSH1 0x40 ADD PUSH1 0x40 MSTORE DUP1 PUSH1 0x8 DUP2 MSTORE PUSH1 0x20 ADD PUSH32 0x2346464635394420000000000000000000000000000000000000000000000000 DUP2 MSTORE POP DUP2 MSTORE PUSH1 0x20 ADD PUSH1 0x40 MLOAD DUP1 PUSH1 0x40 ADD PUSH1 0x40 MSTORE DUP1 PUSH1 0x7 DUP2 MSTORE PUSH1 0x20 ADD PUSH32 0x2342324446444200000000000000000000000000000000000000000000000000 DUP2 MSTORE POP DUP2 MSTORE PUSH1 0x20 ADD PUSH1 0x40 MLOAD DUP1 PUSH1 0x40 ADD PUSH1 0x40 MSTORE DUP1 PUSH1 0x7 DUP2 MSTORE PUSH1 0x20 ADD PUSH32 0x2346464343383000000000000000000000000000000000000000000000000000 DUP2 MSTORE POP DUP2 MSTORE PUSH1 0x20 ADD PUSH1 0x40 MLOAD DUP1 PUSH1 0x40 ADD PUSH1 0x40 MSTORE DUP1 PUSH1 0x7 DUP2 MSTORE PUSH1 0x20 ADD PUSH32 0x2343453933443800000000000000000000000000000000000000000000000000 DUP2 MSTORE POP DUP2 MSTORE POP DUP2 MSTORE PUSH1 0x20 ADD PUSH1 0x40 MLOAD DUP1 PUSH1 0xA0 ADD PUSH1 0x40 MSTORE DUP1 PUSH1 0x40 MLOAD DUP1 PUSH1 0x40 ADD PUSH1 0x40 MSTORE DUP1 PUSH1 0x7 DUP2 MSTORE PUSH1 0x20 ADD PUSH32 0x2336663463666600000000000000000000000000000000000000000000000000 DUP2 MSTORE POP DUP2 MSTORE PUSH1 0x20 ADD PUSH1 0x40 MLOAD DUP1 PUSH1 0x40 ADD PUSH1 0x40 MSTORE DUP1 PUSH1 0x8 DUP2 MSTORE PUSH1 0x20 ADD PUSH32 0x2346464635394420000000000000000000000000000000000000000000000000 DUP2 MSTORE POP DUP2 MSTORE PUSH1 0x20 ADD PUSH1 0x40 MLOAD DUP1 PUSH1 0x40 ADD PUSH1 0x40 MSTORE DUP1 PUSH1 0x7 DUP2 MSTORE PUSH1 0x20 ADD PUSH32 0x2346464343383000000000000000000000000000000000000000000000000000 DUP2 MSTORE POP DUP2 MSTORE PUSH1 0x20 ADD PUSH1 0x40 MLOAD DUP1 PUSH1 0x40 ADD PUSH1 0x40 MSTORE DUP1 PUSH1 0x7 DUP2 MSTORE PUSH1 0x20 ADD PUSH32 0x2342324446444200000000000000000000000000000000000000000000000000 DUP2 MSTORE POP DUP2 MSTORE PUSH1 0x20 ADD PUSH1 0x40 MLOAD DUP1 PUSH1 0x40 ADD PUSH1 0x40 MSTORE DUP1 PUSH1 0x7 DUP2 MSTORE PUSH1 0x20 ADD PUSH32 0x2343453933443800000000000000000000000000000000000000000000000000 DUP2 MSTORE POP DUP2 MSTORE POP DUP2 MSTORE PUSH1 0x20 ADD PUSH1 0x40 MLOAD DUP1 PUSH1 0xA0 ADD PUSH1 0x40 MSTORE DUP1 PUSH1 0x40 MLOAD DUP1 PUSH1 0x40 ADD PUSH1 0x40 MSTORE DUP1 PUSH1 0x7 DUP2 MSTORE PUSH1 0x20 ADD PUSH32 0x2336663463666600000000000000000000000000000000000000000000000000 DUP2 MSTORE POP DUP2 MSTORE PUSH1 0x20 ADD PUSH1 0x40 MLOAD DUP1 PUSH1 0x40 ADD PUSH1 0x40 MSTORE DUP1 PUSH1 0x8 DUP2 MSTORE PUSH1 0x20 ADD PUSH32 0x2346464635394420000000000000000000000000000000000000000000000000 DUP2 MSTORE POP DUP2 MSTORE PUSH1 0x20 ADD PUSH1 0x40 MLOAD DUP1 PUSH1 0x40 ADD PUSH1 0x40 MSTORE DUP1 PUSH1 0x7 DUP2 MSTORE PUSH1 0x20 ADD PUSH32 0x2346464343383000000000000000000000000000000000000000000000000000 DUP2 MSTORE POP DUP2 MSTORE PUSH1 0x20 ADD PUSH1 0x40 MLOAD DUP1 PUSH1 0x40 ADD PUSH1 0x40 MSTORE DUP1 PUSH1 0x7 DUP2 MSTORE PUSH1 0x20 ADD PUSH32 0x2343453933443800000000000000000000000000000000000000000000000000 DUP2 MSTORE POP DUP2 MSTORE PUSH1 0x20 ADD PUSH1 0x40 MLOAD DUP1 PUSH1 0x40 ADD PUSH1 0x40 MSTORE DUP1 PUSH1 0x7 DUP2 MSTORE PUSH1 0x20 ADD PUSH32 0x2342324446444200000000000000000000000000000000000000000000000000 DUP2 MSTORE POP DUP2 MSTORE POP DUP2 MSTORE PUSH1 0x20 ADD PUSH1 0x40 MLOAD DUP1 PUSH1 0xA0 ADD PUSH1 0x40 MSTORE DUP1 PUSH1 0x40 MLOAD DUP1 PUSH1 0x40 ADD PUSH1 0x40 MSTORE DUP1 PUSH1 0x7 DUP2 MSTORE PUSH1 0x20 ADD PUSH32 0x2346323844384400000000000000000000000000000000000000000000000000 DUP2 MSTORE POP DUP2 MSTORE PUSH1 0x20 ADD PUSH1 0x40 MLOAD DUP1 PUSH1 0x40 ADD PUSH1 0x40 MSTORE DUP1 PUSH1 0x7 DUP2 MSTORE PUSH1 0x20 ADD PUSH32 0x2346324239414300000000000000000000000000000000000000000000000000 DUP2 MSTORE POP DUP2 MSTORE PUSH1 0x20 ADD PUSH1 0x40 MLOAD DUP1 PUSH1 0x40 ADD PUSH1 0x40 MSTORE DUP1 PUSH1 0x7 DUP2 MSTORE PUSH1 0x20 ADD PUSH32 0x2344454430463200000000000000000000000000000000000000000000000000 DUP2 MSTORE POP DUP2 MSTORE PUSH1 0x20 ADD PUSH1 0x40 MLOAD DUP1 PUSH1 0x40 ADD PUSH1 0x40 MSTORE DUP1 PUSH1 0x7 DUP2 MSTORE PUSH1 0x20 ADD PUSH32 0x2339314141463200000000000000000000000000000000000000000000000000 DUP2 MSTORE POP DUP2 MSTORE PUSH1 0x20 ADD PUSH1 0x40 MLOAD DUP1 PUSH1 0x40 ADD PUSH1 0x40 MSTORE DUP1 PUSH1 0x7 DUP2 MSTORE PUSH1 0x20 ADD PUSH32 0x2336423938463200000000000000000000000000000000000000000000000000 DUP2 MSTORE POP DUP2 MSTORE POP DUP2 MSTORE PUSH1 0x20 ADD PUSH1 0x40 MLOAD DUP1 PUSH1 0xA0 ADD PUSH1 0x40 MSTORE DUP1 PUSH1 0x40 MLOAD DUP1 PUSH1 0x40 ADD PUSH1 0x40 MSTORE DUP1 PUSH1 0x7 DUP2 MSTORE PUSH1 0x20 ADD PUSH32 0x2346323844384400000000000000000000000000000000000000000000000000 DUP2 MSTORE POP DUP2 MSTORE PUSH1 0x20 ADD PUSH1 0x40 MLOAD DUP1 PUSH1 0x40 ADD PUSH1 0x40 MSTORE DUP1 PUSH1 0x7 DUP2 MSTORE PUSH1 0x20 ADD PUSH32 0x2346324239414300000000000000000000000000000000000000000000000000 DUP2 MSTORE POP DUP2 MSTORE PUSH1 0x20 ADD PUSH1 0x40 MLOAD DUP1 PUSH1 0x40 ADD PUSH1 0x40 MSTORE DUP1 PUSH1 0x7 DUP2 MSTORE PUSH1 0x20 ADD PUSH32 0x2344454430463200000000000000000000000000000000000000000000000000 DUP2 MSTORE POP DUP2 MSTORE PUSH1 0x20 ADD PUSH1 0x40 MLOAD DUP1 PUSH1 0x40 ADD PUSH1 0x40 MSTORE DUP1 PUSH1 0x7 DUP2 MSTORE PUSH1 0x20 ADD PUSH32 0x2336423938463200000000000000000000000000000000000000000000000000 DUP2 MSTORE POP DUP2 MSTORE PUSH1 0x20 ADD PUSH1 0x40 MLOAD DUP1 PUSH1 0x40 ADD PUSH1 0x40 MSTORE DUP1 PUSH1 0x7 DUP2 MSTORE PUSH1 0x20 ADD PUSH32 0x2339314141463200000000000000000000000000000000000000000000000000 DUP2 MSTORE POP DUP2 MSTORE POP DUP2 MSTORE PUSH1 0x20 ADD PUSH1 0x40 MLOAD DUP1 PUSH1 0xA0 ADD PUSH1 0x40 MSTORE DUP1 PUSH1 0x40 MLOAD DUP1 PUSH1 0x40 ADD PUSH1 0x40 MSTORE DUP1 PUSH1 0x7 DUP2 MSTORE PUSH1 0x20 ADD PUSH32 0x2346323844384400000000000000000000000000000000000000000000000000 DUP2 MSTORE POP DUP2 MSTORE PUSH1 0x20 ADD PUSH1 0x40 MLOAD DUP1 PUSH1 0x40 ADD PUSH1 0x40 MSTORE DUP1 PUSH1 0x7 DUP2 MSTORE PUSH1 0x20 ADD PUSH32 0x2346324239414300000000000000000000000000000000000000000000000000 DUP2 MSTORE POP DUP2 MSTORE PUSH1 0x20 ADD PUSH1 0x40 MLOAD DUP1 PUSH1 0x40 ADD PUSH1 0x40 MSTORE DUP1 PUSH1 0x7 DUP2 MSTORE PUSH1 0x20 ADD PUSH32 0x2339314141463200000000000000000000000000000000000000000000000000 DUP2 MSTORE POP DUP2 MSTORE PUSH1 0x20 ADD PUSH1 0x40 MLOAD DUP1 PUSH1 0x40 ADD PUSH1 0x40 MSTORE DUP1 PUSH1 0x7 DUP2 MSTORE PUSH1 0x20 ADD PUSH32 0x2344454430463200000000000000000000000000000000000000000000000000 DUP2 MSTORE POP DUP2 MSTORE PUSH1 0x20 ADD PUSH1 0x40 MLOAD DUP1 PUSH1 0x40 ADD PUSH1 0x40 MSTORE DUP1 PUSH1 0x7 DUP2 MSTORE PUSH1 0x20 ADD PUSH32 0x2336423938463200000000000000000000000000000000000000000000000000 DUP2 MSTORE POP DUP2 MSTORE POP DUP2 MSTORE PUSH1 0x20 ADD PUSH1 0x40 MLOAD DUP1 PUSH1 0xA0 ADD PUSH1 0x40 MSTORE DUP1 PUSH1 0x40 MLOAD DUP1 PUSH1 0x40 ADD PUSH1 0x40 MSTORE DUP1 PUSH1 0x7 DUP2 MSTORE PUSH1 0x20 ADD PUSH32 0x2346323844384400000000000000000000000000000000000000000000000000 DUP2 MSTORE POP DUP2 MSTORE PUSH1 0x20 ADD PUSH1 0x40 MLOAD DUP1 PUSH1 0x40 ADD PUSH1 0x40 MSTORE DUP1 PUSH1 0x7 DUP2 MSTORE PUSH1 0x20 ADD PUSH32 0x2346324239414300000000000000000000000000000000000000000000000000 DUP2 MSTORE POP DUP2 MSTORE PUSH1 0x20 ADD PUSH1 0x40 MLOAD DUP1 PUSH1 0x40 ADD PUSH1 0x40 MSTORE DUP1 PUSH1 0x7 DUP2 MSTORE PUSH1 0x20 ADD PUSH32 0x2339314141463200000000000000000000000000000000000000000000000000 DUP2 MSTORE POP DUP2 MSTORE PUSH1 0x20 ADD PUSH1 0x40 MLOAD DUP1 PUSH1 0x40 ADD PUSH1 0x40 MSTORE DUP1 PUSH1 0x7 DUP2 MSTORE PUSH1 0x20 ADD PUSH32 0x2336423938463200000000000000000000000000000000000000000000000000 DUP2 MSTORE POP DUP2 MSTORE PUSH1 0x20 ADD PUSH1 0x40 MLOAD DUP1 PUSH1 0x40 ADD PUSH1 0x40 MSTORE DUP1 PUSH1 0x7 DUP2 MSTORE PUSH1 0x20 ADD PUSH32 0x2344454430463200000000000000000000000000000000000000000000000000 DUP2 MSTORE POP DUP2 MSTORE POP DUP2 MSTORE PUSH1 0x20 ADD PUSH1 0x40 MLOAD DUP1 PUSH1 0xA0 ADD PUSH1 0x40 MSTORE DUP1 PUSH1 0x40 MLOAD DUP1 PUSH1 0x40 ADD PUSH1 0x40 MSTORE DUP1 PUSH1 0x7 DUP2 MSTORE PUSH1 0x20 ADD PUSH32 0x2346323844384400000000000000000000000000000000000000000000000000 DUP2 MSTORE POP DUP2 MSTORE PUSH1 0x20 ADD PUSH1 0x40 MLOAD DUP1 PUSH1 0x40 ADD PUSH1 0x40 MSTORE DUP1 PUSH1 0x7 DUP2 MSTORE PUSH1 0x20 ADD PUSH32 0x2346324239414300000000000000000000000000000000000000000000000000 DUP2 MSTORE POP DUP2 MSTORE PUSH1 0x20 ADD PUSH1 0x40 MLOAD DUP1 PUSH1 0x40 ADD PUSH1 0x40 MSTORE DUP1 PUSH1 0x7 DUP2 MSTORE PUSH1 0x20 ADD PUSH32 0x2336423938463200000000000000000000000000000000000000000000000000 DUP2 MSTORE POP DUP2 MSTORE PUSH1 0x20 ADD PUSH1 0x40 MLOAD DUP1 PUSH1 0x40 ADD PUSH1 0x40 MSTORE DUP1 PUSH1 0x7 DUP2 MSTORE PUSH1 0x20 ADD PUSH32 0x2339314141463200000000000000000000000000000000000000000000000000 DUP2 MSTORE POP DUP2 MSTORE PUSH1 0x20 ADD PUSH1 0x40 MLOAD DUP1 PUSH1 0x40 ADD PUSH1 0x40 MSTORE DUP1 PUSH1 0x7 DUP2 MSTORE PUSH1 0x20 ADD PUSH32 0x2344454430463200000000000000000000000000000000000000000000000000 DUP2 MSTORE POP DUP2 MSTORE POP DUP2 MSTORE PUSH1 0x20 ADD PUSH1 0x40 MLOAD DUP1 PUSH1 0xA0 ADD PUSH1 0x40 MSTORE DUP1 PUSH1 0x40 MLOAD DUP1 PUSH1 0x40 ADD PUSH1 0x40 MSTORE DUP1 PUSH1 0x7 DUP2 MSTORE PUSH1 0x20 ADD PUSH32 0x2346323844384400000000000000000000000000000000000000000000000000 DUP2 MSTORE POP DUP2 MSTORE PUSH1 0x20 ADD PUSH1 0x40 MLOAD DUP1 PUSH1 0x40 ADD PUSH1 0x40 MSTORE DUP1 PUSH1 0x7 DUP2 MSTORE PUSH1 0x20 ADD PUSH32 0x2346324239414300000000000000000000000000000000000000000000000000 DUP2 MSTORE POP DUP2 MSTORE PUSH1 0x20 ADD PUSH1 0x40 MLOAD DUP1 PUSH1 0x40 ADD PUSH1 0x40 MSTORE DUP1 PUSH1 0x7 DUP2 MSTORE PUSH1 0x20 ADD PUSH32 0x2336423938463200000000000000000000000000000000000000000000000000 DUP2 MSTORE POP DUP2 MSTORE PUSH1 0x20 ADD PUSH1 0x40 MLOAD DUP1 PUSH1 0x40 ADD PUSH1 0x40 MSTORE DUP1 PUSH1 0x8 DUP2 MSTORE PUSH1 0x20 ADD PUSH32 0x2320444544304632000000000000000000000000000000000000000000000000 DUP2 MSTORE POP DUP2 MSTORE PUSH1 0x20 ADD PUSH1 0x40 MLOAD DUP1 PUSH1 0x40 ADD PUSH1 0x40 MSTORE DUP1 PUSH1 0x7 DUP2 MSTORE PUSH1 0x20 ADD PUSH32 0x2339314141463200000000000000000000000000000000000000000000000000 DUP2 MSTORE POP DUP2 MSTORE POP DUP2 MSTORE PUSH1 0x20 ADD PUSH1 0x40 MLOAD DUP1 PUSH1 0xA0 ADD PUSH1 0x40 MSTORE DUP1 PUSH1 0x40 MLOAD DUP1 PUSH1 0x40 ADD PUSH1 0x40 MSTORE DUP1 PUSH1 0x7 DUP2 MSTORE PUSH1 0x20 ADD PUSH32 0x2334303842383000000000000000000000000000000000000000000000000000 DUP2 MSTORE POP DUP2 MSTORE PUSH1 0x20 ADD PUSH1 0x40 MLOAD DUP1 PUSH1 0x40 ADD PUSH1 0x40 MSTORE DUP1 PUSH1 0x7 DUP2 MSTORE PUSH1 0x20 ADD PUSH32 0x2346464339423300000000000000000000000000000000000000000000000000 DUP2 MSTORE POP DUP2 MSTORE PUSH1 0x20 ADD PUSH1 0x40 MLOAD DUP1 PUSH1 0x40 ADD PUSH1 0x40 MSTORE DUP1 PUSH1 0x7 DUP2 MSTORE PUSH1 0x20 ADD PUSH32 0x2342323835373200000000000000000000000000000000000000000000000000 DUP2 MSTORE POP DUP2 MSTORE PUSH1 0x20 ADD PUSH1 0x40 MLOAD DUP1 PUSH1 0x40 ADD PUSH1 0x40 MSTORE DUP1 PUSH1 0x7 DUP2 MSTORE PUSH1 0x20 ADD PUSH32 0x2339464530463600000000000000000000000000000000000000000000000000 DUP2 MSTORE POP DUP2 MSTORE PUSH1 0x20 ADD PUSH1 0x40 MLOAD DUP1 PUSH1 0x40 ADD PUSH1 0x40 MSTORE DUP1 PUSH1 0x7 DUP2 MSTORE PUSH1 0x20 ADD PUSH32 0x2342413638433800000000000000000000000000000000000000000000000000 DUP2 MSTORE POP DUP2 MSTORE POP DUP2 MSTORE PUSH1 0x20 ADD PUSH1 0x40 MLOAD DUP1 PUSH1 0xA0 ADD PUSH1 0x40 MSTORE DUP1 PUSH1 0x40 MLOAD DUP1 PUSH1 0x40 ADD PUSH1 0x40 MSTORE DUP1 PUSH1 0x7 DUP2 MSTORE PUSH1 0x20 ADD PUSH32 0x2334303842383000000000000000000000000000000000000000000000000000 DUP2 MSTORE POP DUP2 MSTORE PUSH1 0x20 ADD PUSH1 0x40 MLOAD DUP1 PUSH1 0x40 ADD PUSH1 0x40 MSTORE DUP1 PUSH1 0x7 DUP2 MSTORE PUSH1 0x20 ADD PUSH32 0x2346464339423300000000000000000000000000000000000000000000000000 DUP2 MSTORE POP DUP2 MSTORE PUSH1 0x20 ADD PUSH1 0x40 MLOAD DUP1 PUSH1 0x40 ADD PUSH1 0x40 MSTORE DUP1 PUSH1 0x7 DUP2 MSTORE PUSH1 0x20 ADD PUSH32 0x2342323835373200000000000000000000000000000000000000000000000000 DUP2 MSTORE POP DUP2 MSTORE PUSH1 0x20 ADD PUSH1 0x40 MLOAD DUP1 PUSH1 0x40 ADD PUSH1 0x40 MSTORE DUP1 PUSH1 0x7 DUP2 MSTORE PUSH1 0x20 ADD PUSH32 0x2342413638433800000000000000000000000000000000000000000000000000 DUP2 MSTORE POP DUP2 MSTORE PUSH1 0x20 ADD PUSH1 0x40 MLOAD DUP1 PUSH1 0x40 ADD PUSH1 0x40 MSTORE DUP1 PUSH1 0x8 DUP2 MSTORE PUSH1 0x20 ADD PUSH32 0x2023394645304636000000000000000000000000000000000000000000000000 DUP2 MSTORE POP DUP2 MSTORE POP DUP2 MSTORE PUSH1 0x20 ADD PUSH1 0x40 MLOAD DUP1 PUSH1 0xA0 ADD PUSH1 0x40 MSTORE DUP1 PUSH1 0x40 MLOAD DUP1 PUSH1 0x40 ADD PUSH1 0x40 MSTORE DUP1 PUSH1 0x7 DUP2 MSTORE PUSH1 0x20 ADD PUSH32 0x2334303842383000000000000000000000000000000000000000000000000000 DUP2 MSTORE POP DUP2 MSTORE PUSH1 0x20 ADD PUSH1 0x40 MLOAD DUP1 PUSH1 0x40 ADD PUSH1 0x40 MSTORE DUP1 PUSH1 0x7 DUP2 MSTORE PUSH1 0x20 ADD PUSH32 0x2346464339423300000000000000000000000000000000000000000000000000 DUP2 MSTORE POP DUP2 MSTORE PUSH1 0x20 ADD PUSH1 0x40 MLOAD DUP1 PUSH1 0x40 ADD PUSH1 0x40 MSTORE DUP1 PUSH1 0x7 DUP2 MSTORE PUSH1 0x20 ADD PUSH32 0x2339464530463600000000000000000000000000000000000000000000000000 DUP2 MSTORE POP DUP2 MSTORE PUSH1 0x20 ADD PUSH1 0x40 MLOAD DUP1 PUSH1 0x40 ADD PUSH1 0x40 MSTORE DUP1 PUSH1 0x7 DUP2 MSTORE PUSH1 0x20 ADD PUSH32 0x2342323835373200000000000000000000000000000000000000000000000000 DUP2 MSTORE POP DUP2 MSTORE PUSH1 0x20 ADD PUSH1 0x40 MLOAD DUP1 PUSH1 0x40 ADD PUSH1 0x40 MSTORE DUP1 PUSH1 0x7 DUP2 MSTORE PUSH1 0x20 ADD PUSH32 0x2342413638433800000000000000000000000000000000000000000000000000 DUP2 MSTORE POP DUP2 MSTORE POP DUP2 MSTORE PUSH1 0x20 ADD PUSH1 0x40 MLOAD DUP1 PUSH1 0xA0 ADD PUSH1 0x40 MSTORE DUP1 PUSH1 0x40 MLOAD DUP1 PUSH1 0x40 ADD PUSH1 0x40 MSTORE DUP1 PUSH1 0x7 DUP2 MSTORE PUSH1 0x20 ADD PUSH32 0x2334303842383000000000000000000000000000000000000000000000000000 DUP2 MSTORE POP DUP2 MSTORE PUSH1 0x20 ADD PUSH1 0x40 MLOAD DUP1 PUSH1 0x40 ADD PUSH1 0x40 MSTORE DUP1 PUSH1 0x7 DUP2 MSTORE PUSH1 0x20 ADD PUSH32 0x2346464339423300000000000000000000000000000000000000000000000000 DUP2 MSTORE POP DUP2 MSTORE PUSH1 0x20 ADD PUSH1 0x40 MLOAD DUP1 PUSH1 0x40 ADD PUSH1 0x40 MSTORE DUP1 PUSH1 0x7 DUP2 MSTORE PUSH1 0x20 ADD PUSH32 0x2339464530463600000000000000000000000000000000000000000000000000 DUP2 MSTORE POP DUP2 MSTORE PUSH1 0x20 ADD PUSH1 0x40 MLOAD DUP1 PUSH1 0x40 ADD PUSH1 0x40 MSTORE DUP1 PUSH1 0x7 DUP2 MSTORE PUSH1 0x20 ADD PUSH32 0x2342413638433800000000000000000000000000000000000000000000000000 DUP2 MSTORE POP DUP2 MSTORE PUSH1 0x20 ADD PUSH1 0x40 MLOAD DUP1 PUSH1 0x40 ADD PUSH1 0x40 MSTORE DUP1 PUSH1 0x8 DUP2 MSTORE PUSH1 0x20 ADD PUSH32 0x2023423238353732000000000000000000000000000000000000000000000000 DUP2 MSTORE POP DUP2 MSTORE POP DUP2 MSTORE PUSH1 0x20 ADD PUSH1 0x40 MLOAD DUP1 PUSH1 0xA0 ADD PUSH1 0x40 MSTORE DUP1 PUSH1 0x40 MLOAD DUP1 PUSH1 0x40 ADD PUSH1 0x40 MSTORE DUP1 PUSH1 0x7 DUP2 MSTORE PUSH1 0x20 ADD PUSH32 0x2334303842383000000000000000000000000000000000000000000000000000 DUP2 MSTORE POP DUP2 MSTORE PUSH1 0x20 ADD PUSH1 0x40 MLOAD DUP1 PUSH1 0x40 ADD PUSH1 0x40 MSTORE DUP1 PUSH1 0x7 DUP2 MSTORE PUSH1 0x20 ADD PUSH32 0x2346464339423300000000000000000000000000000000000000000000000000 DUP2 MSTORE POP DUP2 MSTORE PUSH1 0x20 ADD PUSH1 0x40 MLOAD DUP1 PUSH1 0x40 ADD PUSH1 0x40 MSTORE DUP1 PUSH1 0x8 DUP2 MSTORE PUSH1 0x20 ADD PUSH32 0x2342413638433820000000000000000000000000000000000000000000000000 DUP2 MSTORE POP DUP2 MSTORE PUSH1 0x20 ADD PUSH1 0x40 MLOAD DUP1 PUSH1 0x40 ADD PUSH1 0x40 MSTORE DUP1 PUSH1 0x7 DUP2 MSTORE PUSH1 0x20 ADD PUSH32 0x2339464530463600000000000000000000000000000000000000000000000000 DUP2 MSTORE POP DUP2 MSTORE PUSH1 0x20 ADD PUSH1 0x40 MLOAD DUP1 PUSH1 0x40 ADD PUSH1 0x40 MSTORE DUP1 PUSH1 0x7 DUP2 MSTORE PUSH1 0x20 ADD PUSH32 0x2342323835373200000000000000000000000000000000000000000000000000 DUP2 MSTORE POP DUP2 MSTORE POP DUP2 MSTORE PUSH1 0x20 ADD PUSH1 0x40 MLOAD DUP1 PUSH1 0xA0 ADD PUSH1 0x40 MSTORE DUP1 PUSH1 0x40 MLOAD DUP1 PUSH1 0x40 ADD PUSH1 0x40 MSTORE DUP1 PUSH1 0x7 DUP2 MSTORE PUSH1 0x20 ADD PUSH32 0x2334303842383000000000000000000000000000000000000000000000000000 DUP2 MSTORE POP DUP2 MSTORE PUSH1 0x20 ADD PUSH1 0x40 MLOAD DUP1 PUSH1 0x40 ADD PUSH1 0x40 MSTORE DUP1 PUSH1 0x7 DUP2 MSTORE PUSH1 0x20 ADD PUSH32 0x2346464339423300000000000000000000000000000000000000000000000000 DUP2 MSTORE POP DUP2 MSTORE PUSH1 0x20 ADD PUSH1 0x40 MLOAD DUP1 PUSH1 0x40 ADD PUSH1 0x40 MSTORE DUP1 PUSH1 0x8 DUP2 MSTORE PUSH1 0x20 ADD PUSH32 0x2342413638433820000000000000000000000000000000000000000000000000 DUP2 MSTORE POP DUP2 MSTORE PUSH1 0x20 ADD PUSH1 0x40 MLOAD DUP1 PUSH1 0x40 ADD PUSH1 0x40 MSTORE DUP1 PUSH1 0x7 DUP2 MSTORE PUSH1 0x20 ADD PUSH32 0x2342323835373200000000000000000000000000000000000000000000000000 DUP2 MSTORE POP DUP2 MSTORE PUSH1 0x20 ADD PUSH1 0x40 MLOAD DUP1 PUSH1 0x40 ADD PUSH1 0x40 MSTORE DUP1 PUSH1 0x8 DUP2 MSTORE PUSH1 0x20 ADD PUSH32 0x2023394645304636000000000000000000000000000000000000000000000000 DUP2 MSTORE POP DUP2 MSTORE POP DUP2 MSTORE PUSH1 0x20 ADD PUSH1 0x40 MLOAD DUP1 PUSH1 0xA0 ADD PUSH1 0x40 MSTORE DUP1 PUSH1 0x40 MLOAD DUP1 PUSH1 0x40 ADD PUSH1 0x40 MSTORE DUP1 PUSH1 0x7 DUP2 MSTORE PUSH1 0x20 ADD PUSH32 0x2331453838453500000000000000000000000000000000000000000000000000 DUP2 MSTORE POP DUP2 MSTORE PUSH1 0x20 ADD PUSH1 0x40 MLOAD DUP1 PUSH1 0x40 ADD PUSH1 0x40 MSTORE DUP1 PUSH1 0x7 DUP2 MSTORE PUSH1 0x20 ADD PUSH32 0x2346324437383500000000000000000000000000000000000000000000000000 DUP2 MSTORE POP DUP2 MSTORE PUSH1 0x20 ADD PUSH1 0x40 MLOAD DUP1 PUSH1 0x40 ADD PUSH1 0x40 MSTORE DUP1 PUSH1 0x7 DUP2 MSTORE PUSH1 0x20 ADD PUSH32 0x2342463830393100000000000000000000000000000000000000000000000000 DUP2 MSTORE POP DUP2 MSTORE PUSH1 0x20 ADD PUSH1 0x40 MLOAD DUP1 PUSH1 0x40 ADD PUSH1 0x40 MSTORE DUP1 PUSH1 0x7 DUP2 MSTORE PUSH1 0x20 ADD PUSH32 0x2336443942413600000000000000000000000000000000000000000000000000 DUP2 MSTORE POP DUP2 MSTORE PUSH1 0x20 ADD PUSH1 0x40 MLOAD DUP1 PUSH1 0x40 ADD PUSH1 0x40 MSTORE DUP1 PUSH1 0x7 DUP2 MSTORE PUSH1 0x20 ADD PUSH32 0x2346324244433700000000000000000000000000000000000000000000000000 DUP2 MSTORE POP DUP2 MSTORE POP DUP2 MSTORE PUSH1 0x20 ADD PUSH1 0x40 MLOAD DUP1 PUSH1 0xA0 ADD PUSH1 0x40 MSTORE DUP1 PUSH1 0x40 MLOAD DUP1 PUSH1 0x40 ADD PUSH1 0x40 MSTORE DUP1 PUSH1 0x7 DUP2 MSTORE PUSH1 0x20 ADD PUSH32 0x2331453838453500000000000000000000000000000000000000000000000000 DUP2 MSTORE POP DUP2 MSTORE PUSH1 0x20 ADD PUSH1 0x40 MLOAD DUP1 PUSH1 0x40 ADD PUSH1 0x40 MSTORE DUP1 PUSH1 0x7 DUP2 MSTORE PUSH1 0x20 ADD PUSH32 0x2346324437383500000000000000000000000000000000000000000000000000 DUP2 MSTORE POP DUP2 MSTORE PUSH1 0x20 ADD PUSH1 0x40 MLOAD DUP1 PUSH1 0x40 ADD PUSH1 0x40 MSTORE DUP1 PUSH1 0x7 DUP2 MSTORE PUSH1 0x20 ADD PUSH32 0x2342463830393100000000000000000000000000000000000000000000000000 DUP2 MSTORE POP DUP2 MSTORE PUSH1 0x20 ADD PUSH1 0x40 MLOAD DUP1 PUSH1 0x40 ADD PUSH1 0x40 MSTORE DUP1 PUSH1 0x7 DUP2 MSTORE PUSH1 0x20 ADD PUSH32 0x2346324244433700000000000000000000000000000000000000000000000000 DUP2 MSTORE POP DUP2 MSTORE PUSH1 0x20 ADD PUSH1 0x40 MLOAD DUP1 PUSH1 0x40 ADD PUSH1 0x40 MSTORE DUP1 PUSH1 0x7 DUP2 MSTORE PUSH1 0x20 ADD PUSH32 0x2336443942413600000000000000000000000000000000000000000000000000 DUP2 MSTORE POP DUP2 MSTORE POP DUP2 MSTORE PUSH1 0x20 ADD PUSH1 0x40 MLOAD DUP1 PUSH1 0xA0 ADD PUSH1 0x40 MSTORE DUP1 PUSH1 0x40 MLOAD DUP1 PUSH1 0x40 ADD PUSH1 0x40 MSTORE DUP1 PUSH1 0x7 DUP2 MSTORE PUSH1 0x20 ADD PUSH32 0x2331453838453500000000000000000000000000000000000000000000000000 DUP2 MSTORE POP DUP2 MSTORE PUSH1 0x20 ADD PUSH1 0x40 MLOAD DUP1 PUSH1 0x40 ADD PUSH1 0x40 MSTORE DUP1 PUSH1 0x7 DUP2 MSTORE PUSH1 0x20 ADD PUSH32 0x2346324437383500000000000000000000000000000000000000000000000000 DUP2 MSTORE POP DUP2 MSTORE PUSH1 0x20 ADD PUSH1 0x40 MLOAD DUP1 PUSH1 0x40 ADD PUSH1 0x40 MSTORE DUP1 PUSH1 0x8 DUP2 MSTORE PUSH1 0x20 ADD PUSH32 0x2336443942413620000000000000000000000000000000000000000000000000 DUP2 MSTORE POP DUP2 MSTORE PUSH1 0x20 ADD PUSH1 0x40 MLOAD DUP1 PUSH1 0x40 ADD PUSH1 0x40 MSTORE DUP1 PUSH1 0x7 DUP2 MSTORE PUSH1 0x20 ADD PUSH32 0x2342463830393100000000000000000000000000000000000000000000000000 DUP2 MSTORE POP DUP2 MSTORE PUSH1 0x20 ADD PUSH1 0x40 MLOAD DUP1 PUSH1 0x40 ADD PUSH1 0x40 MSTORE DUP1 PUSH1 0x7 DUP2 MSTORE PUSH1 0x20 ADD PUSH32 0x2346324244433700000000000000000000000000000000000000000000000000 DUP2 MSTORE POP DUP2 MSTORE POP DUP2 MSTORE PUSH1 0x20 ADD PUSH1 0x40 MLOAD DUP1 PUSH1 0xA0 ADD PUSH1 0x40 MSTORE DUP1 PUSH1 0x40 MLOAD DUP1 PUSH1 0x40 ADD PUSH1 0x40 MSTORE DUP1 PUSH1 0x7 DUP2 MSTORE PUSH1 0x20 ADD PUSH32 0x2331453838453500000000000000000000000000000000000000000000000000 DUP2 MSTORE POP DUP2 MSTORE PUSH1 0x20 ADD PUSH1 0x40 MLOAD DUP1 PUSH1 0x40 ADD PUSH1 0x40 MSTORE DUP1 PUSH1 0x7 DUP2 MSTORE PUSH1 0x20 ADD PUSH32 0x2346324437383500000000000000000000000000000000000000000000000000 DUP2 MSTORE POP DUP2 MSTORE PUSH1 0x20 ADD PUSH1 0x40 MLOAD DUP1 PUSH1 0x40 ADD PUSH1 0x40 MSTORE DUP1 PUSH1 0x8 DUP2 MSTORE PUSH1 0x20 ADD PUSH32 0x2336443942413620000000000000000000000000000000000000000000000000 DUP2 MSTORE POP DUP2 MSTORE PUSH1 0x20 ADD PUSH1 0x40 MLOAD DUP1 PUSH1 0x40 ADD PUSH1 0x40 MSTORE DUP1 PUSH1 0x7 DUP2 MSTORE PUSH1 0x20 ADD PUSH32 0x2346324244433700000000000000000000000000000000000000000000000000 DUP2 MSTORE POP DUP2 MSTORE PUSH1 0x20 ADD PUSH1 0x40 MLOAD DUP1 PUSH1 0x40 ADD PUSH1 0x40 MSTORE DUP1 PUSH1 0x8 DUP2 MSTORE PUSH1 0x20 ADD PUSH32 0x2023424638303931000000000000000000000000000000000000000000000000 DUP2 MSTORE POP DUP2 MSTORE POP DUP2 MSTORE PUSH1 0x20 ADD PUSH1 0x40 MLOAD DUP1 PUSH1 0xA0 ADD PUSH1 0x40 MSTORE DUP1 PUSH1 0x40 MLOAD DUP1 PUSH1 0x40 ADD PUSH1 0x40 MSTORE DUP1 PUSH1 0x7 DUP2 MSTORE PUSH1 0x20 ADD PUSH32 0x2331453838453500000000000000000000000000000000000000000000000000 DUP2 MSTORE POP DUP2 MSTORE PUSH1 0x20 ADD PUSH1 0x40 MLOAD DUP1 PUSH1 0x40 ADD PUSH1 0x40 MSTORE DUP1 PUSH1 0x7 DUP2 MSTORE PUSH1 0x20 ADD PUSH32 0x2346324437383500000000000000000000000000000000000000000000000000 DUP2 MSTORE POP DUP2 MSTORE PUSH1 0x20 ADD PUSH1 0x40 MLOAD DUP1 PUSH1 0x40 ADD PUSH1 0x40 MSTORE DUP1 PUSH1 0x8 DUP2 MSTORE PUSH1 0x20 ADD PUSH32 0x2346324244433720000000000000000000000000000000000000000000000000 DUP2 MSTORE POP DUP2 MSTORE PUSH1 0x20 ADD PUSH1 0x40 MLOAD DUP1 PUSH1 0x40 ADD PUSH1 0x40 MSTORE DUP1 PUSH1 0x7 DUP2 MSTORE PUSH1 0x20 ADD PUSH32 0x2336443942413600000000000000000000000000000000000000000000000000 DUP2 MSTORE POP DUP2 MSTORE PUSH1 0x20 ADD PUSH1 0x40 MLOAD DUP1 PUSH1 0x40 ADD PUSH1 0x40 MSTORE DUP1 PUSH1 0x7 DUP2 MSTORE PUSH1 0x20 ADD PUSH32 0x2342463830393100000000000000000000000000000000000000000000000000 DUP2 MSTORE POP DUP2 MSTORE POP DUP2 MSTORE PUSH1 0x20 ADD PUSH1 0x40 MLOAD DUP1 PUSH1 0xA0 ADD PUSH1 0x40 MSTORE DUP1 PUSH1 0x40 MLOAD DUP1 PUSH1 0x40 ADD PUSH1 0x40 MSTORE DUP1 PUSH1 0x7 DUP2 MSTORE PUSH1 0x20 ADD PUSH32 0x2331453838453500000000000000000000000000000000000000000000000000 DUP2 MSTORE POP DUP2 MSTORE PUSH1 0x20 ADD PUSH1 0x40 MLOAD DUP1 PUSH1 0x40 ADD PUSH1 0x40 MSTORE DUP1 PUSH1 0x7 DUP2 MSTORE PUSH1 0x20 ADD PUSH32 0x2346324437383500000000000000000000000000000000000000000000000000 DUP2 MSTORE POP DUP2 MSTORE PUSH1 0x20 ADD PUSH1 0x40 MLOAD DUP1 PUSH1 0x40 ADD PUSH1 0x40 MSTORE DUP1 PUSH1 0x8 DUP2 MSTORE PUSH1 0x20 ADD PUSH32 0x2346324244433720000000000000000000000000000000000000000000000000 DUP2 MSTORE POP DUP2 MSTORE PUSH1 0x20 ADD PUSH1 0x40 MLOAD DUP1 PUSH1 0x40 ADD PUSH1 0x40 MSTORE DUP1 PUSH1 0x7 DUP2 MSTORE PUSH1 0x20 ADD PUSH32 0x2342463830393100000000000000000000000000000000000000000000000000 DUP2 MSTORE POP DUP2 MSTORE PUSH1 0x20 ADD PUSH1 0x40 MLOAD DUP1 PUSH1 0x40 ADD PUSH1 0x40 MSTORE DUP1 PUSH1 0x7 DUP2 MSTORE PUSH1 0x20 ADD PUSH32 0x2336443942413600000000000000000000000000000000000000000000000000 DUP2 MSTORE POP DUP2 MSTORE POP DUP2 MSTORE PUSH1 0x20 ADD PUSH1 0x40 MLOAD DUP1 PUSH1 0xA0 ADD PUSH1 0x40 MSTORE DUP1 PUSH1 0x40 MLOAD DUP1 PUSH1 0x40 ADD PUSH1 0x40 MSTORE DUP1 PUSH1 0x7 DUP2 MSTORE PUSH1 0x20 ADD PUSH32 0x2346424330324400000000000000000000000000000000000000000000000000 DUP2 MSTORE POP DUP2 MSTORE PUSH1 0x20 ADD PUSH1 0x40 MLOAD DUP1 PUSH1 0x40 ADD PUSH1 0x40 MSTORE DUP1 PUSH1 0x7 DUP2 MSTORE PUSH1 0x20 ADD PUSH32 0x2343333735434400000000000000000000000000000000000000000000000000 DUP2 MSTORE POP DUP2 MSTORE PUSH1 0x20 ADD PUSH1 0x40 MLOAD DUP1 PUSH1 0x40 ADD PUSH1 0x40 MSTORE DUP1 PUSH1 0x7 DUP2 MSTORE PUSH1 0x20 ADD PUSH32 0x2334434146353000000000000000000000000000000000000000000000000000 DUP2 MSTORE POP DUP2 MSTORE PUSH1 0x20 ADD PUSH1 0x40 MLOAD DUP1 PUSH1 0x40 ADD PUSH1 0x40 MSTORE DUP1 PUSH1 0x7 DUP2 MSTORE PUSH1 0x20 ADD PUSH32 0x2346303632374400000000000000000000000000000000000000000000000000 DUP2 MSTORE POP DUP2 MSTORE PUSH1 0x20 ADD PUSH1 0x40 MLOAD DUP1 PUSH1 0x40 ADD PUSH1 0x40 MSTORE DUP1 PUSH1 0x7 DUP2 MSTORE PUSH1 0x20 ADD PUSH32 0x2334324135463500000000000000000000000000000000000000000000000000 DUP2 MSTORE POP DUP2 MSTORE POP DUP2 MSTORE PUSH1 0x20 ADD PUSH1 0x40 MLOAD DUP1 PUSH1 0xA0 ADD PUSH1 0x40 MSTORE DUP1 PUSH1 0x40 MLOAD DUP1 PUSH1 0x40 ADD PUSH1 0x40 MSTORE DUP1 PUSH1 0x7 DUP2 MSTORE PUSH1 0x20 ADD PUSH32 0x2346424330324400000000000000000000000000000000000000000000000000 DUP2 MSTORE POP DUP2 MSTORE PUSH1 0x20 ADD PUSH1 0x40 MLOAD DUP1 PUSH1 0x40 ADD PUSH1 0x40 MSTORE DUP1 PUSH1 0x7 DUP2 MSTORE PUSH1 0x20 ADD PUSH32 0x2343333735434400000000000000000000000000000000000000000000000000 DUP2 MSTORE POP DUP2 MSTORE PUSH1 0x20 ADD PUSH1 0x40 MLOAD DUP1 PUSH1 0x40 ADD PUSH1 0x40 MSTORE DUP1 PUSH1 0x7 DUP2 MSTORE PUSH1 0x20 ADD PUSH32 0x2334434146353000000000000000000000000000000000000000000000000000 DUP2 MSTORE POP DUP2 MSTORE PUSH1 0x20 ADD PUSH1 0x40 MLOAD DUP1 PUSH1 0x40 ADD PUSH1 0x40 MSTORE DUP1 PUSH1 0x7 DUP2 MSTORE PUSH1 0x20 ADD PUSH32 0x2334324135463500000000000000000000000000000000000000000000000000 DUP2 MSTORE POP DUP2 MSTORE PUSH1 0x20 ADD PUSH1 0x40 MLOAD DUP1 PUSH1 0x40 ADD PUSH1 0x40 MSTORE DUP1 PUSH1 0x7 DUP2 MSTORE PUSH1 0x20 ADD PUSH32 0x2346303632374400000000000000000000000000000000000000000000000000 DUP2 MSTORE POP DUP2 MSTORE POP DUP2 MSTORE PUSH1 0x20 ADD PUSH1 0x40 MLOAD DUP1 PUSH1 0xA0 ADD PUSH1 0x40 MSTORE DUP1 PUSH1 0x40 MLOAD DUP1 PUSH1 0x40 ADD PUSH1 0x40 MSTORE DUP1 PUSH1 0x7 DUP2 MSTORE PUSH1 0x20 ADD PUSH32 0x2346424330324400000000000000000000000000000000000000000000000000 DUP2 MSTORE POP DUP2 MSTORE PUSH1 0x20 ADD PUSH1 0x40 MLOAD DUP1 PUSH1 0x40 ADD PUSH1 0x40 MSTORE DUP1 PUSH1 0x7 DUP2 MSTORE PUSH1 0x20 ADD PUSH32 0x2343333735434400000000000000000000000000000000000000000000000000 DUP2 MSTORE POP DUP2 MSTORE PUSH1 0x20 ADD PUSH1 0x40 MLOAD DUP1 PUSH1 0x40 ADD PUSH1 0x40 MSTORE DUP1 PUSH1 0x7 DUP2 MSTORE PUSH1 0x20 ADD PUSH32 0x2346303632374400000000000000000000000000000000000000000000000000 DUP2 MSTORE POP DUP2 MSTORE PUSH1 0x20 ADD PUSH1 0x40 MLOAD DUP1 PUSH1 0x40 ADD PUSH1 0x40 MSTORE DUP1 PUSH1 0x7 DUP2 MSTORE PUSH1 0x20 ADD PUSH32 0x2334434146353000000000000000000000000000000000000000000000000000 DUP2 MSTORE POP DUP2 MSTORE PUSH1 0x20 ADD PUSH1 0x40 MLOAD DUP1 PUSH1 0x40 ADD PUSH1 0x40 MSTORE DUP1 PUSH1 0x7 DUP2 MSTORE PUSH1 0x20 ADD PUSH32 0x2334324135463500000000000000000000000000000000000000000000000000 DUP2 MSTORE POP DUP2 MSTORE POP DUP2 MSTORE PUSH1 0x20 ADD PUSH1 0x40 MLOAD DUP1 PUSH1 0xA0 ADD PUSH1 0x40 MSTORE DUP1 PUSH1 0x40 MLOAD DUP1 PUSH1 0x40 ADD PUSH1 0x40 MSTORE DUP1 PUSH1 0x7 DUP2 MSTORE PUSH1 0x20 ADD PUSH32 0x2346424330324400000000000000000000000000000000000000000000000000 DUP2 MSTORE POP DUP2 MSTORE PUSH1 0x20 ADD PUSH1 0x40 MLOAD DUP1 PUSH1 0x40 ADD PUSH1 0x40 MSTORE DUP1 PUSH1 0x7 DUP2 MSTORE PUSH1 0x20 ADD PUSH32 0x2343333735434400000000000000000000000000000000000000000000000000 DUP2 MSTORE POP DUP2 MSTORE PUSH1 0x20 ADD PUSH1 0x40 MLOAD DUP1 PUSH1 0x40 ADD PUSH1 0x40 MSTORE DUP1 PUSH1 0x7 DUP2 MSTORE PUSH1 0x20 ADD PUSH32 0x2346303632374400000000000000000000000000000000000000000000000000 DUP2 MSTORE POP DUP2 MSTORE PUSH1 0x20 ADD PUSH1 0x40 MLOAD DUP1 PUSH1 0x40 ADD PUSH1 0x40 MSTORE DUP1 PUSH1 0x7 DUP2 MSTORE PUSH1 0x20 ADD PUSH32 0x2334324135463500000000000000000000000000000000000000000000000000 DUP2 MSTORE POP DUP2 MSTORE PUSH1 0x20 ADD PUSH1 0x40 MLOAD DUP1 PUSH1 0x40 ADD PUSH1 0x40 MSTORE DUP1 PUSH1 0x7 DUP2 MSTORE PUSH1 0x20 ADD PUSH32 0x2334434146353000000000000000000000000000000000000000000000000000 DUP2 MSTORE POP DUP2 MSTORE POP DUP2 MSTORE PUSH1 0x20 ADD PUSH1 0x40 MLOAD DUP1 PUSH1 0xA0 ADD PUSH1 0x40 MSTORE DUP1 PUSH1 0x40 MLOAD DUP1 PUSH1 0x40 ADD PUSH1 0x40 MSTORE DUP1 PUSH1 0x7 DUP2 MSTORE PUSH1 0x20 ADD PUSH32 0x2346424330324400000000000000000000000000000000000000000000000000 DUP2 MSTORE POP DUP2 MSTORE PUSH1 0x20 ADD PUSH1 0x40 MLOAD DUP1 PUSH1 0x40 ADD PUSH1 0x40 MSTORE DUP1 PUSH1 0x7 DUP2 MSTORE PUSH1 0x20 ADD PUSH32 0x2343333735434400000000000000000000000000000000000000000000000000 DUP2 MSTORE POP DUP2 MSTORE PUSH1 0x20 ADD PUSH1 0x40 MLOAD DUP1 PUSH1 0x40 ADD PUSH1 0x40 MSTORE DUP1 PUSH1 0x7 DUP2 MSTORE PUSH1 0x20 ADD PUSH32 0x2334324135463500000000000000000000000000000000000000000000000000 DUP2 MSTORE POP DUP2 MSTORE PUSH1 0x20 ADD PUSH1 0x40 MLOAD DUP1 PUSH1 0x40 ADD PUSH1 0x40 MSTORE DUP1 PUSH1 0x7 DUP2 MSTORE PUSH1 0x20 ADD PUSH32 0x2346303632374400000000000000000000000000000000000000000000000000 DUP2 MSTORE POP DUP2 MSTORE PUSH1 0x20 ADD PUSH1 0x40 MLOAD DUP1 PUSH1 0x40 ADD PUSH1 0x40 MSTORE DUP1 PUSH1 0x7 DUP2 MSTORE PUSH1 0x20 ADD PUSH32 0x2334434146353000000000000000000000000000000000000000000000000000 DUP2 MSTORE POP DUP2 MSTORE POP DUP2 MSTORE PUSH1 0x20 ADD PUSH1 0x40 MLOAD DUP1 PUSH1 0xA0 ADD PUSH1 0x40 MSTORE DUP1 PUSH1 0x40 MLOAD DUP1 PUSH1 0x40 ADD PUSH1 0x40 MSTORE DUP1 PUSH1 0x7 DUP2 MSTORE PUSH1 0x20 ADD PUSH32 0x2346424330324400000000000000000000000000000000000000000000000000 DUP2 MSTORE POP DUP2 MSTORE PUSH1 0x20 ADD PUSH1 0x40 MLOAD DUP1 PUSH1 0x40 ADD PUSH1 0x40 MSTORE DUP1 PUSH1 0x7 DUP2 MSTORE PUSH1 0x20 ADD PUSH32 0x2343333735434400000000000000000000000000000000000000000000000000 DUP2 MSTORE POP DUP2 MSTORE PUSH1 0x20 ADD PUSH1 0x40 MLOAD DUP1 PUSH1 0x40 ADD PUSH1 0x40 MSTORE DUP1 PUSH1 0x7 DUP2 MSTORE PUSH1 0x20 ADD PUSH32 0x2334324135463500000000000000000000000000000000000000000000000000 DUP2 MSTORE POP DUP2 MSTORE PUSH1 0x20 ADD PUSH1 0x40 MLOAD DUP1 PUSH1 0x40 ADD PUSH1 0x40 MSTORE DUP1 PUSH1 0x8 DUP2 MSTORE PUSH1 0x20 ADD PUSH32 0x2334434146353020000000000000000000000000000000000000000000000000 DUP2 MSTORE POP DUP2 MSTORE PUSH1 0x20 ADD PUSH1 0x40 MLOAD DUP1 PUSH1 0x40 ADD PUSH1 0x40 MSTORE DUP1 PUSH1 0x7 DUP2 MSTORE PUSH1 0x20 ADD PUSH32 0x2346303632374400000000000000000000000000000000000000000000000000 DUP2 MSTORE POP DUP2 MSTORE POP DUP2 MSTORE PUSH1 0x20 ADD PUSH1 0x40 MLOAD DUP1 PUSH1 0xA0 ADD PUSH1 0x40 MSTORE DUP1 PUSH1 0x40 MLOAD DUP1 PUSH1 0x40 ADD PUSH1 0x40 MSTORE DUP1 PUSH1 0x7 DUP2 MSTORE PUSH1 0x20 ADD PUSH32 0x2335354439394200000000000000000000000000000000000000000000000000 DUP2 MSTORE POP DUP2 MSTORE PUSH1 0x20 ADD PUSH1 0x40 MLOAD DUP1 PUSH1 0x40 ADD PUSH1 0x40 MSTORE DUP1 PUSH1 0x7 DUP2 MSTORE PUSH1 0x20 ADD PUSH32 0x2346324334364400000000000000000000000000000000000000000000000000 DUP2 MSTORE POP DUP2 MSTORE PUSH1 0x20 ADD PUSH1 0x40 MLOAD DUP1 PUSH1 0x40 ADD PUSH1 0x40 MSTORE DUP1 PUSH1 0x7 DUP2 MSTORE PUSH1 0x20 ADD PUSH32 0x2333413336353900000000000000000000000000000000000000000000000000 DUP2 MSTORE POP DUP2 MSTORE PUSH1 0x20 ADD PUSH1 0x40 MLOAD DUP1 PUSH1 0x40 ADD PUSH1 0x40 MSTORE DUP1 PUSH1 0x7 DUP2 MSTORE PUSH1 0x20 ADD PUSH32 0x2343344632454500000000000000000000000000000000000000000000000000 DUP2 MSTORE POP DUP2 MSTORE PUSH1 0x20 ADD PUSH1 0x40 MLOAD DUP1 PUSH1 0x40 ADD PUSH1 0x40 MSTORE DUP1 PUSH1 0x7 DUP2 MSTORE PUSH1 0x20 ADD PUSH32 0x2336363742463200000000000000000000000000000000000000000000000000 DUP2 MSTORE POP DUP2 MSTORE POP DUP2 MSTORE PUSH1 0x20 ADD PUSH1 0x40 MLOAD DUP1 PUSH1 0xA0 ADD PUSH1 0x40 MSTORE DUP1 PUSH1 0x40 MLOAD DUP1 PUSH1 0x40 ADD PUSH1 0x40 MSTORE DUP1 PUSH1 0x7 DUP2 MSTORE PUSH1 0x20 ADD PUSH32 0x2335354439394200000000000000000000000000000000000000000000000000 DUP2 MSTORE POP DUP2 MSTORE PUSH1 0x20 ADD PUSH1 0x40 MLOAD DUP1 PUSH1 0x40 ADD PUSH1 0x40 MSTORE DUP1 PUSH1 0x7 DUP2 MSTORE PUSH1 0x20 ADD PUSH32 0x2346324334364400000000000000000000000000000000000000000000000000 DUP2 MSTORE POP DUP2 MSTORE PUSH1 0x20 ADD PUSH1 0x40 MLOAD DUP1 PUSH1 0x40 ADD PUSH1 0x40 MSTORE DUP1 PUSH1 0x7 DUP2 MSTORE PUSH1 0x20 ADD PUSH32 0x2333413336353900000000000000000000000000000000000000000000000000 DUP2 MSTORE POP DUP2 MSTORE PUSH1 0x20 ADD PUSH1 0x40 MLOAD DUP1 PUSH1 0x40 ADD PUSH1 0x40 MSTORE DUP1 PUSH1 0x7 DUP2 MSTORE PUSH1 0x20 ADD PUSH32 0x2336363742463200000000000000000000000000000000000000000000000000 DUP2 MSTORE POP DUP2 MSTORE PUSH1 0x20 ADD PUSH1 0x40 MLOAD DUP1 PUSH1 0x40 ADD PUSH1 0x40 MSTORE DUP1 PUSH1 0x7 DUP2 MSTORE PUSH1 0x20 ADD PUSH32 0x2343344632454500000000000000000000000000000000000000000000000000 DUP2 MSTORE POP DUP2 MSTORE POP DUP2 MSTORE PUSH1 0x20 ADD PUSH1 0x40 MLOAD DUP1 PUSH1 0xA0 ADD PUSH1 0x40 MSTORE DUP1 PUSH1 0x40 MLOAD DUP1 PUSH1 0x40 ADD PUSH1 0x40 MSTORE DUP1 PUSH1 0x7 DUP2 MSTORE PUSH1 0x20 ADD PUSH32 0x2335354439394200000000000000000000000000000000000000000000000000 DUP2 MSTORE POP DUP2 MSTORE PUSH1 0x20 ADD PUSH1 0x40 MLOAD DUP1 PUSH1 0x40 ADD PUSH1 0x40 MSTORE DUP1 PUSH1 0x7 DUP2 MSTORE PUSH1 0x20 ADD PUSH32 0x2346324334364400000000000000000000000000000000000000000000000000 DUP2 MSTORE POP DUP2 MSTORE PUSH1 0x20 ADD PUSH1 0x40 MLOAD DUP1 PUSH1 0x40 ADD PUSH1 0x40 MSTORE DUP1 PUSH1 0x7 DUP2 MSTORE PUSH1 0x20 ADD PUSH32 0x2343344632454500000000000000000000000000000000000000000000000000 DUP2 MSTORE POP DUP2 MSTORE PUSH1 0x20 ADD PUSH1 0x40 MLOAD DUP1 PUSH1 0x40 ADD PUSH1 0x40 MSTORE DUP1 PUSH1 0x7 DUP2 MSTORE PUSH1 0x20 ADD PUSH32 0x2333413336353900000000000000000000000000000000000000000000000000 DUP2 MSTORE POP DUP2 MSTORE PUSH1 0x20 ADD PUSH1 0x40 MLOAD DUP1 PUSH1 0x40 ADD PUSH1 0x40 MSTORE DUP1 PUSH1 0x7 DUP2 MSTORE PUSH1 0x20 ADD PUSH32 0x2336363742463200000000000000000000000000000000000000000000000000 DUP2 MSTORE POP DUP2 MSTORE POP DUP2 MSTORE PUSH1 0x20 ADD PUSH1 0x40 MLOAD DUP1 PUSH1 0xA0 ADD PUSH1 0x40 MSTORE DUP1 PUSH1 0x40 MLOAD DUP1 PUSH1 0x40 ADD PUSH1 0x40 MSTORE DUP1 PUSH1 0x7 DUP2 MSTORE PUSH1 0x20 ADD PUSH32 0x2335354439394200000000000000000000000000000000000000000000000000 DUP2 MSTORE POP DUP2 MSTORE PUSH1 0x20 ADD PUSH1 0x40 MLOAD DUP1 PUSH1 0x40 ADD PUSH1 0x40 MSTORE DUP1 PUSH1 0x7 DUP2 MSTORE PUSH1 0x20 ADD PUSH32 0x2346324334364400000000000000000000000000000000000000000000000000 DUP2 MSTORE POP DUP2 MSTORE PUSH1 0x20 ADD PUSH1 0x40 MLOAD DUP1 PUSH1 0x40 ADD PUSH1 0x40 MSTORE DUP1 PUSH1 0x7 DUP2 MSTORE PUSH1 0x20 ADD PUSH32 0x2343344632454500000000000000000000000000000000000000000000000000 DUP2 MSTORE POP DUP2 MSTORE PUSH1 0x20 ADD PUSH1 0x40 MLOAD DUP1 PUSH1 0x40 ADD PUSH1 0x40 MSTORE DUP1 PUSH1 0x7 DUP2 MSTORE PUSH1 0x20 ADD PUSH32 0x2336363742463200000000000000000000000000000000000000000000000000 DUP2 MSTORE POP DUP2 MSTORE PUSH1 0x20 ADD PUSH1 0x40 MLOAD DUP1 PUSH1 0x40 ADD PUSH1 0x40 MSTORE DUP1 PUSH1 0x7 DUP2 MSTORE PUSH1 0x20 ADD PUSH32 0x2333413336353900000000000000000000000000000000000000000000000000 DUP2 MSTORE POP DUP2 MSTORE POP DUP2 MSTORE PUSH1 0x20 ADD PUSH1 0x40 MLOAD DUP1 PUSH1 0xA0 ADD PUSH1 0x40 MSTORE DUP1 PUSH1 0x40 MLOAD DUP1 PUSH1 0x40 ADD PUSH1 0x40 MSTORE DUP1 PUSH1 0x7 DUP2 MSTORE PUSH1 0x20 ADD PUSH32 0x2335354439394200000000000000000000000000000000000000000000000000 DUP2 MSTORE POP DUP2 MSTORE PUSH1 0x20 ADD PUSH1 0x40 MLOAD DUP1 PUSH1 0x40 ADD PUSH1 0x40 MSTORE DUP1 PUSH1 0x7 DUP2 MSTORE PUSH1 0x20 ADD PUSH32 0x2346324334364400000000000000000000000000000000000000000000000000 DUP2 MSTORE POP DUP2 MSTORE PUSH1 0x20 ADD PUSH1 0x40 MLOAD DUP1 PUSH1 0x40 ADD PUSH1 0x40 MSTORE DUP1 PUSH1 0x7 DUP2 MSTORE PUSH1 0x20 ADD PUSH32 0x2336363742463200000000000000000000000000000000000000000000000000 DUP2 MSTORE POP DUP2 MSTORE PUSH1 0x20 ADD PUSH1 0x40 MLOAD DUP1 PUSH1 0x40 ADD PUSH1 0x40 MSTORE DUP1 PUSH1 0x7 DUP2 MSTORE PUSH1 0x20 ADD PUSH32 0x2343344632454500000000000000000000000000000000000000000000000000 DUP2 MSTORE POP DUP2 MSTORE PUSH1 0x20 ADD PUSH1 0x40 MLOAD DUP1 PUSH1 0x40 ADD PUSH1 0x40 MSTORE DUP1 PUSH1 0x7 DUP2 MSTORE PUSH1 0x20 ADD PUSH32 0x2333413336353900000000000000000000000000000000000000000000000000 DUP2 MSTORE POP DUP2 MSTORE POP DUP2 MSTORE PUSH1 0x20 ADD PUSH1 0x40 MLOAD DUP1 PUSH1 0xA0 ADD PUSH1 0x40 MSTORE DUP1 PUSH1 0x40 MLOAD DUP1 PUSH1 0x40 ADD PUSH1 0x40 MSTORE DUP1 PUSH1 0x7 DUP2 MSTORE PUSH1 0x20 ADD PUSH32 0x2335354439394200000000000000000000000000000000000000000000000000 DUP2 MSTORE POP DUP2 MSTORE PUSH1 0x20 ADD PUSH1 0x40 MLOAD DUP1 PUSH1 0x40 ADD PUSH1 0x40 MSTORE DUP1 PUSH1 0x7 DUP2 MSTORE PUSH1 0x20 ADD PUSH32 0x2346324334364400000000000000000000000000000000000000000000000000 DUP2 MSTORE POP DUP2 MSTORE PUSH1 0x20 ADD PUSH1 0x40 MLOAD DUP1 PUSH1 0x40 ADD PUSH1 0x40 MSTORE DUP1 PUSH1 0x7 DUP2 MSTORE PUSH1 0x20 ADD PUSH32 0x2336363742463200000000000000000000000000000000000000000000000000 DUP2 MSTORE POP DUP2 MSTORE PUSH1 0x20 ADD PUSH1 0x40 MLOAD DUP1 PUSH1 0x40 ADD PUSH1 0x40 MSTORE DUP1 PUSH1 0x7 DUP2 MSTORE PUSH1 0x20 ADD PUSH32 0x2333413336353900000000000000000000000000000000000000000000000000 DUP2 MSTORE POP DUP2 MSTORE PUSH1 0x20 ADD PUSH1 0x40 MLOAD DUP1 PUSH1 0x40 ADD PUSH1 0x40 MSTORE DUP1 PUSH1 0x7 DUP2 MSTORE PUSH1 0x20 ADD PUSH32 0x2343344632454500000000000000000000000000000000000000000000000000 DUP2 MSTORE POP DUP2 MSTORE POP DUP2 MSTORE PUSH1 0x20 ADD PUSH1 0x40 MLOAD DUP1 PUSH1 0xA0 ADD PUSH1 0x40 MSTORE DUP1 PUSH1 0x40 MLOAD DUP1 PUSH1 0x40 ADD PUSH1 0x40 MSTORE DUP1 PUSH1 0x7 DUP2 MSTORE PUSH1 0x20 ADD PUSH32 0x2342463336413800000000000000000000000000000000000000000000000000 DUP2 MSTORE POP DUP2 MSTORE PUSH1 0x20 ADD PUSH1 0x40 MLOAD DUP1 PUSH1 0x40 ADD PUSH1 0x40 MSTORE DUP1 PUSH1 0x7 DUP2 MSTORE PUSH1 0x20 ADD PUSH32 0x2344393535383500000000000000000000000000000000000000000000000000 DUP2 MSTORE POP DUP2 MSTORE PUSH1 0x20 ADD PUSH1 0x40 MLOAD DUP1 PUSH1 0x40 ADD PUSH1 0x40 MSTORE DUP1 PUSH1 0x7 DUP2 MSTORE PUSH1 0x20 ADD PUSH32 0x2334303243424600000000000000000000000000000000000000000000000000 DUP2 MSTORE POP DUP2 MSTORE PUSH1 0x20 ADD PUSH1 0x40 MLOAD DUP1 PUSH1 0x40 ADD PUSH1 0x40 MSTORE DUP1 PUSH1 0x7 DUP2 MSTORE PUSH1 0x20 ADD PUSH32 0x2333343139343000000000000000000000000000000000000000000000000000 DUP2 MSTORE POP DUP2 MSTORE PUSH1 0x20 ADD PUSH1 0x40 MLOAD DUP1 PUSH1 0x40 ADD PUSH1 0x40 MSTORE DUP1 PUSH1 0x7 DUP2 MSTORE PUSH1 0x20 ADD PUSH32 0x2333303534424600000000000000000000000000000000000000000000000000 DUP2 MSTORE POP DUP2 MSTORE POP DUP2 MSTORE PUSH1 0x20 ADD PUSH1 0x40 MLOAD DUP1 PUSH1 0xA0 ADD PUSH1 0x40 MSTORE DUP1 PUSH1 0x40 MLOAD DUP1 PUSH1 0x40 ADD PUSH1 0x40 MSTORE DUP1 PUSH1 0x7 DUP2 MSTORE PUSH1 0x20 ADD PUSH32 0x2342463336413800000000000000000000000000000000000000000000000000 DUP2 MSTORE POP DUP2 MSTORE PUSH1 0x20 ADD PUSH1 0x40 MLOAD DUP1 PUSH1 0x40 ADD PUSH1 0x40 MSTORE DUP1 PUSH1 0x7 DUP2 MSTORE PUSH1 0x20 ADD PUSH32 0x2344393535383500000000000000000000000000000000000000000000000000 DUP2 MSTORE POP DUP2 MSTORE PUSH1 0x20 ADD PUSH1 0x40 MLOAD DUP1 PUSH1 0x40 ADD PUSH1 0x40 MSTORE DUP1 PUSH1 0x7 DUP2 MSTORE PUSH1 0x20 ADD PUSH32 0x2334303243424600000000000000000000000000000000000000000000000000 DUP2 MSTORE POP DUP2 MSTORE PUSH1 0x20 ADD PUSH1 0x40 MLOAD DUP1 PUSH1 0x40 ADD PUSH1 0x40 MSTORE DUP1 PUSH1 0x7 DUP2 MSTORE PUSH1 0x20 ADD PUSH32 0x2333303534424600000000000000000000000000000000000000000000000000 DUP2 MSTORE POP DUP2 MSTORE PUSH1 0x20 ADD PUSH1 0x40 MLOAD DUP1 PUSH1 0x40 ADD PUSH1 0x40 MSTORE DUP1 PUSH1 0x7 DUP2 MSTORE PUSH1 0x20 ADD PUSH32 0x2333343139343000000000000000000000000000000000000000000000000000 DUP2 MSTORE POP DUP2 MSTORE POP DUP2 MSTORE PUSH1 0x20 ADD PUSH1 0x40 MLOAD DUP1 PUSH1 0xA0 ADD PUSH1 0x40 MSTORE DUP1 PUSH1 0x40 MLOAD DUP1 PUSH1 0x40 ADD PUSH1 0x40 MSTORE DUP1 PUSH1 0x7 DUP2 MSTORE PUSH1 0x20 ADD PUSH32 0x2342463336413800000000000000000000000000000000000000000000000000 DUP2 MSTORE POP DUP2 MSTORE PUSH1 0x20 ADD PUSH1 0x40 MLOAD DUP1 PUSH1 0x40 ADD PUSH1 0x40 MSTORE DUP1 PUSH1 0x7 DUP2 MSTORE PUSH1 0x20 ADD PUSH32 0x2344393535383500000000000000000000000000000000000000000000000000 DUP2 MSTORE POP DUP2 MSTORE PUSH1 0x20 ADD PUSH1 0x40 MLOAD DUP1 PUSH1 0x40 ADD PUSH1 0x40 MSTORE DUP1 PUSH1 0x7 DUP2 MSTORE PUSH1 0x20 ADD PUSH32 0x2333303534424600000000000000000000000000000000000000000000000000 DUP2 MSTORE POP DUP2 MSTORE PUSH1 0x20 ADD PUSH1 0x40 MLOAD DUP1 PUSH1 0x40 ADD PUSH1 0x40 MSTORE DUP1 PUSH1 0x7 DUP2 MSTORE PUSH1 0x20 ADD PUSH32 0x2333343139343000000000000000000000000000000000000000000000000000 DUP2 MSTORE POP DUP2 MSTORE PUSH1 0x20 ADD PUSH1 0x40 MLOAD DUP1 PUSH1 0x40 ADD PUSH1 0x40 MSTORE DUP1 PUSH1 0x7 DUP2 MSTORE PUSH1 0x20 ADD PUSH32 0x2334303243424600000000000000000000000000000000000000000000000000 DUP2 MSTORE POP DUP2 MSTORE POP DUP2 MSTORE PUSH1 0x20 ADD PUSH1 0x40 MLOAD DUP1 PUSH1 0xA0 ADD PUSH1 0x40 MSTORE DUP1 PUSH1 0x40 MLOAD DUP1 PUSH1 0x40 ADD PUSH1 0x40 MSTORE DUP1 PUSH1 0x7 DUP2 MSTORE PUSH1 0x20 ADD PUSH32 0x2342463336413800000000000000000000000000000000000000000000000000 DUP2 MSTORE POP DUP2 MSTORE PUSH1 0x20 ADD PUSH1 0x40 MLOAD DUP1 PUSH1 0x40 ADD PUSH1 0x40 MSTORE DUP1 PUSH1 0x7 DUP2 MSTORE PUSH1 0x20 ADD PUSH32 0x2344393535383500000000000000000000000000000000000000000000000000 DUP2 MSTORE POP DUP2 MSTORE PUSH1 0x20 ADD PUSH1 0x40 MLOAD DUP1 PUSH1 0x40 ADD PUSH1 0x40 MSTORE DUP1 PUSH1 0x7 DUP2 MSTORE PUSH1 0x20 ADD PUSH32 0x2333303534424600000000000000000000000000000000000000000000000000 DUP2 MSTORE POP DUP2 MSTORE PUSH1 0x20 ADD PUSH1 0x40 MLOAD DUP1 PUSH1 0x40 ADD PUSH1 0x40 MSTORE DUP1 PUSH1 0x7 DUP2 MSTORE PUSH1 0x20 ADD PUSH32 0x2334303243424600000000000000000000000000000000000000000000000000 DUP2 MSTORE POP DUP2 MSTORE PUSH1 0x20 ADD PUSH1 0x40 MLOAD DUP1 PUSH1 0x40 ADD PUSH1 0x40 MSTORE DUP1 PUSH1 0x7 DUP2 MSTORE PUSH1 0x20 ADD PUSH32 0x2333343139343000000000000000000000000000000000000000000000000000 DUP2 MSTORE POP DUP2 MSTORE POP DUP2 MSTORE PUSH1 0x20 ADD PUSH1 0x40 MLOAD DUP1 PUSH1 0xA0 ADD PUSH1 0x40 MSTORE DUP1 PUSH1 0x40 MLOAD DUP1 PUSH1 0x40 ADD PUSH1 0x40 MSTORE DUP1 PUSH1 0x7 DUP2 MSTORE PUSH1 0x20 ADD PUSH32 0x2342463336413800000000000000000000000000000000000000000000000000 DUP2 MSTORE POP DUP2 MSTORE PUSH1 0x20 ADD PUSH1 0x40 MLOAD DUP1 PUSH1 0x40 ADD PUSH1 0x40 MSTORE DUP1 PUSH1 0x7 DUP2 MSTORE PUSH1 0x20 ADD PUSH32 0x2344393535383500000000000000000000000000000000000000000000000000 DUP2 MSTORE POP DUP2 MSTORE PUSH1 0x20 ADD PUSH1 0x40 MLOAD DUP1 PUSH1 0x40 ADD PUSH1 0x40 MSTORE DUP1 PUSH1 0x7 DUP2 MSTORE PUSH1 0x20 ADD PUSH32 0x2333343139343000000000000000000000000000000000000000000000000000 DUP2 MSTORE POP DUP2 MSTORE PUSH1 0x20 ADD PUSH1 0x40 MLOAD DUP1 PUSH1 0x40 ADD PUSH1 0x40 MSTORE DUP1 PUSH1 0x7 DUP2 MSTORE PUSH1 0x20 ADD PUSH32 0x2334303243424600000000000000000000000000000000000000000000000000 DUP2 MSTORE POP DUP2 MSTORE PUSH1 0x20 ADD PUSH1 0x40 MLOAD DUP1 PUSH1 0x40 ADD PUSH1 0x40 MSTORE DUP1 PUSH1 0x7 DUP2 MSTORE PUSH1 0x20 ADD PUSH32 0x2333303534424600000000000000000000000000000000000000000000000000 DUP2 MSTORE POP DUP2 MSTORE POP DUP2 MSTORE PUSH1 0x20 ADD PUSH1 0x40 MLOAD DUP1 PUSH1 0xA0 ADD PUSH1 0x40 MSTORE DUP1 PUSH1 0x40 MLOAD DUP1 PUSH1 0x40 ADD PUSH1 0x40 MSTORE DUP1 PUSH1 0x7 DUP2 MSTORE PUSH1 0x20 ADD PUSH32 0x2342463336413800000000000000000000000000000000000000000000000000 DUP2 MSTORE POP DUP2 MSTORE PUSH1 0x20 ADD PUSH1 0x40 MLOAD DUP1 PUSH1 0x40 ADD PUSH1 0x40 MSTORE DUP1 PUSH1 0x7 DUP2 MSTORE PUSH1 0x20 ADD PUSH32 0x2344393535383500000000000000000000000000000000000000000000000000 DUP2 MSTORE POP DUP2 MSTORE PUSH1 0x20 ADD PUSH1 0x40 MLOAD DUP1 PUSH1 0x40 ADD PUSH1 0x40 MSTORE DUP1 PUSH1 0x7 DUP2 MSTORE PUSH1 0x20 ADD PUSH32 0x2333343139343000000000000000000000000000000000000000000000000000 DUP2 MSTORE POP DUP2 MSTORE PUSH1 0x20 ADD PUSH1 0x40 MLOAD DUP1 PUSH1 0x40 ADD PUSH1 0x40 MSTORE DUP1 PUSH1 0x7 DUP2 MSTORE PUSH1 0x20 ADD PUSH32 0x2333303534424600000000000000000000000000000000000000000000000000 DUP2 MSTORE POP DUP2 MSTORE PUSH1 0x20 ADD PUSH1 0x40 MLOAD DUP1 PUSH1 0x40 ADD PUSH1 0x40 MSTORE DUP1 PUSH1 0x7 DUP2 MSTORE PUSH1 0x20 ADD PUSH32 0x2334303243424600000000000000000000000000000000000000000000000000 DUP2 MSTORE POP DUP2 MSTORE POP DUP2 MSTORE PUSH1 0x20 ADD PUSH1 0x40 MLOAD DUP1 PUSH1 0xA0 ADD PUSH1 0x40 MSTORE DUP1 PUSH1 0x40 MLOAD DUP1 PUSH1 0x40 ADD PUSH1 0x40 MSTORE DUP1 PUSH1 0x7 DUP2 MSTORE PUSH1 0x20 ADD PUSH32 0x2333384244463200000000000000000000000000000000000000000000000000 DUP2 MSTORE POP DUP2 MSTORE PUSH1 0x20 ADD PUSH1 0x40 MLOAD DUP1 PUSH1 0x40 ADD PUSH1 0x40 MSTORE DUP1 PUSH1 0x7 DUP2 MSTORE PUSH1 0x20 ADD PUSH32 0x2346324145373200000000000000000000000000000000000000000000000000 DUP2 MSTORE POP DUP2 MSTORE PUSH1 0x20 ADD PUSH1 0x40 MLOAD DUP1 PUSH1 0x40 ADD PUSH1 0x40 MSTORE DUP1 PUSH1 0x7 DUP2 MSTORE PUSH1 0x20 ADD PUSH32 0x2336443242443400000000000000000000000000000000000000000000000000 DUP2 MSTORE POP DUP2 MSTORE PUSH1 0x20 ADD PUSH1 0x40 MLOAD DUP1 PUSH1 0x40 ADD PUSH1 0x40 MSTORE DUP1 PUSH1 0x7 DUP2 MSTORE PUSH1 0x20 ADD PUSH32 0x2344393739343100000000000000000000000000000000000000000000000000 DUP2 MSTORE POP DUP2 MSTORE PUSH1 0x20 ADD PUSH1 0x40 MLOAD DUP1 PUSH1 0x40 ADD PUSH1 0x40 MSTORE DUP1 PUSH1 0x7 DUP2 MSTORE PUSH1 0x20 ADD PUSH32 0x2330444239434300000000000000000000000000000000000000000000000000 DUP2 MSTORE POP DUP2 MSTORE POP DUP2 MSTORE PUSH1 0x20 ADD PUSH1 0x40 MLOAD DUP1 PUSH1 0xA0 ADD PUSH1 0x40 MSTORE DUP1 PUSH1 0x40 MLOAD DUP1 PUSH1 0x40 ADD PUSH1 0x40 MSTORE DUP1 PUSH1 0x7 DUP2 MSTORE PUSH1 0x20 ADD PUSH32 0x2333384244463200000000000000000000000000000000000000000000000000 DUP2 MSTORE POP DUP2 MSTORE PUSH1 0x20 ADD PUSH1 0x40 MLOAD DUP1 PUSH1 0x40 ADD PUSH1 0x40 MSTORE DUP1 PUSH1 0x7 DUP2 MSTORE PUSH1 0x20 ADD PUSH32 0x2346324145373200000000000000000000000000000000000000000000000000 DUP2 MSTORE POP DUP2 MSTORE PUSH1 0x20 ADD PUSH1 0x40 MLOAD DUP1 PUSH1 0x40 ADD PUSH1 0x40 MSTORE DUP1 PUSH1 0x7 DUP2 MSTORE PUSH1 0x20 ADD PUSH32 0x2336443242443400000000000000000000000000000000000000000000000000 DUP2 MSTORE POP DUP2 MSTORE PUSH1 0x20 ADD PUSH1 0x40 MLOAD DUP1 PUSH1 0x40 ADD PUSH1 0x40 MSTORE DUP1 PUSH1 0x7 DUP2 MSTORE PUSH1 0x20 ADD PUSH32 0x2330444239434300000000000000000000000000000000000000000000000000 DUP2 MSTORE POP DUP2 MSTORE PUSH1 0x20 ADD PUSH1 0x40 MLOAD DUP1 PUSH1 0x40 ADD PUSH1 0x40 MSTORE DUP1 PUSH1 0x7 DUP2 MSTORE PUSH1 0x20 ADD PUSH32 0x2344393739343100000000000000000000000000000000000000000000000000 DUP2 MSTORE POP DUP2 MSTORE POP DUP2 MSTORE PUSH1 0x20 ADD PUSH1 0x40 MLOAD DUP1 PUSH1 0xA0 ADD PUSH1 0x40 MSTORE DUP1 PUSH1 0x40 MLOAD DUP1 PUSH1 0x40 ADD PUSH1 0x40 MSTORE DUP1 PUSH1 0x7 DUP2 MSTORE PUSH1 0x20 ADD PUSH32 0x2333384244463200000000000000000000000000000000000000000000000000 DUP2 MSTORE POP DUP2 MSTORE PUSH1 0x20 ADD PUSH1 0x40 MLOAD DUP1 PUSH1 0x40 ADD PUSH1 0x40 MSTORE DUP1 PUSH1 0x7 DUP2 MSTORE PUSH1 0x20 ADD PUSH32 0x2346324145373200000000000000000000000000000000000000000000000000 DUP2 MSTORE POP DUP2 MSTORE PUSH1 0x20 ADD PUSH1 0x40 MLOAD DUP1 PUSH1 0x40 ADD PUSH1 0x40 MSTORE DUP1 PUSH1 0x7 DUP2 MSTORE PUSH1 0x20 ADD PUSH32 0x2330444239434300000000000000000000000000000000000000000000000000 DUP2 MSTORE POP DUP2 MSTORE PUSH1 0x20 ADD PUSH1 0x40 MLOAD DUP1 PUSH1 0x40 ADD PUSH1 0x40 MSTORE DUP1 PUSH1 0x7 DUP2 MSTORE PUSH1 0x20 ADD PUSH32 0x2344393739343100000000000000000000000000000000000000000000000000 DUP2 MSTORE POP DUP2 MSTORE PUSH1 0x20 ADD PUSH1 0x40 MLOAD DUP1 PUSH1 0x40 ADD PUSH1 0x40 MSTORE DUP1 PUSH1 0x7 DUP2 MSTORE PUSH1 0x20 ADD PUSH32 0x2336443242443400000000000000000000000000000000000000000000000000 DUP2 MSTORE POP DUP2 MSTORE POP DUP2 MSTORE PUSH1 0x20 ADD PUSH1 0x40 MLOAD DUP1 PUSH1 0xA0 ADD PUSH1 0x40 MSTORE DUP1 PUSH1 0x40 MLOAD DUP1 PUSH1 0x40 ADD PUSH1 0x40 MSTORE DUP1 PUSH1 0x7 DUP2 MSTORE PUSH1 0x20 ADD PUSH32 0x2333384244463200000000000000000000000000000000000000000000000000 DUP2 MSTORE POP DUP2 MSTORE PUSH1 0x20 ADD PUSH1 0x40 MLOAD DUP1 PUSH1 0x40 ADD PUSH1 0x40 MSTORE DUP1 PUSH1 0x7 DUP2 MSTORE PUSH1 0x20 ADD PUSH32 0x2346324145373200000000000000000000000000000000000000000000000000 DUP2 MSTORE POP DUP2 MSTORE PUSH1 0x20 ADD PUSH1 0x40 MLOAD DUP1 PUSH1 0x40 ADD PUSH1 0x40 MSTORE DUP1 PUSH1 0x7 DUP2 MSTORE PUSH1 0x20 ADD PUSH32 0x2330444239434300000000000000000000000000000000000000000000000000 DUP2 MSTORE POP DUP2 MSTORE PUSH1 0x20 ADD PUSH1 0x40 MLOAD DUP1 PUSH1 0x40 ADD PUSH1 0x40 MSTORE DUP1 PUSH1 0x7 DUP2 MSTORE PUSH1 0x20 ADD PUSH32 0x2336443242443400000000000000000000000000000000000000000000000000 DUP2 MSTORE POP DUP2 MSTORE PUSH1 0x20 ADD PUSH1 0x40 MLOAD DUP1 PUSH1 0x40 ADD PUSH1 0x40 MSTORE DUP1 PUSH1 0x7 DUP2 MSTORE PUSH1 0x20 ADD PUSH32 0x2344393739343100000000000000000000000000000000000000000000000000 DUP2 MSTORE POP DUP2 MSTORE POP DUP2 MSTORE PUSH1 0x20 ADD PUSH1 0x40 MLOAD DUP1 PUSH1 0xA0 ADD PUSH1 0x40 MSTORE DUP1 PUSH1 0x40 MLOAD DUP1 PUSH1 0x40 ADD PUSH1 0x40 MSTORE DUP1 PUSH1 0x7 DUP2 MSTORE PUSH1 0x20 ADD PUSH32 0x2333384244463200000000000000000000000000000000000000000000000000 DUP2 MSTORE POP DUP2 MSTORE PUSH1 0x20 ADD PUSH1 0x40 MLOAD DUP1 PUSH1 0x40 ADD PUSH1 0x40 MSTORE DUP1 PUSH1 0x7 DUP2 MSTORE PUSH1 0x20 ADD PUSH32 0x2346324145373200000000000000000000000000000000000000000000000000 DUP2 MSTORE POP DUP2 MSTORE PUSH1 0x20 ADD PUSH1 0x40 MLOAD DUP1 PUSH1 0x40 ADD PUSH1 0x40 MSTORE DUP1 PUSH1 0x7 DUP2 MSTORE PUSH1 0x20 ADD PUSH32 0x2330444239434300000000000000000000000000000000000000000000000000 DUP2 MSTORE POP DUP2 MSTORE PUSH1 0x20 ADD PUSH1 0x40 MLOAD DUP1 PUSH1 0x40 ADD PUSH1 0x40 MSTORE DUP1 PUSH1 0x7 DUP2 MSTORE PUSH1 0x20 ADD PUSH32 0x2344393739343100000000000000000000000000000000000000000000000000 DUP2 MSTORE POP DUP2 MSTORE PUSH1 0x20 ADD PUSH1 0x40 MLOAD DUP1 PUSH1 0x40 ADD PUSH1 0x40 MSTORE DUP1 PUSH1 0x7 DUP2 MSTORE PUSH1 0x20 ADD PUSH32 0x2336443242443400000000000000000000000000000000000000000000000000 DUP2 MSTORE POP DUP2 MSTORE POP DUP2 MSTORE PUSH1 0x20 ADD PUSH1 0x40 MLOAD DUP1 PUSH1 0xA0 ADD PUSH1 0x40 MSTORE DUP1 PUSH1 0x40 MLOAD DUP1 PUSH1 0x40 ADD PUSH1 0x40 MSTORE DUP1 PUSH1 0x7 DUP2 MSTORE PUSH1 0x20 ADD PUSH32 0x2333384244463200000000000000000000000000000000000000000000000000 DUP2 MSTORE POP DUP2 MSTORE PUSH1 0x20 ADD PUSH1 0x40 MLOAD DUP1 PUSH1 0x40 ADD PUSH1 0x40 MSTORE DUP1 PUSH1 0x7 DUP2 MSTORE PUSH1 0x20 ADD PUSH32 0x2346324145373200000000000000000000000000000000000000000000000000 DUP2 MSTORE POP DUP2 MSTORE PUSH1 0x20 ADD PUSH1 0x40 MLOAD DUP1 PUSH1 0x40 ADD PUSH1 0x40 MSTORE DUP1 PUSH1 0x7 DUP2 MSTORE PUSH1 0x20 ADD PUSH32 0x2330444239434300000000000000000000000000000000000000000000000000 DUP2 MSTORE POP DUP2 MSTORE PUSH1 0x20 ADD PUSH1 0x40 MLOAD DUP1 PUSH1 0x40 ADD PUSH1 0x40 MSTORE DUP1 PUSH1 0x7 DUP2 MSTORE PUSH1 0x20 ADD PUSH32 0x2336443242443400000000000000000000000000000000000000000000000000 DUP2 MSTORE POP DUP2 MSTORE PUSH1 0x20 ADD PUSH1 0x40 MLOAD DUP1 PUSH1 0x40 ADD PUSH1 0x40 MSTORE DUP1 PUSH1 0x7 DUP2 MSTORE PUSH1 0x20 ADD PUSH32 0x2344393739343100000000000000000000000000000000000000000000000000 DUP2 MSTORE POP DUP2 MSTORE POP DUP2 MSTORE PUSH1 0x20 ADD PUSH1 0x40 MLOAD DUP1 PUSH1 0xA0 ADD PUSH1 0x40 MSTORE DUP1 PUSH1 0x40 MLOAD DUP1 PUSH1 0x40 ADD PUSH1 0x40 MSTORE DUP1 PUSH1 0x7 DUP2 MSTORE PUSH1 0x20 ADD PUSH32 0x2346323642314400000000000000000000000000000000000000000000000000 DUP2 MSTORE POP DUP2 MSTORE PUSH1 0x20 ADD PUSH1 0x40 MLOAD DUP1 PUSH1 0x40 ADD PUSH1 0x40 MSTORE DUP1 PUSH1 0x7 DUP2 MSTORE PUSH1 0x20 ADD PUSH32 0x2338443545463200000000000000000000000000000000000000000000000000 DUP2 MSTORE POP DUP2 MSTORE PUSH1 0x20 ADD PUSH1 0x40 MLOAD DUP1 PUSH1 0x40 ADD PUSH1 0x40 MSTORE DUP1 PUSH1 0x7 DUP2 MSTORE PUSH1 0x20 ADD PUSH32 0x2346323737433700000000000000000000000000000000000000000000000000 DUP2 MSTORE POP DUP2 MSTORE PUSH1 0x20 ADD PUSH1 0x40 MLOAD DUP1 PUSH1 0x40 ADD PUSH1 0x40 MSTORE DUP1 PUSH1 0x7 DUP2 MSTORE PUSH1 0x20 ADD PUSH32 0x2335423434463200000000000000000000000000000000000000000000000000 DUP2 MSTORE POP DUP2 MSTORE PUSH1 0x20 ADD PUSH1 0x40 MLOAD DUP1 PUSH1 0x40 ADD PUSH1 0x40 MSTORE DUP1 PUSH1 0x7 DUP2 MSTORE PUSH1 0x20 ADD PUSH32 0x2346324538353200000000000000000000000000000000000000000000000000 DUP2 MSTORE POP DUP2 MSTORE POP DUP2 MSTORE PUSH1 0x20 ADD PUSH1 0x40 MLOAD DUP1 PUSH1 0xA0 ADD PUSH1 0x40 MSTORE DUP1 PUSH1 0x40 MLOAD DUP1 PUSH1 0x40 ADD PUSH1 0x40 MSTORE DUP1 PUSH1 0x7 DUP2 MSTORE PUSH1 0x20 ADD PUSH32 0x2346323642314400000000000000000000000000000000000000000000000000 DUP2 MSTORE POP DUP2 MSTORE PUSH1 0x20 ADD PUSH1 0x40 MLOAD DUP1 PUSH1 0x40 ADD PUSH1 0x40 MSTORE DUP1 PUSH1 0x7 DUP2 MSTORE PUSH1 0x20 ADD PUSH32 0x2338443545463200000000000000000000000000000000000000000000000000 DUP2 MSTORE POP DUP2 MSTORE PUSH1 0x20 ADD PUSH1 0x40 MLOAD DUP1 PUSH1 0x40 ADD PUSH1 0x40 MSTORE DUP1 PUSH1 0x7 DUP2 MSTORE PUSH1 0x20 ADD PUSH32 0x2346323737433700000000000000000000000000000000000000000000000000 DUP2 MSTORE POP DUP2 MSTORE PUSH1 0x20 ADD PUSH1 0x40 MLOAD DUP1 PUSH1 0x40 ADD PUSH1 0x40 MSTORE DUP1 PUSH1 0x7 DUP2 MSTORE PUSH1 0x20 ADD PUSH32 0x2346324538353200000000000000000000000000000000000000000000000000 DUP2 MSTORE POP DUP2 MSTORE PUSH1 0x20 ADD PUSH1 0x40 MLOAD DUP1 PUSH1 0x40 ADD PUSH1 0x40 MSTORE DUP1 PUSH1 0x7 DUP2 MSTORE PUSH1 0x20 ADD PUSH32 0x2335423434463200000000000000000000000000000000000000000000000000 DUP2 MSTORE POP DUP2 MSTORE POP DUP2 MSTORE PUSH1 0x20 ADD PUSH1 0x40 MLOAD DUP1 PUSH1 0xA0 ADD PUSH1 0x40 MSTORE DUP1 PUSH1 0x40 MLOAD DUP1 PUSH1 0x40 ADD PUSH1 0x40 MSTORE DUP1 PUSH1 0x7 DUP2 MSTORE PUSH1 0x20 ADD PUSH32 0x2346323642314400000000000000000000000000000000000000000000000000 DUP2 MSTORE POP DUP2 MSTORE PUSH1 0x20 ADD PUSH1 0x40 MLOAD DUP1 PUSH1 0x40 ADD PUSH1 0x40 MSTORE DUP1 PUSH1 0x7 DUP2 MSTORE PUSH1 0x20 ADD PUSH32 0x2338443545463200000000000000000000000000000000000000000000000000 DUP2 MSTORE POP DUP2 MSTORE PUSH1 0x20 ADD PUSH1 0x40 MLOAD DUP1 PUSH1 0x40 ADD PUSH1 0x40 MSTORE DUP1 PUSH1 0x7 DUP2 MSTORE PUSH1 0x20 ADD PUSH32 0x2335423434463200000000000000000000000000000000000000000000000000 DUP2 MSTORE POP DUP2 MSTORE PUSH1 0x20 ADD PUSH1 0x40 MLOAD DUP1 PUSH1 0x40 ADD PUSH1 0x40 MSTORE DUP1 PUSH1 0x7 DUP2 MSTORE PUSH1 0x20 ADD PUSH32 0x2346323737433700000000000000000000000000000000000000000000000000 DUP2 MSTORE POP DUP2 MSTORE PUSH1 0x20 ADD PUSH1 0x40 MLOAD DUP1 PUSH1 0x40 ADD PUSH1 0x40 MSTORE DUP1 PUSH1 0x7 DUP2 MSTORE PUSH1 0x20 ADD PUSH32 0x2346324538353200000000000000000000000000000000000000000000000000 DUP2 MSTORE POP DUP2 MSTORE POP DUP2 MSTORE PUSH1 0x20 ADD PUSH1 0x40 MLOAD DUP1 PUSH1 0xA0 ADD PUSH1 0x40 MSTORE DUP1 PUSH1 0x40 MLOAD DUP1 PUSH1 0x40 ADD PUSH1 0x40 MSTORE DUP1 PUSH1 0x7 DUP2 MSTORE PUSH1 0x20 ADD PUSH32 0x2346323642314400000000000000000000000000000000000000000000000000 DUP2 MSTORE POP DUP2 MSTORE PUSH1 0x20 ADD PUSH1 0x40 MLOAD DUP1 PUSH1 0x40 ADD PUSH1 0x40 MSTORE DUP1 PUSH1 0x7 DUP2 MSTORE PUSH1 0x20 ADD PUSH32 0x2338443545463200000000000000000000000000000000000000000000000000 DUP2 MSTORE POP DUP2 MSTORE PUSH1 0x20 ADD PUSH1 0x40 MLOAD DUP1 PUSH1 0x40 ADD PUSH1 0x40 MSTORE DUP1 PUSH1 0x7 DUP2 MSTORE PUSH1 0x20 ADD PUSH32 0x2335423434463200000000000000000000000000000000000000000000000000 DUP2 MSTORE POP DUP2 MSTORE PUSH1 0x20 ADD PUSH1 0x40 MLOAD DUP1 PUSH1 0x40 ADD PUSH1 0x40 MSTORE DUP1 PUSH1 0x7 DUP2 MSTORE PUSH1 0x20 ADD PUSH32 0x2346324538353200000000000000000000000000000000000000000000000000 DUP2 MSTORE POP DUP2 MSTORE PUSH1 0x20 ADD PUSH1 0x40 MLOAD DUP1 PUSH1 0x40 ADD PUSH1 0x40 MSTORE DUP1 PUSH1 0x7 DUP2 MSTORE PUSH1 0x20 ADD PUSH32 0x2346323737433700000000000000000000000000000000000000000000000000 DUP2 MSTORE POP DUP2 MSTORE POP DUP2 MSTORE PUSH1 0x20 ADD PUSH1 0x40 MLOAD DUP1 PUSH1 0xA0 ADD PUSH1 0x40 MSTORE DUP1 PUSH1 0x40 MLOAD DUP1 PUSH1 0x40 ADD PUSH1 0x40 MSTORE DUP1 PUSH1 0x7 DUP2 MSTORE PUSH1 0x20 ADD PUSH32 0x2346323642314400000000000000000000000000000000000000000000000000 DUP2 MSTORE POP DUP2 MSTORE PUSH1 0x20 ADD PUSH1 0x40 MLOAD DUP1 PUSH1 0x40 ADD PUSH1 0x40 MSTORE DUP1 PUSH1 0x7 DUP2 MSTORE PUSH1 0x20 ADD PUSH32 0x2338443545463200000000000000000000000000000000000000000000000000 DUP2 MSTORE POP DUP2 MSTORE PUSH1 0x20 ADD PUSH1 0x40 MLOAD DUP1 PUSH1 0x40 ADD PUSH1 0x40 MSTORE DUP1 PUSH1 0x8 DUP2 MSTORE PUSH1 0x20 ADD PUSH32 0x2346324538353220000000000000000000000000000000000000000000000000 DUP2 MSTORE POP DUP2 MSTORE PUSH1 0x20 ADD PUSH1 0x40 MLOAD DUP1 PUSH1 0x40 ADD PUSH1 0x40 MSTORE DUP1 PUSH1 0x7 DUP2 MSTORE PUSH1 0x20 ADD PUSH32 0x2335423434463200000000000000000000000000000000000000000000000000 DUP2 MSTORE POP DUP2 MSTORE PUSH1 0x20 ADD PUSH1 0x40 MLOAD DUP1 PUSH1 0x40 ADD PUSH1 0x40 MSTORE DUP1 PUSH1 0x7 DUP2 MSTORE PUSH1 0x20 ADD PUSH32 0x2346323737433700000000000000000000000000000000000000000000000000 DUP2 MSTORE POP DUP2 MSTORE POP DUP2 MSTORE PUSH1 0x20 ADD PUSH1 0x40 MLOAD DUP1 PUSH1 0xA0 ADD PUSH1 0x40 MSTORE DUP1 PUSH1 0x40 MLOAD DUP1 PUSH1 0x40 ADD PUSH1 0x40 MSTORE DUP1 PUSH1 0x7 DUP2 MSTORE PUSH1 0x20 ADD PUSH32 0x2346323642314400000000000000000000000000000000000000000000000000 DUP2 MSTORE POP DUP2 MSTORE PUSH1 0x20 ADD PUSH1 0x40 MLOAD DUP1 PUSH1 0x40 ADD PUSH1 0x40 MSTORE DUP1 PUSH1 0x7 DUP2 MSTORE PUSH1 0x20 ADD PUSH32 0x2338443545463200000000000000000000000000000000000000000000000000 DUP2 MSTORE POP DUP2 MSTORE PUSH1 0x20 ADD PUSH1 0x40 MLOAD DUP1 PUSH1 0x40 ADD PUSH1 0x40 MSTORE DUP1 PUSH1 0x8 DUP2 MSTORE PUSH1 0x20 ADD PUSH32 0x2346324538353220000000000000000000000000000000000000000000000000 DUP2 MSTORE POP DUP2 MSTORE PUSH1 0x20 ADD PUSH1 0x40 MLOAD DUP1 PUSH1 0x40 ADD PUSH1 0x40 MSTORE DUP1 PUSH1 0x8 DUP2 MSTORE PUSH1 0x20 ADD PUSH32 0x2320463237374337000000000000000000000000000000000000000000000000 DUP2 MSTORE POP DUP2 MSTORE PUSH1 0x20 ADD PUSH1 0x40 MLOAD DUP1 PUSH1 0x40 ADD PUSH1 0x40 MSTORE DUP1 PUSH1 0x7 DUP2 MSTORE PUSH1 0x20 ADD PUSH32 0x2335423434463200000000000000000000000000000000000000000000000000 DUP2 MSTORE POP DUP2 MSTORE POP DUP2 MSTORE PUSH1 0x20 ADD PUSH1 0x40 MLOAD DUP1 PUSH1 0xA0 ADD PUSH1 0x40 MSTORE DUP1 PUSH1 0x40 MLOAD DUP1 PUSH1 0x40 ADD PUSH1 0x40 MSTORE DUP1 PUSH1 0x7 DUP2 MSTORE PUSH1 0x20 ADD PUSH32 0x2336343538384300000000000000000000000000000000000000000000000000 DUP2 MSTORE POP DUP2 MSTORE PUSH1 0x20 ADD PUSH1 0x40 MLOAD DUP1 PUSH1 0x40 ADD PUSH1 0x40 MSTORE DUP1 PUSH1 0x7 DUP2 MSTORE PUSH1 0x20 ADD PUSH32 0x2341454536463200000000000000000000000000000000000000000000000000 DUP2 MSTORE POP DUP2 MSTORE PUSH1 0x20 ADD PUSH1 0x40 MLOAD DUP1 PUSH1 0x40 ADD PUSH1 0x40 MSTORE DUP1 PUSH1 0x7 DUP2 MSTORE PUSH1 0x20 ADD PUSH32 0x2341343936443900000000000000000000000000000000000000000000000000 DUP2 MSTORE POP DUP2 MSTORE PUSH1 0x20 ADD PUSH1 0x40 MLOAD DUP1 PUSH1 0x40 ADD PUSH1 0x40 MSTORE DUP1 PUSH1 0x7 DUP2 MSTORE PUSH1 0x20 ADD PUSH32 0x2337333536343500000000000000000000000000000000000000000000000000 DUP2 MSTORE POP DUP2 MSTORE PUSH1 0x20 ADD PUSH1 0x40 MLOAD DUP1 PUSH1 0x40 ADD PUSH1 0x40 MSTORE DUP1 PUSH1 0x7 DUP2 MSTORE PUSH1 0x20 ADD PUSH32 0x2346324137413700000000000000000000000000000000000000000000000000 DUP2 MSTORE POP DUP2 MSTORE POP DUP2 MSTORE PUSH1 0x20 ADD PUSH1 0x40 MLOAD DUP1 PUSH1 0xA0 ADD PUSH1 0x40 MSTORE DUP1 PUSH1 0x40 MLOAD DUP1 PUSH1 0x40 ADD PUSH1 0x40 MSTORE DUP1 PUSH1 0x7 DUP2 MSTORE PUSH1 0x20 ADD PUSH32 0x2336343538384300000000000000000000000000000000000000000000000000 DUP2 MSTORE POP DUP2 MSTORE PUSH1 0x20 ADD PUSH1 0x40 MLOAD DUP1 PUSH1 0x40 ADD PUSH1 0x40 MSTORE DUP1 PUSH1 0x7 DUP2 MSTORE PUSH1 0x20 ADD PUSH32 0x2341454536463200000000000000000000000000000000000000000000000000 DUP2 MSTORE POP DUP2 MSTORE PUSH1 0x20 ADD PUSH1 0x40 MLOAD DUP1 PUSH1 0x40 ADD PUSH1 0x40 MSTORE DUP1 PUSH1 0x7 DUP2 MSTORE PUSH1 0x20 ADD PUSH32 0x2341343936443900000000000000000000000000000000000000000000000000 DUP2 MSTORE POP DUP2 MSTORE PUSH1 0x20 ADD PUSH1 0x40 MLOAD DUP1 PUSH1 0x40 ADD PUSH1 0x40 MSTORE DUP1 PUSH1 0x7 DUP2 MSTORE PUSH1 0x20 ADD PUSH32 0x2337333536343500000000000000000000000000000000000000000000000000 DUP2 MSTORE POP DUP2 MSTORE PUSH1 0x20 ADD PUSH1 0x40 MLOAD DUP1 PUSH1 0x40 ADD PUSH1 0x40 MSTORE DUP1 PUSH1 0x7 DUP2 MSTORE PUSH1 0x20 ADD PUSH32 0x2346324137413700000000000000000000000000000000000000000000000000 DUP2 MSTORE POP DUP2 MSTORE POP DUP2 MSTORE PUSH1 0x20 ADD PUSH1 0x40 MLOAD DUP1 PUSH1 0xA0 ADD PUSH1 0x40 MSTORE DUP1 PUSH1 0x40 MLOAD DUP1 PUSH1 0x40 ADD PUSH1 0x40 MSTORE DUP1 PUSH1 0x7 DUP2 MSTORE PUSH1 0x20 ADD PUSH32 0x2336343538384300000000000000000000000000000000000000000000000000 DUP2 MSTORE POP DUP2 MSTORE PUSH1 0x20 ADD PUSH1 0x40 MLOAD DUP1 PUSH1 0x40 ADD PUSH1 0x40 MSTORE DUP1 PUSH1 0x7 DUP2 MSTORE PUSH1 0x20 ADD PUSH32 0x2341454536463200000000000000000000000000000000000000000000000000 DUP2 MSTORE POP DUP2 MSTORE PUSH1 0x20 ADD PUSH1 0x40 MLOAD DUP1 PUSH1 0x40 ADD PUSH1 0x40 MSTORE DUP1 PUSH1 0x8 DUP2 MSTORE PUSH1 0x20 ADD PUSH32 0x2346324137413720000000000000000000000000000000000000000000000000 DUP2 MSTORE POP DUP2 MSTORE PUSH1 0x20 ADD PUSH1 0x40 MLOAD DUP1 PUSH1 0x40 ADD PUSH1 0x40 MSTORE DUP1 PUSH1 0x7 DUP2 MSTORE PUSH1 0x20 ADD PUSH32 0x2337333536343500000000000000000000000000000000000000000000000000 DUP2 MSTORE POP DUP2 MSTORE PUSH1 0x20 ADD PUSH1 0x40 MLOAD DUP1 PUSH1 0x40 ADD PUSH1 0x40 MSTORE DUP1 PUSH1 0x7 DUP2 MSTORE PUSH1 0x20 ADD PUSH32 0x2341343936443900000000000000000000000000000000000000000000000000 DUP2 MSTORE POP DUP2 MSTORE POP DUP2 MSTORE PUSH1 0x20 ADD PUSH1 0x40 MLOAD DUP1 PUSH1 0xA0 ADD PUSH1 0x40 MSTORE DUP1 PUSH1 0x40 MLOAD DUP1 PUSH1 0x40 ADD PUSH1 0x40 MSTORE DUP1 PUSH1 0x7 DUP2 MSTORE PUSH1 0x20 ADD PUSH32 0x2336343538384300000000000000000000000000000000000000000000000000 DUP2 MSTORE POP DUP2 MSTORE PUSH1 0x20 ADD PUSH1 0x40 MLOAD DUP1 PUSH1 0x40 ADD PUSH1 0x40 MSTORE DUP1 PUSH1 0x7 DUP2 MSTORE PUSH1 0x20 ADD PUSH32 0x2341454536463200000000000000000000000000000000000000000000000000 DUP2 MSTORE POP DUP2 MSTORE PUSH1 0x20 ADD PUSH1 0x40 MLOAD DUP1 PUSH1 0x40 ADD PUSH1 0x40 MSTORE DUP1 PUSH1 0x8 DUP2 MSTORE PUSH1 0x20 ADD PUSH32 0x2346324137413720000000000000000000000000000000000000000000000000 DUP2 MSTORE POP DUP2 MSTORE PUSH1 0x20 ADD PUSH1 0x40 MLOAD DUP1 PUSH1 0x40 ADD PUSH1 0x40 MSTORE DUP1 PUSH1 0x7 DUP2 MSTORE PUSH1 0x20 ADD PUSH32 0x2341343936443900000000000000000000000000000000000000000000000000 DUP2 MSTORE POP DUP2 MSTORE PUSH1 0x20 ADD PUSH1 0x40 MLOAD DUP1 PUSH1 0x40 ADD PUSH1 0x40 MSTORE DUP1 PUSH1 0x7 DUP2 MSTORE PUSH1 0x20 ADD PUSH32 0x2337333536343500000000000000000000000000000000000000000000000000 DUP2 MSTORE POP DUP2 MSTORE POP DUP2 MSTORE PUSH1 0x20 ADD PUSH1 0x40 MLOAD DUP1 PUSH1 0xA0 ADD PUSH1 0x40 MSTORE DUP1 PUSH1 0x40 MLOAD DUP1 PUSH1 0x40 ADD PUSH1 0x40 MSTORE DUP1 PUSH1 0x7 DUP2 MSTORE PUSH1 0x20 ADD PUSH32 0x2336343538384300000000000000000000000000000000000000000000000000 DUP2 MSTORE POP DUP2 MSTORE PUSH1 0x20 ADD PUSH1 0x40 MLOAD DUP1 PUSH1 0x40 ADD PUSH1 0x40 MSTORE DUP1 PUSH1 0x7 DUP2 MSTORE PUSH1 0x20 ADD PUSH32 0x2341454536463200000000000000000000000000000000000000000000000000 DUP2 MSTORE POP DUP2 MSTORE PUSH1 0x20 ADD PUSH1 0x40 MLOAD DUP1 PUSH1 0x40 ADD PUSH1 0x40 MSTORE DUP1 PUSH1 0x7 DUP2 MSTORE PUSH1 0x20 ADD PUSH32 0x2346324137413700000000000000000000000000000000000000000000000000 DUP2 MSTORE POP DUP2 MSTORE PUSH1 0x20 ADD PUSH1 0x40 MLOAD DUP1 PUSH1 0x40 ADD PUSH1 0x40 MSTORE DUP1 PUSH1 0x7 DUP2 MSTORE PUSH1 0x20 ADD PUSH32 0x2337333536343500000000000000000000000000000000000000000000000000 DUP2 MSTORE POP DUP2 MSTORE PUSH1 0x20 ADD PUSH1 0x40 MLOAD DUP1 PUSH1 0x40 ADD PUSH1 0x40 MSTORE DUP1 PUSH1 0x7 DUP2 MSTORE PUSH1 0x20 ADD PUSH32 0x2341343936443900000000000000000000000000000000000000000000000000 DUP2 MSTORE POP DUP2 MSTORE POP DUP2 MSTORE PUSH1 0x20 ADD PUSH1 0x40 MLOAD DUP1 PUSH1 0xA0 ADD PUSH1 0x40 MSTORE DUP1 PUSH1 0x40 MLOAD DUP1 PUSH1 0x40 ADD PUSH1 0x40 MSTORE DUP1 PUSH1 0x7 DUP2 MSTORE PUSH1 0x20 ADD PUSH32 0x2336343538384300000000000000000000000000000000000000000000000000 DUP2 MSTORE POP DUP2 MSTORE PUSH1 0x20 ADD PUSH1 0x40 MLOAD DUP1 PUSH1 0x40 ADD PUSH1 0x40 MSTORE DUP1 PUSH1 0x7 DUP2 MSTORE PUSH1 0x20 ADD PUSH32 0x2341454536463200000000000000000000000000000000000000000000000000 DUP2 MSTORE POP DUP2 MSTORE PUSH1 0x20 ADD PUSH1 0x40 MLOAD DUP1 PUSH1 0x40 ADD PUSH1 0x40 MSTORE DUP1 PUSH1 0x7 DUP2 MSTORE PUSH1 0x20 ADD PUSH32 0x2346324137413700000000000000000000000000000000000000000000000000 DUP2 MSTORE POP DUP2 MSTORE PUSH1 0x20 ADD PUSH1 0x40 MLOAD DUP1 PUSH1 0x40 ADD PUSH1 0x40 MSTORE DUP1 PUSH1 0x7 DUP2 MSTORE PUSH1 0x20 ADD PUSH32 0x2341343936443900000000000000000000000000000000000000000000000000 DUP2 MSTORE POP DUP2 MSTORE PUSH1 0x20 ADD PUSH1 0x40 MLOAD DUP1 PUSH1 0x40 ADD PUSH1 0x40 MSTORE DUP1 PUSH1 0x7 DUP2 MSTORE PUSH1 0x20 ADD PUSH32 0x2337333536343500000000000000000000000000000000000000000000000000 DUP2 MSTORE POP DUP2 MSTORE POP DUP2 MSTORE PUSH1 0x20 ADD PUSH1 0x40 MLOAD DUP1 PUSH1 0xA0 ADD PUSH1 0x40 MSTORE DUP1 PUSH1 0x40 MLOAD DUP1 PUSH1 0x40 ADD PUSH1 0x40 MSTORE DUP1 PUSH1 0x7 DUP2 MSTORE PUSH1 0x20 ADD PUSH32 0x2337333239333700000000000000000000000000000000000000000000000000 DUP2 MSTORE POP DUP2 MSTORE PUSH1 0x20 ADD PUSH1 0x40 MLOAD DUP1 PUSH1 0x40 ADD PUSH1 0x40 MSTORE DUP1 PUSH1 0x7 DUP2 MSTORE PUSH1 0x20 ADD PUSH32 0x2346324532434500000000000000000000000000000000000000000000000000 DUP2 MSTORE POP DUP2 MSTORE PUSH1 0x20 ADD PUSH1 0x40 MLOAD DUP1 PUSH1 0x40 ADD PUSH1 0x40 MSTORE DUP1 PUSH1 0x7 DUP2 MSTORE PUSH1 0x20 ADD PUSH32 0x2342463944384100000000000000000000000000000000000000000000000000 DUP2 MSTORE POP DUP2 MSTORE PUSH1 0x20 ADD PUSH1 0x40 MLOAD DUP1 PUSH1 0x40 ADD PUSH1 0x40 MSTORE DUP1 PUSH1 0x7 DUP2 MSTORE PUSH1 0x20 ADD PUSH32 0x2339443345363000000000000000000000000000000000000000000000000000 DUP2 MSTORE POP DUP2 MSTORE PUSH1 0x20 ADD PUSH1 0x40 MLOAD DUP1 PUSH1 0x40 ADD PUSH1 0x40 MSTORE DUP1 PUSH1 0x7 DUP2 MSTORE PUSH1 0x20 ADD PUSH32 0x2342433638363800000000000000000000000000000000000000000000000000 DUP2 MSTORE POP DUP2 MSTORE POP DUP2 MSTORE PUSH1 0x20 ADD PUSH1 0x40 MLOAD DUP1 PUSH1 0xA0 ADD PUSH1 0x40 MSTORE DUP1 PUSH1 0x40 MLOAD DUP1 PUSH1 0x40 ADD PUSH1 0x40 MSTORE DUP1 PUSH1 0x7 DUP2 MSTORE PUSH1 0x20 ADD PUSH32 0x2337333239333700000000000000000000000000000000000000000000000000 DUP2 MSTORE POP DUP2 MSTORE PUSH1 0x20 ADD PUSH1 0x40 MLOAD DUP1 PUSH1 0x40 ADD PUSH1 0x40 MSTORE DUP1 PUSH1 0x7 DUP2 MSTORE PUSH1 0x20 ADD PUSH32 0x2346324532434500000000000000000000000000000000000000000000000000 DUP2 MSTORE POP DUP2 MSTORE PUSH1 0x20 ADD PUSH1 0x40 MLOAD DUP1 PUSH1 0x40 ADD PUSH1 0x40 MSTORE DUP1 PUSH1 0x7 DUP2 MSTORE PUSH1 0x20 ADD PUSH32 0x2342463944384100000000000000000000000000000000000000000000000000 DUP2 MSTORE POP DUP2 MSTORE PUSH1 0x20 ADD PUSH1 0x40 MLOAD DUP1 PUSH1 0x40 ADD PUSH1 0x40 MSTORE DUP1 PUSH1 0x7 DUP2 MSTORE PUSH1 0x20 ADD PUSH32 0x2342433638363800000000000000000000000000000000000000000000000000 DUP2 MSTORE POP DUP2 MSTORE PUSH1 0x20 ADD PUSH1 0x40 MLOAD DUP1 PUSH1 0x40 ADD PUSH1 0x40 MSTORE DUP1 PUSH1 0x7 DUP2 MSTORE PUSH1 0x20 ADD PUSH32 0x2339443345363000000000000000000000000000000000000000000000000000 DUP2 MSTORE POP DUP2 MSTORE POP DUP2 MSTORE PUSH1 0x20 ADD PUSH1 0x40 MLOAD DUP1 PUSH1 0xA0 ADD PUSH1 0x40 MSTORE DUP1 PUSH1 0x40 MLOAD DUP1 PUSH1 0x40 ADD PUSH1 0x40 MSTORE DUP1 PUSH1 0x7 DUP2 MSTORE PUSH1 0x20 ADD PUSH32 0x2337333239333700000000000000000000000000000000000000000000000000 DUP2 MSTORE POP DUP2 MSTORE PUSH1 0x20 ADD PUSH1 0x40 MLOAD DUP1 PUSH1 0x40 ADD PUSH1 0x40 MSTORE DUP1 PUSH1 0x7 DUP2 MSTORE PUSH1 0x20 ADD PUSH32 0x2346324532434500000000000000000000000000000000000000000000000000 DUP2 MSTORE POP DUP2 MSTORE PUSH1 0x20 ADD PUSH1 0x40 MLOAD DUP1 PUSH1 0x40 ADD PUSH1 0x40 MSTORE DUP1 PUSH1 0x7 DUP2 MSTORE PUSH1 0x20 ADD PUSH32 0x2339443345363000000000000000000000000000000000000000000000000000 DUP2 MSTORE POP DUP2 MSTORE PUSH1 0x20 ADD PUSH1 0x40 MLOAD DUP1 PUSH1 0x40 ADD PUSH1 0x40 MSTORE DUP1 PUSH1 0x7 DUP2 MSTORE PUSH1 0x20 ADD PUSH32 0x2342463944384100000000000000000000000000000000000000000000000000 DUP2 MSTORE POP DUP2 MSTORE PUSH1 0x20 ADD PUSH1 0x40 MLOAD DUP1 PUSH1 0x40 ADD PUSH1 0x40 MSTORE DUP1 PUSH1 0x7 DUP2 MSTORE PUSH1 0x20 ADD PUSH32 0x2342433638363800000000000000000000000000000000000000000000000000 DUP2 MSTORE POP DUP2 MSTORE POP DUP2 MSTORE PUSH1 0x20 ADD PUSH1 0x40 MLOAD DUP1 PUSH1 0xA0 ADD PUSH1 0x40 MSTORE DUP1 PUSH1 0x40 MLOAD DUP1 PUSH1 0x40 ADD PUSH1 0x40 MSTORE DUP1 PUSH1 0x7 DUP2 MSTORE PUSH1 0x20 ADD PUSH32 0x2337333239333700000000000000000000000000000000000000000000000000 DUP2 MSTORE POP DUP2 MSTORE PUSH1 0x20 ADD PUSH1 0x40 MLOAD DUP1 PUSH1 0x40 ADD PUSH1 0x40 MSTORE DUP1 PUSH1 0x7 DUP2 MSTORE PUSH1 0x20 ADD PUSH32 0x2346324532434500000000000000000000000000000000000000000000000000 DUP2 MSTORE POP DUP2 MSTORE PUSH1 0x20 ADD PUSH1 0x40 MLOAD DUP1 PUSH1 0x40 ADD PUSH1 0x40 MSTORE DUP1 PUSH1 0x7 DUP2 MSTORE PUSH1 0x20 ADD PUSH32 0x2339443345363000000000000000000000000000000000000000000000000000 DUP2 MSTORE POP DUP2 MSTORE PUSH1 0x20 ADD PUSH1 0x40 MLOAD DUP1 PUSH1 0x40 ADD PUSH1 0x40 MSTORE DUP1 PUSH1 0x7 DUP2 MSTORE PUSH1 0x20 ADD PUSH32 0x2342433638363800000000000000000000000000000000000000000000000000 DUP2 MSTORE POP DUP2 MSTORE PUSH1 0x20 ADD PUSH1 0x40 MLOAD DUP1 PUSH1 0x40 ADD PUSH1 0x40 MSTORE DUP1 PUSH1 0x7 DUP2 MSTORE PUSH1 0x20 ADD PUSH32 0x2342463944384100000000000000000000000000000000000000000000000000 DUP2 MSTORE POP DUP2 MSTORE POP DUP2 MSTORE POP PUSH1 0x7 SWAP1 PUSH1 0x40 PUSH3 0x4D65 SWAP3 SWAP2 SWAP1 PUSH3 0x4F09 JUMP JUMPDEST POP PUSH1 0x40 MLOAD DUP1 PUSH2 0x100 ADD PUSH1 0x40 MSTORE DUP1 PUSH1 0x40 MLOAD DUP1 PUSH1 0x60 ADD PUSH1 0x40 MSTORE DUP1 PUSH1 0x39 DUP2 MSTORE PUSH1 0x20 ADD PUSH3 0xAA27 PUSH1 0x39 SWAP2 CODECOPY DUP2 MSTORE PUSH1 0x20 ADD PUSH1 0x40 MLOAD DUP1 PUSH1 0x60 ADD PUSH1 0x40 MSTORE DUP1 PUSH1 0x26 DUP2 MSTORE PUSH1 0x20 ADD PUSH3 0xAA8A PUSH1 0x26 SWAP2 CODECOPY DUP2 MSTORE PUSH1 0x20 ADD PUSH1 0x40 MLOAD DUP1 PUSH1 0x40 ADD PUSH1 0x40 MSTORE DUP1 PUSH1 0x20 DUP2 MSTORE PUSH1 0x20 ADD PUSH32 0x52656D656D6265722074686174206375726174696F6E206973207269736B792E DUP2 MSTORE POP DUP2 MSTORE PUSH1 0x20 ADD PUSH1 0x40 MLOAD DUP1 PUSH1 0x60 ADD PUSH1 0x40 MSTORE DUP1 PUSH1 0x21 DUP2 MSTORE PUSH1 0x20 ADD PUSH3 0xAAB0 PUSH1 0x21 SWAP2 CODECOPY DUP2 MSTORE PUSH1 0x20 ADD PUSH1 0x40 MLOAD DUP1 PUSH1 0x60 ADD PUSH1 0x40 MSTORE DUP1 PUSH1 0x37 DUP2 MSTORE PUSH1 0x20 ADD PUSH3 0xAAD1 PUSH1 0x37 SWAP2 CODECOPY DUP2 MSTORE PUSH1 0x20 ADD PUSH1 0x40 MLOAD DUP1 PUSH1 0x60 ADD PUSH1 0x40 MSTORE DUP1 PUSH1 0x2A DUP2 MSTORE PUSH1 0x20 ADD PUSH3 0xAA60 PUSH1 0x2A SWAP2 CODECOPY DUP2 MSTORE PUSH1 0x20 ADD PUSH1 0x40 MLOAD DUP1 PUSH1 0x60 ADD PUSH1 0x40 MSTORE DUP1 PUSH1 0x24 DUP2 MSTORE PUSH1 0x20 ADD PUSH3 0xAA03 PUSH1 0x24 SWAP2 CODECOPY DUP2 MSTORE PUSH1 0x20 ADD PUSH1 0x40 MLOAD DUP1 PUSH1 0x60 ADD PUSH1 0x40 MSTORE DUP1 PUSH1 0x2A DUP2 MSTORE PUSH1 0x20 ADD PUSH3 0xAA60 PUSH1 0x2A SWAP2 CODECOPY DUP2 MSTORE POP PUSH2 0x147 SWAP1 PUSH1 0x8 PUSH3 0x4E97 SWAP3 SWAP2 SWAP1 PUSH3 0x4F61 JUMP JUMPDEST POP CALLVALUE DUP1 ISZERO PUSH3 0x4EA5 JUMPI PUSH1 0x0 DUP1 REVERT JUMPDEST POP PUSH1 0x40 MLOAD PUSH3 0xAB08 CODESIZE SUB DUP1 PUSH3 0xAB08 DUP4 CODECOPY DUP2 DUP2 ADD PUSH1 0x40 MSTORE DUP2 ADD SWAP1 PUSH3 0x4ECB SWAP2 SWAP1 PUSH3 0x51E2 JUMP JUMPDEST DUP2 DUP2 DUP2 PUSH1 0x0 SWAP1 DUP1 MLOAD SWAP1 PUSH1 0x20 ADD SWAP1 PUSH3 0x4EE5 SWAP3 SWAP2 SWAP1 PUSH3 0x4FBB JUMP JUMPDEST POP DUP1 PUSH1 0x1 SWAP1 DUP1 MLOAD SWAP1 PUSH1 0x20 ADD SWAP1 PUSH3 0x4EFE SWAP3 SWAP2 SWAP1 PUSH3 0x4FBB JUMP JUMPDEST POP POP POP POP POP PUSH3 0x53C5 JUMP JUMPDEST DUP3 PUSH1 0x40 PUSH1 0x5 MUL DUP2 ADD SWAP3 DUP3 ISZERO PUSH3 0x4F4E JUMPI SWAP2 PUSH1 0x20 MUL DUP3 ADD JUMPDEST DUP3 DUP2 GT ISZERO PUSH3 0x4F4D JUMPI DUP3 MLOAD DUP3 SWAP1 PUSH1 0x5 PUSH3 0x4F3C SWAP3 SWAP2 SWAP1 PUSH3 0x504C JUMP JUMPDEST POP SWAP2 PUSH1 0x20 ADD SWAP2 SWAP1 PUSH1 0x5 ADD SWAP1 PUSH3 0x4F20 JUMP JUMPDEST JUMPDEST POP SWAP1 POP PUSH3 0x4F5D SWAP2 SWAP1 PUSH3 0x50A6 JUMP JUMPDEST POP SWAP1 JUMP JUMPDEST DUP3 PUSH1 0x8 DUP2 ADD SWAP3 DUP3 ISZERO PUSH3 0x4FA8 JUMPI SWAP2 PUSH1 0x20 MUL DUP3 ADD JUMPDEST DUP3 DUP2 GT ISZERO PUSH3 0x4FA7 JUMPI DUP3 MLOAD DUP3 SWAP1 DUP1 MLOAD SWAP1 PUSH1 0x20 ADD SWAP1 PUSH3 0x4F96 SWAP3 SWAP2 SWAP1 PUSH3 0x4FBB JUMP JUMPDEST POP SWAP2 PUSH1 0x20 ADD SWAP2 SWAP1 PUSH1 0x1 ADD SWAP1 PUSH3 0x4F75 JUMP JUMPDEST JUMPDEST POP SWAP1 POP PUSH3 0x4FB7 SWAP2 SWAP1 PUSH3 0x50CE JUMP JUMPDEST POP SWAP1 JUMP JUMPDEST DUP3 DUP1 SLOAD PUSH3 0x4FC9 SWAP1 PUSH3 0x52EA JUMP JUMPDEST SWAP1 PUSH1 0x0 MSTORE PUSH1 0x20 PUSH1 0x0 KECCAK256 SWAP1 PUSH1 0x1F ADD PUSH1 0x20 SWAP1 DIV DUP2 ADD SWAP3 DUP3 PUSH3 0x4FED JUMPI PUSH1 0x0 DUP6 SSTORE PUSH3 0x5039 JUMP JUMPDEST DUP3 PUSH1 0x1F LT PUSH3 0x5008 JUMPI DUP1 MLOAD PUSH1 0xFF NOT AND DUP4 DUP1 ADD OR DUP6 SSTORE PUSH3 0x5039 JUMP JUMPDEST DUP3 DUP1 ADD PUSH1 0x1 ADD DUP6 SSTORE DUP3 ISZERO PUSH3 0x5039 JUMPI SWAP2 DUP3 ADD JUMPDEST DUP3 DUP2 GT ISZERO PUSH3 0x5038 JUMPI DUP3 MLOAD DUP3 SSTORE SWAP2 PUSH1 0x20 ADD SWAP2 SWAP1 PUSH1 0x1 ADD SWAP1 PUSH3 0x501B JUMP JUMPDEST JUMPDEST POP SWAP1 POP PUSH3 0x5048 SWAP2 SWAP1 PUSH3 0x50F6 JUMP JUMPDEST POP SWAP1 JUMP JUMPDEST DUP3 PUSH1 0x5 DUP2 ADD SWAP3 DUP3 ISZERO PUSH3 0x5093 JUMPI SWAP2 PUSH1 0x20 MUL DUP3 ADD JUMPDEST DUP3 DUP2 GT ISZERO PUSH3 0x5092 JUMPI DUP3 MLOAD DUP3 SWAP1 DUP1 MLOAD SWAP1 PUSH1 0x20 ADD SWAP1 PUSH3 0x5081 SWAP3 SWAP2 SWAP1 PUSH3 0x4FBB JUMP JUMPDEST POP SWAP2 PUSH1 0x20 ADD SWAP2 SWAP1 PUSH1 0x1 ADD SWAP1 PUSH3 0x5060 JUMP JUMPDEST JUMPDEST POP SWAP1 POP PUSH3 0x50A2 SWAP2 SWAP1 PUSH3 0x50CE JUMP JUMPDEST POP SWAP1 JUMP JUMPDEST JUMPDEST DUP1 DUP3 GT ISZERO PUSH3 0x50CA JUMPI PUSH1 0x0 DUP2 DUP2 PUSH3 0x50C0 SWAP2 SWAP1 PUSH3 0x5115 JUMP JUMPDEST POP PUSH1 0x5 ADD PUSH3 0x50A7 JUMP JUMPDEST POP SWAP1 JUMP JUMPDEST JUMPDEST DUP1 DUP3 GT ISZERO PUSH3 0x50F2 JUMPI PUSH1 0x0 DUP2 DUP2 PUSH3 0x50E8 SWAP2 SWAP1 PUSH3 0x512A JUMP JUMPDEST POP PUSH1 0x1 ADD PUSH3 0x50CF JUMP JUMPDEST POP SWAP1 JUMP JUMPDEST JUMPDEST DUP1 DUP3 GT ISZERO PUSH3 0x5111 JUMPI PUSH1 0x0 DUP2 PUSH1 0x0 SWAP1 SSTORE POP PUSH1 0x1 ADD PUSH3 0x50F7 JUMP JUMPDEST POP SWAP1 JUMP JUMPDEST POP DUP1 PUSH1 0x5 ADD SWAP1 PUSH3 0x5127 SWAP2 SWAP1 PUSH3 0x50CE JUMP JUMPDEST POP JUMP JUMPDEST POP DUP1 SLOAD PUSH3 0x5138 SWAP1 PUSH3 0x52EA JUMP JUMPDEST PUSH1 0x0 DUP3 SSTORE DUP1 PUSH1 0x1F LT PUSH3 0x514C JUMPI POP PUSH3 0x516D JUMP JUMPDEST PUSH1 0x1F ADD PUSH1 0x20 SWAP1 DIV SWAP1 PUSH1 0x0 MSTORE PUSH1 0x20 PUSH1 0x0 KECCAK256 SWAP1 DUP2 ADD SWAP1 PUSH3 0x516C SWAP2 SWAP1 PUSH3 0x50F6 JUMP JUMPDEST JUMPDEST POP JUMP JUMPDEST PUSH1 0x0 PUSH3 0x5187 PUSH3 0x5181 DUP5 PUSH3 0x527E JUMP JUMPDEST PUSH3 0x5255 JUMP JUMPDEST SWAP1 POP DUP3 DUP2 MSTORE PUSH1 0x20 DUP2 ADD DUP5 DUP5 DUP5 ADD GT ISZERO PUSH3 0x51A0 JUMPI PUSH1 0x0 DUP1 REVERT JUMPDEST PUSH3 0x51AD DUP5 DUP3 DUP6 PUSH3 0x52B4 JUMP JUMPDEST POP SWAP4 SWAP3 POP POP POP JUMP JUMPDEST PUSH1 0x0 DUP3 PUSH1 0x1F DUP4 ADD SLT PUSH3 0x51C7 JUMPI PUSH1 0x0 DUP1 REVERT JUMPDEST DUP2 MLOAD PUSH3 0x51D9 DUP5 DUP3 PUSH1 0x20 DUP7 ADD PUSH3 0x5170 JUMP JUMPDEST SWAP2 POP POP SWAP3 SWAP2 POP POP JUMP JUMPDEST PUSH1 0x0 DUP1 PUSH1 0x40 DUP4 DUP6 SUB SLT ISZERO PUSH3 0x51F6 JUMPI PUSH1 0x0 DUP1 REVERT JUMPDEST PUSH1 0x0 DUP4 ADD MLOAD PUSH8 0xFFFFFFFFFFFFFFFF DUP2 GT ISZERO PUSH3 0x5211 JUMPI PUSH1 0x0 DUP1 REVERT JUMPDEST PUSH3 0x521F DUP6 DUP3 DUP7 ADD PUSH3 0x51B5 JUMP JUMPDEST SWAP3 POP POP PUSH1 0x20 DUP4 ADD MLOAD PUSH8 0xFFFFFFFFFFFFFFFF DUP2 GT ISZERO PUSH3 0x523D JUMPI PUSH1 0x0 DUP1 REVERT JUMPDEST PUSH3 0x524B DUP6 DUP3 DUP7 ADD PUSH3 0x51B5 JUMP JUMPDEST SWAP2 POP POP SWAP3 POP SWAP3 SWAP1 POP JUMP JUMPDEST PUSH1 0x0 PUSH3 0x5261 PUSH3 0x5274 JUMP JUMPDEST SWAP1 POP PUSH3 0x526F DUP3 DUP3 PUSH3 0x5320 JUMP JUMPDEST SWAP2 SWAP1 POP JUMP JUMPDEST PUSH1 0x0 PUSH1 0x40 MLOAD SWAP1 POP SWAP1 JUMP JUMPDEST PUSH1 0x0 PUSH8 0xFFFFFFFFFFFFFFFF DUP3 GT ISZERO PUSH3 0x529C JUMPI PUSH3 0x529B PUSH3 0x5385 JUMP JUMPDEST JUMPDEST PUSH3 0x52A7 DUP3 PUSH3 0x53B4 JUMP JUMPDEST SWAP1 POP PUSH1 0x20 DUP2 ADD SWAP1 POP SWAP2 SWAP1 POP JUMP JUMPDEST PUSH1 0x0 JUMPDEST DUP4 DUP2 LT ISZERO PUSH3 0x52D4 JUMPI DUP1 DUP3 ADD MLOAD DUP2 DUP5 ADD MSTORE PUSH1 0x20 DUP2 ADD SWAP1 POP PUSH3 0x52B7 JUMP JUMPDEST DUP4 DUP2 GT ISZERO PUSH3 0x52E4 JUMPI PUSH1 0x0 DUP5 DUP5 ADD MSTORE JUMPDEST POP POP POP POP JUMP JUMPDEST PUSH1 0x0 PUSH1 0x2 DUP3 DIV SWAP1 POP PUSH1 0x1 DUP3 AND DUP1 PUSH3 0x5303 JUMPI PUSH1 0x7F DUP3 AND SWAP2 POP JUMPDEST PUSH1 0x20 DUP3 LT DUP2 EQ ISZERO PUSH3 0x531A JUMPI PUSH3 0x5319 PUSH3 0x5356 JUMP JUMPDEST JUMPDEST POP SWAP2 SWAP1 POP JUMP JUMPDEST PUSH3 0x532B DUP3 PUSH3 0x53B4 JUMP JUMPDEST DUP2 ADD DUP2 DUP2 LT PUSH8 0xFFFFFFFFFFFFFFFF DUP3 GT OR ISZERO PUSH3 0x534D JUMPI PUSH3 0x534C PUSH3 0x5385 JUMP JUMPDEST JUMPDEST DUP1 PUSH1 0x40 MSTORE POP POP POP JUMP JUMPDEST PUSH32 0x4E487B7100000000000000000000000000000000000000000000000000000000 PUSH1 0x0 MSTORE PUSH1 0x22 PUSH1 0x4 MSTORE PUSH1 0x24 PUSH1 0x0 REVERT JUMPDEST PUSH32 0x4E487B7100000000000000000000000000000000000000000000000000000000 PUSH1 0x0 MSTORE PUSH1 0x41 PUSH1 0x4 MSTORE PUSH1 0x24 PUSH1 0x0 REVERT JUMPDEST PUSH1 0x0 PUSH1 0x1F NOT PUSH1 0x1F DUP4 ADD AND SWAP1 POP SWAP2 SWAP1 POP JUMP JUMPDEST PUSH2 0x562E DUP1 PUSH3 0x53D5 PUSH1 0x0 CODECOPY PUSH1 0x0 RETURN INVALID PUSH1 0x80 PUSH1 0x40 MSTORE CALLVALUE DUP1 ISZERO PUSH2 0x10 JUMPI PUSH1 0x0 DUP1 REVERT JUMPDEST POP PUSH1 0x4 CALLDATASIZE LT PUSH2 0x116 JUMPI PUSH1 0x0 CALLDATALOAD PUSH1 0xE0 SHR DUP1 PUSH4 0x6FA700BF GT PUSH2 0xA2 JUMPI DUP1 PUSH4 0xB88D4FDE GT PUSH2 0x71 JUMPI DUP1 PUSH4 0xB88D4FDE EQ PUSH2 0x306 JUMPI DUP1 PUSH4 0xC75440E1 EQ PUSH2 0x322 JUMPI DUP1 PUSH4 0xC87B56DD EQ PUSH2 0x352 JUMPI DUP1 PUSH4 0xE985E9C5 EQ PUSH2 0x382 JUMPI DUP1 PUSH4 0xF434E8E0 EQ PUSH2 0x3B2 JUMPI PUSH2 0x116 JUMP JUMPDEST DUP1 PUSH4 0x6FA700BF EQ PUSH2 0x26B JUMPI DUP1 PUSH4 0x70A08231 EQ PUSH2 0x29C JUMPI DUP1 PUSH4 0x95D89B41 EQ PUSH2 0x2CC JUMPI DUP1 PUSH4 0xA22CB465 EQ PUSH2 0x2EA JUMPI PUSH2 0x116 JUMP JUMPDEST DUP1 PUSH4 0x1249C58B GT PUSH2 0xE9 JUMPI DUP1 PUSH4 0x1249C58B EQ PUSH2 0x1B5 JUMPI DUP1 PUSH4 0x23B872DD EQ PUSH2 0x1D3 JUMPI DUP1 PUSH4 0x42842E0E EQ PUSH2 0x1EF JUMPI DUP1 PUSH4 0x5E57966D EQ PUSH2 0x20B JUMPI DUP1 PUSH4 0x6352211E EQ PUSH2 0x23B JUMPI PUSH2 0x116 JUMP JUMPDEST DUP1 PUSH4 0x1FFC9A7 EQ PUSH2 0x11B JUMPI DUP1 PUSH4 0x6FDDE03 EQ PUSH2 0x14B JUMPI DUP1 PUSH4 0x81812FC EQ PUSH2 0x169 JUMPI DUP1 PUSH4 0x95EA7B3 EQ PUSH2 0x199 JUMPI JUMPDEST PUSH1 0x0 DUP1 REVERT JUMPDEST PUSH2 0x135 PUSH1 0x4 DUP1 CALLDATASIZE SUB DUP2 ADD SWAP1 PUSH2 0x130 SWAP2 SWAP1 PUSH2 0x28F0 JUMP JUMPDEST PUSH2 0x3E2 JUMP JUMPDEST PUSH1 0x40 MLOAD PUSH2 0x142 SWAP2 SWAP1 PUSH2 0x3408 JUMP JUMPDEST PUSH1 0x40 MLOAD DUP1 SWAP2 SUB SWAP1 RETURN JUMPDEST PUSH2 0x153 PUSH2 0x4C4 JUMP JUMPDEST PUSH1 0x40 MLOAD PUSH2 0x160 SWAP2 SWAP1 PUSH2 0x3423 JUMP JUMPDEST PUSH1 0x40 MLOAD DUP1 SWAP2 SUB SWAP1 RETURN JUMPDEST PUSH2 0x183 PUSH1 0x4 DUP1 CALLDATASIZE SUB DUP2 ADD SWAP1 PUSH2 0x17E SWAP2 SWAP1 PUSH2 0x2942 JUMP JUMPDEST PUSH2 0x556 JUMP JUMPDEST PUSH1 0x40 MLOAD PUSH2 0x190 SWAP2 SWAP1 PUSH2 0x3378 JUMP JUMPDEST PUSH1 0x40 MLOAD DUP1 SWAP2 SUB SWAP1 RETURN JUMPDEST PUSH2 0x1B3 PUSH1 0x4 DUP1 CALLDATASIZE SUB DUP2 ADD SWAP1 PUSH2 0x1AE SWAP2 SWAP1 PUSH2 0x28B4 JUMP JUMPDEST PUSH2 0x5DB JUMP JUMPDEST STOP JUMPDEST PUSH2 0x1BD PUSH2 0x6F3 JUMP JUMPDEST PUSH1 0x40 MLOAD PUSH2 0x1CA SWAP2 SWAP1 PUSH2 0x35E5 JUMP JUMPDEST PUSH1 0x40 MLOAD DUP1 SWAP2 SUB SWAP1 RETURN JUMPDEST PUSH2 0x1ED PUSH1 0x4 DUP1 CALLDATASIZE SUB DUP2 ADD SWAP1 PUSH2 0x1E8 SWAP2 SWAP1 PUSH2 0x27AE JUMP JUMPDEST PUSH2 0x7D0 JUMP JUMPDEST STOP JUMPDEST PUSH2 0x209 PUSH1 0x4 DUP1 CALLDATASIZE SUB DUP2 ADD SWAP1 PUSH2 0x204 SWAP2 SWAP1 PUSH2 0x27AE JUMP JUMPDEST PUSH2 0x830 JUMP JUMPDEST STOP JUMPDEST PUSH2 0x225 PUSH1 0x4 DUP1 CALLDATASIZE SUB DUP2 ADD SWAP1 PUSH2 0x220 SWAP2 SWAP1 PUSH2 0x2749 JUMP JUMPDEST PUSH2 0x850 JUMP JUMPDEST PUSH1 0x40 MLOAD PUSH2 0x232 SWAP2 SWAP1 PUSH2 0x3423 JUMP JUMPDEST PUSH1 0x40 MLOAD DUP1 SWAP2 SUB SWAP1 RETURN JUMPDEST PUSH2 0x255 PUSH1 0x4 DUP1 CALLDATASIZE SUB DUP2 ADD SWAP1 PUSH2 0x250 SWAP2 SWAP1 PUSH2 0x2942 JUMP JUMPDEST PUSH2 0xCB1 JUMP JUMPDEST PUSH1 0x40 MLOAD PUSH2 0x262 SWAP2 SWAP1 PUSH2 0x3378 JUMP JUMPDEST PUSH1 0x40 MLOAD DUP1 SWAP2 SUB SWAP1 RETURN JUMPDEST PUSH2 0x285 PUSH1 0x4 DUP1 CALLDATASIZE SUB DUP2 ADD SWAP1 PUSH2 0x280 SWAP2 SWAP1 PUSH2 0x2942 JUMP JUMPDEST PUSH2 0xD63 JUMP JUMPDEST PUSH1 0x40 MLOAD PUSH2 0x293 SWAP3 SWAP2 SWAP1 PUSH2 0x33DF JUMP JUMPDEST PUSH1 0x40 MLOAD DUP1 SWAP2 SUB SWAP1 RETURN JUMPDEST PUSH2 0x2B6 PUSH1 0x4 DUP1 CALLDATASIZE SUB DUP2 ADD SWAP1 PUSH2 0x2B1 SWAP2 SWAP1 PUSH2 0x2749 JUMP JUMPDEST PUSH2 0xDA8 JUMP JUMPDEST PUSH1 0x40 MLOAD PUSH2 0x2C3 SWAP2 SWAP1 PUSH2 0x35E5 JUMP JUMPDEST PUSH1 0x40 MLOAD DUP1 SWAP2 SUB SWAP1 RETURN JUMPDEST PUSH2 0x2D4 PUSH2 0xE60 JUMP JUMPDEST PUSH1 0x40 MLOAD PUSH2 0x2E1 SWAP2 SWAP1 PUSH2 0x3423 JUMP JUMPDEST PUSH1 0x40 MLOAD DUP1 SWAP2 SUB SWAP1 RETURN JUMPDEST PUSH2 0x304 PUSH1 0x4 DUP1 CALLDATASIZE SUB DUP2 ADD SWAP1 PUSH2 0x2FF SWAP2 SWAP1 PUSH2 0x2878 JUMP JUMPDEST PUSH2 0xEF2 JUMP JUMPDEST STOP JUMPDEST PUSH2 0x320 PUSH1 0x4 DUP1 CALLDATASIZE SUB DUP2 ADD SWAP1 PUSH2 0x31B SWAP2 SWAP1 PUSH2 0x27FD JUMP JUMPDEST PUSH2 0x1073 JUMP JUMPDEST STOP JUMPDEST PUSH2 0x33C PUSH1 0x4 DUP1 CALLDATASIZE SUB DUP2 ADD SWAP1 PUSH2 0x337 SWAP2 SWAP1 PUSH2 0x2942 JUMP JUMPDEST PUSH2 0x10D5 JUMP JUMPDEST PUSH1 0x40 MLOAD PUSH2 0x349 SWAP2 SWAP1 PUSH2 0x3423 JUMP JUMPDEST PUSH1 0x40 MLOAD DUP1 SWAP2 SUB SWAP1 RETURN JUMPDEST PUSH2 0x36C PUSH1 0x4 DUP1 CALLDATASIZE SUB DUP2 ADD SWAP1 PUSH2 0x367 SWAP2 SWAP1 PUSH2 0x2942 JUMP JUMPDEST PUSH2 0x1528 JUMP JUMPDEST PUSH1 0x40 MLOAD PUSH2 0x379 SWAP2 SWAP1 PUSH2 0x3423 JUMP JUMPDEST PUSH1 0x40 MLOAD DUP1 SWAP2 SUB SWAP1 RETURN JUMPDEST PUSH2 0x39C PUSH1 0x4 DUP1 CALLDATASIZE SUB DUP2 ADD SWAP1 PUSH2 0x397 SWAP2 SWAP1 PUSH2 0x2772 JUMP JUMPDEST PUSH2 0x15EC JUMP JUMPDEST PUSH1 0x40 MLOAD PUSH2 0x3A9 SWAP2 SWAP1 PUSH2 0x3408 JUMP JUMPDEST PUSH1 0x40 MLOAD DUP1 SWAP2 SUB SWAP1 RETURN JUMPDEST PUSH2 0x3CC PUSH1 0x4 DUP1 CALLDATASIZE SUB DUP2 ADD SWAP1 PUSH2 0x3C7 SWAP2 SWAP1 PUSH2 0x296B JUMP JUMPDEST PUSH2 0x1680 JUMP JUMPDEST PUSH1 0x40 MLOAD PUSH2 0x3D9 SWAP2 SWAP1 PUSH2 0x3423 JUMP JUMPDEST PUSH1 0x40 MLOAD DUP1 SWAP2 SUB SWAP1 RETURN JUMPDEST PUSH1 0x0 PUSH32 0x80AC58CD00000000000000000000000000000000000000000000000000000000 PUSH28 0xFFFFFFFFFFFFFFFFFFFFFFFFFFFFFFFFFFFFFFFFFFFFFFFFFFFFFFFF NOT AND DUP3 PUSH28 0xFFFFFFFFFFFFFFFFFFFFFFFFFFFFFFFFFFFFFFFFFFFFFFFFFFFFFFFF NOT AND EQ DUP1 PUSH2 0x4AD JUMPI POP PUSH32 0x5B5E139F00000000000000000000000000000000000000000000000000000000 PUSH28 0xFFFFFFFFFFFFFFFFFFFFFFFFFFFFFFFFFFFFFFFFFFFFFFFFFFFFFFFF NOT AND DUP3 PUSH28 0xFFFFFFFFFFFFFFFFFFFFFFFFFFFFFFFFFFFFFFFFFFFFFFFFFFFFFFFF NOT AND EQ JUMPDEST DUP1 PUSH2 0x4BD JUMPI POP PUSH2 0x4BC DUP3 PUSH2 0x1A31 JUMP JUMPDEST JUMPDEST SWAP1 POP SWAP2 SWAP1 POP JUMP JUMPDEST PUSH1 0x60 PUSH1 0x0 DUP1 SLOAD PUSH2 0x4D3 SWAP1 PUSH2 0x3871 JUMP JUMPDEST DUP1 PUSH1 0x1F ADD PUSH1 0x20 DUP1 SWAP2 DIV MUL PUSH1 0x20 ADD PUSH1 0x40 MLOAD SWAP1 DUP2 ADD PUSH1 0x40 MSTORE DUP1 SWAP3 SWAP2 SWAP1 DUP2 DUP2 MSTORE PUSH1 0x20 ADD DUP3 DUP1 SLOAD PUSH2 0x4FF SWAP1 PUSH2 0x3871 JUMP JUMPDEST DUP1 ISZERO PUSH2 0x54C JUMPI DUP1 PUSH1 0x1F LT PUSH2 0x521 JUMPI PUSH2 0x100 DUP1 DUP4 SLOAD DIV MUL DUP4 MSTORE SWAP2 PUSH1 0x20 ADD SWAP2 PUSH2 0x54C JUMP JUMPDEST DUP3 ADD SWAP2 SWAP1 PUSH1 0x0 MSTORE PUSH1 0x20 PUSH1 0x0 KECCAK256 SWAP1 JUMPDEST DUP2 SLOAD DUP2 MSTORE SWAP1 PUSH1 0x1 ADD SWAP1 PUSH1 0x20 ADD DUP1 DUP4 GT PUSH2 0x52F JUMPI DUP3 SWAP1 SUB PUSH1 0x1F AND DUP3 ADD SWAP2 JUMPDEST POP POP POP POP POP SWAP1 POP SWAP1 JUMP JUMPDEST PUSH1 0x0 PUSH2 0x561 DUP3 PUSH2 0x1A9B JUMP JUMPDEST PUSH2 0x5A0 JUMPI PUSH1 0x40 MLOAD PUSH32 0x8C379A000000000000000000000000000000000000000000000000000000000 DUP2 MSTORE PUSH1 0x4 ADD PUSH2 0x597 SWAP1 PUSH2 0x3565 JUMP JUMPDEST PUSH1 0x40 MLOAD DUP1 SWAP2 SUB SWAP1 REVERT JUMPDEST PUSH1 0x4 PUSH1 0x0 DUP4 DUP2 MSTORE PUSH1 0x20 ADD SWAP1 DUP2 MSTORE PUSH1 0x20 ADD PUSH1 0x0 KECCAK256 PUSH1 0x0 SWAP1 SLOAD SWAP1 PUSH2 0x100 EXP SWAP1 DIV PUSH20 0xFFFFFFFFFFFFFFFFFFFFFFFFFFFFFFFFFFFFFFFF AND SWAP1 POP SWAP2 SWAP1 POP JUMP JUMPDEST PUSH1 0x0 PUSH2 0x5E6 DUP3 PUSH2 0xCB1 JUMP JUMPDEST SWAP1 POP DUP1 PUSH20 0xFFFFFFFFFFFFFFFFFFFFFFFFFFFFFFFFFFFFFFFF AND DUP4 PUSH20 0xFFFFFFFFFFFFFFFFFFFFFFFFFFFFFFFFFFFFFFFF AND EQ ISZERO PUSH2 0x657 JUMPI PUSH1 0x40 MLOAD PUSH32 0x8C379A000000000000000000000000000000000000000000000000000000000 DUP2 MSTORE PUSH1 0x4 ADD PUSH2 0x64E SWAP1 PUSH2 0x35A5 JUMP JUMPDEST PUSH1 0x40 MLOAD DUP1 SWAP2 SUB SWAP1 REVERT JUMPDEST DUP1 PUSH20 0xFFFFFFFFFFFFFFFFFFFFFFFFFFFFFFFFFFFFFFFF AND PUSH2 0x676 PUSH2 0x1B07 JUMP JUMPDEST PUSH20 0xFFFFFFFFFFFFFFFFFFFFFFFFFFFFFFFFFFFFFFFF AND EQ DUP1 PUSH2 0x6A5 JUMPI POP PUSH2 0x6A4 DUP2 PUSH2 0x69F PUSH2 0x1B07 JUMP JUMPDEST PUSH2 0x15EC JUMP JUMPDEST JUMPDEST PUSH2 0x6E4 JUMPI PUSH1 0x40 MLOAD PUSH32 0x8C379A000000000000000000000000000000000000000000000000000000000 DUP2 MSTORE PUSH1 0x4 ADD PUSH2 0x6DB SWAP1 PUSH2 0x34E5 JUMP JUMPDEST PUSH1 0x40 MLOAD DUP1 SWAP2 SUB SWAP1 REVERT JUMPDEST PUSH2 0x6EE DUP4 DUP4 PUSH2 0x1B0F JUMP JUMPDEST POP POP POP JUMP JUMPDEST PUSH1 0x0 PUSH1 0x6 SLOAD SWAP1 POP PUSH1 0x1 PUSH1 0x6 SLOAD PUSH2 0x709 SWAP2 SWAP1 PUSH2 0x3699 JUMP JUMPDEST PUSH1 0x6 DUP2 SWAP1 SSTORE POP PUSH2 0x717 PUSH2 0x2633 JUMP JUMPDEST CALLER DUP2 PUSH1 0x0 ADD SWAP1 PUSH20 0xFFFFFFFFFFFFFFFFFFFFFFFFFFFFFFFFFFFFFFFF AND SWAP1 DUP2 PUSH20 0xFFFFFFFFFFFFFFFFFFFFFFFFFFFFFFFFFFFFFFFF AND DUP2 MSTORE POP POP TIMESTAMP DUP2 PUSH1 0x20 ADD DUP2 DUP2 MSTORE POP POP DUP1 PUSH2 0x14F PUSH1 0x0 DUP5 DUP2 MSTORE PUSH1 0x20 ADD SWAP1 DUP2 MSTORE PUSH1 0x20 ADD PUSH1 0x0 KECCAK256 PUSH1 0x0 DUP3 ADD MLOAD DUP2 PUSH1 0x0 ADD PUSH1 0x0 PUSH2 0x100 EXP DUP2 SLOAD DUP2 PUSH20 0xFFFFFFFFFFFFFFFFFFFFFFFFFFFFFFFFFFFFFFFF MUL NOT AND SWAP1 DUP4 PUSH20 0xFFFFFFFFFFFFFFFFFFFFFFFFFFFFFFFFFFFFFFFF AND MUL OR SWAP1 SSTORE POP PUSH1 0x20 DUP3 ADD MLOAD DUP2 PUSH1 0x1 ADD SSTORE SWAP1 POP POP PUSH2 0x7CC CALLER DUP4 PUSH2 0x1BC8 JUMP JUMPDEST POP SWAP1 JUMP JUMPDEST PUSH2 0x7E1 PUSH2 0x7DB PUSH2 0x1B07 JUMP JUMPDEST DUP3 PUSH2 0x1D96 JUMP JUMPDEST PUSH2 0x820 JUMPI PUSH1 0x40 MLOAD PUSH32 0x8C379A000000000000000000000000000000000000000000000000000000000 DUP2 MSTORE PUSH1 0x4 ADD PUSH2 0x817 SWAP1 PUSH2 0x35C5 JUMP JUMPDEST PUSH1 0x40 MLOAD DUP1 SWAP2 SUB SWAP1 REVERT JUMPDEST PUSH2 0x82B DUP4 DUP4 DUP4 PUSH2 0x1E74 JUMP JUMPDEST POP POP POP JUMP JUMPDEST PUSH2 0x84B DUP4 DUP4 DUP4 PUSH1 0x40 MLOAD DUP1 PUSH1 0x20 ADD PUSH1 0x40 MSTORE DUP1 PUSH1 0x0 DUP2 MSTORE POP PUSH2 0x1073 JUMP JUMPDEST POP POP POP JUMP JUMPDEST PUSH1 0x60 PUSH1 0x0 DUP3 PUSH20 0xFFFFFFFFFFFFFFFFFFFFFFFFFFFFFFFFFFFFFFFF AND PUSH1 0x0 SHL SWAP1 POP PUSH1 0x0 PUSH1 0x40 MLOAD DUP1 PUSH1 0x40 ADD PUSH1 0x40 MSTORE DUP1 PUSH1 0x10 DUP2 MSTORE PUSH1 0x20 ADD PUSH32 0x3031323334353637383961626364656600000000000000000000000000000000 DUP2 MSTORE POP SWAP1 POP PUSH1 0x0 PUSH1 0x33 PUSH8 0xFFFFFFFFFFFFFFFF DUP2 GT ISZERO PUSH2 0x8ED JUMPI PUSH32 0x4E487B7100000000000000000000000000000000000000000000000000000000 PUSH1 0x0 MSTORE PUSH1 0x41 PUSH1 0x4 MSTORE PUSH1 0x24 PUSH1 0x0 REVERT JUMPDEST PUSH1 0x40 MLOAD SWAP1 DUP1 DUP3 MSTORE DUP1 PUSH1 0x1F ADD PUSH1 0x1F NOT AND PUSH1 0x20 ADD DUP3 ADD PUSH1 0x40 MSTORE DUP1 ISZERO PUSH2 0x91F JUMPI DUP2 PUSH1 0x20 ADD PUSH1 0x1 DUP3 MUL DUP1 CALLDATASIZE DUP4 CALLDATACOPY DUP1 DUP3 ADD SWAP2 POP POP SWAP1 POP JUMPDEST POP SWAP1 POP PUSH32 0x3000000000000000000000000000000000000000000000000000000000000000 DUP2 PUSH1 0x0 DUP2 MLOAD DUP2 LT PUSH2 0x97D JUMPI PUSH32 0x4E487B7100000000000000000000000000000000000000000000000000000000 PUSH1 0x0 MSTORE PUSH1 0x32 PUSH1 0x4 MSTORE PUSH1 0x24 PUSH1 0x0 REVERT JUMPDEST PUSH1 0x20 ADD ADD SWAP1 PUSH31 0xFFFFFFFFFFFFFFFFFFFFFFFFFFFFFFFFFFFFFFFFFFFFFFFFFFFFFFFFFFFFFF NOT AND SWAP1 DUP2 PUSH1 0x0 BYTE SWAP1 MSTORE8 POP PUSH32 0x7800000000000000000000000000000000000000000000000000000000000000 DUP2 PUSH1 0x1 DUP2 MLOAD DUP2 LT PUSH2 0xA07 JUMPI PUSH32 0x4E487B7100000000000000000000000000000000000000000000000000000000 PUSH1 0x0 MSTORE PUSH1 0x32 PUSH1 0x4 MSTORE PUSH1 0x24 PUSH1 0x0 REVERT JUMPDEST PUSH1 0x20 ADD ADD SWAP1 PUSH31 0xFFFFFFFFFFFFFFFFFFFFFFFFFFFFFFFFFFFFFFFFFFFFFFFFFFFFFFFFFFFFFF NOT AND SWAP1 DUP2 PUSH1 0x0 BYTE SWAP1 MSTORE8 POP PUSH1 0x0 JUMPDEST PUSH1 0x14 DUP2 LT ISZERO PUSH2 0xCA5 JUMPI DUP3 PUSH1 0x4 DUP6 PUSH1 0xC DUP5 PUSH2 0xA53 SWAP2 SWAP1 PUSH2 0x3699 JUMP JUMPDEST PUSH1 0x20 DUP2 LT PUSH2 0xA8A JUMPI PUSH32 0x4E487B7100000000000000000000000000000000000000000000000000000000 PUSH1 0x0 MSTORE PUSH1 0x32 PUSH1 0x4 MSTORE PUSH1 0x24 PUSH1 0x0 REVERT JUMPDEST BYTE PUSH1 0xF8 SHL PUSH31 0xFFFFFFFFFFFFFFFFFFFFFFFFFFFFFFFFFFFFFFFFFFFFFFFFFFFFFFFFFFFFFF NOT AND SWAP1 SHR PUSH1 0xF8 SHR PUSH1 0xFF AND DUP2 MLOAD DUP2 LT PUSH2 0xAEF JUMPI PUSH32 0x4E487B7100000000000000000000000000000000000000000000000000000000 PUSH1 0x0 MSTORE PUSH1 0x32 PUSH1 0x4 MSTORE PUSH1 0x24 PUSH1 0x0 REVERT JUMPDEST PUSH1 0x20 ADD ADD MLOAD PUSH1 0xF8 SHR PUSH1 0xF8 SHL DUP3 PUSH1 0x2 DUP4 PUSH2 0xB08 SWAP2 SWAP1 PUSH2 0x3720 JUMP JUMPDEST PUSH1 0x2 PUSH2 0xB14 SWAP2 SWAP1 PUSH2 0x3699 JUMP JUMPDEST DUP2 MLOAD DUP2 LT PUSH2 0xB4B JUMPI PUSH32 0x4E487B7100000000000000000000000000000000000000000000000000000000 PUSH1 0x0 MSTORE PUSH1 0x32 PUSH1 0x4 MSTORE PUSH1 0x24 PUSH1 0x0 REVERT JUMPDEST PUSH1 0x20 ADD ADD SWAP1 PUSH31 0xFFFFFFFFFFFFFFFFFFFFFFFFFFFFFFFFFFFFFFFFFFFFFFFFFFFFFFFFFFFFFF NOT AND SWAP1 DUP2 PUSH1 0x0 BYTE SWAP1 MSTORE8 POP DUP3 PUSH1 0xF PUSH1 0xF8 SHL DUP6 PUSH1 0xC DUP5 PUSH2 0xB8E SWAP2 SWAP1 PUSH2 0x3699 JUMP JUMPDEST PUSH1 0x20 DUP2 LT PUSH2 0xBC5 JUMPI PUSH32 0x4E487B7100000000000000000000000000000000000000000000000000000000 PUSH1 0x0 MSTORE PUSH1 0x32 PUSH1 0x4 MSTORE PUSH1 0x24 PUSH1 0x0 REVERT JUMPDEST BYTE PUSH1 0xF8 SHL AND PUSH1 0xF8 SHR PUSH1 0xFF AND DUP2 MLOAD DUP2 LT PUSH2 0xC07 JUMPI PUSH32 0x4E487B7100000000000000000000000000000000000000000000000000000000 PUSH1 0x0 MSTORE PUSH1 0x32 PUSH1 0x4 MSTORE PUSH1 0x24 PUSH1 0x0 REVERT JUMPDEST PUSH1 0x20 ADD ADD MLOAD PUSH1 0xF8 SHR PUSH1 0xF8 SHL DUP3 PUSH1 0x2 DUP4 PUSH2 0xC20 SWAP2 SWAP1 PUSH2 0x3720 JUMP JUMPDEST PUSH1 0x3 PUSH2 0xC2C SWAP2 SWAP1 PUSH2 0x3699 JUMP JUMPDEST DUP2 MLOAD DUP2 LT PUSH2 0xC63 JUMPI PUSH32 0x4E487B7100000000000000000000000000000000000000000000000000000000 PUSH1 0x0 MSTORE PUSH1 0x32 PUSH1 0x4 MSTORE PUSH1 0x24 PUSH1 0x0 REVERT JUMPDEST PUSH1 0x20 ADD ADD SWAP1 PUSH31 0xFFFFFFFFFFFFFFFFFFFFFFFFFFFFFFFFFFFFFFFFFFFFFFFFFFFFFFFFFFFFFF NOT AND SWAP1 DUP2 PUSH1 0x0 BYTE SWAP1 MSTORE8 POP DUP1 DUP1 PUSH2 0xC9D SWAP1 PUSH2 0x38D4 JUMP JUMPDEST SWAP2 POP POP PUSH2 0xA39 JUMP JUMPDEST POP DUP1 SWAP4 POP POP POP POP SWAP2 SWAP1 POP JUMP JUMPDEST PUSH1 0x0 DUP1 PUSH1 0x2 PUSH1 0x0 DUP5 DUP2 MSTORE PUSH1 0x20 ADD SWAP1 DUP2 MSTORE PUSH1 0x20 ADD PUSH1 0x0 KECCAK256 PUSH1 0x0 SWAP1 SLOAD SWAP1 PUSH2 0x100 EXP SWAP1 DIV PUSH20 0xFFFFFFFFFFFFFFFFFFFFFFFFFFFFFFFFFFFFFFFF AND SWAP1 POP PUSH1 0x0 PUSH20 0xFFFFFFFFFFFFFFFFFFFFFFFFFFFFFFFFFFFFFFFF AND DUP2 PUSH20 0xFFFFFFFFFFFFFFFFFFFFFFFFFFFFFFFFFFFFFFFF AND EQ ISZERO PUSH2 0xD5A JUMPI PUSH1 0x40 MLOAD PUSH32 0x8C379A000000000000000000000000000000000000000000000000000000000 DUP2 MSTORE PUSH1 0x4 ADD PUSH2 0xD51 SWAP1 PUSH2 0x3525 JUMP JUMPDEST PUSH1 0x40 MLOAD DUP1 SWAP2 SUB SWAP1 REVERT JUMPDEST DUP1 SWAP2 POP POP SWAP2 SWAP1 POP JUMP JUMPDEST PUSH2 0x14F PUSH1 0x20 MSTORE DUP1 PUSH1 0x0 MSTORE PUSH1 0x40 PUSH1 0x0 KECCAK256 PUSH1 0x0 SWAP2 POP SWAP1 POP DUP1 PUSH1 0x0 ADD PUSH1 0x0 SWAP1 SLOAD SWAP1 PUSH2 0x100 EXP SWAP1 DIV PUSH20 0xFFFFFFFFFFFFFFFFFFFFFFFFFFFFFFFFFFFFFFFF AND SWAP1 DUP1 PUSH1 0x1 ADD SLOAD SWAP1 POP DUP3 JUMP JUMPDEST PUSH1 0x0 DUP1 PUSH20 0xFFFFFFFFFFFFFFFFFFFFFFFFFFFFFFFFFFFFFFFF AND DUP3 PUSH20 0xFFFFFFFFFFFFFFFFFFFFFFFFFFFFFFFFFFFFFFFF AND EQ ISZERO PUSH2 0xE19 JUMPI PUSH1 0x40 MLOAD PUSH32 0x8C379A000000000000000000000000000000000000000000000000000000000 DUP2 MSTORE PUSH1 0x4 ADD PUSH2 0xE10 SWAP1 PUSH2 0x3505 JUMP JUMPDEST PUSH1 0x40 MLOAD DUP1 SWAP2 SUB SWAP1 REVERT JUMPDEST PUSH1 0x3 PUSH1 0x0 DUP4 PUSH20 0xFFFFFFFFFFFFFFFFFFFFFFFFFFFFFFFFFFFFFFFF AND PUSH20 0xFFFFFFFFFFFFFFFFFFFFFFFFFFFFFFFFFFFFFFFF AND DUP2 MSTORE PUSH1 0x20 ADD SWAP1 DUP2 MSTORE PUSH1 0x20 ADD PUSH1 0x0 KECCAK256 SLOAD SWAP1 POP SWAP2 SWAP1 POP JUMP JUMPDEST PUSH1 0x60 PUSH1 0x1 DUP1 SLOAD PUSH2 0xE6F SWAP1 PUSH2 0x3871 JUMP JUMPDEST DUP1 PUSH1 0x1F ADD PUSH1 0x20 DUP1 SWAP2 DIV MUL PUSH1 0x20 ADD PUSH1 0x40 MLOAD SWAP1 DUP2 ADD PUSH1 0x40 MSTORE DUP1 SWAP3 SWAP2 SWAP1 DUP2 DUP2 MSTORE PUSH1 0x20 ADD DUP3 DUP1 SLOAD PUSH2 0xE9B SWAP1 PUSH2 0x3871 JUMP JUMPDEST DUP1 ISZERO PUSH2 0xEE8 JUMPI DUP1 PUSH1 0x1F LT PUSH2 0xEBD JUMPI PUSH2 0x100 DUP1 DUP4 SLOAD DIV MUL DUP4 MSTORE SWAP2 PUSH1 0x20 ADD SWAP2 PUSH2 0xEE8 JUMP JUMPDEST DUP3 ADD SWAP2 SWAP1 PUSH1 0x0 MSTORE PUSH1 0x20 PUSH1 0x0 KECCAK256 SWAP1 JUMPDEST DUP2 SLOAD DUP2 MSTORE SWAP1 PUSH1 0x1 ADD SWAP1 PUSH1 0x20 ADD DUP1 DUP4 GT PUSH2 0xECB JUMPI DUP3 SWAP1 SUB PUSH1 0x1F AND DUP3 ADD SWAP2 JUMPDEST POP POP POP POP POP SWAP1 POP SWAP1 JUMP JUMPDEST PUSH2 0xEFA PUSH2 0x1B07 JUMP JUMPDEST PUSH20 0xFFFFFFFFFFFFFFFFFFFFFFFFFFFFFFFFFFFFFFFF AND DUP3 PUSH20 0xFFFFFFFFFFFFFFFFFFFFFFFFFFFFFFFFFFFFFFFF AND EQ ISZERO PUSH2 0xF68 JUMPI PUSH1 0x40 MLOAD PUSH32 0x8C379A000000000000000000000000000000000000000000000000000000000 DUP2 MSTORE PUSH1 0x4 ADD PUSH2 0xF5F SWAP1 PUSH2 0x34A5 JUMP JUMPDEST PUSH1 0x40 MLOAD DUP1 SWAP2 SUB SWAP1 REVERT JUMPDEST DUP1 PUSH1 0x5 PUSH1 0x0 PUSH2 0xF75 PUSH2 0x1B07 JUMP JUMPDEST PUSH20 0xFFFFFFFFFFFFFFFFFFFFFFFFFFFFFFFFFFFFFFFF AND PUSH20 0xFFFFFFFFFFFFFFFFFFFFFFFFFFFFFFFFFFFFFFFF AND DUP2 MSTORE PUSH1 0x20 ADD SWAP1 DUP2 MSTORE PUSH1 0x20 ADD PUSH1 0x0 KECCAK256 PUSH1 0x0 DUP5 PUSH20 0xFFFFFFFFFFFFFFFFFFFFFFFFFFFFFFFFFFFFFFFF AND PUSH20 0xFFFFFFFFFFFFFFFFFFFFFFFFFFFFFFFFFFFFFFFF AND DUP2 MSTORE PUSH1 0x20 ADD SWAP1 DUP2 MSTORE PUSH1 0x20 ADD PUSH1 0x0 KECCAK256 PUSH1 0x0 PUSH2 0x100 EXP DUP2 SLOAD DUP2 PUSH1 0xFF MUL NOT AND SWAP1 DUP4 ISZERO ISZERO MUL OR SWAP1 SSTORE POP DUP2 PUSH20 0xFFFFFFFFFFFFFFFFFFFFFFFFFFFFFFFFFFFFFFFF AND PUSH2 0x1022 PUSH2 0x1B07 JUMP JUMPDEST PUSH20 0xFFFFFFFFFFFFFFFFFFFFFFFFFFFFFFFFFFFFFFFF AND PUSH32 0x17307EAB39AB6107E8899845AD3D59BD9653F200F220920489CA2B5937696C31 DUP4 PUSH1 0x40 MLOAD PUSH2 0x1067 SWAP2 SWAP1 PUSH2 0x3408 JUMP JUMPDEST PUSH1 0x40 MLOAD DUP1 SWAP2 SUB SWAP1 LOG3 POP POP JUMP JUMPDEST PUSH2 0x1084 PUSH2 0x107E PUSH2 0x1B07 JUMP JUMPDEST DUP4 PUSH2 0x1D96 JUMP JUMPDEST PUSH2 0x10C3 JUMPI PUSH1 0x40 MLOAD PUSH32 0x8C379A000000000000000000000000000000000000000000000000000000000 DUP2 MSTORE PUSH1 0x4 ADD PUSH2 0x10BA SWAP1 PUSH2 0x35C5 JUMP JUMPDEST PUSH1 0x40 MLOAD DUP1 SWAP2 SUB SWAP1 REVERT JUMPDEST PUSH2 0x10CF DUP5 DUP5 DUP5 DUP5 PUSH2 0x20D0 JUMP JUMPDEST POP POP POP POP JUMP JUMPDEST PUSH1 0x60 PUSH1 0x0 PUSH2 0x1119 PUSH2 0x14F PUSH1 0x0 DUP6 DUP2 MSTORE PUSH1 0x20 ADD SWAP1 DUP2 MSTORE PUSH1 0x20 ADD PUSH1 0x0 KECCAK256 PUSH1 0x0 ADD PUSH1 0x0 SWAP1 SLOAD SWAP1 PUSH2 0x100 EXP SWAP1 DIV PUSH20 0xFFFFFFFFFFFFFFFFFFFFFFFFFFFFFFFFFFFFFFFF AND PUSH2 0x850 JUMP JUMPDEST SWAP1 POP PUSH1 0x0 PUSH2 0x1126 DUP5 PUSH2 0x212C JUMP JUMPDEST SWAP1 POP PUSH1 0x0 PUSH1 0x40 MLOAD DUP1 PUSH1 0x40 ADD PUSH1 0x40 MSTORE DUP1 PUSH1 0x4 DUP2 MSTORE PUSH1 0x20 ADD PUSH32 0x3235303100000000000000000000000000000000000000000000000000000000 DUP2 MSTORE POP SWAP1 POP PUSH1 0x0 PUSH1 0x40 MLOAD DUP1 PUSH1 0x40 ADD PUSH1 0x40 MSTORE DUP1 PUSH1 0x2 DUP2 MSTORE PUSH1 0x20 ADD PUSH32 0x3231000000000000000000000000000000000000000000000000000000000000 DUP2 MSTORE POP SWAP1 POP PUSH1 0x0 PUSH1 0x40 MLOAD DUP1 PUSH1 0x40 ADD PUSH1 0x40 MSTORE DUP1 PUSH1 0xA DUP2 MSTORE PUSH1 0x20 ADD PUSH32 0x323032302E31312E313100000000000000000000000000000000000000000000 DUP2 MSTORE POP SWAP1 POP PUSH1 0x0 PUSH1 0x3F DUP9 AND SWAP1 POP PUSH1 0x0 PUSH1 0x7 PUSH2 0x14F PUSH1 0x0 DUP12 DUP2 MSTORE PUSH1 0x20 ADD SWAP1 DUP2 MSTORE PUSH1 0x20 ADD PUSH1 0x0 KECCAK256 PUSH1 0x1 ADD SLOAD AND SWAP1 POP PUSH1 0x0 PUSH2 0x147 DUP3 PUSH1 0xFF AND PUSH1 0x8 DUP2 LT PUSH2 0x123D JUMPI PUSH32 0x4E487B7100000000000000000000000000000000000000000000000000000000 PUSH1 0x0 MSTORE PUSH1 0x32 PUSH1 0x4 MSTORE PUSH1 0x24 PUSH1 0x0 REVERT JUMPDEST ADD DUP1 SLOAD PUSH2 0x1249 SWAP1 PUSH2 0x3871 JUMP JUMPDEST DUP1 PUSH1 0x1F ADD PUSH1 0x20 DUP1 SWAP2 DIV MUL PUSH1 0x20 ADD PUSH1 0x40 MLOAD SWAP1 DUP2 ADD PUSH1 0x40 MSTORE DUP1 SWAP3 SWAP2 SWAP1 DUP2 DUP2 MSTORE PUSH1 0x20 ADD DUP3 DUP1 SLOAD PUSH2 0x1275 SWAP1 PUSH2 0x3871 JUMP JUMPDEST DUP1 ISZERO PUSH2 0x12C2 JUMPI DUP1 PUSH1 0x1F LT PUSH2 0x1297 JUMPI PUSH2 0x100 DUP1 DUP4 SLOAD DIV MUL DUP4 MSTORE SWAP2 PUSH1 0x20 ADD SWAP2 PUSH2 0x12C2 JUMP JUMPDEST DUP3 ADD SWAP2 SWAP1 PUSH1 0x0 MSTORE PUSH1 0x20 PUSH1 0x0 KECCAK256 SWAP1 JUMPDEST DUP2 SLOAD DUP2 MSTORE SWAP1 PUSH1 0x1 ADD SWAP1 PUSH1 0x20 ADD DUP1 DUP4 GT PUSH2 0x12A5 JUMPI DUP3 SWAP1 SUB PUSH1 0x1F AND DUP3 ADD SWAP2 JUMPDEST POP POP POP POP POP SWAP1 POP PUSH1 0x0 PUSH1 0x7 DUP5 PUSH1 0xFF AND PUSH1 0x40 DUP2 LT PUSH2 0x1308 JUMPI PUSH32 0x4E487B7100000000000000000000000000000000000000000000000000000000 PUSH1 0x0 MSTORE PUSH1 0x32 PUSH1 0x4 MSTORE PUSH1 0x24 PUSH1 0x0 REVERT JUMPDEST PUSH1 0x5 MUL ADD PUSH1 0x0 PUSH1 0x5 DUP2 LT PUSH2 0x1345 JUMPI PUSH32 0x4E487B7100000000000000000000000000000000000000000000000000000000 PUSH1 0x0 MSTORE PUSH1 0x32 PUSH1 0x4 MSTORE PUSH1 0x24 PUSH1 0x0 REVERT JUMPDEST ADD DUP1 SLOAD PUSH2 0x1351 SWAP1 PUSH2 0x3871 JUMP JUMPDEST DUP1 PUSH1 0x1F ADD PUSH1 0x20 DUP1 SWAP2 DIV MUL PUSH1 0x20 ADD PUSH1 0x40 MLOAD SWAP1 DUP2 ADD PUSH1 0x40 MSTORE DUP1 SWAP3 SWAP2 SWAP1 DUP2 DUP2 MSTORE PUSH1 0x20 ADD DUP3 DUP1 SLOAD PUSH2 0x137D SWAP1 PUSH2 0x3871 JUMP JUMPDEST DUP1 ISZERO PUSH2 0x13CA JUMPI DUP1 PUSH1 0x1F LT PUSH2 0x139F JUMPI PUSH2 0x100 DUP1 DUP4 SLOAD DIV MUL DUP4 MSTORE SWAP2 PUSH1 0x20 ADD SWAP2 PUSH2 0x13CA JUMP JUMPDEST DUP3 ADD SWAP2 SWAP1 PUSH1 0x0 MSTORE PUSH1 0x20 PUSH1 0x0 KECCAK256 SWAP1 JUMPDEST DUP2 SLOAD DUP2 MSTORE SWAP1 PUSH1 0x1 ADD SWAP1 PUSH1 0x20 ADD DUP1 DUP4 GT PUSH2 0x13AD JUMPI DUP3 SWAP1 SUB PUSH1 0x1F AND DUP3 ADD SWAP2 JUMPDEST POP POP POP POP POP SWAP1 POP PUSH1 0x0 PUSH1 0x7 DUP6 PUSH1 0xFF AND PUSH1 0x40 DUP2 LT PUSH2 0x1410 JUMPI PUSH32 0x4E487B7100000000000000000000000000000000000000000000000000000000 PUSH1 0x0 MSTORE PUSH1 0x32 PUSH1 0x4 MSTORE PUSH1 0x24 PUSH1 0x0 REVERT JUMPDEST PUSH1 0x5 MUL ADD PUSH1 0x1 PUSH1 0x5 DUP2 LT PUSH2 0x144D JUMPI PUSH32 0x4E487B7100000000000000000000000000000000000000000000000000000000 PUSH1 0x0 MSTORE PUSH1 0x32 PUSH1 0x4 MSTORE PUSH1 0x24 PUSH1 0x0 REVERT JUMPDEST ADD DUP1 SLOAD PUSH2 0x1459 SWAP1 PUSH2 0x3871 JUMP JUMPDEST DUP1 PUSH1 0x1F ADD PUSH1 0x20 DUP1 SWAP2 DIV MUL PUSH1 0x20 ADD PUSH1 0x40 MLOAD SWAP1 DUP2 ADD PUSH1 0x40 MSTORE DUP1 SWAP3 SWAP2 SWAP1 DUP2 DUP2 MSTORE PUSH1 0x20 ADD DUP3 DUP1 SLOAD PUSH2 0x1485 SWAP1 PUSH2 0x3871 JUMP JUMPDEST DUP1 ISZERO PUSH2 0x14D2 JUMPI DUP1 PUSH1 0x1F LT PUSH2 0x14A7 JUMPI PUSH2 0x100 DUP1 DUP4 SLOAD DIV MUL DUP4 MSTORE SWAP2 PUSH1 0x20 ADD SWAP2 PUSH2 0x14D2 JUMP JUMPDEST DUP3 ADD SWAP2 SWAP1 PUSH1 0x0 MSTORE PUSH1 0x20 PUSH1 0x0 KECCAK256 SWAP1 JUMPDEST DUP2 SLOAD DUP2 MSTORE SWAP1 PUSH1 0x1 ADD SWAP1 PUSH1 0x20 ADD DUP1 DUP4 GT PUSH2 0x14B5 JUMPI DUP3 SWAP1 SUB PUSH1 0x1F AND DUP3 ADD SWAP2 JUMPDEST POP POP POP POP POP SWAP1 POP PUSH1 0x0 PUSH2 0x14E4 DUP7 PUSH2 0x1680 JUMP JUMPDEST SWAP1 POP DUP3 DUP3 DUP13 DUP13 DUP13 DUP13 DUP13 DUP11 DUP9 PUSH1 0x40 MLOAD PUSH1 0x20 ADD PUSH2 0x1507 SWAP10 SWAP9 SWAP8 SWAP7 SWAP6 SWAP5 SWAP4 SWAP3 SWAP2 SWAP1 PUSH2 0x30D2 JUMP JUMPDEST PUSH1 0x40 MLOAD PUSH1 0x20 DUP2 DUP4 SUB SUB DUP2 MSTORE SWAP1 PUSH1 0x40 MSTORE SWAP12 POP POP POP POP POP POP POP POP POP POP POP POP SWAP2 SWAP1 POP JUMP JUMPDEST PUSH1 0x60 PUSH1 0x0 PUSH1 0x40 MLOAD DUP1 PUSH1 0x40 ADD PUSH1 0x40 MSTORE DUP1 PUSH1 0x1E DUP2 MSTORE PUSH1 0x20 ADD PUSH32 0x5468652047726170682043757261746F72204D6574616669636174696F6E0000 DUP2 MSTORE POP SWAP1 POP PUSH1 0x0 PUSH1 0x40 MLOAD DUP1 PUSH2 0x120 ADD PUSH1 0x40 MSTORE DUP1 PUSH1 0xFB DUP2 MSTORE PUSH1 0x20 ADD PUSH2 0x5064 PUSH1 0xFB SWAP2 CODECOPY SWAP1 POP PUSH1 0x0 PUSH2 0x1595 PUSH2 0x1590 DUP7 PUSH2 0x10D5 JUMP JUMPDEST PUSH2 0x22D9 JUMP JUMPDEST SWAP1 POP PUSH2 0x15C3 DUP4 DUP4 DUP4 PUSH1 0x40 MLOAD PUSH1 0x20 ADD PUSH2 0x15AF SWAP4 SWAP3 SWAP2 SWAP1 PUSH2 0x306A JUMP JUMPDEST PUSH1 0x40 MLOAD PUSH1 0x20 DUP2 DUP4 SUB SUB DUP2 MSTORE SWAP1 PUSH1 0x40 MSTORE PUSH2 0x22D9 JUMP JUMPDEST PUSH1 0x40 MLOAD PUSH1 0x20 ADD PUSH2 0x15D3 SWAP2 SWAP1 PUSH2 0x327A JUMP JUMPDEST PUSH1 0x40 MLOAD PUSH1 0x20 DUP2 DUP4 SUB SUB DUP2 MSTORE SWAP1 PUSH1 0x40 MSTORE SWAP4 POP POP POP POP SWAP2 SWAP1 POP JUMP JUMPDEST PUSH1 0x0 PUSH1 0x5 PUSH1 0x0 DUP5 PUSH20 0xFFFFFFFFFFFFFFFFFFFFFFFFFFFFFFFFFFFFFFFF AND PUSH20 0xFFFFFFFFFFFFFFFFFFFFFFFFFFFFFFFFFFFFFFFF AND DUP2 MSTORE PUSH1 0x20 ADD SWAP1 DUP2 MSTORE PUSH1 0x20 ADD PUSH1 0x0 KECCAK256 PUSH1 0x0 DUP4 PUSH20 0xFFFFFFFFFFFFFFFFFFFFFFFFFFFFFFFFFFFFFFFF AND PUSH20 0xFFFFFFFFFFFFFFFFFFFFFFFFFFFFFFFFFFFFFFFF AND DUP2 MSTORE PUSH1 0x20 ADD SWAP1 DUP2 MSTORE PUSH1 0x20 ADD PUSH1 0x0 KECCAK256 PUSH1 0x0 SWAP1 SLOAD SWAP1 PUSH2 0x100 EXP SWAP1 DIV PUSH1 0xFF AND SWAP1 POP SWAP3 SWAP2 POP POP JUMP JUMPDEST PUSH1 0x60 PUSH1 0x0 PUSH1 0x7 DUP4 PUSH1 0xFF AND PUSH1 0x40 DUP2 LT PUSH2 0x16C1 JUMPI PUSH32 0x4E487B7100000000000000000000000000000000000000000000000000000000 PUSH1 0x0 MSTORE PUSH1 0x32 PUSH1 0x4 MSTORE PUSH1 0x24 PUSH1 0x0 REVERT JUMPDEST PUSH1 0x5 MUL ADD PUSH1 0x2 PUSH1 0x5 DUP2 LT PUSH2 0x16FE JUMPI PUSH32 0x4E487B7100000000000000000000000000000000000000000000000000000000 PUSH1 0x0 MSTORE PUSH1 0x32 PUSH1 0x4 MSTORE PUSH1 0x24 PUSH1 0x0 REVERT JUMPDEST ADD DUP1 SLOAD PUSH2 0x170A SWAP1 PUSH2 0x3871 JUMP JUMPDEST DUP1 PUSH1 0x1F ADD PUSH1 0x20 DUP1 SWAP2 DIV MUL PUSH1 0x20 ADD PUSH1 0x40 MLOAD SWAP1 DUP2 ADD PUSH1 0x40 MSTORE DUP1 SWAP3 SWAP2 SWAP1 DUP2 DUP2 MSTORE PUSH1 0x20 ADD DUP3 DUP1 SLOAD PUSH2 0x1736 SWAP1 PUSH2 0x3871 JUMP JUMPDEST DUP1 ISZERO PUSH2 0x1783 JUMPI DUP1 PUSH1 0x1F LT PUSH2 0x1758 JUMPI PUSH2 0x100 DUP1 DUP4 SLOAD DIV MUL DUP4 MSTORE SWAP2 PUSH1 0x20 ADD SWAP2 PUSH2 0x1783 JUMP JUMPDEST DUP3 ADD SWAP2 SWAP1 PUSH1 0x0 MSTORE PUSH1 0x20 PUSH1 0x0 KECCAK256 SWAP1 JUMPDEST DUP2 SLOAD DUP2 MSTORE SWAP1 PUSH1 0x1 ADD SWAP1 PUSH1 0x20 ADD DUP1 DUP4 GT PUSH2 0x1766 JUMPI DUP3 SWAP1 SUB PUSH1 0x1F AND DUP3 ADD SWAP2 JUMPDEST POP POP POP POP POP SWAP1 POP PUSH1 0x0 PUSH1 0x7 DUP5 PUSH1 0xFF AND PUSH1 0x40 DUP2 LT PUSH2 0x17C9 JUMPI PUSH32 0x4E487B7100000000000000000000000000000000000000000000000000000000 PUSH1 0x0 MSTORE PUSH1 0x32 PUSH1 0x4 MSTORE PUSH1 0x24 PUSH1 0x0 REVERT JUMPDEST PUSH1 0x5 MUL ADD PUSH1 0x3 PUSH1 0x5 DUP2 LT PUSH2 0x1806 JUMPI PUSH32 0x4E487B7100000000000000000000000000000000000000000000000000000000 PUSH1 0x0 MSTORE PUSH1 0x32 PUSH1 0x4 MSTORE PUSH1 0x24 PUSH1 0x0 REVERT JUMPDEST ADD DUP1 SLOAD PUSH2 0x1812 SWAP1 PUSH2 0x3871 JUMP JUMPDEST DUP1 PUSH1 0x1F ADD PUSH1 0x20 DUP1 SWAP2 DIV MUL PUSH1 0x20 ADD PUSH1 0x40 MLOAD SWAP1 DUP2 ADD PUSH1 0x40 MSTORE DUP1 SWAP3 SWAP2 SWAP1 DUP2 DUP2 MSTORE PUSH1 0x20 ADD DUP3 DUP1 SLOAD PUSH2 0x183E SWAP1 PUSH2 0x3871 JUMP JUMPDEST DUP1 ISZERO PUSH2 0x188B JUMPI DUP1 PUSH1 0x1F LT PUSH2 0x1860 JUMPI PUSH2 0x100 DUP1 DUP4 SLOAD DIV MUL DUP4 MSTORE SWAP2 PUSH1 0x20 ADD SWAP2 PUSH2 0x188B JUMP JUMPDEST DUP3 ADD SWAP2 SWAP1 PUSH1 0x0 MSTORE PUSH1 0x20 PUSH1 0x0 KECCAK256 SWAP1 JUMPDEST DUP2 SLOAD DUP2 MSTORE SWAP1 PUSH1 0x1 ADD SWAP1 PUSH1 0x20 ADD DUP1 DUP4 GT PUSH2 0x186E JUMPI DUP3 SWAP1 SUB PUSH1 0x1F AND DUP3 ADD SWAP2 JUMPDEST POP POP POP POP POP SWAP1 POP PUSH1 0x0 PUSH1 0x7 DUP6 PUSH1 0xFF AND PUSH1 0x40 DUP2 LT PUSH2 0x18D1 JUMPI PUSH32 0x4E487B7100000000000000000000000000000000000000000000000000000000 PUSH1 0x0 MSTORE PUSH1 0x32 PUSH1 0x4 MSTORE PUSH1 0x24 PUSH1 0x0 REVERT JUMPDEST PUSH1 0x5 MUL ADD PUSH1 0x4 PUSH1 0x5 DUP2 LT PUSH2 0x190E JUMPI PUSH32 0x4E487B7100000000000000000000000000000000000000000000000000000000 PUSH1 0x0 MSTORE PUSH1 0x32 PUSH1 0x4 MSTORE PUSH1 0x24 PUSH1 0x0 REVERT JUMPDEST ADD DUP1 SLOAD PUSH2 0x191A SWAP1 PUSH2 0x3871 JUMP JUMPDEST DUP1 PUSH1 0x1F ADD PUSH1 0x20 DUP1 SWAP2 DIV MUL PUSH1 0x20 ADD PUSH1 0x40 MLOAD SWAP1 DUP2 ADD PUSH1 0x40 MSTORE DUP1 SWAP3 SWAP2 SWAP1 DUP2 DUP2 MSTORE PUSH1 0x20 ADD DUP3 DUP1 SLOAD PUSH2 0x1946 SWAP1 PUSH2 0x3871 JUMP JUMPDEST DUP1 ISZERO PUSH2 0x1993 JUMPI DUP1 PUSH1 0x1F LT PUSH2 0x1968 JUMPI PUSH2 0x100 DUP1 DUP4 SLOAD DIV MUL DUP4 MSTORE SWAP2 PUSH1 0x20 ADD SWAP2 PUSH2 0x1993 JUMP JUMPDEST DUP3 ADD SWAP2 SWAP1 PUSH1 0x0 MSTORE PUSH1 0x20 PUSH1 0x0 KECCAK256 SWAP1 JUMPDEST DUP2 SLOAD DUP2 MSTORE SWAP1 PUSH1 0x1 ADD SWAP1 PUSH1 0x20 ADD DUP1 DUP4 GT PUSH2 0x1976 JUMPI DUP3 SWAP1 SUB PUSH1 0x1F AND DUP3 ADD SWAP2 JUMPDEST POP POP POP POP POP SWAP1 POP PUSH1 0x0 PUSH1 0x40 MLOAD DUP1 PUSH2 0x4C0 ADD PUSH1 0x40 MSTORE DUP1 PUSH2 0x49A DUP2 MSTORE PUSH1 0x20 ADD PUSH2 0x515F PUSH2 0x49A SWAP2 CODECOPY SWAP1 POP PUSH1 0x0 PUSH1 0x40 MLOAD DUP1 PUSH2 0x5A0 ADD PUSH1 0x40 MSTORE DUP1 PUSH2 0x567 DUP2 MSTORE PUSH1 0x20 ADD PUSH2 0x4850 PUSH2 0x567 SWAP2 CODECOPY SWAP1 POP PUSH1 0x0 PUSH1 0x40 MLOAD DUP1 PUSH2 0x2A0 ADD PUSH1 0x40 MSTORE DUP1 PUSH2 0x26D DUP2 MSTORE PUSH1 0x20 ADD PUSH2 0x4DF7 PUSH2 0x26D SWAP2 CODECOPY SWAP1 POP DUP6 DUP4 DUP7 DUP5 DUP8 DUP6 PUSH1 0x40 MLOAD PUSH1 0x20 ADD PUSH2 0x1A15 SWAP7 SWAP6 SWAP5 SWAP4 SWAP3 SWAP2 SWAP1 PUSH2 0x329C JUMP JUMPDEST PUSH1 0x40 MLOAD PUSH1 0x20 DUP2 DUP4 SUB SUB DUP2 MSTORE SWAP1 PUSH1 0x40 MSTORE SWAP7 POP POP POP POP POP POP POP SWAP2 SWAP1 POP JUMP JUMPDEST PUSH1 0x0 PUSH32 0x1FFC9A700000000000000000000000000000000000000000000000000000000 PUSH28 0xFFFFFFFFFFFFFFFFFFFFFFFFFFFFFFFFFFFFFFFFFFFFFFFFFFFFFFFF NOT AND DUP3 PUSH28 0xFFFFFFFFFFFFFFFFFFFFFFFFFFFFFFFFFFFFFFFFFFFFFFFFFFFFFFFF NOT AND EQ SWAP1 POP SWAP2 SWAP1 POP JUMP JUMPDEST PUSH1 0x0 DUP1 PUSH20 0xFFFFFFFFFFFFFFFFFFFFFFFFFFFFFFFFFFFFFFFF AND PUSH1 0x2 PUSH1 0x0 DUP5 DUP2 MSTORE PUSH1 0x20 ADD SWAP1 DUP2 MSTORE PUSH1 0x20 ADD PUSH1 0x0 KECCAK256 PUSH1 0x0 SWAP1 SLOAD SWAP1 PUSH2 0x100 EXP SWAP1 DIV PUSH20 0xFFFFFFFFFFFFFFFFFFFFFFFFFFFFFFFFFFFFFFFF AND PUSH20 0xFFFFFFFFFFFFFFFFFFFFFFFFFFFFFFFFFFFFFFFF AND EQ ISZERO SWAP1 POP SWAP2 SWAP1 POP JUMP JUMPDEST PUSH1 0x0 CALLER SWAP1 POP SWAP1 JUMP JUMPDEST DUP2 PUSH1 0x4 PUSH1 0x0 DUP4 DUP2 MSTORE PUSH1 0x20 ADD SWAP1 DUP2 MSTORE PUSH1 0x20 ADD PUSH1 0x0 KECCAK256 PUSH1 0x0 PUSH2 0x100 EXP DUP2 SLOAD DUP2 PUSH20 0xFFFFFFFFFFFFFFFFFFFFFFFFFFFFFFFFFFFFFFFF MUL NOT AND SWAP1 DUP4 PUSH20 0xFFFFFFFFFFFFFFFFFFFFFFFFFFFFFFFFFFFFFFFF AND MUL OR SWAP1 SSTORE POP DUP1 DUP3 PUSH20 0xFFFFFFFFFFFFFFFFFFFFFFFFFFFFFFFFFFFFFFFF AND PUSH2 0x1B82 DUP4 PUSH2 0xCB1 JUMP JUMPDEST PUSH20 0xFFFFFFFFFFFFFFFFFFFFFFFFFFFFFFFFFFFFFFFF AND PUSH32 0x8C5BE1E5EBEC7D5BD14F71427D1E84F3DD0314C0F7B2291E5B200AC8C7C3B925 PUSH1 0x40 MLOAD PUSH1 0x40 MLOAD DUP1 SWAP2 SUB SWAP1 LOG4 POP POP JUMP JUMPDEST PUSH1 0x0 PUSH20 0xFFFFFFFFFFFFFFFFFFFFFFFFFFFFFFFFFFFFFFFF AND DUP3 PUSH20 0xFFFFFFFFFFFFFFFFFFFFFFFFFFFFFFFFFFFFFFFF AND EQ ISZERO PUSH2 0x1C38 JUMPI PUSH1 0x40 MLOAD PUSH32 0x8C379A000000000000000000000000000000000000000000000000000000000 DUP2 MSTORE PUSH1 0x4 ADD PUSH2 0x1C2F SWAP1 PUSH2 0x3545 JUMP JUMPDEST PUSH1 0x40 MLOAD DUP1 SWAP2 SUB SWAP1 REVERT JUMPDEST PUSH2 0x1C41 DUP2 PUSH2 0x1A9B JUMP JUMPDEST ISZERO PUSH2 0x1C81 JUMPI PUSH1 0x40 MLOAD PUSH32 0x8C379A000000000000000000000000000000000000000000000000000000000 DUP2 MSTORE PUSH1 0x4 ADD PUSH2 0x1C78 SWAP1 PUSH2 0x3465 JUMP JUMPDEST PUSH1 0x40 MLOAD DUP1 SWAP2 SUB SWAP1 REVERT JUMPDEST PUSH2 0x1C8D PUSH1 0x0 DUP4 DUP4 PUSH2 0x2484 JUMP JUMPDEST PUSH1 0x1 PUSH1 0x3 PUSH1 0x0 DUP5 PUSH20 0xFFFFFFFFFFFFFFFFFFFFFFFFFFFFFFFFFFFFFFFF AND PUSH20 0xFFFFFFFFFFFFFFFFFFFFFFFFFFFFFFFFFFFFFFFF AND DUP2 MSTORE PUSH1 0x20 ADD SWAP1 DUP2 MSTORE PUSH1 0x20 ADD PUSH1 0x0 KECCAK256 PUSH1 0x0 DUP3 DUP3 SLOAD PUSH2 0x1CDD SWAP2 SWAP1 PUSH2 0x3699 JUMP JUMPDEST SWAP3 POP POP DUP2 SWAP1 SSTORE POP DUP2 PUSH1 0x2 PUSH1 0x0 DUP4 DUP2 MSTORE PUSH1 0x20 ADD SWAP1 DUP2 MSTORE PUSH1 0x20 ADD PUSH1 0x0 KECCAK256 PUSH1 0x0 PUSH2 0x100 EXP DUP2 SLOAD DUP2 PUSH20 0xFFFFFFFFFFFFFFFFFFFFFFFFFFFFFFFFFFFFFFFF MUL NOT AND SWAP1 DUP4 PUSH20 0xFFFFFFFFFFFFFFFFFFFFFFFFFFFFFFFFFFFFFFFF AND MUL OR SWAP1 SSTORE POP DUP1 DUP3 PUSH20 0xFFFFFFFFFFFFFFFFFFFFFFFFFFFFFFFFFFFFFFFF AND PUSH1 0x0 PUSH20 0xFFFFFFFFFFFFFFFFFFFFFFFFFFFFFFFFFFFFFFFF AND PUSH32 0xDDF252AD1BE2C89B69C2B068FC378DAA952BA7F163C4A11628F55A4DF523B3EF PUSH1 0x40 MLOAD PUSH1 0x40 MLOAD DUP1 SWAP2 SUB SWAP1 LOG4 POP POP JUMP JUMPDEST PUSH1 0x0 PUSH2 0x1DA1 DUP3 PUSH2 0x1A9B JUMP JUMPDEST PUSH2 0x1DE0 JUMPI PUSH1 0x40 MLOAD PUSH32 0x8C379A000000000000000000000000000000000000000000000000000000000 DUP2 MSTORE PUSH1 0x4 ADD PUSH2 0x1DD7 SWAP1 PUSH2 0x34C5 JUMP JUMPDEST PUSH1 0x40 MLOAD DUP1 SWAP2 SUB SWAP1 REVERT JUMPDEST PUSH1 0x0 PUSH2 0x1DEB DUP4 PUSH2 0xCB1 JUMP JUMPDEST SWAP1 POP DUP1 PUSH20 0xFFFFFFFFFFFFFFFFFFFFFFFFFFFFFFFFFFFFFFFF AND DUP5 PUSH20 0xFFFFFFFFFFFFFFFFFFFFFFFFFFFFFFFFFFFFFFFF AND EQ DUP1 PUSH2 0x1E5A JUMPI POP DUP4 PUSH20 0xFFFFFFFFFFFFFFFFFFFFFFFFFFFFFFFFFFFFFFFF AND PUSH2 0x1E42 DUP5 PUSH2 0x556 JUMP JUMPDEST PUSH20 0xFFFFFFFFFFFFFFFFFFFFFFFFFFFFFFFFFFFFFFFF AND EQ JUMPDEST DUP1 PUSH2 0x1E6B JUMPI POP PUSH2 0x1E6A DUP2 DUP6 PUSH2 0x15EC JUMP JUMPDEST JUMPDEST SWAP2 POP POP SWAP3 SWAP2 POP POP JUMP JUMPDEST DUP3 PUSH20 0xFFFFFFFFFFFFFFFFFFFFFFFFFFFFFFFFFFFFFFFF AND PUSH2 0x1E94 DUP3 PUSH2 0xCB1 JUMP JUMPDEST PUSH20 0xFFFFFFFFFFFFFFFFFFFFFFFFFFFFFFFFFFFFFFFF AND EQ PUSH2 0x1EEA JUMPI PUSH1 0x40 MLOAD PUSH32 0x8C379A000000000000000000000000000000000000000000000000000000000 DUP2 MSTORE PUSH1 0x4 ADD PUSH2 0x1EE1 SWAP1 PUSH2 0x3585 JUMP JUMPDEST PUSH1 0x40 MLOAD DUP1 SWAP2 SUB SWAP1 REVERT JUMPDEST PUSH1 0x0 PUSH20 0xFFFFFFFFFFFFFFFFFFFFFFFFFFFFFFFFFFFFFFFF AND DUP3 PUSH20 0xFFFFFFFFFFFFFFFFFFFFFFFFFFFFFFFFFFFFFFFF AND EQ ISZERO PUSH2 0x1F5A JUMPI PUSH1 0x40 MLOAD PUSH32 0x8C379A000000000000000000000000000000000000000000000000000000000 DUP2 MSTORE PUSH1 0x4 ADD PUSH2 0x1F51 SWAP1 PUSH2 0x3485 JUMP JUMPDEST PUSH1 0x40 MLOAD DUP1 SWAP2 SUB SWAP1 REVERT JUMPDEST PUSH2 0x1F65 DUP4 DUP4 DUP4 PUSH2 0x2484 JUMP JUMPDEST PUSH2 0x1F70 PUSH1 0x0 DUP3 PUSH2 0x1B0F JUMP JUMPDEST PUSH1 0x1 PUSH1 0x3 PUSH1 0x0 DUP6 PUSH20 0xFFFFFFFFFFFFFFFFFFFFFFFFFFFFFFFFFFFFFFFF AND PUSH20 0xFFFFFFFFFFFFFFFFFFFFFFFFFFFFFFFFFFFFFFFF AND DUP2 MSTORE PUSH1 0x20 ADD SWAP1 DUP2 MSTORE PUSH1 0x20 ADD PUSH1 0x0 KECCAK256 PUSH1 0x0 DUP3 DUP3 SLOAD PUSH2 0x1FC0 SWAP2 SWAP1 PUSH2 0x377A JUMP JUMPDEST SWAP3 POP POP DUP2 SWAP1 SSTORE POP PUSH1 0x1 PUSH1 0x3 PUSH1 0x0 DUP5 PUSH20 0xFFFFFFFFFFFFFFFFFFFFFFFFFFFFFFFFFFFFFFFF AND PUSH20 0xFFFFFFFFFFFFFFFFFFFFFFFFFFFFFFFFFFFFFFFF AND DUP2 MSTORE PUSH1 0x20 ADD SWAP1 DUP2 MSTORE PUSH1 0x20 ADD PUSH1 0x0 KECCAK256 PUSH1 0x0 DUP3 DUP3 SLOAD PUSH2 0x2017 SWAP2 SWAP1 PUSH2 0x3699 JUMP JUMPDEST SWAP3 POP POP DUP2 SWAP1 SSTORE POP DUP2 PUSH1 0x2 PUSH1 0x0 DUP4 DUP2 MSTORE PUSH1 0x20 ADD SWAP1 DUP2 MSTORE PUSH1 0x20 ADD PUSH1 0x0 KECCAK256 PUSH1 0x0 PUSH2 0x100 EXP DUP2 SLOAD DUP2 PUSH20 0xFFFFFFFFFFFFFFFFFFFFFFFFFFFFFFFFFFFFFFFF MUL NOT AND SWAP1 DUP4 PUSH20 0xFFFFFFFFFFFFFFFFFFFFFFFFFFFFFFFFFFFFFFFF AND MUL OR SWAP1 SSTORE POP DUP1 DUP3 PUSH20 0xFFFFFFFFFFFFFFFFFFFFFFFFFFFFFFFFFFFFFFFF AND DUP5 PUSH20 0xFFFFFFFFFFFFFFFFFFFFFFFFFFFFFFFFFFFFFFFF AND PUSH32 0xDDF252AD1BE2C89B69C2B068FC378DAA952BA7F163C4A11628F55A4DF523B3EF PUSH1 0x40 MLOAD PUSH1 0x40 MLOAD DUP1 SWAP2 SUB SWAP1 LOG4 POP POP POP JUMP JUMPDEST PUSH2 0x20DB DUP5 DUP5 DUP5 PUSH2 0x1E74 JUMP JUMPDEST PUSH2 0x20E7 DUP5 DUP5 DUP5 DUP5 PUSH2 0x2489 JUMP JUMPDEST PUSH2 0x2126 JUMPI PUSH1 0x40 MLOAD PUSH32 0x8C379A000000000000000000000000000000000000000000000000000000000 DUP2 MSTORE PUSH1 0x4 ADD PUSH2 0x211D SWAP1 PUSH2 0x3445 JUMP JUMPDEST PUSH1 0x40 MLOAD DUP1 SWAP2 SUB SWAP1 REVERT JUMPDEST POP POP POP POP JUMP JUMPDEST PUSH1 0x60 PUSH1 0x0 DUP3 EQ ISZERO PUSH2 0x2174 JUMPI PUSH1 0x40 MLOAD DUP1 PUSH1 0x40 ADD PUSH1 0x40 MSTORE DUP1 PUSH1 0x1 DUP2 MSTORE PUSH1 0x20 ADD PUSH32 0x3000000000000000000000000000000000000000000000000000000000000000 DUP2 MSTORE POP SWAP1 POP PUSH2 0x22D4 JUMP JUMPDEST PUSH1 0x0 DUP3 SWAP1 POP PUSH1 0x0 JUMPDEST PUSH1 0x0 DUP3 EQ PUSH2 0x21A6 JUMPI DUP1 DUP1 PUSH2 0x218F SWAP1 PUSH2 0x38D4 JUMP JUMPDEST SWAP2 POP POP PUSH1 0xA DUP3 PUSH2 0x219F SWAP2 SWAP1 PUSH2 0x36EF JUMP JUMPDEST SWAP2 POP PUSH2 0x217C JUMP JUMPDEST PUSH1 0x0 DUP2 PUSH8 0xFFFFFFFFFFFFFFFF DUP2 GT ISZERO PUSH2 0x21E8 JUMPI PUSH32 0x4E487B7100000000000000000000000000000000000000000000000000000000 PUSH1 0x0 MSTORE PUSH1 0x41 PUSH1 0x4 MSTORE PUSH1 0x24 PUSH1 0x0 REVERT JUMPDEST PUSH1 0x40 MLOAD SWAP1 DUP1 DUP3 MSTORE DUP1 PUSH1 0x1F ADD PUSH1 0x1F NOT AND PUSH1 0x20 ADD DUP3 ADD PUSH1 0x40 MSTORE DUP1 ISZERO PUSH2 0x221A JUMPI DUP2 PUSH1 0x20 ADD PUSH1 0x1 DUP3 MUL DUP1 CALLDATASIZE DUP4 CALLDATACOPY DUP1 DUP3 ADD SWAP2 POP POP SWAP1 POP JUMPDEST POP SWAP1 POP JUMPDEST PUSH1 0x0 DUP6 EQ PUSH2 0x22CD JUMPI PUSH1 0x1 DUP3 PUSH2 0x2233 SWAP2 SWAP1 PUSH2 0x377A JUMP JUMPDEST SWAP2 POP PUSH1 0xA DUP6 PUSH2 0x2242 SWAP2 SWAP1 PUSH2 0x391D JUMP JUMPDEST PUSH1 0x30 PUSH2 0x224E SWAP2 SWAP1 PUSH2 0x3699 JUMP JUMPDEST PUSH1 0xF8 SHL DUP2 DUP4 DUP2 MLOAD DUP2 LT PUSH2 0x228A JUMPI PUSH32 0x4E487B7100000000000000000000000000000000000000000000000000000000 PUSH1 0x0 MSTORE PUSH1 0x32 PUSH1 0x4 MSTORE PUSH1 0x24 PUSH1 0x0 REVERT JUMPDEST PUSH1 0x20 ADD ADD SWAP1 PUSH31 0xFFFFFFFFFFFFFFFFFFFFFFFFFFFFFFFFFFFFFFFFFFFFFFFFFFFFFFFFFFFFFF NOT AND SWAP1 DUP2 PUSH1 0x0 BYTE SWAP1 MSTORE8 POP PUSH1 0xA DUP6 PUSH2 0x22C6 SWAP2 SWAP1 PUSH2 0x36EF JUMP JUMPDEST SWAP5 POP PUSH2 0x221E JUMP JUMPDEST DUP1 SWAP4 POP POP POP POP JUMPDEST SWAP2 SWAP1 POP JUMP JUMPDEST PUSH1 0x60 PUSH1 0x0 DUP3 MLOAD EQ ISZERO PUSH2 0x22FC JUMPI PUSH1 0x40 MLOAD DUP1 PUSH1 0x20 ADD PUSH1 0x40 MSTORE DUP1 PUSH1 0x0 DUP2 MSTORE POP SWAP1 POP PUSH2 0x247F JUMP JUMPDEST PUSH1 0x0 PUSH1 0x40 MLOAD DUP1 PUSH1 0x60 ADD PUSH1 0x40 MSTORE DUP1 PUSH1 0x40 DUP2 MSTORE PUSH1 0x20 ADD PUSH2 0x4DB7 PUSH1 0x40 SWAP2 CODECOPY SWAP1 POP PUSH1 0x0 PUSH1 0x3 PUSH1 0x2 DUP6 MLOAD PUSH2 0x232B SWAP2 SWAP1 PUSH2 0x3699 JUMP JUMPDEST PUSH2 0x2335 SWAP2 SWAP1 PUSH2 0x36EF JUMP JUMPDEST PUSH1 0x4 PUSH2 0x2341 SWAP2 SWAP1 PUSH2 0x3720 JUMP JUMPDEST SWAP1 POP PUSH1 0x0 PUSH1 0x20 DUP3 PUSH2 0x2352 SWAP2 SWAP1 PUSH2 0x3699 JUMP JUMPDEST PUSH8 0xFFFFFFFFFFFFFFFF DUP2 GT ISZERO PUSH2 0x2391 JUMPI PUSH32 0x4E487B7100000000000000000000000000000000000000000000000000000000 PUSH1 0x0 MSTORE PUSH1 0x41 PUSH1 0x4 MSTORE PUSH1 0x24 PUSH1 0x0 REVERT JUMPDEST PUSH1 0x40 MLOAD SWAP1 DUP1 DUP3 MSTORE DUP1 PUSH1 0x1F ADD PUSH1 0x1F NOT AND PUSH1 0x20 ADD DUP3 ADD PUSH1 0x40 MSTORE DUP1 ISZERO PUSH2 0x23C3 JUMPI DUP2 PUSH1 0x20 ADD PUSH1 0x1 DUP3 MUL DUP1 CALLDATASIZE DUP4 CALLDATACOPY DUP1 DUP3 ADD SWAP2 POP POP SWAP1 POP JUMPDEST POP SWAP1 POP DUP2 DUP2 MSTORE PUSH1 0x1 DUP4 ADD DUP6 DUP7 MLOAD DUP2 ADD PUSH1 0x20 DUP5 ADD JUMPDEST DUP2 DUP4 LT ISZERO PUSH2 0x243E JUMPI PUSH1 0x3 DUP4 ADD SWAP3 POP DUP3 MLOAD PUSH1 0x3F DUP2 PUSH1 0x12 SHR AND DUP6 ADD MLOAD PUSH1 0xF8 SHL DUP3 MSTORE PUSH1 0x1 DUP3 ADD SWAP2 POP PUSH1 0x3F DUP2 PUSH1 0xC SHR AND DUP6 ADD MLOAD PUSH1 0xF8 SHL DUP3 MSTORE PUSH1 0x1 DUP3 ADD SWAP2 POP PUSH1 0x3F DUP2 PUSH1 0x6 SHR AND DUP6 ADD MLOAD PUSH1 0xF8 SHL DUP3 MSTORE PUSH1 0x1 DUP3 ADD SWAP2 POP PUSH1 0x3F DUP2 AND DUP6 ADD MLOAD PUSH1 0xF8 SHL DUP3 MSTORE PUSH1 0x1 DUP3 ADD SWAP2 POP POP PUSH2 0x23D7 JUMP JUMPDEST PUSH1 0x3 DUP10 MLOAD MOD PUSH1 0x1 DUP2 EQ PUSH2 0x2458 JUMPI PUSH1 0x2 DUP2 EQ PUSH2 0x2468 JUMPI PUSH2 0x2473 JUMP JUMPDEST PUSH2 0x3D3D PUSH1 0xF0 SHL PUSH1 0x2 DUP4 SUB MSTORE PUSH2 0x2473 JUMP JUMPDEST PUSH1 0x3D PUSH1 0xF8 SHL PUSH1 0x1 DUP4 SUB MSTORE JUMPDEST POP POP POP POP POP DUP1 SWAP4 POP POP POP POP JUMPDEST SWAP2 SWAP1 POP JUMP JUMPDEST POP POP POP JUMP JUMPDEST PUSH1 0x0 PUSH2 0x24AA DUP5 PUSH20 0xFFFFFFFFFFFFFFFFFFFFFFFFFFFFFFFFFFFFFFFF AND PUSH2 0x2620 JUMP JUMPDEST ISZERO PUSH2 0x2613 JUMPI DUP4 PUSH20 0xFFFFFFFFFFFFFFFFFFFFFFFFFFFFFFFFFFFFFFFF AND PUSH4 0x150B7A02 PUSH2 0x24D3 PUSH2 0x1B07 JUMP JUMPDEST DUP8 DUP7 DUP7 PUSH1 0x40 MLOAD DUP6 PUSH4 0xFFFFFFFF AND PUSH1 0xE0 SHL DUP2 MSTORE PUSH1 0x4 ADD PUSH2 0x24F5 SWAP5 SWAP4 SWAP3 SWAP2 SWAP1 PUSH2 0x3393 JUMP JUMPDEST PUSH1 0x20 PUSH1 0x40 MLOAD DUP1 DUP4 SUB DUP2 PUSH1 0x0 DUP8 DUP1 EXTCODESIZE ISZERO DUP1 ISZERO PUSH2 0x250F JUMPI PUSH1 0x0 DUP1 REVERT JUMPDEST POP GAS CALL SWAP3 POP POP POP DUP1 ISZERO PUSH2 0x2540 JUMPI POP PUSH1 0x40 MLOAD RETURNDATASIZE PUSH1 0x1F NOT PUSH1 0x1F DUP3 ADD AND DUP3 ADD DUP1 PUSH1 0x40 MSTORE POP DUP2 ADD SWAP1 PUSH2 0x253D SWAP2 SWAP1 PUSH2 0x2919 JUMP JUMPDEST PUSH1 0x1 JUMPDEST PUSH2 0x25C3 JUMPI RETURNDATASIZE DUP1 PUSH1 0x0 DUP2 EQ PUSH2 0x2570 JUMPI PUSH1 0x40 MLOAD SWAP2 POP PUSH1 0x1F NOT PUSH1 0x3F RETURNDATASIZE ADD AND DUP3 ADD PUSH1 0x40 MSTORE RETURNDATASIZE DUP3 MSTORE RETURNDATASIZE PUSH1 0x0 PUSH1 0x20 DUP5 ADD RETURNDATACOPY PUSH2 0x2575 JUMP JUMPDEST PUSH1 0x60 SWAP2 POP JUMPDEST POP PUSH1 0x0 DUP2 MLOAD EQ ISZERO PUSH2 0x25BB JUMPI PUSH1 0x40 MLOAD PUSH32 0x8C379A000000000000000000000000000000000000000000000000000000000 DUP2 MSTORE PUSH1 0x4 ADD PUSH2 0x25B2 SWAP1 PUSH2 0x3445 JUMP JUMPDEST PUSH1 0x40 MLOAD DUP1 SWAP2 SUB SWAP1 REVERT JUMPDEST DUP1 MLOAD DUP2 PUSH1 0x20 ADD REVERT JUMPDEST PUSH4 0x150B7A02 PUSH1 0xE0 SHL PUSH28 0xFFFFFFFFFFFFFFFFFFFFFFFFFFFFFFFFFFFFFFFFFFFFFFFFFFFFFFFF NOT AND DUP2 PUSH28 0xFFFFFFFFFFFFFFFFFFFFFFFFFFFFFFFFFFFFFFFFFFFFFFFFFFFFFFFF NOT AND EQ SWAP2 POP POP PUSH2 0x2618 JUMP JUMPDEST PUSH1 0x1 SWAP1 POP JUMPDEST SWAP5 SWAP4 POP POP POP POP JUMP JUMPDEST PUSH1 0x0 DUP1 DUP3 EXTCODESIZE SWAP1 POP PUSH1 0x0 DUP2 GT SWAP2 POP POP SWAP2 SWAP1 POP JUMP JUMPDEST PUSH1 0x40 MLOAD DUP1 PUSH1 0x40 ADD PUSH1 0x40 MSTORE DUP1 PUSH1 0x0 PUSH20 0xFFFFFFFFFFFFFFFFFFFFFFFFFFFFFFFFFFFFFFFF AND DUP2 MSTORE PUSH1 0x20 ADD PUSH1 0x0 DUP2 MSTORE POP SWAP1 JUMP JUMPDEST PUSH1 0x0 PUSH2 0x2676 PUSH2 0x2671 DUP5 PUSH2 0x3625 JUMP JUMPDEST PUSH2 0x3600 JUMP JUMPDEST SWAP1 POP DUP3 DUP2 MSTORE PUSH1 0x20 DUP2 ADD DUP5 DUP5 DUP5 ADD GT ISZERO PUSH2 0x268E JUMPI PUSH1 0x0 DUP1 REVERT JUMPDEST PUSH2 0x2699 DUP5 DUP3 DUP6 PUSH2 0x382F JUMP JUMPDEST POP SWAP4 SWAP3 POP POP POP JUMP JUMPDEST PUSH1 0x0 DUP2 CALLDATALOAD SWAP1 POP PUSH2 0x26B0 DUP2 PUSH2 0x47DC JUMP JUMPDEST SWAP3 SWAP2 POP POP JUMP JUMPDEST PUSH1 0x0 DUP2 CALLDATALOAD SWAP1 POP PUSH2 0x26C5 DUP2 PUSH2 0x47F3 JUMP JUMPDEST SWAP3 SWAP2 POP POP JUMP JUMPDEST PUSH1 0x0 DUP2 CALLDATALOAD SWAP1 POP PUSH2 0x26DA DUP2 PUSH2 0x480A JUMP JUMPDEST SWAP3 SWAP2 POP POP JUMP JUMPDEST PUSH1 0x0 DUP2 MLOAD SWAP1 POP PUSH2 0x26EF DUP2 PUSH2 0x480A JUMP JUMPDEST SWAP3 SWAP2 POP POP JUMP JUMPDEST PUSH1 0x0 DUP3 PUSH1 0x1F DUP4 ADD SLT PUSH2 0x2706 JUMPI PUSH1 0x0 DUP1 REVERT JUMPDEST DUP2 CALLDATALOAD PUSH2 0x2716 DUP5 DUP3 PUSH1 0x20 DUP7 ADD PUSH2 0x2663 JUMP JUMPDEST SWAP2 POP POP SWAP3 SWAP2 POP POP JUMP JUMPDEST PUSH1 0x0 DUP2 CALLDATALOAD SWAP1 POP PUSH2 0x272E DUP2 PUSH2 0x4821 JUMP JUMPDEST SWAP3 SWAP2 POP POP JUMP JUMPDEST PUSH1 0x0 DUP2 CALLDATALOAD SWAP1 POP PUSH2 0x2743 DUP2 PUSH2 0x4838 JUMP JUMPDEST SWAP3 SWAP2 POP POP JUMP JUMPDEST PUSH1 0x0 PUSH1 0x20 DUP3 DUP5 SUB SLT ISZERO PUSH2 0x275B JUMPI PUSH1 0x0 DUP1 REVERT JUMPDEST PUSH1 0x0 PUSH2 0x2769 DUP5 DUP3 DUP6 ADD PUSH2 0x26A1 JUMP JUMPDEST SWAP2 POP POP SWAP3 SWAP2 POP POP JUMP JUMPDEST PUSH1 0x0 DUP1 PUSH1 0x40 DUP4 DUP6 SUB SLT ISZERO PUSH2 0x2785 JUMPI PUSH1 0x0 DUP1 REVERT JUMPDEST PUSH1 0x0 PUSH2 0x2793 DUP6 DUP3 DUP7 ADD PUSH2 0x26A1 JUMP JUMPDEST SWAP3 POP POP PUSH1 0x20 PUSH2 0x27A4 DUP6 DUP3 DUP7 ADD PUSH2 0x26A1 JUMP JUMPDEST SWAP2 POP POP SWAP3 POP SWAP3 SWAP1 POP JUMP JUMPDEST PUSH1 0x0 DUP1 PUSH1 0x0 PUSH1 0x60 DUP5 DUP7 SUB SLT ISZERO PUSH2 0x27C3 JUMPI PUSH1 0x0 DUP1 REVERT JUMPDEST PUSH1 0x0 PUSH2 0x27D1 DUP7 DUP3 DUP8 ADD PUSH2 0x26A1 JUMP JUMPDEST SWAP4 POP POP PUSH1 0x20 PUSH2 0x27E2 DUP7 DUP3 DUP8 ADD PUSH2 0x26A1 JUMP JUMPDEST SWAP3 POP POP PUSH1 0x40 PUSH2 0x27F3 DUP7 DUP3 DUP8 ADD PUSH2 0x271F JUMP JUMPDEST SWAP2 POP POP SWAP3 POP SWAP3 POP SWAP3 JUMP JUMPDEST PUSH1 0x0 DUP1 PUSH1 0x0 DUP1 PUSH1 0x80 DUP6 DUP8 SUB SLT ISZERO PUSH2 0x2813 JUMPI PUSH1 0x0 DUP1 REVERT JUMPDEST PUSH1 0x0 PUSH2 0x2821 DUP8 DUP3 DUP9 ADD PUSH2 0x26A1 JUMP JUMPDEST SWAP5 POP POP PUSH1 0x20 PUSH2 0x2832 DUP8 DUP3 DUP9 ADD PUSH2 0x26A1 JUMP JUMPDEST SWAP4 POP POP PUSH1 0x40 PUSH2 0x2843 DUP8 DUP3 DUP9 ADD PUSH2 0x271F JUMP JUMPDEST SWAP3 POP POP PUSH1 0x60 DUP6 ADD CALLDATALOAD PUSH8 0xFFFFFFFFFFFFFFFF DUP2 GT ISZERO PUSH2 0x2860 JUMPI PUSH1 0x0 DUP1 REVERT JUMPDEST PUSH2 0x286C DUP8 DUP3 DUP9 ADD PUSH2 0x26F5 JUMP JUMPDEST SWAP2 POP POP SWAP3 SWAP6 SWAP2 SWAP5 POP SWAP3 POP JUMP JUMPDEST PUSH1 0x0 DUP1 PUSH1 0x40 DUP4 DUP6 SUB SLT ISZERO PUSH2 0x288B JUMPI PUSH1 0x0 DUP1 REVERT JUMPDEST PUSH1 0x0 PUSH2 0x2899 DUP6 DUP3 DUP7 ADD PUSH2 0x26A1 JUMP JUMPDEST SWAP3 POP POP PUSH1 0x20 PUSH2 0x28AA DUP6 DUP3 DUP7 ADD PUSH2 0x26B6 JUMP JUMPDEST SWAP2 POP POP SWAP3 POP SWAP3 SWAP1 POP JUMP JUMPDEST PUSH1 0x0 DUP1 PUSH1 0x40 DUP4 DUP6 SUB SLT ISZERO PUSH2 0x28C7 JUMPI PUSH1 0x0 DUP1 REVERT JUMPDEST PUSH1 0x0 PUSH2 0x28D5 DUP6 DUP3 DUP7 ADD PUSH2 0x26A1 JUMP JUMPDEST SWAP3 POP POP PUSH1 0x20 PUSH2 0x28E6 DUP6 DUP3 DUP7 ADD PUSH2 0x271F JUMP JUMPDEST SWAP2 POP POP SWAP3 POP SWAP3 SWAP1 POP JUMP JUMPDEST PUSH1 0x0 PUSH1 0x20 DUP3 DUP5 SUB SLT ISZERO PUSH2 0x2902 JUMPI PUSH1 0x0 DUP1 REVERT JUMPDEST PUSH1 0x0 PUSH2 0x2910 DUP5 DUP3 DUP6 ADD PUSH2 0x26CB JUMP JUMPDEST SWAP2 POP POP SWAP3 SWAP2 POP POP JUMP JUMPDEST PUSH1 0x0 PUSH1 0x20 DUP3 DUP5 SUB SLT ISZERO PUSH2 0x292B JUMPI PUSH1 0x0 DUP1 REVERT JUMPDEST PUSH1 0x0 PUSH2 0x2939 DUP5 DUP3 DUP6 ADD PUSH2 0x26E0 JUMP JUMPDEST SWAP2 POP POP SWAP3 SWAP2 POP POP JUMP JUMPDEST PUSH1 0x0 PUSH1 0x20 DUP3 DUP5 SUB SLT ISZERO PUSH2 0x2954 JUMPI PUSH1 0x0 DUP1 REVERT JUMPDEST PUSH1 0x0 PUSH2 0x2962 DUP5 DUP3 DUP6 ADD PUSH2 0x271F JUMP JUMPDEST SWAP2 POP POP SWAP3 SWAP2 POP POP JUMP JUMPDEST PUSH1 0x0 PUSH1 0x20 DUP3 DUP5 SUB SLT ISZERO PUSH2 0x297D JUMPI PUSH1 0x0 DUP1 REVERT JUMPDEST PUSH1 0x0 PUSH2 0x298B DUP5 DUP3 DUP6 ADD PUSH2 0x2734 JUMP JUMPDEST SWAP2 POP POP SWAP3 SWAP2 POP POP JUMP JUMPDEST PUSH2 0x299D DUP2 PUSH2 0x37AE JUMP JUMPDEST DUP3 MSTORE POP POP JUMP JUMPDEST PUSH2 0x29AC DUP2 PUSH2 0x37C0 JUMP JUMPDEST DUP3 MSTORE POP POP JUMP JUMPDEST PUSH1 0x0 PUSH2 0x29BD DUP3 PUSH2 0x3656 JUMP JUMPDEST PUSH2 0x29C7 DUP2 DUP6 PUSH2 0x366C JUMP JUMPDEST SWAP4 POP PUSH2 0x29D7 DUP2 DUP6 PUSH1 0x20 DUP7 ADD PUSH2 0x383E JUMP JUMPDEST PUSH2 0x29E0 DUP2 PUSH2 0x3A0A JUMP JUMPDEST DUP5 ADD SWAP2 POP POP SWAP3 SWAP2 POP POP JUMP JUMPDEST PUSH1 0x0 PUSH2 0x29F6 DUP3 PUSH2 0x3661 JUMP JUMPDEST PUSH2 0x2A00 DUP2 DUP6 PUSH2 0x367D JUMP JUMPDEST SWAP4 POP PUSH2 0x2A10 DUP2 DUP6 PUSH1 0x20 DUP7 ADD PUSH2 0x383E JUMP JUMPDEST PUSH2 0x2A19 DUP2 PUSH2 0x3A0A JUMP JUMPDEST DUP5 ADD SWAP2 POP POP SWAP3 SWAP2 POP POP JUMP JUMPDEST PUSH1 0x0 PUSH2 0x2A2F DUP3 PUSH2 0x3661 JUMP JUMPDEST PUSH2 0x2A39 DUP2 DUP6 PUSH2 0x368E JUMP JUMPDEST SWAP4 POP PUSH2 0x2A49 DUP2 DUP6 PUSH1 0x20 DUP7 ADD PUSH2 0x383E JUMP JUMPDEST DUP1 DUP5 ADD SWAP2 POP POP SWAP3 SWAP2 POP POP JUMP JUMPDEST PUSH1 0x0 PUSH2 0x2A62 PUSH1 0x39 DUP4 PUSH2 0x368E JUMP JUMPDEST SWAP2 POP PUSH2 0x2A6D DUP3 PUSH2 0x3A1B JUMP JUMPDEST PUSH1 0x39 DUP3 ADD SWAP1 POP SWAP2 SWAP1 POP JUMP JUMPDEST PUSH1 0x0 PUSH2 0x2A85 PUSH1 0x9 DUP4 PUSH2 0x368E JUMP JUMPDEST SWAP2 POP PUSH2 0x2A90 DUP3 PUSH2 0x3A6A JUMP JUMPDEST PUSH1 0x9 DUP3 ADD SWAP1 POP SWAP2 SWAP1 POP JUMP JUMPDEST PUSH1 0x0 PUSH2 0x2AA8 PUSH1 0x1C DUP4 PUSH2 0x368E JUMP JUMPDEST SWAP2 POP PUSH2 0x2AB3 DUP3 PUSH2 0x3A93 JUMP JUMPDEST PUSH1 0x1C DUP3 ADD SWAP1 POP SWAP2 SWAP1 POP JUMP JUMPDEST PUSH1 0x0 PUSH2 0x2ACB PUSH1 0x32 DUP4 PUSH2 0x367D JUMP JUMPDEST SWAP2 POP PUSH2 0x2AD6 DUP3 PUSH2 0x3ABC JUMP JUMPDEST PUSH1 0x40 DUP3 ADD SWAP1 POP SWAP2 SWAP1 POP JUMP JUMPDEST PUSH1 0x0 PUSH2 0x2AEF PUSH2 0x1E0 DUP4 PUSH2 0x368E JUMP JUMPDEST SWAP2 POP PUSH2 0x2AFA DUP3 PUSH2 0x3B0B JUMP JUMPDEST PUSH2 0x1E0 DUP3 ADD SWAP1 POP SWAP2 SWAP1 POP JUMP JUMPDEST PUSH1 0x0 PUSH2 0x2B13 PUSH1 0x23 DUP4 PUSH2 0x368E JUMP JUMPDEST SWAP2 POP PUSH2 0x2B1E DUP3 PUSH2 0x3D4F JUMP JUMPDEST PUSH1 0x23 DUP3 ADD SWAP1 POP SWAP2 SWAP1 POP JUMP JUMPDEST PUSH1 0x0 PUSH2 0x2B36 PUSH1 0x1C DUP4 PUSH2 0x367D JUMP JUMPDEST SWAP2 POP PUSH2 0x2B41 DUP3 PUSH2 0x3D9E JUMP JUMPDEST PUSH1 0x20 DUP3 ADD SWAP1 POP SWAP2 SWAP1 POP JUMP JUMPDEST PUSH1 0x0 PUSH2 0x2B59 PUSH1 0x22 DUP4 PUSH2 0x368E JUMP JUMPDEST SWAP2 POP PUSH2 0x2B64 DUP3 PUSH2 0x3DC7 JUMP JUMPDEST PUSH1 0x22 DUP3 ADD SWAP1 POP SWAP2 SWAP1 POP JUMP JUMPDEST PUSH1 0x0 PUSH2 0x2B7C PUSH1 0x43 DUP4 PUSH2 0x368E JUMP JUMPDEST SWAP2 POP PUSH2 0x2B87 DUP3 PUSH2 0x3E16 JUMP JUMPDEST PUSH1 0x43 DUP3 ADD SWAP1 POP SWAP2 SWAP1 POP JUMP JUMPDEST PUSH1 0x0 PUSH2 0x2B9F PUSH1 0x24 DUP4 PUSH2 0x367D JUMP JUMPDEST SWAP2 POP PUSH2 0x2BAA DUP3 PUSH2 0x3E8B JUMP JUMPDEST PUSH1 0x40 DUP3 ADD SWAP1 POP SWAP2 SWAP1 POP JUMP JUMPDEST PUSH1 0x0 PUSH2 0x2BC2 PUSH1 0x19 DUP4 PUSH2 0x367D JUMP JUMPDEST SWAP2 POP PUSH2 0x2BCD DUP3 PUSH2 0x3EDA JUMP JUMPDEST PUSH1 0x20 DUP3 ADD SWAP1 POP SWAP2 SWAP1 POP JUMP JUMPDEST PUSH1 0x0 PUSH2 0x2BE5 PUSH1 0x28 DUP4 PUSH2 0x368E JUMP JUMPDEST SWAP2 POP PUSH2 0x2BF0 DUP3 PUSH2 0x3F03 JUMP JUMPDEST PUSH1 0x28 DUP3 ADD SWAP1 POP SWAP2 SWAP1 POP JUMP JUMPDEST PUSH1 0x0 PUSH2 0x2C08 PUSH1 0x2C DUP4 PUSH2 0x367D JUMP JUMPDEST SWAP2 POP PUSH2 0x2C13 DUP3 PUSH2 0x3F52 JUMP JUMPDEST PUSH1 0x40 DUP3 ADD SWAP1 POP SWAP2 SWAP1 POP JUMP JUMPDEST PUSH1 0x0 PUSH2 0x2C2B PUSH1 0x3A DUP4 PUSH2 0x368E JUMP JUMPDEST SWAP2 POP PUSH2 0x2C36 DUP3 PUSH2 0x3FA1 JUMP JUMPDEST PUSH1 0x3A DUP3 ADD SWAP1 POP SWAP2 SWAP1 POP JUMP JUMPDEST PUSH1 0x0 PUSH2 0x2C4E PUSH1 0x38 DUP4 PUSH2 0x367D JUMP JUMPDEST SWAP2 POP PUSH2 0x2C59 DUP3 PUSH2 0x3FF0 JUMP JUMPDEST PUSH1 0x40 DUP3 ADD SWAP1 POP SWAP2 SWAP1 POP JUMP JUMPDEST PUSH1 0x0 PUSH2 0x2C71 PUSH1 0x4 DUP4 PUSH2 0x368E JUMP JUMPDEST SWAP2 POP PUSH2 0x2C7C DUP3 PUSH2 0x403F JUMP JUMPDEST PUSH1 0x4 DUP3 ADD SWAP1 POP SWAP2 SWAP1 POP JUMP JUMPDEST PUSH1 0x0 PUSH2 0x2C94 PUSH1 0x2A DUP4 PUSH2 0x367D JUMP JUMPDEST SWAP2 POP PUSH2 0x2C9F DUP3 PUSH2 0x4068 JUMP JUMPDEST PUSH1 0x40 DUP3 ADD SWAP1 POP SWAP2 SWAP1 POP JUMP JUMPDEST PUSH1 0x0 PUSH2 0x2CB7 PUSH1 0x29 DUP4 PUSH2 0x367D JUMP JUMPDEST SWAP2 POP PUSH2 0x2CC2 DUP3 PUSH2 0x40B7 JUMP JUMPDEST PUSH1 0x40 DUP3 ADD SWAP1 POP SWAP2 SWAP1 POP JUMP JUMPDEST PUSH1 0x0 PUSH2 0x2CDA PUSH1 0x2B DUP4 PUSH2 0x368E JUMP JUMPDEST SWAP2 POP PUSH2 0x2CE5 DUP3 PUSH2 0x4106 JUMP JUMPDEST PUSH1 0x2B DUP3 ADD SWAP1 POP SWAP2 SWAP1 POP JUMP JUMPDEST PUSH1 0x0 PUSH2 0x2CFD PUSH1 0x2 DUP4 PUSH2 0x368E JUMP JUMPDEST SWAP2 POP PUSH2 0x2D08 DUP3 PUSH2 0x4155 JUMP JUMPDEST PUSH1 0x2 DUP3 ADD SWAP1 POP SWAP2 SWAP1 POP JUMP JUMPDEST PUSH1 0x0 PUSH2 0x2D20 PUSH1 0x7 DUP4 PUSH2 0x368E JUMP JUMPDEST SWAP2 POP PUSH2 0x2D2B DUP3 PUSH2 0x417E JUMP JUMPDEST PUSH1 0x7 DUP3 ADD SWAP1 POP SWAP2 SWAP1 POP JUMP JUMPDEST PUSH1 0x0 PUSH2 0x2D43 PUSH1 0x20 DUP4 PUSH2 0x367D JUMP JUMPDEST SWAP2 POP PUSH2 0x2D4E DUP3 PUSH2 0x41A7 JUMP JUMPDEST PUSH1 0x20 DUP3 ADD SWAP1 POP SWAP2 SWAP1 POP JUMP JUMPDEST PUSH1 0x0 PUSH2 0x2D66 PUSH1 0xD DUP4 PUSH2 0x368E JUMP JUMPDEST SWAP2 POP PUSH2 0x2D71 DUP3 PUSH2 0x41D0 JUMP JUMPDEST PUSH1 0xD DUP3 ADD SWAP1 POP SWAP2 SWAP1 POP JUMP JUMPDEST PUSH1 0x0 PUSH2 0x2D89 PUSH1 0x22 DUP4 PUSH2 0x368E JUMP JUMPDEST SWAP2 POP PUSH2 0x2D94 DUP3 PUSH2 0x41F9 JUMP JUMPDEST PUSH1 0x22 DUP3 ADD SWAP1 POP SWAP2 SWAP1 POP JUMP JUMPDEST PUSH1 0x0 PUSH2 0x2DAC PUSH1 0x2C DUP4 PUSH2 0x367D JUMP JUMPDEST SWAP2 POP PUSH2 0x2DB7 DUP3 PUSH2 0x4248 JUMP JUMPDEST PUSH1 0x40 DUP3 ADD SWAP1 POP SWAP2 SWAP1 POP JUMP JUMPDEST PUSH1 0x0 PUSH2 0x2DCF PUSH1 0x12 DUP4 PUSH2 0x368E JUMP JUMPDEST SWAP2 POP PUSH2 0x2DDA DUP3 PUSH2 0x4297 JUMP JUMPDEST PUSH1 0x12 DUP3 ADD SWAP1 POP SWAP2 SWAP1 POP JUMP JUMPDEST PUSH1 0x0 PUSH2 0x2DF2 PUSH1 0x30 DUP4 PUSH2 0x368E JUMP JUMPDEST SWAP2 POP PUSH2 0x2DFD DUP3 PUSH2 0x42C0 JUMP JUMPDEST PUSH1 0x30 DUP3 ADD SWAP1 POP SWAP2 SWAP1 POP JUMP JUMPDEST PUSH1 0x0 PUSH2 0x2E15 PUSH1 0x55 DUP4 PUSH2 0x368E JUMP JUMPDEST SWAP2 POP PUSH2 0x2E20 DUP3 PUSH2 0x430F JUMP JUMPDEST PUSH1 0x55 DUP3 ADD SWAP1 POP SWAP2 SWAP1 POP JUMP JUMPDEST PUSH1 0x0 PUSH2 0x2E38 PUSH1 0x29 DUP4 PUSH2 0x367D JUMP JUMPDEST SWAP2 POP PUSH2 0x2E43 DUP3 PUSH2 0x4384 JUMP JUMPDEST PUSH1 0x40 DUP3 ADD SWAP1 POP SWAP2 SWAP1 POP JUMP JUMPDEST PUSH1 0x0 PUSH2 0x2E5B PUSH1 0x4 DUP4 PUSH2 0x368E JUMP JUMPDEST SWAP2 POP PUSH2 0x2E66 DUP3 PUSH2 0x43D3 JUMP JUMPDEST PUSH1 0x4 DUP3 ADD SWAP1 POP SWAP2 SWAP1 POP JUMP JUMPDEST PUSH1 0x0 PUSH2 0x2E7E PUSH1 0x44 DUP4 PUSH2 0x368E JUMP JUMPDEST SWAP2 POP PUSH2 0x2E89 DUP3 PUSH2 0x43FC JUMP JUMPDEST PUSH1 0x44 DUP3 ADD SWAP1 POP SWAP2 SWAP1 POP JUMP JUMPDEST PUSH1 0x0 PUSH2 0x2EA1 PUSH1 0x2D DUP4 PUSH2 0x368E JUMP JUMPDEST SWAP2 POP PUSH2 0x2EAC DUP3 PUSH2 0x4471 JUMP JUMPDEST PUSH1 0x2D DUP3 ADD SWAP1 POP SWAP2 SWAP1 POP JUMP JUMPDEST PUSH1 0x0 PUSH2 0x2EC4 PUSH1 0x21 DUP4 PUSH2 0x367D JUMP JUMPDEST SWAP2 POP PUSH2 0x2ECF DUP3 PUSH2 0x44C0 JUMP JUMPDEST PUSH1 0x40 DUP3 ADD SWAP1 POP SWAP2 SWAP1 POP JUMP JUMPDEST PUSH1 0x0 PUSH2 0x2EE7 PUSH1 0x1D DUP4 PUSH2 0x368E JUMP JUMPDEST SWAP2 POP PUSH2 0x2EF2 DUP3 PUSH2 0x450F JUMP JUMPDEST PUSH1 0x1D DUP3 ADD SWAP1 POP SWAP2 SWAP1 POP JUMP JUMPDEST PUSH1 0x0 PUSH2 0x2F0A PUSH1 0xC DUP4 PUSH2 0x368E JUMP JUMPDEST SWAP2 POP PUSH2 0x2F15 DUP3 PUSH2 0x4538 JUMP JUMPDEST PUSH1 0xC DUP3 ADD SWAP1 POP SWAP2 SWAP1 POP JUMP JUMPDEST PUSH1 0x0 PUSH2 0x2F2D PUSH1 0x31 DUP4 PUSH2 0x367D JUMP JUMPDEST SWAP2 POP PUSH2 0x2F38 DUP3 PUSH2 0x4561 JUMP JUMPDEST PUSH1 0x40 DUP3 ADD SWAP1 POP SWAP2 SWAP1 POP JUMP JUMPDEST PUSH1 0x0 PUSH2 0x2F50 PUSH1 0x21 DUP4 PUSH2 0x368E JUMP JUMPDEST SWAP2 POP PUSH2 0x2F5B DUP3 PUSH2 0x45B0 JUMP JUMPDEST PUSH1 0x21 DUP3 ADD SWAP1 POP SWAP2 SWAP1 POP JUMP JUMPDEST PUSH1 0x0 PUSH2 0x2F73 PUSH1 0x30 DUP4 PUSH2 0x368E JUMP JUMPDEST SWAP2 POP PUSH2 0x2F7E DUP3 PUSH2 0x45FF JUMP JUMPDEST PUSH1 0x30 DUP3 ADD SWAP1 POP SWAP2 SWAP1 POP JUMP JUMPDEST PUSH1 0x0 PUSH2 0x2F96 PUSH1 0x2B DUP4 PUSH2 0x368E JUMP JUMPDEST SWAP2 POP PUSH2 0x2FA1 DUP3 PUSH2 0x464E JUMP JUMPDEST PUSH1 0x2B DUP3 ADD SWAP1 POP SWAP2 SWAP1 POP JUMP JUMPDEST PUSH1 0x0 PUSH2 0x2FB9 PUSH1 0x22 DUP4 PUSH2 0x368E JUMP JUMPDEST SWAP2 POP PUSH2 0x2FC4 DUP3 PUSH2 0x469D JUMP JUMPDEST PUSH1 0x22 DUP3 ADD SWAP1 POP SWAP2 SWAP1 POP JUMP JUMPDEST PUSH1 0x0 PUSH2 0x2FDC PUSH1 0x21 DUP4 PUSH2 0x368E JUMP JUMPDEST SWAP2 POP PUSH2 0x2FE7 DUP3 PUSH2 0x46EC JUMP JUMPDEST PUSH1 0x21 DUP3 ADD SWAP1 POP SWAP2 SWAP1 POP JUMP JUMPDEST PUSH1 0x0 PUSH2 0x2FFF PUSH1 0x6 DUP4 PUSH2 0x368E JUMP JUMPDEST SWAP2 POP PUSH2 0x300A DUP3 PUSH2 0x473B JUMP JUMPDEST PUSH1 0x6 DUP3 ADD SWAP1 POP SWAP2 SWAP1 POP JUMP JUMPDEST PUSH1 0x0 PUSH2 0x3022 PUSH1 0x3B DUP4 PUSH2 0x368E JUMP JUMPDEST SWAP2 POP PUSH2 0x302D DUP3 PUSH2 0x4764 JUMP JUMPDEST PUSH1 0x3B DUP3 ADD SWAP1 POP SWAP2 SWAP1 POP JUMP JUMPDEST PUSH1 0x0 PUSH2 0x3045 PUSH1 0x1A DUP4 PUSH2 0x368E JUMP JUMPDEST SWAP2 POP PUSH2 0x3050 DUP3 PUSH2 0x47B3 JUMP JUMPDEST PUSH1 0x1A DUP3 ADD SWAP1 POP SWAP2 SWAP1 POP JUMP JUMPDEST PUSH2 0x3064 DUP2 PUSH2 0x3818 JUMP JUMPDEST DUP3 MSTORE POP POP JUMP JUMPDEST PUSH1 0x0 PUSH2 0x3075 DUP3 PUSH2 0x2A78 JUMP JUMPDEST SWAP2 POP PUSH2 0x3081 DUP3 DUP7 PUSH2 0x2A24 JUMP JUMPDEST SWAP2 POP PUSH2 0x308C DUP3 PUSH2 0x2DC2 JUMP JUMPDEST SWAP2 POP PUSH2 0x3098 DUP3 DUP6 PUSH2 0x2A24 JUMP JUMPDEST SWAP2 POP PUSH2 0x30A3 DUP3 PUSH2 0x2D59 JUMP JUMPDEST SWAP2 POP PUSH2 0x30AE DUP3 PUSH2 0x3038 JUMP JUMPDEST SWAP2 POP PUSH2 0x30BA DUP3 DUP5 PUSH2 0x2A24 JUMP JUMPDEST SWAP2 POP PUSH2 0x30C5 DUP3 PUSH2 0x2CF0 JUMP JUMPDEST SWAP2 POP DUP2 SWAP1 POP SWAP5 SWAP4 POP POP POP POP JUMP JUMPDEST PUSH1 0x0 PUSH2 0x30DD DUP3 PUSH2 0x2E08 JUMP JUMPDEST SWAP2 POP PUSH2 0x30E8 DUP3 PUSH2 0x2E94 JUMP JUMPDEST SWAP2 POP PUSH2 0x30F4 DUP3 DUP13 PUSH2 0x2A24 JUMP JUMPDEST SWAP2 POP PUSH2 0x30FF DUP3 PUSH2 0x2C64 JUMP JUMPDEST SWAP2 POP PUSH2 0x310A DUP3 PUSH2 0x2B6F JUMP JUMPDEST SWAP2 POP PUSH2 0x3115 DUP3 PUSH2 0x2EFD JUMP JUMPDEST SWAP2 POP PUSH2 0x3121 DUP3 DUP12 PUSH2 0x2A24 JUMP JUMPDEST SWAP2 POP PUSH2 0x312C DUP3 PUSH2 0x2A9B JUMP JUMPDEST SWAP2 POP PUSH2 0x3137 DUP3 PUSH2 0x2B06 JUMP JUMPDEST SWAP2 POP PUSH2 0x3143 DUP3 DUP11 PUSH2 0x2A24 JUMP JUMPDEST SWAP2 POP PUSH2 0x314E DUP3 PUSH2 0x2D13 JUMP JUMPDEST SWAP2 POP PUSH2 0x3159 DUP3 PUSH2 0x3015 JUMP JUMPDEST SWAP2 POP PUSH2 0x3164 DUP3 PUSH2 0x2BD8 JUMP JUMPDEST SWAP2 POP PUSH2 0x3170 DUP3 DUP10 PUSH2 0x2A24 JUMP JUMPDEST SWAP2 POP PUSH2 0x317B DUP3 PUSH2 0x2D13 JUMP JUMPDEST SWAP2 POP PUSH2 0x3186 DUP3 PUSH2 0x2A55 JUMP JUMPDEST SWAP2 POP PUSH2 0x3192 DUP3 DUP9 PUSH2 0x2A24 JUMP JUMPDEST SWAP2 POP PUSH2 0x319D DUP3 PUSH2 0x2D13 JUMP JUMPDEST SWAP2 POP PUSH2 0x31A8 DUP3 PUSH2 0x2CCD JUMP JUMPDEST SWAP2 POP PUSH2 0x31B4 DUP3 DUP8 PUSH2 0x2A24 JUMP JUMPDEST SWAP2 POP PUSH2 0x31BF DUP3 PUSH2 0x2D13 JUMP JUMPDEST SWAP2 POP PUSH2 0x31CA DUP3 PUSH2 0x2F66 JUMP JUMPDEST SWAP2 POP PUSH2 0x31D6 DUP3 DUP7 PUSH2 0x2A24 JUMP JUMPDEST SWAP2 POP PUSH2 0x31E1 DUP3 PUSH2 0x2D13 JUMP JUMPDEST SWAP2 POP PUSH2 0x31EC DUP3 PUSH2 0x2E71 JUMP JUMPDEST SWAP2 POP PUSH2 0x31F7 DUP3 PUSH2 0x2C1E JUMP JUMPDEST SWAP2 POP PUSH2 0x3203 DUP3 DUP6 PUSH2 0x2A24 JUMP JUMPDEST SWAP2 POP PUSH2 0x320E DUP3 PUSH2 0x2D13 JUMP JUMPDEST SWAP2 POP PUSH2 0x3219 DUP3 PUSH2 0x2F43 JUMP JUMPDEST SWAP2 POP PUSH2 0x3224 DUP3 PUSH2 0x2DE5 JUMP JUMPDEST SWAP2 POP PUSH2 0x322F DUP3 PUSH2 0x2D7C JUMP JUMPDEST SWAP2 POP PUSH2 0x323A DUP3 PUSH2 0x2AE1 JUMP JUMPDEST SWAP2 POP PUSH2 0x3245 DUP3 PUSH2 0x2E4E JUMP JUMPDEST SWAP2 POP PUSH2 0x3250 DUP3 PUSH2 0x2E4E JUMP JUMPDEST SWAP2 POP PUSH2 0x325C DUP3 DUP5 PUSH2 0x2A24 JUMP JUMPDEST SWAP2 POP PUSH2 0x3267 DUP3 PUSH2 0x2FF2 JUMP JUMPDEST SWAP2 POP DUP2 SWAP1 POP SWAP11 SWAP10 POP POP POP POP POP POP POP POP POP POP JUMP JUMPDEST PUSH1 0x0 PUSH2 0x3285 DUP3 PUSH2 0x2EDA JUMP JUMPDEST SWAP2 POP PUSH2 0x3291 DUP3 DUP5 PUSH2 0x2A24 JUMP JUMPDEST SWAP2 POP DUP2 SWAP1 POP SWAP3 SWAP2 POP POP JUMP JUMPDEST PUSH1 0x0 PUSH2 0x32A7 DUP3 PUSH2 0x2FCF JUMP JUMPDEST SWAP2 POP PUSH2 0x32B2 DUP3 PUSH2 0x2F89 JUMP JUMPDEST SWAP2 POP PUSH2 0x32BE DUP3 DUP10 PUSH2 0x2A24 JUMP JUMPDEST SWAP2 POP PUSH2 0x32C9 DUP3 PUSH2 0x2C64 JUMP JUMPDEST SWAP2 POP PUSH2 0x32D5 DUP3 DUP9 PUSH2 0x2A24 JUMP JUMPDEST SWAP2 POP PUSH2 0x32E0 DUP3 PUSH2 0x2E4E JUMP JUMPDEST SWAP2 POP PUSH2 0x32EB DUP3 PUSH2 0x2FAC JUMP JUMPDEST SWAP2 POP PUSH2 0x32F6 DUP3 PUSH2 0x2F89 JUMP JUMPDEST SWAP2 POP PUSH2 0x3302 DUP3 DUP8 PUSH2 0x2A24 JUMP JUMPDEST SWAP2 POP PUSH2 0x330D DUP3 PUSH2 0x2C64 JUMP JUMPDEST SWAP2 POP PUSH2 0x3319 DUP3 DUP7 PUSH2 0x2A24 JUMP JUMPDEST SWAP2 POP PUSH2 0x3324 DUP3 PUSH2 0x2E4E JUMP JUMPDEST SWAP2 POP PUSH2 0x332F DUP3 PUSH2 0x2B4C JUMP JUMPDEST SWAP2 POP PUSH2 0x333A DUP3 PUSH2 0x2F89 JUMP JUMPDEST SWAP2 POP PUSH2 0x3346 DUP3 DUP6 PUSH2 0x2A24 JUMP JUMPDEST SWAP2 POP PUSH2 0x3351 DUP3 PUSH2 0x2C64 JUMP JUMPDEST SWAP2 POP PUSH2 0x335D DUP3 DUP5 PUSH2 0x2A24 JUMP JUMPDEST SWAP2 POP PUSH2 0x3368 DUP3 PUSH2 0x2E4E JUMP JUMPDEST SWAP2 POP DUP2 SWAP1 POP SWAP8 SWAP7 POP POP POP POP POP POP POP JUMP JUMPDEST PUSH1 0x0 PUSH1 0x20 DUP3 ADD SWAP1 POP PUSH2 0x338D PUSH1 0x0 DUP4 ADD DUP5 PUSH2 0x2994 JUMP JUMPDEST SWAP3 SWAP2 POP POP JUMP JUMPDEST PUSH1 0x0 PUSH1 0x80 DUP3 ADD SWAP1 POP PUSH2 0x33A8 PUSH1 0x0 DUP4 ADD DUP8 PUSH2 0x2994 JUMP JUMPDEST PUSH2 0x33B5 PUSH1 0x20 DUP4 ADD DUP7 PUSH2 0x2994 JUMP JUMPDEST PUSH2 0x33C2 PUSH1 0x40 DUP4 ADD DUP6 PUSH2 0x305B JUMP JUMPDEST DUP2 DUP2 SUB PUSH1 0x60 DUP4 ADD MSTORE PUSH2 0x33D4 DUP2 DUP5 PUSH2 0x29B2 JUMP JUMPDEST SWAP1 POP SWAP6 SWAP5 POP POP POP POP POP JUMP JUMPDEST PUSH1 0x0 PUSH1 0x40 DUP3 ADD SWAP1 POP PUSH2 0x33F4 PUSH1 0x0 DUP4 ADD DUP6 PUSH2 0x2994 JUMP JUMPDEST PUSH2 0x3401 PUSH1 0x20 DUP4 ADD DUP5 PUSH2 0x305B JUMP JUMPDEST SWAP4 SWAP3 POP POP POP JUMP JUMPDEST PUSH1 0x0 PUSH1 0x20 DUP3 ADD SWAP1 POP PUSH2 0x341D PUSH1 0x0 DUP4 ADD DUP5 PUSH2 0x29A3 JUMP JUMPDEST SWAP3 SWAP2 POP POP JUMP JUMPDEST PUSH1 0x0 PUSH1 0x20 DUP3 ADD SWAP1 POP DUP2 DUP2 SUB PUSH1 0x0 DUP4 ADD MSTORE PUSH2 0x343D DUP2 DUP5 PUSH2 0x29EB JUMP JUMPDEST SWAP1 POP SWAP3 SWAP2 POP POP JUMP JUMPDEST PUSH1 0x0 PUSH1 0x20 DUP3 ADD SWAP1 POP DUP2 DUP2 SUB PUSH1 0x0 DUP4 ADD MSTORE PUSH2 0x345E DUP2 PUSH2 0x2ABE JUMP JUMPDEST SWAP1 POP SWAP2 SWAP1 POP JUMP JUMPDEST PUSH1 0x0 PUSH1 0x20 DUP3 ADD SWAP1 POP DUP2 DUP2 SUB PUSH1 0x0 DUP4 ADD MSTORE PUSH2 0x347E DUP2 PUSH2 0x2B29 JUMP JUMPDEST SWAP1 POP SWAP2 SWAP1 POP JUMP JUMPDEST PUSH1 0x0 PUSH1 0x20 DUP3 ADD SWAP1 POP DUP2 DUP2 SUB PUSH1 0x0 DUP4 ADD MSTORE PUSH2 0x349E DUP2 PUSH2 0x2B92 JUMP JUMPDEST SWAP1 POP SWAP2 SWAP1 POP JUMP JUMPDEST PUSH1 0x0 PUSH1 0x20 DUP3 ADD SWAP1 POP DUP2 DUP2 SUB PUSH1 0x0 DUP4 ADD MSTORE PUSH2 0x34BE DUP2 PUSH2 0x2BB5 JUMP JUMPDEST SWAP1 POP SWAP2 SWAP1 POP JUMP JUMPDEST PUSH1 0x0 PUSH1 0x20 DUP3 ADD SWAP1 POP DUP2 DUP2 SUB PUSH1 0x0 DUP4 ADD MSTORE PUSH2 0x34DE DUP2 PUSH2 0x2BFB JUMP JUMPDEST SWAP1 POP SWAP2 SWAP1 POP JUMP JUMPDEST PUSH1 0x0 PUSH1 0x20 DUP3 ADD SWAP1 POP DUP2 DUP2 SUB PUSH1 0x0 DUP4 ADD MSTORE PUSH2 0x34FE DUP2 PUSH2 0x2C41 JUMP JUMPDEST SWAP1 POP SWAP2 SWAP1 POP JUMP JUMPDEST PUSH1 0x0 PUSH1 0x20 DUP3 ADD SWAP1 POP DUP2 DUP2 SUB PUSH1 0x0 DUP4 ADD MSTORE PUSH2 0x351E DUP2 PUSH2 0x2C87 JUMP JUMPDEST SWAP1 POP SWAP2 SWAP1 POP JUMP JUMPDEST PUSH1 0x0 PUSH1 0x20 DUP3 ADD SWAP1 POP DUP2 DUP2 SUB PUSH1 0x0 DUP4 ADD MSTORE PUSH2 0x353E DUP2 PUSH2 0x2CAA JUMP JUMPDEST SWAP1 POP SWAP2 SWAP1 POP JUMP JUMPDEST PUSH1 0x0 PUSH1 0x20 DUP3 ADD SWAP1 POP DUP2 DUP2 SUB PUSH1 0x0 DUP4 ADD MSTORE PUSH2 0x355E DUP2 PUSH2 0x2D36 JUMP JUMPDEST SWAP1 POP SWAP2 SWAP1 POP JUMP JUMPDEST PUSH1 0x0 PUSH1 0x20 DUP3 ADD SWAP1 POP DUP2 DUP2 SUB PUSH1 0x0 DUP4 ADD MSTORE PUSH2 0x357E DUP2 PUSH2 0x2D9F JUMP JUMPDEST SWAP1 POP SWAP2 SWAP1 POP JUMP JUMPDEST PUSH1 0x0 PUSH1 0x20 DUP3 ADD SWAP1 POP DUP2 DUP2 SUB PUSH1 0x0 DUP4 ADD MSTORE PUSH2 0x359E DUP2 PUSH2 0x2E2B JUMP JUMPDEST SWAP1 POP SWAP2 SWAP1 POP JUMP JUMPDEST PUSH1 0x0 PUSH1 0x20 DUP3 ADD SWAP1 POP DUP2 DUP2 SUB PUSH1 0x0 DUP4 ADD MSTORE PUSH2 0x35BE DUP2 PUSH2 0x2EB7 JUMP JUMPDEST SWAP1 POP SWAP2 SWAP1 POP JUMP JUMPDEST PUSH1 0x0 PUSH1 0x20 DUP3 ADD SWAP1 POP DUP2 DUP2 SUB PUSH1 0x0 DUP4 ADD MSTORE PUSH2 0x35DE DUP2 PUSH2 0x2F20 JUMP JUMPDEST SWAP1 POP SWAP2 SWAP1 POP JUMP JUMPDEST PUSH1 0x0 PUSH1 0x20 DUP3 ADD SWAP1 POP PUSH2 0x35FA PUSH1 0x0 DUP4 ADD DUP5 PUSH2 0x305B JUMP JUMPDEST SWAP3 SWAP2 POP POP JUMP JUMPDEST PUSH1 0x0 PUSH2 0x360A PUSH2 0x361B JUMP JUMPDEST SWAP1 POP PUSH2 0x3616 DUP3 DUP3 PUSH2 0x38A3 JUMP JUMPDEST SWAP2 SWAP1 POP JUMP JUMPDEST PUSH1 0x0 PUSH1 0x40 MLOAD SWAP1 POP SWAP1 JUMP JUMPDEST PUSH1 0x0 PUSH8 0xFFFFFFFFFFFFFFFF DUP3 GT ISZERO PUSH2 0x3640 JUMPI PUSH2 0x363F PUSH2 0x39DB JUMP JUMPDEST JUMPDEST PUSH2 0x3649 DUP3 PUSH2 0x3A0A JUMP JUMPDEST SWAP1 POP PUSH1 0x20 DUP2 ADD SWAP1 POP SWAP2 SWAP1 POP JUMP JUMPDEST PUSH1 0x0 DUP2 MLOAD SWAP1 POP SWAP2 SWAP1 POP JUMP JUMPDEST PUSH1 0x0 DUP2 MLOAD SWAP1 POP SWAP2 SWAP1 POP JUMP JUMPDEST PUSH1 0x0 DUP3 DUP3 MSTORE PUSH1 0x20 DUP3 ADD SWAP1 POP SWAP3 SWAP2 POP POP JUMP JUMPDEST PUSH1 0x0 DUP3 DUP3 MSTORE PUSH1 0x20 DUP3 ADD SWAP1 POP SWAP3 SWAP2 POP POP JUMP JUMPDEST PUSH1 0x0 DUP2 SWAP1 POP SWAP3 SWAP2 POP POP JUMP JUMPDEST PUSH1 0x0 PUSH2 0x36A4 DUP3 PUSH2 0x3818 JUMP JUMPDEST SWAP2 POP PUSH2 0x36AF DUP4 PUSH2 0x3818 JUMP JUMPDEST SWAP3 POP DUP3 PUSH32 0xFFFFFFFFFFFFFFFFFFFFFFFFFFFFFFFFFFFFFFFFFFFFFFFFFFFFFFFFFFFFFFFF SUB DUP3 GT ISZERO PUSH2 0x36E4 JUMPI PUSH2 0x36E3 PUSH2 0x394E JUMP JUMPDEST JUMPDEST DUP3 DUP3 ADD SWAP1 POP SWAP3 SWAP2 POP POP JUMP JUMPDEST PUSH1 0x0 PUSH2 0x36FA DUP3 PUSH2 0x3818 JUMP JUMPDEST SWAP2 POP PUSH2 0x3705 DUP4 PUSH2 0x3818 JUMP JUMPDEST SWAP3 POP DUP3 PUSH2 0x3715 JUMPI PUSH2 0x3714 PUSH2 0x397D JUMP JUMPDEST JUMPDEST DUP3 DUP3 DIV SWAP1 POP SWAP3 SWAP2 POP POP JUMP JUMPDEST PUSH1 0x0 PUSH2 0x372B DUP3 PUSH2 0x3818 JUMP JUMPDEST SWAP2 POP PUSH2 0x3736 DUP4 PUSH2 0x3818 JUMP JUMPDEST SWAP3 POP DUP2 PUSH32 0xFFFFFFFFFFFFFFFFFFFFFFFFFFFFFFFFFFFFFFFFFFFFFFFFFFFFFFFFFFFFFFFF DIV DUP4 GT DUP3 ISZERO ISZERO AND ISZERO PUSH2 0x376F JUMPI PUSH2 0x376E PUSH2 0x394E JUMP JUMPDEST JUMPDEST DUP3 DUP3 MUL SWAP1 POP SWAP3 SWAP2 POP POP JUMP JUMPDEST PUSH1 0x0 PUSH2 0x3785 DUP3 PUSH2 0x3818 JUMP JUMPDEST SWAP2 POP PUSH2 0x3790 DUP4 PUSH2 0x3818 JUMP JUMPDEST SWAP3 POP DUP3 DUP3 LT ISZERO PUSH2 0x37A3 JUMPI PUSH2 0x37A2 PUSH2 0x394E JUMP JUMPDEST JUMPDEST DUP3 DUP3 SUB SWAP1 POP SWAP3 SWAP2 POP POP JUMP JUMPDEST PUSH1 0x0 PUSH2 0x37B9 DUP3 PUSH2 0x37F8 JUMP JUMPDEST SWAP1 POP SWAP2 SWAP1 POP JUMP JUMPDEST PUSH1 0x0 DUP2 ISZERO ISZERO SWAP1 POP SWAP2 SWAP1 POP JUMP JUMPDEST PUSH1 0x0 PUSH32 0xFFFFFFFF00000000000000000000000000000000000000000000000000000000 DUP3 AND SWAP1 POP SWAP2 SWAP1 POP JUMP JUMPDEST PUSH1 0x0 PUSH20 0xFFFFFFFFFFFFFFFFFFFFFFFFFFFFFFFFFFFFFFFF DUP3 AND SWAP1 POP SWAP2 SWAP1 POP JUMP JUMPDEST PUSH1 0x0 DUP2 SWAP1 POP SWAP2 SWAP1 POP JUMP JUMPDEST PUSH1 0x0 PUSH1 0xFF DUP3 AND SWAP1 POP SWAP2 SWAP1 POP JUMP JUMPDEST DUP3 DUP2 DUP4 CALLDATACOPY PUSH1 0x0 DUP4 DUP4 ADD MSTORE POP POP POP JUMP JUMPDEST PUSH1 0x0 JUMPDEST DUP4 DUP2 LT ISZERO PUSH2 0x385C JUMPI DUP1 DUP3 ADD MLOAD DUP2 DUP5 ADD MSTORE PUSH1 0x20 DUP2 ADD SWAP1 POP PUSH2 0x3841 JUMP JUMPDEST DUP4 DUP2 GT ISZERO PUSH2 0x386B JUMPI PUSH1 0x0 DUP5 DUP5 ADD MSTORE JUMPDEST POP POP POP POP JUMP JUMPDEST PUSH1 0x0 PUSH1 0x2 DUP3 DIV SWAP1 POP PUSH1 0x1 DUP3 AND DUP1 PUSH2 0x3889 JUMPI PUSH1 0x7F DUP3 AND SWAP2 POP JUMPDEST PUSH1 0x20 DUP3 LT DUP2 EQ ISZERO PUSH2 0x389D JUMPI PUSH2 0x389C PUSH2 0x39AC JUMP JUMPDEST JUMPDEST POP SWAP2 SWAP1 POP JUMP JUMPDEST PUSH2 0x38AC DUP3 PUSH2 0x3A0A JUMP JUMPDEST DUP2 ADD DUP2 DUP2 LT PUSH8 0xFFFFFFFFFFFFFFFF DUP3 GT OR ISZERO PUSH2 0x38CB JUMPI PUSH2 0x38CA PUSH2 0x39DB JUMP JUMPDEST JUMPDEST DUP1 PUSH1 0x40 MSTORE POP POP POP JUMP JUMPDEST PUSH1 0x0 PUSH2 0x38DF DUP3 PUSH2 0x3818 JUMP JUMPDEST SWAP2 POP PUSH32 0xFFFFFFFFFFFFFFFFFFFFFFFFFFFFFFFFFFFFFFFFFFFFFFFFFFFFFFFFFFFFFFFF DUP3 EQ ISZERO PUSH2 0x3912 JUMPI PUSH2 0x3911 PUSH2 0x394E JUMP JUMPDEST JUMPDEST PUSH1 0x1 DUP3 ADD SWAP1 POP SWAP2 SWAP1 POP JUMP JUMPDEST PUSH1 0x0 PUSH2 0x3928 DUP3 PUSH2 0x3818 JUMP JUMPDEST SWAP2 POP PUSH2 0x3933 DUP4 PUSH2 0x3818 JUMP JUMPDEST SWAP3 POP DUP3 PUSH2 0x3943 JUMPI PUSH2 0x3942 PUSH2 0x397D JUMP JUMPDEST JUMPDEST DUP3 DUP3 MOD SWAP1 POP SWAP3 SWAP2 POP POP JUMP JUMPDEST PUSH32 0x4E487B7100000000000000000000000000000000000000000000000000000000 PUSH1 0x0 MSTORE PUSH1 0x11 PUSH1 0x4 MSTORE PUSH1 0x24 PUSH1 0x0 REVERT JUMPDEST PUSH32 0x4E487B7100000000000000000000000000000000000000000000000000000000 PUSH1 0x0 MSTORE PUSH1 0x12 PUSH1 0x4 MSTORE PUSH1 0x24 PUSH1 0x0 REVERT JUMPDEST PUSH32 0x4E487B7100000000000000000000000000000000000000000000000000000000 PUSH1 0x0 MSTORE PUSH1 0x22 PUSH1 0x4 MSTORE PUSH1 0x24 PUSH1 0x0 REVERT JUMPDEST PUSH32 0x4E487B7100000000000000000000000000000000000000000000000000000000 PUSH1 0x0 MSTORE PUSH1 0x41 PUSH1 0x4 MSTORE PUSH1 0x24 PUSH1 0x0 REVERT JUMPDEST PUSH1 0x0 PUSH1 0x1F NOT PUSH1 0x1F DUP4 ADD AND SWAP1 POP SWAP2 SWAP1 POP JUMP JUMPDEST PUSH32 0x3C7465787420783D223330352220793D223134362220666F6E742D73697A653D PUSH1 0x0 DUP3 ADD MSTORE PUSH32 0x2232392220746578742D616E63686F723D22656E64223E312F00000000000000 PUSH1 0x20 DUP3 ADD MSTORE POP JUMP JUMPDEST PUSH32 0x7B226E616D65223A220000000000000000000000000000000000000000000000 PUSH1 0x0 DUP3 ADD MSTORE POP JUMP JUMPDEST PUSH32 0x2220643D224D33302033313068343630763131304833307A22202F3E00000000 PUSH1 0x0 DUP3 ADD MSTORE POP JUMP JUMPDEST PUSH32 0x4552433732313A207472616E7366657220746F206E6F6E204552433732315265 PUSH1 0x0 DUP3 ADD MSTORE PUSH32 0x63656976657220696D706C656D656E7465720000000000000000000000000000 PUSH1 0x20 DUP3 ADD MSTORE POP JUMP JUMPDEST PUSH32 0x3C706174682066696C6C2D72756C653D226576656E6F64642220636C69702D72 PUSH1 0x0 DUP3 ADD MSTORE PUSH32 0x756C653D226576656E6F6464222066696C6C3D22236666662220643D224D3133 PUSH1 0x20 DUP3 ADD MSTORE PUSH32 0x352E33203130362E32632D372E3120302D31322E382D352E372D31322E382D31 PUSH1 0x40 DUP3 ADD MSTORE PUSH32 0x322E3820302D372E3120352E372D31322E382031322E382D31322E3820372E31 PUSH1 0x60 DUP3 ADD MSTORE PUSH32 0x20302031322E3820352E372031322E382031322E38203020372E312D352E3720 PUSH1 0x80 DUP3 ADD MSTORE PUSH32 0x31322E382D31322E382031322E386D302D33326331302E3620302031392E3220 PUSH1 0xA0 DUP3 ADD MSTORE PUSH32 0x382E362031392E322031392E32732D382E362031392E322D31392E322031392E PUSH1 0xC0 DUP3 ADD MSTORE PUSH32 0x322D31392E322D382E362D31392E322D31392E3220382E362D31392E32203139 PUSH1 0xE0 DUP3 ADD MSTORE PUSH32 0x2E322D31392E327A6D31382E332033392E3463312E3320312E3320312E332033 PUSH2 0x100 DUP3 ADD MSTORE PUSH32 0x2E33203020342E356C2D31322E382031322E38632D312E3320312E332D332E33 PUSH2 0x120 DUP3 ADD MSTORE PUSH32 0x20312E332D342E3520302D312E332D312E332D312E332D332E3320302D342E35 PUSH2 0x140 DUP3 ADD MSTORE PUSH32 0x6C31322E382D31322E3863312E322D312E3320332E332D312E3320342E352030 PUSH2 0x160 DUP3 ADD MSTORE PUSH32 0x7A6D372E342D33362E32633020312E382D312E3420332E322D332E3220332E32 PUSH2 0x180 DUP3 ADD MSTORE PUSH32 0x2D312E3820302D332E322D312E342D332E322D332E3273312E342D332E322033 PUSH2 0x1A0 DUP3 ADD MSTORE PUSH32 0x2E322D332E3263312E37203020332E3220312E3420332E3220332E327A222F3E PUSH2 0x1C0 DUP3 ADD MSTORE POP JUMP JUMPDEST PUSH32 0x3C7465787420783D2233302220793D2232382220666F6E742D73697A653D2231 PUSH1 0x0 DUP3 ADD MSTORE PUSH32 0x37223E0000000000000000000000000000000000000000000000000000000000 PUSH1 0x20 DUP3 ADD MSTORE POP JUMP JUMPDEST PUSH32 0x4552433732313A20746F6B656E20616C7265616479206D696E74656400000000 PUSH1 0x0 DUP3 ADD MSTORE POP JUMP JUMPDEST PUSH32 0x3C67207472616E73666F726D3D227472616E736C617465283335332C34343829 PUSH1 0x0 DUP3 ADD MSTORE PUSH32 0x223E000000000000000000000000000000000000000000000000000000000000 PUSH1 0x20 DUP3 ADD MSTORE POP JUMP JUMPDEST PUSH32 0x3C7265637420783D2233302220793D223430222077696474683D223436302220 PUSH1 0x0 DUP3 ADD MSTORE PUSH32 0x6865696768743D22353230222072783D223236222066696C6C3D222366666622 PUSH1 0x20 DUP3 ADD MSTORE PUSH32 0x202F3E0000000000000000000000000000000000000000000000000000000000 PUSH1 0x40 DUP3 ADD MSTORE POP JUMP JUMPDEST PUSH32 0x4552433732313A207472616E7366657220746F20746865207A65726F20616464 PUSH1 0x0 DUP3 ADD MSTORE PUSH32 0x7265737300000000000000000000000000000000000000000000000000000000 PUSH1 0x20 DUP3 ADD MSTORE POP JUMP JUMPDEST PUSH32 0x4552433732313A20617070726F766520746F2063616C6C657200000000000000 PUSH1 0x0 DUP3 ADD MSTORE POP JUMP JUMPDEST PUSH32 0x3C7465787420783D2234322220793D223134362220666F6E742D73697A653D22 PUSH1 0x0 DUP3 ADD MSTORE PUSH32 0x3239223E49443A20000000000000000000000000000000000000000000000000 PUSH1 0x20 DUP3 ADD MSTORE POP JUMP JUMPDEST PUSH32 0x4552433732313A206F70657261746F7220717565727920666F72206E6F6E6578 PUSH1 0x0 DUP3 ADD MSTORE PUSH32 0x697374656E7420746F6B656E0000000000000000000000000000000000000000 PUSH1 0x20 DUP3 ADD MSTORE POP JUMP JUMPDEST PUSH32 0x3C7465787420746578742D616E63686F723D226D6964646C652220783D223235 PUSH1 0x0 DUP3 ADD MSTORE PUSH32 0x302220793D223336392220666F6E742D73697A653D223135223E000000000000 PUSH1 0x20 DUP3 ADD MSTORE POP JUMP JUMPDEST PUSH32 0x4552433732313A20617070726F76652063616C6C6572206973206E6F74206F77 PUSH1 0x0 DUP3 ADD MSTORE PUSH32 0x6E6572206E6F7220617070726F76656420666F7220616C6C0000000000000000 PUSH1 0x20 DUP3 ADD MSTORE POP JUMP JUMPDEST PUSH32 0x22202F3E00000000000000000000000000000000000000000000000000000000 PUSH1 0x0 DUP3 ADD MSTORE POP JUMP JUMPDEST PUSH32 0x4552433732313A2062616C616E636520717565727920666F7220746865207A65 PUSH1 0x0 DUP3 ADD MSTORE PUSH32 0x726F206164647265737300000000000000000000000000000000000000000000 PUSH1 0x20 DUP3 ADD MSTORE POP JUMP JUMPDEST PUSH32 0x4552433732313A206F776E657220717565727920666F72206E6F6E6578697374 PUSH1 0x0 DUP3 ADD MSTORE PUSH32 0x656E7420746F6B656E0000000000000000000000000000000000000000000000 PUSH1 0x20 DUP3 ADD MSTORE POP JUMP JUMPDEST PUSH32 0x3C7465787420783D2234322220793D223139322220666F6E742D73697A653D22 PUSH1 0x0 DUP3 ADD MSTORE PUSH32 0x3239223E54494D45533A20000000000000000000000000000000000000000000 PUSH1 0x20 DUP3 ADD MSTORE POP JUMP JUMPDEST PUSH32 0x227D000000000000000000000000000000000000000000000000000000000000 PUSH1 0x0 DUP3 ADD MSTORE POP JUMP JUMPDEST PUSH32 0x3C2F746578743E00000000000000000000000000000000000000000000000000 PUSH1 0x0 DUP3 ADD MSTORE POP JUMP JUMPDEST PUSH32 0x4552433732313A206D696E7420746F20746865207A65726F2061646472657373 PUSH1 0x0 DUP3 ADD MSTORE POP JUMP JUMPDEST PUSH32 0x222C2022696D616765223A202200000000000000000000000000000000000000 PUSH1 0x0 DUP3 ADD MSTORE POP JUMP JUMPDEST PUSH32 0x3C67207472616E73666F726D3D227472616E736C617465282D3838202D353229 PUSH1 0x0 DUP3 ADD MSTORE PUSH32 0x223E000000000000000000000000000000000000000000000000000000000000 PUSH1 0x20 DUP3 ADD MSTORE POP JUMP JUMPDEST PUSH32 0x4552433732313A20617070726F76656420717565727920666F72206E6F6E6578 PUSH1 0x0 DUP3 ADD MSTORE PUSH32 0x697374656E7420746F6B656E0000000000000000000000000000000000000000 PUSH1 0x20 DUP3 ADD MSTORE POP JUMP JUMPDEST PUSH32 0x222C20226465736372697074696F6E223A220000000000000000000000000000 PUSH1 0x0 DUP3 ADD MSTORE POP JUMP JUMPDEST PUSH32 0x3C636972636C652063783D223438222063793D2234382220723D223438222066 PUSH1 0x0 DUP3 ADD MSTORE PUSH32 0x696C6C3D222336373437656422202F3E00000000000000000000000000000000 PUSH1 0x20 DUP3 ADD MSTORE POP JUMP JUMPDEST PUSH32 0x3C73766720786D6C6E733D22687474703A2F2F7777772E77332E6F72672F3230 PUSH1 0x0 DUP3 ADD MSTORE PUSH32 0x30302F737667222077696474683D2235323022206865696768743D2236303022 PUSH1 0x20 DUP3 ADD MSTORE PUSH32 0x20666F6E742D66616D696C793D22417269616C223E0000000000000000000000 PUSH1 0x40 DUP3 ADD MSTORE POP JUMP JUMPDEST PUSH32 0x4552433732313A207472616E73666572206F6620746F6B656E20746861742069 PUSH1 0x0 DUP3 ADD MSTORE PUSH32 0x73206E6F74206F776E0000000000000000000000000000000000000000000000 PUSH1 0x20 DUP3 ADD MSTORE POP JUMP JUMPDEST PUSH32 0x3C2F673E00000000000000000000000000000000000000000000000000000000 PUSH1 0x0 DUP3 ADD MSTORE POP JUMP JUMPDEST PUSH32 0x3C7465787420783D2234322220793D223239362220666F6E742D73697A653D22 PUSH1 0x0 DUP3 ADD MSTORE PUSH32 0x3239223E534E415053484F54544544204F4E3A20323032312E372E33303C2F74 PUSH1 0x20 DUP3 ADD MSTORE PUSH32 0x6578743E00000000000000000000000000000000000000000000000000000000 PUSH1 0x40 DUP3 ADD MSTORE POP JUMP JUMPDEST PUSH32 0x3C726563742077696474683D2235323022206865696768743D22363030222072 PUSH1 0x0 DUP3 ADD MSTORE PUSH32 0x783D223236222066696C6C3D2200000000000000000000000000000000000000 PUSH1 0x20 DUP3 ADD MSTORE POP JUMP JUMPDEST PUSH32 0x4552433732313A20617070726F76616C20746F2063757272656E74206F776E65 PUSH1 0x0 DUP3 ADD MSTORE PUSH32 0x7200000000000000000000000000000000000000000000000000000000000000 PUSH1 0x20 DUP3 ADD MSTORE POP JUMP JUMPDEST PUSH32 0x646174613A6170706C69636174696F6E2F6A736F6E3B6261736536342C000000 PUSH1 0x0 DUP3 ADD MSTORE POP JUMP JUMPDEST PUSH32 0x3C706174682066696C6C3D220000000000000000000000000000000000000000 PUSH1 0x0 DUP3 ADD MSTORE POP JUMP JUMPDEST PUSH32 0x4552433732313A207472616E736665722063616C6C6572206973206E6F74206F PUSH1 0x0 DUP3 ADD MSTORE PUSH32 0x776E6572206E6F7220617070726F766564000000000000000000000000000000 PUSH1 0x20 DUP3 ADD MSTORE POP JUMP JUMPDEST PUSH32 0x3C67207472616E73666F726D3D227472616E736C617465283334382C36302922 PUSH1 0x0 DUP3 ADD MSTORE PUSH32 0x3E00000000000000000000000000000000000000000000000000000000000000 PUSH1 0x20 DUP3 ADD MSTORE POP JUMP JUMPDEST PUSH32 0x3C7465787420783D2234322220793D223234322220666F6E742D73697A653D22 PUSH1 0x0 DUP3 ADD MSTORE PUSH32 0x3239223E53544152544544204F4E3A2000000000000000000000000000000000 PUSH1 0x20 DUP3 ADD MSTORE POP JUMP JUMPDEST PUSH32 0x3C726563742077696474683D22383822206865696768743D223838222072783D PUSH1 0x0 DUP3 ADD MSTORE PUSH32 0x223136222066696C6C3D22000000000000000000000000000000000000000000 PUSH1 0x20 DUP3 ADD MSTORE POP JUMP JUMPDEST PUSH32 0x3C67207472616E73666F726D3D227472616E736C617465283231362C34343829 PUSH1 0x0 DUP3 ADD MSTORE PUSH32 0x223E000000000000000000000000000000000000000000000000000000000000 PUSH1 0x20 DUP3 ADD MSTORE POP JUMP JUMPDEST PUSH32 0x3C67207472616E73666F726D3D227472616E736C6174652837392C3434382922 PUSH1 0x0 DUP3 ADD MSTORE PUSH32 0x3E00000000000000000000000000000000000000000000000000000000000000 PUSH1 0x20 DUP3 ADD MSTORE POP JUMP JUMPDEST PUSH32 0x3C2F7376673E0000000000000000000000000000000000000000000000000000 PUSH1 0x0 DUP3 ADD MSTORE POP JUMP JUMPDEST PUSH32 0x3C7465787420783D2234322220793D2239362220666F6E742D73697A653D2233 PUSH1 0x0 DUP3 ADD MSTORE PUSH32 0x31223E5468652047726170682043757261746F723C2F746578743E0000000000 PUSH1 0x20 DUP3 ADD MSTORE POP JUMP JUMPDEST PUSH32 0x646174613A696D6167652F7376672B786D6C3B6261736536342C000000000000 PUSH1 0x0 DUP3 ADD MSTORE POP JUMP JUMPDEST PUSH2 0x47E5 DUP2 PUSH2 0x37AE JUMP JUMPDEST DUP2 EQ PUSH2 0x47F0 JUMPI PUSH1 0x0 DUP1 REVERT JUMPDEST POP JUMP JUMPDEST PUSH2 0x47FC DUP2 PUSH2 0x37C0 JUMP JUMPDEST DUP2 EQ PUSH2 0x4807 JUMPI PUSH1 0x0 DUP1 REVERT JUMPDEST POP JUMP JUMPDEST PUSH2 0x4813 DUP2 PUSH2 0x37CC JUMP JUMPDEST DUP2 EQ PUSH2 0x481E JUMPI PUSH1 0x0 DUP1 REVERT JUMPDEST POP JUMP JUMPDEST PUSH2 0x482A DUP2 PUSH2 0x3818 JUMP JUMPDEST DUP2 EQ PUSH2 0x4835 JUMPI PUSH1 0x0 DUP1 REVERT JUMPDEST POP JUMP JUMPDEST PUSH2 0x4841 DUP2 PUSH2 0x3822 JUMP JUMPDEST DUP2 EQ PUSH2 0x484C JUMPI PUSH1 0x0 DUP1 REVERT JUMPDEST POP JUMP INVALID EXTCODECOPY PUSH8 0x207472616E73666F PUSH19 0x6D3D226D6174726978282E313120302030202E BALANCE BALANCE KECCAK256 BALANCE CALLDATASIZE 0x2E CALLDATALOAD KECCAK256 BALANCE CALLDATASIZE 0x2E CALLDATALOAD 0x29 0x22 RETURNDATACOPY EXTCODECOPY PUSH17 0x6174682066696C6C3D2223666666222064 RETURNDATASIZE 0x22 0x4D BALANCE CODECOPY CALLDATASIZE 0x2E CODESIZE KECCAK256 CALLDATALOAD CALLVALUE 0x2E CODESIZE PUSH20 0x312E312D2E3420322E322D2E366331302E322D31 0x2E CODESIZE KECCAK256 CALLER ORIGIN 0x2E CALLVALUE KECCAK256 BALANCE CALLDATALOAD 0x2E ORIGIN KECCAK256 CALLER CALLER 0x2E CALLDATASIZE KECCAK256 BALANCE CALLDATASIZE 0x2E BALANCE KECCAK256 BALANCE CALLDATASIZE 0x2E CALLER KECCAK256 BALANCE ORIGIN 0x2E CALLDATACOPY KECCAK256 ORIGIN CALLVALUE 0x2E CALLVALUE KECCAK256 BALANCE CODECOPY KECCAK256 ORIGIN CALLDATACOPY 0x2E BALANCE KECCAK256 ORIGIN ORIGIN 0x2E CALLVALUE KECCAK256 CALLDATASIZE 0x2E CALLER KECCAK256 CALLDATACOPY 0x2E CODESIZE KECCAK256 CODECOPY 0x2E CALLDATACOPY KECCAK256 BALANCE CALLDATALOAD 0x2E BALANCE KECCAK256 ORIGIN ADDRESS 0x2E CALLDATACOPY KECCAK256 ORIGIN CALLDATASIZE 0x2E CODECOPY KECCAK256 CALLDATALOAD 0x2E CODECOPY KECCAK256 CALLDATASIZE 0x2E CALLVALUE KECCAK256 CODECOPY 0x2E CALLER KECCAK256 CODECOPY 0x2E CODECOPY KECCAK256 BALANCE BALANCE KECCAK256 CODECOPY KECCAK256 CALLVALUE 0x2E CALLDATASIZE 0x2D ORIGIN 0x2E CALLVALUE 0x2D BALANCE ORIGIN 0x2E CALLDATALOAD 0x2D CALLER ADDRESS 0x2E CALLDATACOPY 0x2D BALANCE ADDRESS 0x2D CALLDATASIZE CALLDATACOPY KECCAK256 BALANCE 0x2E CALLVALUE 0x2D BALANCE CODECOPY 0x2E CODECOPY KECCAK256 CODESIZE 0x2E CALLDATASIZE 0x2D CALLVALUE ORIGIN 0x2E ORIGIN KECCAK256 BALANCE CALLDATALOAD 0x2E CALLDATACOPY 0x2D CALLVALUE ORIGIN 0x2E ORIGIN KECCAK256 CALLDATASIZE 0x2E CALLDATACOPY KECCAK256 ADDRESS KECCAK256 BALANCE BALANCE 0x2E CODECOPY KECCAK256 ORIGIN ADDRESS 0x2E BALANCE KECCAK256 BALANCE CALLER 0x2E CODECOPY KECCAK256 ORIGIN CALLDATACOPY 0x2E CODECOPY KECCAK256 BALANCE ORIGIN 0x2E CALLDATACOPY KECCAK256 CALLVALUE CODECOPY 0x2E CALLDATALOAD 0x2D CODESIZE 0x2E BALANCE KECCAK256 CALLDATASIZE CODESIZE 0x2E CODESIZE KECCAK256 CALLDATASIZE KECCAK256 BALANCE ADDRESS CALLDATACOPY 0x2E BALANCE KECCAK256 BALANCE ADDRESS 0x2E CALLDATACOPY KECCAK256 ORIGIN CODECOPY 0x2E ORIGIN KECCAK256 BALANCE CALLVALUE 0x2E CODESIZE KECCAK256 CALLER CALLDATASIZE 0x2E CALLDATASIZE KECCAK256 BALANCE CALLVALUE 0x2E CODESIZE KECCAK256 CALLER CALLDATASIZE 0x2E CALLDATASIZE KECCAK256 ORIGIN 0x2E CALLER KECCAK256 CALLVALUE 0x2E BALANCE KECCAK256 CALLDATACOPY 0x2E CALLDATACOPY KECCAK256 BALANCE CALLER 0x2E CODESIZE KECCAK256 CODECOPY 0x2E CODECOPY KECCAK256 ORIGIN CALLDATACOPY 0x2E CALLER KECCAK256 BALANCE 0x2E BALANCE KECCAK256 CALLDATASIZE 0x2E CALLDATASIZE 0x2E CALLDATACOPY KECCAK256 BALANCE ADDRESS 0x2E CALLER 0x2D 0x2E CALLER KECCAK256 BALANCE CALLER 0x2E CALLDATACOPY 0x2D 0x2E ORIGIN 0x2E CALLDATALOAD 0x2D CALLVALUE KECCAK256 BALANCE ORIGIN 0x2E ORIGIN 0x2D BALANCE CALLER 0x2E CODECOPY KECCAK256 BALANCE CALLDATALOAD 0x2E ORIGIN 0x2D CODESIZE 0x2E CALLDATACOPY KECCAK256 ORIGIN 0x2E CALLDATACOPY 0x2D BALANCE CALLDATASIZE 0x2E CALLER 0x2D CALLER 0x2E ORIGIN 0x2D BALANCE CODECOPY 0x2E CALLER 0x2E CALLDATASIZE 0x2D BALANCE 0x2E CODESIZE KECCAK256 ORIGIN 0x2E CALLER 0x2E BALANCE KECCAK256 CALLDATALOAD 0x2E CALLDATALOAD 0x2D ORIGIN 0x2E CALLVALUE KECCAK256 CODESIZE 0x2E BALANCE 0x2D ORIGIN KECCAK256 ORIGIN 0x2D CALLER 0x2E CODECOPY 0x2E CALLDATACOPY 0x2D CALLDATASIZE KECCAK256 ORIGIN 0x2E ORIGIN 0x2D CALLVALUE 0x2E CALLDATALOAD KECCAK256 CALLER 0x2E BALANCE 0x2D 0x2E BALANCE KECCAK256 BALANCE ORIGIN 0x2E ORIGIN 0x2D CALLER 0x2E CALLDATASIZE KECCAK256 ORIGIN ORIGIN 0x2E CALLVALUE 0x2D 0x2E CALLDATACOPY KECCAK256 ORIGIN 0x2E BALANCE 0x2D ORIGIN 0x2E CALLDATACOPY KECCAK256 CALLVALUE 0x2E CODESIZE 0x2D CALLDATASIZE 0x2E CALLDATASIZE KECCAK256 BALANCE ADDRESS 0x2E ORIGIN 0x2D BALANCE ORIGIN 0x2E CALLDATALOAD KECCAK256 BALANCE CALLDATACOPY 0x2E BALANCE 0x2D BALANCE CODECOPY 0x2E CALLDATALOAD KECCAK256 ORIGIN BALANCE 0x2E CALLDATASIZE 0x2D BALANCE CODESIZE 0x2E BALANCE KECCAK256 ORIGIN CALLDATACOPY 0x2E CALLDATASIZE 0x2E CALLDATASIZE KECCAK256 ORIGIN 0x2E CALLVALUE KECCAK256 ORIGIN 0x2E CALLDATASIZE KECCAK256 CALLDATALOAD 0x2E CALLDATALOAD KECCAK256 BALANCE 0x2E CALLDATALOAD KECCAK256 CODECOPY 0x2E CALLDATASIZE KECCAK256 ADDRESS KECCAK256 ADDRESS 0x2D 0x2E CALLVALUE KECCAK256 BALANCE 0x2E CALLVALUE 0x2D BALANCE 0x2E ORIGIN KECCAK256 ORIGIN 0x2E CODESIZE 0x2D CALLVALUE 0x2E CALLDATALOAD KECCAK256 CALLDATACOPY 0x2E CALLDATALOAD 0x2D ORIGIN CALLDATASIZE 0x2E CALLVALUE KECCAK256 BALANCE CALLDATASIZE 0x2E CALLDATASIZE 0x2D ORIGIN CODECOPY 0x2E CALLER KECCAK256 BALANCE CALLDATACOPY 0x2E CODESIZE 0x2D BALANCE CALLDATASIZE 0x2E CODECOPY KECCAK256 CALLDATACOPY 0x2E BALANCE 0x2D BALANCE CODECOPY 0x2E CALLVALUE KECCAK256 CODECOPY 0x2E CALLDATALOAD 0x2D ORIGIN CALLER 0x2E CALLDATACOPY KECCAK256 CALLDATACOPY 0x2E CALLDATASIZE 0x2D CALLVALUE 0x2E CODECOPY 0x2D ORIGIN 0x2E BALANCE 0x2D CALLVALUE 0x2E CALLDATACOPY 0x2D CALLDATASIZE 0x2E CALLDATALOAD 0x2D BALANCE ORIGIN 0x2E CALLDATACOPY 0x2D BALANCE ADDRESS 0x2E CALLDATASIZE 0x2D CALLER 0x2E CALLVALUE 0x2D BALANCE 0x2E CALLDATACOPY 0x2D CALLVALUE 0x2E CODECOPY 0x2D BALANCE 0x2E CALLDATACOPY 0x2D CODECOPY 0x2E CODECOPY 0x2D CALLVALUE 0x2E CALLER 0x2D CALLDATALOAD 0x2E CODECOPY 0x2D CALLER 0x2E BALANCE 0x2D CALLDATALOAD 0x2E CALLDATASIZE 0x2D CALLVALUE 0x2E BALANCE 0x2D CODESIZE 0x2E BALANCE 0x2D CALLDATALOAD 0x2D CALLDATASIZE 0x2E ORIGIN 0x2D ORIGIN 0x2E BALANCE 0x2D CODECOPY 0x2E ORIGIN KECCAK256 CALLER 0x2E ORIGIN 0x2D ORIGIN ORIGIN 0x2E CALLER KECCAK256 CALLDATACOPY 0x2E CALLDATALOAD 0x2D CODECOPY 0x2E BALANCE KECCAK256 ORIGIN 0x2E CODECOPY 0x2D BALANCE CALLER 0x2E CALLDATASIZE KECCAK256 ORIGIN 0x2E CALLER 0x2D BALANCE CALLDATALOAD 0x2E BALANCE KECCAK256 CALLDATALOAD 0x2E CODECOPY 0x2D BALANCE 0x2E CALLDATASIZE KECCAK256 CALLER 0x2E CODESIZE KECCAK256 BALANCE 0x2E CALLDATASIZE KECCAK256 CODECOPY 0x2E CALLVALUE 0x2D 0x2E CALLER KECCAK256 BALANCE ADDRESS 0x2E CALLDATASIZE 0x2D BALANCE KECCAK256 0x2E CALLDATASIZE 0x2D ORIGIN 0x2E ORIGIN 0x2D 0x2E CALLDATALOAD 0x2D CALLER 0x2E CALLER 0x2E CALLER 0x2D BALANCE 0x2E ORIGIN 0x2E CODECOPY 0x2D 0x2E CALLER KECCAK256 ORIGIN 0x2E CODESIZE 0x2D BALANCE 0x2E ORIGIN KECCAK256 CALLVALUE 0x2D BALANCE 0x2E CALLDATASIZE KECCAK256 ORIGIN 0x2E ORIGIN 0x2D CALLDATACOPY 0x2E CALLDATALOAD 0x2E CALLVALUE 0x2D CALLDATACOPY 0x2E CODESIZE 0x2E CALLER 0x2D BALANCE BALANCE 0x2E CODESIZE 0x2D CALLER 0x2E CALLDATACOPY 0x2D ORIGIN CALLVALUE 0x2E CALLDATASIZE 0x2D ORIGIN 0x2E CALLER 0x2D CALLER CALLDATASIZE 0x2E CODESIZE 0x2D CALLVALUE 0x2E CALLDATACOPY 0x2D CALLER ADDRESS 0x2E CODESIZE 0x2D CALLDATASIZE 0x2D CALLVALUE CODESIZE 0x2E CALLVALUE 0x2D BALANCE 0x2E CALLER 0x2D CALLDATALOAD BALANCE 0x2E CALLDATALOAD 0x2D CODECOPY 0x2E CODECOPY 0x2D BALANCE 0x2E BALANCE 0x2D CALLER 0x2E BALANCE 0x2E CODESIZE 0x2D CALLVALUE 0x2E CALLVALUE 0x2D 0x2E CALLDATASIZE 0x2D CODECOPY 0x2D BALANCE 0x2E CODESIZE 0x2D CALLDATALOAD 0x2E CALLDATACOPY 0x2D CALLDATALOAD 0x2E CODESIZE 0x2D CALLDATACOPY 0x2E CALLER 0x2D BALANCE CALLVALUE 0x2E ORIGIN 0x2D BALANCE CALLVALUE 0x2E CALLER 0x2D CODECOPY 0x2D CALLDATACOPY 0x2E CALLVALUE 0x2D BALANCE CALLER 0x2E CALLDATASIZE 0x2D BALANCE BALANCE 0x2E CALLVALUE 0x2D BALANCE CALLDATALOAD 0x2E CALLER 0x2D BALANCE CALLDATACOPY 0x2E CALLDATACOPY 0x2D BALANCE 0x2E CALLVALUE 0x2D CALLDATALOAD 0x2D 0x2E CALLER 0x2D CODECOPY KECCAK256 0x2E CALLDATASIZE 0x2D BALANCE CALLER 0x2E BALANCE KECCAK256 CALLVALUE 0x2E CALLDATASIZE 0x2D ORIGIN ADDRESS 0x2E CODECOPY 0x2E ORIGIN 0x2D ORIGIN ADDRESS 0x2E BALANCE KECCAK256 CALLVALUE 0x2E CODESIZE 0x2D CALLVALUE ORIGIN 0x2E CODESIZE KECCAK256 ORIGIN 0x2E ORIGIN 0x2D BALANCE ADDRESS 0x2E CODESIZE KECCAK256 CALLDATALOAD 0x2E BALANCE 0x2D BALANCE CODECOPY 0x2E BALANCE KECCAK256 BALANCE ADDRESS 0x2E CODECOPY 0x2D CALLER CALLDATALOAD 0x2E CALLDATACOPY KECCAK256 CALLDATASIZE 0x2E CODESIZE 0x2D BALANCE CODECOPY 0x2E CALLDATASIZE KECCAK256 BALANCE ADDRESS 0x2E ORIGIN 0x2D ORIGIN CODECOPY 0x2E CALLVALUE KECCAK256 BALANCE CALLVALUE 0x2E ORIGIN 0x2D CALLER CALLER 0x2E CODESIZE KECCAK256 CALLVALUE 0x2E CODECOPY 0x2D CALLDATALOAD 0x2E CALLDATALOAD KECCAK256 CODECOPY 0x2D CALLDATACOPY KECCAK256 CALLVALUE CALLDATACOPY 0x2D BALANCE CALLDATACOPY 0x2E CALLVALUE KECCAK256 CALLER CALLER 0x2E CALLDATACOPY 0x2D CODECOPY 0x2E ORIGIN KECCAK256 CALLER CODECOPY 0x2E BALANCE 0x2D BALANCE ADDRESS 0x2E CALLVALUE KECCAK256 CALLVALUE CODESIZE 0x2E CALLDATALOAD 0x2D CODECOPY 0x2E CODECOPY KECCAK256 CODESIZE 0x2E CALLDATALOAD 0x2E CALLDATALOAD KECCAK256 BALANCE CALLDATALOAD 0x2E CALLDATASIZE KECCAK256 ORIGIN 0x2E BALANCE KECCAK256 ORIGIN CODECOPY 0x2E CALLDATALOAD KECCAK256 CALLDATALOAD 0x2E CALLER KECCAK256 ORIGIN ADDRESS 0x2E CODECOPY KECCAK256 CALLVALUE 0x2E CODESIZE KECCAK256 ORIGIN BALANCE 0x2E CALLVALUE KECCAK256 CALLDATACOPY 0x2E BALANCE KECCAK256 CALLER CALLER 0x2E CODESIZE KECCAK256 CODESIZE 0x2E CALLVALUE KECCAK256 BALANCE CALLDATALOAD KECCAK256 BALANCE 0x2E CALLDATALOAD KECCAK256 CALLER ORIGIN 0x2E ORIGIN KECCAK256 ADDRESS KECCAK256 CALLER ORIGIN 0x2E CALLER KECCAK256 ADDRESS KECCAK256 ADDRESS KECCAK256 ADDRESS KECCAK256 BALANCE BALANCE 0x2E ORIGIN 0x2D BALANCE CALLER 0x2E ORIGIN KECCAK256 CODECOPY 0x2E CODECOPY 0x2D ORIGIN CALLER 0x2E CODECOPY 0x2D 0x2E CALLDATACOPY 0x2D CALLDATALOAD 0x2E CODECOPY 0x2D CALLDATALOAD 0x2D CODECOPY 0x2E CALLDATASIZE 0x2D BALANCE BALANCE 0x2E ORIGIN 0x2D BALANCE CALLVALUE 0x2E CODECOPY 0x2D BALANCE CODESIZE 0x2E BALANCE 0x2D BALANCE CALLDATALOAD 0x2E CALLDATASIZE 0x2D CALLER CALLVALUE 0x2E ORIGIN 0x2D CALLER ADDRESS 0x2E BALANCE 0x2D CALLVALUE CALLDATALOAD 0x2E CODESIZE 0x2D CALLVALUE CALLDATASIZE 0x2E CALLER 0x2D CALLDATALOAD 0x2E CALLER 0x2D CALLDATACOPY 0x2E CALLVALUE 0x2D CODESIZE 0x2E CODESIZE 0x2D BALANCE CALLER 0x2E CODECOPY 0x2D CALLDATASIZE 0x2E CODECOPY 0x2D BALANCE CODECOPY 0x2E CODECOPY 0x2E CODECOPY 0x2D CALLER KECCAK256 CALLVALUE 0x2E BALANCE 0x2D CODESIZE 0x2E CALLVALUE KECCAK256 CODECOPY 0x2E CALLDATALOAD 0x2D BALANCE ADDRESS 0x2E CALLVALUE PUSH27 0x22202F3E3C656C6C697073652066696C6C3D222366666622206378 RETURNDATASIZE 0x22 CALLER BALANCE CODECOPY 0x22 KECCAK256 PUSH4 0x793D2233 CODECOPY CALLVALUE 0x2E ORIGIN 0x22 KECCAK256 PUSH19 0x783D223135322E37222072793D2238362E3522 KECCAK256 0x2F RETURNDATACOPY EXTCODECOPY 0x2F PUSH8 0x3E41424344454647 0x48 0x49 0x4A 0x4B 0x4C 0x4D 0x4E 0x4F POP MLOAD MSTORE MSTORE8 SLOAD SSTORE JUMP JUMPI PC MSIZE GAS PUSH2 0x6263 PUSH5 0x6566676869 PUSH11 0x6B6C6D6E6F707172737475 PUSH23 0x7778797A303132333435363738392B2F3C706174682066 PUSH10 0x6C6C3D22236666662220 PUSH5 0x3D224D3231 0x2E CALLVALUE CALLVALUE KECCAK256 CALLDATASIZE CALLER 0x2E CALLDATALOAD ORIGIN PUSH4 0x312E3620 BALANCE 0x2E CALLDATACOPY ORIGIN KECCAK256 CALLDATALOAD 0x2E ADDRESS CALLVALUE 0x2E CODECOPY ORIGIN KECCAK256 CODECOPY 0x2E ORIGIN CODESIZE 0x2D BALANCE 0x2E CALLVALUE CALLVALUE 0x2D CALLER 0x2E CODESIZE CODESIZE 0x2D ORIGIN 0x2E CALLDATASIZE 0x2D CALLDATASIZE 0x2E CODESIZE CODESIZE 0x2D CALLDATASIZE 0x2E CALLVALUE 0x2D CODESIZE 0x2E CALLDATALOAD CALLDATASIZE 0x2D BALANCE ADDRESS 0x2E CODESIZE CALLVALUE 0x2D ORIGIN 0x2E CALLVALUE CODESIZE KECCAK256 CALLDATALOAD 0x2E BALANCE ORIGIN 0x2D CALLER 0x2E BALANCE CALLDATASIZE KECCAK256 CODECOPY 0x2E CALLDATASIZE CALLVALUE 0x2D 0x2E CALLDATACOPY ORIGIN KECCAK256 BALANCE ORIGIN 0x2E ORIGIN CODESIZE PUSH27 0x6D34302E342D33332E333663312E39362D332E383420322E35362D CALLDATASIZE 0x2E CODECOPY CALLDATASIZE KECCAK256 BALANCE 0x2E ADDRESS CODESIZE 0x2D CODESIZE 0x2E CALLDATASIZE 0x2D ORIGIN 0x2E ORIGIN CODESIZE 0x2D ORIGIN 0x2E CALLDATALOAD ORIGIN 0x2D CALLDATASIZE 0x2E CALLDATALOAD CALLDATASIZE 0x2D BALANCE 0x2E CODECOPY ORIGIN 0x2D BALANCE BALANCE 0x2E CALLDATASIZE 0x2E CALLDATALOAD ORIGIN KECCAK256 CALLVALUE 0x2E ORIGIN CALLVALUE KECCAK256 BALANCE 0x2E CALLDATASIZE KECCAK256 CALLDATACOPY 0x2E CODECOPY ORIGIN KECCAK256 CALLVALUE 0x2E CALLVALUE CALLVALUE KECCAK256 BALANCE ADDRESS 0x2E CALLDATALOAD ORIGIN KECCAK256 CODESIZE 0x2E ADDRESS CODESIZE PUSH27 0x4D34332E342032302E363863312E36203020332E31322E31362034 0x2E CALLDATASIZE CALLVALUE 0x2E CALLVALUE CODESIZE KECCAK256 CALLDATASIZE 0x2E CODESIZE CODESIZE 0x2D CALLER 0x2E CODESIZE CODESIZE KECCAK256 BALANCE CALLER 0x2E BALANCE CALLDATASIZE 0x2D CALLDATALOAD KECCAK256 BALANCE CALLDATASIZE 0x2E CALLDATASIZE CALLVALUE 0x2D BALANCE 0x2E ORIGIN KECCAK256 ORIGIN 0x2E ORIGIN CALLVALUE KECCAK256 ORIGIN 0x2E CALLVALUE CALLVALUE KECCAK256 BALANCE 0x2E CALLVALUE CODESIZE KECCAK256 CALLDATASIZE 0x2E CODESIZE 0x2D BALANCE 0x2E BALANCE CALLDATASIZE KECCAK256 BALANCE BALANCE 0x2E CODECOPY ORIGIN PUSH23 0x2E30346C2D2E32342E34382E30342E3034632D352E3634 KECCAK256 BALANCE ORIGIN 0x2E CALLVALUE CALLVALUE 0x2D BALANCE CALLDATASIZE 0x2E CALLDATALOAD CALLDATASIZE KECCAK256 ORIGIN CALLER 0x2D ORIGIN CODECOPY 0x2E CALLER ORIGIN KECCAK256 CALLER ADDRESS 0x2E CALLDATALOAD ORIGIN PUSH13 0x2D2E38342E3532632D352E3820 CALLER 0x2E CALLVALUE 0x2D BALANCE ADDRESS 0x2E CALLDATACOPY CALLDATASIZE KECCAK256 CALLVALUE 0x2E CALLDATALOAD ORIGIN 0x2D BALANCE CALLER 0x2E CALLVALUE KECCAK256 BALANCE 0x2E CALLDATASIZE CODESIZE 0x2D CALLER 0x2E CALLDATALOAD ORIGIN 0x2D CALLER 0x2E CODESIZE CALLVALUE 0x2D ORIGIN 0x2E ORIGIN CODESIZE 0x2D BALANCE ADDRESS 0x2E ORIGIN CALLVALUE KECCAK256 BALANCE 0x2E CALLDATALOAD CALLDATASIZE 0x2D BALANCE CALLDATACOPY 0x2E BALANCE ORIGIN 0x2D 0x2E CALLER ORIGIN 0x2D BALANCE 0x2E CALLDATALOAD ORIGIN 0x2D 0x2E CALLVALUE CODESIZE 0x2D CALLER 0x2E ADDRESS CODESIZE 0x2D 0x2E CALLVALUE CODESIZE 0x2D CALLVALUE 0x2E CALLDATASIZE CODESIZE 0x2D 0x2E ADDRESS CODESIZE 0x2D BALANCE ORIGIN 0x2E CALLDATALOAD CALLDATASIZE KECCAK256 BALANCE ADDRESS 0x2E ADDRESS CALLVALUE 0x2D ORIGIN ORIGIN 0x2E CALLDATASIZE CODESIZE KECCAK256 ORIGIN ORIGIN 0x2E CALLDATALOAD CALLDATASIZE 0x2D ORIGIN ORIGIN 0x2E CALLDATASIZE CODESIZE PUSH27 0x6D32312E36342031352E3936632E363420322E3132203120342E33 CALLDATASIZE KECCAK256 BALANCE KECCAK256 CALLDATASIZE 0x2E CALLDATASIZE CODESIZE KECCAK256 ADDRESS KECCAK256 BALANCE ORIGIN 0x2E CALLDATALOAD ORIGIN 0x2D BALANCE ADDRESS 0x2E BALANCE ORIGIN KECCAK256 ORIGIN ORIGIN 0x2E CALLDATASIZE CALLVALUE 0x2D ORIGIN ORIGIN 0x2E CALLDATASIZE CALLVALUE KECCAK256 ORIGIN ORIGIN 0x2E CALLDATASIZE CALLVALUE 0x2D ORIGIN 0x2E CALLER CALLDATASIZE KECCAK256 ADDRESS 0x2D CALLVALUE 0x2E CALLDATASIZE 0x2D 0x2E CALLER CALLDATASIZE 0x2D CALLDATASIZE 0x2E CALLDATACOPY ORIGIN 0x2D BALANCE KECCAK256 BALANCE ORIGIN 0x2E CALLDATASIZE 0x2D CALLDATACOPY 0x2E CALLDATALOAD ORIGIN KECCAK256 ORIGIN ORIGIN 0x2E BALANCE CALLDATASIZE 0x2D BALANCE CALLDATASIZE 0x2E CODESIZE CODESIZE KECCAK256 ORIGIN CODESIZE 0x2E CALLER CALLDATASIZE 0x2D ORIGIN CODESIZE 0x2E CALLER ORIGIN PUSH27 0x22202F3E43757261746F727320757365207468656972206B6E6F77 PUSH13 0x65646765206F66207468652077 PUSH6 0x62332065636F PUSH20 0x797374656D20746F2061737365737320616E6420 PUSH20 0x69676E616C206F6E207468652073756267726170 PUSH9 0x732074686174207368 PUSH16 0x756C6420626520696E64657865642062 PUSH26 0x20546865204772617068204E6574776F726B2E204D6574616669 PUSH4 0x61746520 PUSH10 0x7320616E206F6E2D6368 PUSH2 0x696E KECCAK256 PUSH8 0x656E657261746976 PUSH6 0x206172742061 PUSH15 0x6420646563656E7472616C697A6564 KECCAK256 PUSH4 0x65727469 PUSH7 0x69636174652063 PUSH19 0x656174656420666F7220746865206D65746176 PUSH6 0x72736520616E PUSH5 0x2074686520 PUSH24 0x6562203320776F726C642E3C706174682066696C6C3D2223 PUSH7 0x66662220643D22 0x4D CALLVALUE ORIGIN 0x2E CODECOPY CALLDATALOAD KECCAK256 CALLER CALLDATACOPY 0x2E ADDRESS CALLDATALOAD PUSH4 0x332E3520 ADDRESS KECCAK256 CALLDATASIZE 0x2E CALLDATASIZE KECCAK256 BALANCE 0x2E CALLDATALOAD KECCAK256 CODESIZE 0x2E CODECOPY KECCAK256 CALLER 0x2E CODESIZE CALLDATALOAD KECCAK256 ORIGIN 0x2E CALLER KECCAK256 ORIGIN 0x2E CALLVALUE KECCAK256 CALLER 0x2E CALLDATACOPY KECCAK256 CALLDATALOAD 0x2E CALLDATACOPY KECCAK256 CALLER 0x2E CALLDATACOPY KECCAK256 CODECOPY 0x2E CALLER KECCAK256 ADDRESS KECCAK256 0x2E CODECOPY CALLDATALOAD 0x2D 0x2E BALANCE KECCAK256 BALANCE 0x2E CODECOPY 0x2D 0x2E CALLER KECCAK256 ORIGIN 0x2E CODESIZE CALLDATALOAD PUSH9 0x31352E3863312E3035 KECCAK256 ADDRESS KECCAK256 BALANCE 0x2E CALLER 0x2E CALLDATASIZE KECCAK256 BALANCE 0x2E CALLER KECCAK256 BALANCE 0x2E CALLER PUSH20 0x2D2E323520312E332D312E3320312E33682D3535 PUSH4 0x2D312E30 CALLDATALOAD KECCAK256 ADDRESS 0x2D BALANCE 0x2E CALLER 0x2D 0x2E CALLDATASIZE 0x2D BALANCE 0x2E CALLER 0x2D BALANCE 0x2E CALLER PUSH20 0x2E32352D312E3320312E332D312E336831342E36 PUSH4 0x2D2E322D 0x2E CODECOPY 0x2D 0x2E CALLER 0x2D BALANCE 0x2E CODESIZE CALLDATALOAD 0x2D 0x2E CALLER 0x2D ORIGIN 0x2E CODESIZE CALLDATALOAD KECCAK256 ADDRESS 0x2D CALLER 0x2E CALLDATASIZE CALLDATALOAD KECCAK256 BALANCE 0x2E CALLVALUE 0x2D CALLDATASIZE 0x2E CODECOPY CALLDATALOAD KECCAK256 CALLER 0x2E CALLDATACOPY 0x2D CODECOPY 0x2E CALLER KECCAK256 ORIGIN 0x2E CALLER 0x2D ORIGIN 0x2E CALLER CALLDATALOAD KECCAK256 CALLDATALOAD 0x2E CALLVALUE CALLDATALOAD 0x2D CALLER 0x2E CODESIZE CALLDATALOAD KECCAK256 CODESIZE 0x2E CODECOPY 0x2D CALLER 0x2E CODESIZE CALLDATALOAD PUSH27 0x4D34342E322036322E37632D312E303520302D312E332D2E362D31 0x2E CALLER 0x2D BALANCE 0x2E CALLER PUSH20 0x2E32352D312E3320312E332D312E336832382E34 CALLDATALOAD PUSH4 0x312E3035 KECCAK256 ADDRESS KECCAK256 BALANCE 0x2E CALLER 0x2E CALLDATASIZE KECCAK256 BALANCE 0x2E CALLER KECCAK256 BALANCE 0x2E CALLER PUSH20 0x2D2E323520312E332D312E3320312E334834342E ORIGIN PUSH27 0x6D2D33302E342030632D312E303520302D312E332D2E362D312E33 0x2D BALANCE 0x2E CALLER PUSH20 0x2E32352D312E3320312E332D312E336831342E37 CALLDATALOAD PUSH4 0x312E3035 KECCAK256 ADDRESS KECCAK256 BALANCE 0x2E CALLER 0x2E CALLDATASIZE KECCAK256 BALANCE 0x2E CALLER KECCAK256 BALANCE 0x2E CALLER PUSH20 0x2D2E323520312E332D312E3320312E334831332E CODESIZE PUSH27 0x6D31372E392D33302E3435632D2E342D2E372D2E31352D312E3535 0x2E CALLDATALOAD 0x2D BALANCE 0x2E CODECOPY PUSH20 0x312E35352D2E313520312E392E354C33352E3920 CALLER CALLVALUE PUSH4 0x2E342E37 0x2E BALANCE CALLDATALOAD KECCAK256 BALANCE 0x2E CALLDATALOAD CALLDATALOAD 0x2D 0x2E CALLDATALOAD KECCAK256 BALANCE 0x2E CODECOPY CALLDATALOAD PUSH20 0x2D312E35352E31352D312E392D2E356C2D312E38 0x2D CALLER 0x2E ORIGIN PUSH27 0x6D31302E31352D332E333563302D2E382E36352D312E3420312E34 0x2D BALANCE 0x2E CALLVALUE PUSH20 0x312E342E363520312E3420312E3476332E366330 KECCAK256 0x2E CODESIZE 0x2D 0x2E CALLDATASIZE CALLDATALOAD KECCAK256 BALANCE 0x2E CALLVALUE 0x2D BALANCE 0x2E CALLVALUE KECCAK256 BALANCE 0x2E CALLVALUE PUSH20 0x2D312E342D2E36352D312E342D312E34762D332E CALLDATASIZE PUSH27 0x6D31302E343520322E32632E342D2E363520312E32352D2E392031 0x2E CODECOPY 0x2D 0x2E CALLDATALOAD PUSH20 0x2E3920312E32352E3520312E396C2D312E382033 0x2E BALANCE CALLDATALOAD PUSH4 0x2D2E342E CALLDATACOPY 0x2D BALANCE 0x2E ORIGIN CALLDATALOAD 0x2E CODECOPY 0x2D BALANCE 0x2E CODECOPY 0x2E CALLDATALOAD 0x2D 0x2E CALLDATASIZE CALLDATALOAD 0x2D 0x2E CALLVALUE 0x2D 0x2E CODECOPY 0x2D BALANCE 0x2E ORIGIN CALLDATALOAD 0x2D 0x2E CALLDATALOAD 0x2D BALANCE 0x2E CODECOPY PUSH13 0x312E382D332E31357A6D372E39 KECCAK256 CALLDATACOPY 0x2E BALANCE CALLDATALOAD PUSH4 0x2E36352D 0x2E CALLVALUE KECCAK256 BALANCE 0x2E CALLDATALOAD CALLDATALOAD 0x2D 0x2E BALANCE CALLDATALOAD KECCAK256 BALANCE 0x2E CODECOPY 0x2E CALLDATALOAD PUSH20 0x2E313520312E35352D2E3520312E39356C2D332E BALANCE KECCAK256 BALANCE 0x2E CODESIZE PUSH4 0x2D2E3635 0x2E CALLVALUE 0x2D BALANCE 0x2E CALLDATALOAD CALLDATALOAD 0x2E BALANCE CALLDATALOAD 0x2D BALANCE 0x2E CODECOPY 0x2D 0x2E CALLDATALOAD PUSH20 0x2D2E31352D312E35352E352D312E39356C332E31 0x2D BALANCE 0x2E CODESIZE PUSH27 0x6D332E33352031302E3135632E38203020312E342E363520312E34 KECCAK256 BALANCE 0x2E CALLVALUE KECCAK256 ADDRESS KECCAK256 0x2E CODESIZE 0x2D 0x2E CALLDATASIZE CALLDATALOAD KECCAK256 BALANCE 0x2E CALLVALUE 0x2D BALANCE 0x2E CALLVALUE KECCAK256 BALANCE 0x2E CALLVALUE PUSH9 0x2D332E36632D2E3820 ADDRESS 0x2D BALANCE 0x2E CALLVALUE 0x2D 0x2E CALLDATASIZE CALLDATALOAD 0x2D BALANCE 0x2E CALLVALUE 0x2D BALANCE 0x2E CALLVALUE PUSH20 0x2E36352D312E3420312E342D312E3468332E367A PUSH14 0x2D34312E3220322E3235632D2E38 KECCAK256 ADDRESS 0x2D BALANCE 0x2E CALLVALUE 0x2D 0x2E CALLDATASIZE CALLDATALOAD 0x2D BALANCE 0x2E CALLVALUE 0x2D BALANCE 0x2E CALLVALUE PUSH20 0x2E36352D312E3420312E342D312E34483236632E CODESIZE KECCAK256 ADDRESS KECCAK256 BALANCE 0x2E CALLVALUE 0x2E CALLDATASIZE CALLDATALOAD KECCAK256 BALANCE 0x2E CALLVALUE KECCAK256 BALANCE 0x2E CALLVALUE PUSH20 0x2D2E363520312E342D312E3420312E34682D332E CALLDATASIZE CALLDATALOAD PUSH27 0x6D322E322D31302E3435632D2E372D2E342D2E392D312E32352D2E CALLDATALOAD 0x2D BALANCE 0x2E CODECOPY 0x2E CALLVALUE 0x2D 0x2E CALLDATACOPY KECCAK256 BALANCE 0x2E ORIGIN CALLDATALOAD 0x2D 0x2E CODECOPY KECCAK256 BALANCE 0x2E CODECOPY 0x2D 0x2E CALLDATALOAD PUSH13 0x332E313520312E38632E36352E CALLVALUE 0x2E CODECOPY KECCAK256 BALANCE 0x2E ORIGIN CALLDATALOAD 0x2E CALLDATALOAD KECCAK256 BALANCE 0x2E CODECOPY PUSH20 0x2D312E32352E392D312E392E356C2D332E31352D BALANCE 0x2E CODESIZE PUSH27 0x22202F3EA2646970667358221220D8CA1B403D3D4CB5BD2615D10A SWAP13 CODECOPY CALLER 0x28 0xF6 0xE5 0xC1 0x24 0xBC GASLIMIT ISZERO 0xBF 0xAC 0x2E LOG1 MLOAD GASLIMIT PUSH28 0xC664736F6C63430008040033496E2072657475726E2C206375726174 PUSH16 0x7273206561726E207175657279206665 PUSH6 0x732E43757261 PUSH21 0x6F72732061726520637269746963616C20746F2074 PUSH9 0x652047726170682064 PUSH6 0x63656E747261 PUSH13 0x697A65642065636F6E6F6D792E NUMBER PUSH22 0x7261746F7273206D616B652054686520477261706820 PUSH15 0x6574776F726B20656666696369656E PUSH21 0x2E4372656174696E67206120737562677261706820 PUSH10 0x73207065726D69737369 PUSH16 0x6E6C6573732E41207375626772617068 KECCAK256 PUSH4 0x616E2066 PUSH2 0x696C KECCAK256 PUSH5 0x756520746F KECCAK256 PUSH2 0x2062 PUSH22 0x672E43757261746F7273206172652065636F6E6F6D69 PUSH4 0x616C6C79 KECCAK256 PUSH10 0x6E63656E746976697A65 PUSH5 0x20746F2073 PUSH10 0x676E616C206561726C79 0x2E "
		},
		"gasEstimates": {
			"creation": {
				"codeDepositCost": "4412400",
				"executionCost": "infinite",
				"totalCost": "infinite"
			},
			"external": {
				"addressToString(address)": "infinite",
				"approve(address,uint256)": "infinite",
				"balanceOf(address)": "1624",
				"createIcon(uint8)": "infinite",
				"createImage(uint256)": "infinite",
				"getApproved(uint256)": "2628",
				"isApprovedForAll(address,address)": "infinite",
				"mint()": "infinite",
				"name()": "infinite",
				"ownerOf(uint256)": "1788",
				"safeTransferFrom(address,address,uint256)": "infinite",
				"safeTransferFrom(address,address,uint256,bytes)": "infinite",
				"setApprovalForAll(address,bool)": "infinite",
				"supportsInterface(bytes4)": "797",
				"symbol()": "infinite",
				"tokenInfoMap(uint256)": "infinite",
				"tokenURI(uint256)": "infinite",
				"transferFrom(address,address,uint256)": "infinite"
			}
		},
		"methodIdentifiers": {
			"addressToString(address)": "5e57966d",
			"approve(address,uint256)": "095ea7b3",
			"balanceOf(address)": "70a08231",
			"createIcon(uint8)": "f434e8e0",
			"createImage(uint256)": "c75440e1",
			"getApproved(uint256)": "081812fc",
			"isApprovedForAll(address,address)": "e985e9c5",
			"mint()": "1249c58b",
			"name()": "06fdde03",
			"ownerOf(uint256)": "6352211e",
			"safeTransferFrom(address,address,uint256)": "42842e0e",
			"safeTransferFrom(address,address,uint256,bytes)": "b88d4fde",
			"setApprovalForAll(address,bool)": "a22cb465",
			"supportsInterface(bytes4)": "01ffc9a7",
			"symbol()": "95d89b41",
			"tokenInfoMap(uint256)": "6fa700bf",
			"tokenURI(uint256)": "c87b56dd",
			"transferFrom(address,address,uint256)": "23b872dd"
		}
	},
	"abi": [
		{
			"inputs": [
				{
					"internalType": "string",
					"name": "name_",
					"type": "string"
				},
				{
					"internalType": "string",
					"name": "symbol_",
					"type": "string"
				}
			],
			"stateMutability": "nonpayable",
			"type": "constructor"
		},
		{
			"anonymous": false,
			"inputs": [
				{
					"indexed": true,
					"internalType": "address",
					"name": "owner",
					"type": "address"
				},
				{
					"indexed": true,
					"internalType": "address",
					"name": "approved",
					"type": "address"
				},
				{
					"indexed": true,
					"internalType": "uint256",
					"name": "tokenId",
					"type": "uint256"
				}
			],
			"name": "Approval",
			"type": "event"
		},
		{
			"anonymous": false,
			"inputs": [
				{
					"indexed": true,
					"internalType": "address",
					"name": "owner",
					"type": "address"
				},
				{
					"indexed": true,
					"internalType": "address",
					"name": "operator",
					"type": "address"
				},
				{
					"indexed": false,
					"internalType": "bool",
					"name": "approved",
					"type": "bool"
				}
			],
			"name": "ApprovalForAll",
			"type": "event"
		},
		{
			"anonymous": false,
			"inputs": [
				{
					"indexed": true,
					"internalType": "address",
					"name": "from",
					"type": "address"
				},
				{
					"indexed": true,
					"internalType": "address",
					"name": "to",
					"type": "address"
				},
				{
					"indexed": true,
					"internalType": "uint256",
					"name": "tokenId",
					"type": "uint256"
				}
			],
			"name": "Transfer",
			"type": "event"
		},
		{
			"inputs": [
				{
					"internalType": "address",
					"name": "_addr",
					"type": "address"
				}
			],
			"name": "addressToString",
			"outputs": [
				{
					"internalType": "string",
					"name": "",
					"type": "string"
				}
			],
			"stateMutability": "pure",
			"type": "function"
		},
		{
			"inputs": [
				{
					"internalType": "address",
					"name": "to",
					"type": "address"
				},
				{
					"internalType": "uint256",
					"name": "tokenId",
					"type": "uint256"
				}
			],
			"name": "approve",
			"outputs": [],
			"stateMutability": "nonpayable",
			"type": "function"
		},
		{
			"inputs": [
				{
					"internalType": "address",
					"name": "owner",
					"type": "address"
				}
			],
			"name": "balanceOf",
			"outputs": [
				{
					"internalType": "uint256",
					"name": "",
					"type": "uint256"
				}
			],
			"stateMutability": "view",
			"type": "function"
		},
		{
			"inputs": [
				{
					"internalType": "uint8",
					"name": "color_index",
					"type": "uint8"
				}
			],
			"name": "createIcon",
			"outputs": [
				{
					"internalType": "string",
					"name": "",
					"type": "string"
				}
			],
			"stateMutability": "view",
			"type": "function"
		},
		{
			"inputs": [
				{
					"internalType": "uint256",
					"name": "tokenId",
					"type": "uint256"
				}
			],
			"name": "createImage",
			"outputs": [
				{
					"internalType": "string",
					"name": "",
					"type": "string"
				}
			],
			"stateMutability": "view",
			"type": "function"
		},
		{
			"inputs": [
				{
					"internalType": "uint256",
					"name": "tokenId",
					"type": "uint256"
				}
			],
			"name": "getApproved",
			"outputs": [
				{
					"internalType": "address",
					"name": "",
					"type": "address"
				}
			],
			"stateMutability": "view",
			"type": "function"
		},
		{
			"inputs": [
				{
					"internalType": "address",
					"name": "owner",
					"type": "address"
				},
				{
					"internalType": "address",
					"name": "operator",
					"type": "address"
				}
			],
			"name": "isApprovedForAll",
			"outputs": [
				{
					"internalType": "bool",
					"name": "",
					"type": "bool"
				}
			],
			"stateMutability": "view",
			"type": "function"
		},
		{
			"inputs": [],
			"name": "mint",
			"outputs": [
				{
					"internalType": "uint256",
					"name": "tokenId",
					"type": "uint256"
				}
			],
			"stateMutability": "nonpayable",
			"type": "function"
		},
		{
			"inputs": [],
			"name": "name",
			"outputs": [
				{
					"internalType": "string",
					"name": "",
					"type": "string"
				}
			],
			"stateMutability": "view",
			"type": "function"
		},
		{
			"inputs": [
				{
					"internalType": "uint256",
					"name": "tokenId",
					"type": "uint256"
				}
			],
			"name": "ownerOf",
			"outputs": [
				{
					"internalType": "address",
					"name": "",
					"type": "address"
				}
			],
			"stateMutability": "view",
			"type": "function"
		},
		{
			"inputs": [
				{
					"internalType": "address",
					"name": "from",
					"type": "address"
				},
				{
					"internalType": "address",
					"name": "to",
					"type": "address"
				},
				{
					"internalType": "uint256",
					"name": "tokenId",
					"type": "uint256"
				}
			],
			"name": "safeTransferFrom",
			"outputs": [],
			"stateMutability": "nonpayable",
			"type": "function"
		},
		{
			"inputs": [
				{
					"internalType": "address",
					"name": "from",
					"type": "address"
				},
				{
					"internalType": "address",
					"name": "to",
					"type": "address"
				},
				{
					"internalType": "uint256",
					"name": "tokenId",
					"type": "uint256"
				},
				{
					"internalType": "bytes",
					"name": "_data",
					"type": "bytes"
				}
			],
			"name": "safeTransferFrom",
			"outputs": [],
			"stateMutability": "nonpayable",
			"type": "function"
		},
		{
			"inputs": [
				{
					"internalType": "address",
					"name": "operator",
					"type": "address"
				},
				{
					"internalType": "bool",
					"name": "approved",
					"type": "bool"
				}
			],
			"name": "setApprovalForAll",
			"outputs": [],
			"stateMutability": "nonpayable",
			"type": "function"
		},
		{
			"inputs": [
				{
					"internalType": "bytes4",
					"name": "interfaceId",
					"type": "bytes4"
				}
			],
			"name": "supportsInterface",
			"outputs": [
				{
					"internalType": "bool",
					"name": "",
					"type": "bool"
				}
			],
			"stateMutability": "view",
			"type": "function"
		},
		{
			"inputs": [],
			"name": "symbol",
			"outputs": [
				{
					"internalType": "string",
					"name": "",
					"type": "string"
				}
			],
			"stateMutability": "view",
			"type": "function"
		},
		{
			"inputs": [
				{
					"internalType": "uint256",
					"name": "",
					"type": "uint256"
				}
			],
			"name": "tokenInfoMap",
			"outputs": [
				{
					"internalType": "address",
					"name": "addr",
					"type": "address"
				},
				{
					"internalType": "uint256",
					"name": "ts",
					"type": "uint256"
				}
			],
			"stateMutability": "view",
			"type": "function"
		},
		{
			"inputs": [
				{
					"internalType": "uint256",
					"name": "tokenId",
					"type": "uint256"
				}
			],
			"name": "tokenURI",
			"outputs": [
				{
					"internalType": "string",
					"name": "",
					"type": "string"
				}
			],
			"stateMutability": "view",
			"type": "function"
		},
		{
			"inputs": [
				{
					"internalType": "address",
					"name": "from",
					"type": "address"
				},
				{
					"internalType": "address",
					"name": "to",
					"type": "address"
				},
				{
					"internalType": "uint256",
					"name": "tokenId",
					"type": "uint256"
				}
			],
			"name": "transferFrom",
			"outputs": [],
			"stateMutability": "nonpayable",
			"type": "function"
		}
	]
}