{
	"data": {
		"bytecode": {
			"linkReferences": {},
			"object": "608060405260006006556040518061080001604052806040518060a001604052806040518060400160405280600781526020017f233666346366660000000000000000000000000000000000000000000000000081525081526020016040518060400160405280600881526020017f234646463539442000000000000000000000000000000000000000000000000081525081526020016040518060400160405280600781526020017f234345393344380000000000000000000000000000000000000000000000000081525081526020016040518060400160405280600781526020017f234232444644420000000000000000000000000000000000000000000000000081525081526020016040518060400160405280600781526020017f234646434338300000000000000000000000000000000000000000000000000081525081525081526020016040518060a001604052806040518060400160405280600781526020017f233666346366660000000000000000000000000000000000000000000000000081525081526020016040518060400160405280600881526020017f234646463539442000000000000000000000000000000000000000000000000081525081526020016040518060400160405280600781526020017f234345393344380000000000000000000000000000000000000000000000000081525081526020016040518060400160405280600781526020017f234646434338300000000000000000000000000000000000000000000000000081525081526020016040518060400160405280600781526020017f234232444644420000000000000000000000000000000000000000000000000081525081525081526020016040518060a001604052806040518060400160405280600781526020017f233666346366660000000000000000000000000000000000000000000000000081525081526020016040518060400160405280600881526020017f234646463539442000000000000000000000000000000000000000000000000081525081526020016040518060400160405280600781526020017f234232444644420000000000000000000000000000000000000000000000000081525081526020016040518060400160405280600781526020017f234345393344380000000000000000000000000000000000000000000000000081525081526020016040518060400160405280600781526020017f234646434338300000000000000000000000000000000000000000000000000081525081525081526020016040518060a001604052806040518060400160405280600781526020017f233666346366660000000000000000000000000000000000000000000000000081525081526020016040518060400160405280600881526020017f234646463539442000000000000000000000000000000000000000000000000081525081526020016040518060400160405280600781526020017f234232444644420000000000000000000000000000000000000000000000000081525081526020016040518060400160405280600781526020017f234646434338300000000000000000000000000000000000000000000000000081525081526020016040518060400160405280600781526020017f234345393344380000000000000000000000000000000000000000000000000081525081525081526020016040518060a001604052806040518060400160405280600781526020017f233666346366660000000000000000000000000000000000000000000000000081525081526020016040518060400160405280600881526020017f234646463539442000000000000000000000000000000000000000000000000081525081526020016040518060400160405280600781526020017f234646434338300000000000000000000000000000000000000000000000000081525081526020016040518060400160405280600781526020017f234232444644420000000000000000000000000000000000000000000000000081525081526020016040518060400160405280600781526020017f234345393344380000000000000000000000000000000000000000000000000081525081525081526020016040518060a001604052806040518060400160405280600781526020017f233666346366660000000000000000000000000000000000000000000000000081525081526020016040518060400160405280600881526020017f234646463539442000000000000000000000000000000000000000000000000081525081526020016040518060400160405280600781526020017f234646434338300000000000000000000000000000000000000000000000000081525081526020016040518060400160405280600781526020017f234345393344380000000000000000000000000000000000000000000000000081525081526020016040518060400160405280600781526020017f234232444644420000000000000000000000000000000000000000000000000081525081525081526020016040518060a001604052806040518060400160405280600781526020017f234632384438440000000000000000000000000000000000000000000000000081525081526020016040518060400160405280600781526020017f234632423941430000000000000000000000000000000000000000000000000081525081526020016040518060400160405280600781526020017f234445443046320000000000000000000000000000000000000000000000000081525081526020016040518060400160405280600781526020017f233931414146320000000000000000000000000000000000000000000000000081525081526020016040518060400160405280600781526020017f233642393846320000000000000000000000000000000000000000000000000081525081525081526020016040518060a001604052806040518060400160405280600781526020017f234632384438440000000000000000000000000000000000000000000000000081525081526020016040518060400160405280600781526020017f234632423941430000000000000000000000000000000000000000000000000081525081526020016040518060400160405280600781526020017f234445443046320000000000000000000000000000000000000000000000000081525081526020016040518060400160405280600781526020017f233642393846320000000000000000000000000000000000000000000000000081525081526020016040518060400160405280600781526020017f233931414146320000000000000000000000000000000000000000000000000081525081525081526020016040518060a001604052806040518060400160405280600781526020017f234632384438440000000000000000000000000000000000000000000000000081525081526020016040518060400160405280600781526020017f234632423941430000000000000000000000000000000000000000000000000081525081526020016040518060400160405280600781526020017f233931414146320000000000000000000000000000000000000000000000000081525081526020016040518060400160405280600781526020017f234445443046320000000000000000000000000000000000000000000000000081525081526020016040518060400160405280600781526020017f233642393846320000000000000000000000000000000000000000000000000081525081525081526020016040518060a001604052806040518060400160405280600781526020017f234632384438440000000000000000000000000000000000000000000000000081525081526020016040518060400160405280600781526020017f234632423941430000000000000000000000000000000000000000000000000081525081526020016040518060400160405280600781526020017f233931414146320000000000000000000000000000000000000000000000000081525081526020016040518060400160405280600781526020017f233642393846320000000000000000000000000000000000000000000000000081525081526020016040518060400160405280600781526020017f234445443046320000000000000000000000000000000000000000000000000081525081525081526020016040518060a001604052806040518060400160405280600781526020017f234632384438440000000000000000000000000000000000000000000000000081525081526020016040518060400160405280600781526020017f234632423941430000000000000000000000000000000000000000000000000081525081526020016040518060400160405280600781526020017f233642393846320000000000000000000000000000000000000000000000000081525081526020016040518060400160405280600781526020017f233931414146320000000000000000000000000000000000000000000000000081525081526020016040518060400160405280600781526020017f234445443046320000000000000000000000000000000000000000000000000081525081525081526020016040518060a001604052806040518060400160405280600781526020017f234632384438440000000000000000000000000000000000000000000000000081525081526020016040518060400160405280600781526020017f234632423941430000000000000000000000000000000000000000000000000081525081526020016040518060400160405280600781526020017f233642393846320000000000000000000000000000000000000000000000000081525081526020016040518060400160405280600881526020017f232044454430463200000000000000000000000000000000000000000000000081525081526020016040518060400160405280600781526020017f233931414146320000000000000000000000000000000000000000000000000081525081525081526020016040518060a001604052806040518060400160405280600781526020017f233430384238300000000000000000000000000000000000000000000000000081525081526020016040518060400160405280600781526020017f234646433942330000000000000000000000000000000000000000000000000081525081526020016040518060400160405280600781526020017f234232383537320000000000000000000000000000000000000000000000000081525081526020016040518060400160405280600781526020017f233946453046360000000000000000000000000000000000000000000000000081525081526020016040518060400160405280600781526020017f234241363843380000000000000000000000000000000000000000000000000081525081525081526020016040518060a001604052806040518060400160405280600781526020017f233430384238300000000000000000000000000000000000000000000000000081525081526020016040518060400160405280600781526020017f234646433942330000000000000000000000000000000000000000000000000081525081526020016040518060400160405280600781526020017f234232383537320000000000000000000000000000000000000000000000000081525081526020016040518060400160405280600781526020017f234241363843380000000000000000000000000000000000000000000000000081525081526020016040518060400160405280600881526020017f202339464530463600000000000000000000000000000000000000000000000081525081525081526020016040518060a001604052806040518060400160405280600781526020017f233430384238300000000000000000000000000000000000000000000000000081525081526020016040518060400160405280600781526020017f234646433942330000000000000000000000000000000000000000000000000081525081526020016040518060400160405280600781526020017f233946453046360000000000000000000000000000000000000000000000000081525081526020016040518060400160405280600781526020017f234232383537320000000000000000000000000000000000000000000000000081525081526020016040518060400160405280600781526020017f234241363843380000000000000000000000000000000000000000000000000081525081525081526020016040518060a001604052806040518060400160405280600781526020017f233430384238300000000000000000000000000000000000000000000000000081525081526020016040518060400160405280600781526020017f234646433942330000000000000000000000000000000000000000000000000081525081526020016040518060400160405280600781526020017f233946453046360000000000000000000000000000000000000000000000000081525081526020016040518060400160405280600781526020017f234241363843380000000000000000000000000000000000000000000000000081525081526020016040518060400160405280600881526020017f202342323835373200000000000000000000000000000000000000000000000081525081525081526020016040518060a001604052806040518060400160405280600781526020017f233430384238300000000000000000000000000000000000000000000000000081525081526020016040518060400160405280600781526020017f234646433942330000000000000000000000000000000000000000000000000081525081526020016040518060400160405280600881526020017f234241363843382000000000000000000000000000000000000000000000000081525081526020016040518060400160405280600781526020017f233946453046360000000000000000000000000000000000000000000000000081525081526020016040518060400160405280600781526020017f234232383537320000000000000000000000000000000000000000000000000081525081525081526020016040518060a001604052806040518060400160405280600781526020017f233430384238300000000000000000000000000000000000000000000000000081525081526020016040518060400160405280600781526020017f234646433942330000000000000000000000000000000000000000000000000081525081526020016040518060400160405280600881526020017f234241363843382000000000000000000000000000000000000000000000000081525081526020016040518060400160405280600781526020017f234232383537320000000000000000000000000000000000000000000000000081525081526020016040518060400160405280600881526020017f202339464530463600000000000000000000000000000000000000000000000081525081525081526020016040518060a001604052806040518060400160405280600781526020017f233145383845350000000000000000000000000000000000000000000000000081525081526020016040518060400160405280600781526020017f234632443738350000000000000000000000000000000000000000000000000081525081526020016040518060400160405280600781526020017f234246383039310000000000000000000000000000000000000000000000000081525081526020016040518060400160405280600781526020017f233644394241360000000000000000000000000000000000000000000000000081525081526020016040518060400160405280600781526020017f234632424443370000000000000000000000000000000000000000000000000081525081525081526020016040518060a001604052806040518060400160405280600781526020017f233145383845350000000000000000000000000000000000000000000000000081525081526020016040518060400160405280600781526020017f234632443738350000000000000000000000000000000000000000000000000081525081526020016040518060400160405280600781526020017f234246383039310000000000000000000000000000000000000000000000000081525081526020016040518060400160405280600781526020017f234632424443370000000000000000000000000000000000000000000000000081525081526020016040518060400160405280600781526020017f233644394241360000000000000000000000000000000000000000000000000081525081525081526020016040518060a001604052806040518060400160405280600781526020017f233145383845350000000000000000000000000000000000000000000000000081525081526020016040518060400160405280600781526020017f234632443738350000000000000000000000000000000000000000000000000081525081526020016040518060400160405280600881526020017f233644394241362000000000000000000000000000000000000000000000000081525081526020016040518060400160405280600781526020017f234246383039310000000000000000000000000000000000000000000000000081525081526020016040518060400160405280600781526020017f234632424443370000000000000000000000000000000000000000000000000081525081525081526020016040518060a001604052806040518060400160405280600781526020017f233145383845350000000000000000000000000000000000000000000000000081525081526020016040518060400160405280600781526020017f234632443738350000000000000000000000000000000000000000000000000081525081526020016040518060400160405280600881526020017f233644394241362000000000000000000000000000000000000000000000000081525081526020016040518060400160405280600781526020017f234632424443370000000000000000000000000000000000000000000000000081525081526020016040518060400160405280600881526020017f202342463830393100000000000000000000000000000000000000000000000081525081525081526020016040518060a001604052806040518060400160405280600781526020017f233145383845350000000000000000000000000000000000000000000000000081525081526020016040518060400160405280600781526020017f234632443738350000000000000000000000000000000000000000000000000081525081526020016040518060400160405280600881526020017f234632424443372000000000000000000000000000000000000000000000000081525081526020016040518060400160405280600781526020017f233644394241360000000000000000000000000000000000000000000000000081525081526020016040518060400160405280600781526020017f234246383039310000000000000000000000000000000000000000000000000081525081525081526020016040518060a001604052806040518060400160405280600781526020017f233145383845350000000000000000000000000000000000000000000000000081525081526020016040518060400160405280600781526020017f234632443738350000000000000000000000000000000000000000000000000081525081526020016040518060400160405280600881526020017f234632424443372000000000000000000000000000000000000000000000000081525081526020016040518060400160405280600781526020017f234246383039310000000000000000000000000000000000000000000000000081525081526020016040518060400160405280600781526020017f233644394241360000000000000000000000000000000000000000000000000081525081525081526020016040518060a001604052806040518060400160405280600781526020017f234642433032440000000000000000000000000000000000000000000000000081525081526020016040518060400160405280600781526020017f234333373543440000000000000000000000000000000000000000000000000081525081526020016040518060400160405280600781526020017f233443414635300000000000000000000000000000000000000000000000000081525081526020016040518060400160405280600781526020017f234630363237440000000000000000000000000000000000000000000000000081525081526020016040518060400160405280600781526020017f233432413546350000000000000000000000000000000000000000000000000081525081525081526020016040518060a001604052806040518060400160405280600781526020017f234642433032440000000000000000000000000000000000000000000000000081525081526020016040518060400160405280600781526020017f234333373543440000000000000000000000000000000000000000000000000081525081526020016040518060400160405280600781526020017f233443414635300000000000000000000000000000000000000000000000000081525081526020016040518060400160405280600781526020017f233432413546350000000000000000000000000000000000000000000000000081525081526020016040518060400160405280600781526020017f234630363237440000000000000000000000000000000000000000000000000081525081525081526020016040518060a001604052806040518060400160405280600781526020017f234642433032440000000000000000000000000000000000000000000000000081525081526020016040518060400160405280600781526020017f234333373543440000000000000000000000000000000000000000000000000081525081526020016040518060400160405280600781526020017f234630363237440000000000000000000000000000000000000000000000000081525081526020016040518060400160405280600781526020017f233443414635300000000000000000000000000000000000000000000000000081525081526020016040518060400160405280600781526020017f233432413546350000000000000000000000000000000000000000000000000081525081525081526020016040518060a001604052806040518060400160405280600781526020017f234642433032440000000000000000000000000000000000000000000000000081525081526020016040518060400160405280600781526020017f234333373543440000000000000000000000000000000000000000000000000081525081526020016040518060400160405280600781526020017f234630363237440000000000000000000000000000000000000000000000000081525081526020016040518060400160405280600781526020017f233432413546350000000000000000000000000000000000000000000000000081525081526020016040518060400160405280600781526020017f233443414635300000000000000000000000000000000000000000000000000081525081525081526020016040518060a001604052806040518060400160405280600781526020017f234642433032440000000000000000000000000000000000000000000000000081525081526020016040518060400160405280600781526020017f234333373543440000000000000000000000000000000000000000000000000081525081526020016040518060400160405280600781526020017f233432413546350000000000000000000000000000000000000000000000000081525081526020016040518060400160405280600781526020017f234630363237440000000000000000000000000000000000000000000000000081525081526020016040518060400160405280600781526020017f233443414635300000000000000000000000000000000000000000000000000081525081525081526020016040518060a001604052806040518060400160405280600781526020017f234642433032440000000000000000000000000000000000000000000000000081525081526020016040518060400160405280600781526020017f234333373543440000000000000000000000000000000000000000000000000081525081526020016040518060400160405280600781526020017f233432413546350000000000000000000000000000000000000000000000000081525081526020016040518060400160405280600881526020017f233443414635302000000000000000000000000000000000000000000000000081525081526020016040518060400160405280600781526020017f234630363237440000000000000000000000000000000000000000000000000081525081525081526020016040518060a001604052806040518060400160405280600781526020017f233535443939420000000000000000000000000000000000000000000000000081525081526020016040518060400160405280600781526020017f234632433436440000000000000000000000000000000000000000000000000081525081526020016040518060400160405280600781526020017f233341333635390000000000000000000000000000000000000000000000000081525081526020016040518060400160405280600781526020017f234334463245450000000000000000000000000000000000000000000000000081525081526020016040518060400160405280600781526020017f233636374246320000000000000000000000000000000000000000000000000081525081525081526020016040518060a001604052806040518060400160405280600781526020017f233535443939420000000000000000000000000000000000000000000000000081525081526020016040518060400160405280600781526020017f234632433436440000000000000000000000000000000000000000000000000081525081526020016040518060400160405280600781526020017f233341333635390000000000000000000000000000000000000000000000000081525081526020016040518060400160405280600781526020017f233636374246320000000000000000000000000000000000000000000000000081525081526020016040518060400160405280600781526020017f234334463245450000000000000000000000000000000000000000000000000081525081525081526020016040518060a001604052806040518060400160405280600781526020017f233535443939420000000000000000000000000000000000000000000000000081525081526020016040518060400160405280600781526020017f234632433436440000000000000000000000000000000000000000000000000081525081526020016040518060400160405280600781526020017f234334463245450000000000000000000000000000000000000000000000000081525081526020016040518060400160405280600781526020017f233341333635390000000000000000000000000000000000000000000000000081525081526020016040518060400160405280600781526020017f233636374246320000000000000000000000000000000000000000000000000081525081525081526020016040518060a001604052806040518060400160405280600781526020017f233535443939420000000000000000000000000000000000000000000000000081525081526020016040518060400160405280600781526020017f234632433436440000000000000000000000000000000000000000000000000081525081526020016040518060400160405280600781526020017f234334463245450000000000000000000000000000000000000000000000000081525081526020016040518060400160405280600781526020017f233636374246320000000000000000000000000000000000000000000000000081525081526020016040518060400160405280600781526020017f233341333635390000000000000000000000000000000000000000000000000081525081525081526020016040518060a001604052806040518060400160405280600781526020017f233535443939420000000000000000000000000000000000000000000000000081525081526020016040518060400160405280600781526020017f234632433436440000000000000000000000000000000000000000000000000081525081526020016040518060400160405280600781526020017f233636374246320000000000000000000000000000000000000000000000000081525081526020016040518060400160405280600781526020017f234334463245450000000000000000000000000000000000000000000000000081525081526020016040518060400160405280600781526020017f233341333635390000000000000000000000000000000000000000000000000081525081525081526020016040518060a001604052806040518060400160405280600781526020017f233535443939420000000000000000000000000000000000000000000000000081525081526020016040518060400160405280600781526020017f234632433436440000000000000000000000000000000000000000000000000081525081526020016040518060400160405280600781526020017f233636374246320000000000000000000000000000000000000000000000000081525081526020016040518060400160405280600781526020017f233341333635390000000000000000000000000000000000000000000000000081525081526020016040518060400160405280600781526020017f234334463245450000000000000000000000000000000000000000000000000081525081525081526020016040518060a001604052806040518060400160405280600781526020017f234246333641380000000000000000000000000000000000000000000000000081525081526020016040518060400160405280600781526020017f234439353538350000000000000000000000000000000000000000000000000081525081526020016040518060400160405280600781526020017f233430324342460000000000000000000000000000000000000000000000000081525081526020016040518060400160405280600781526020017f233334313934300000000000000000000000000000000000000000000000000081525081526020016040518060400160405280600781526020017f233330353442460000000000000000000000000000000000000000000000000081525081525081526020016040518060a001604052806040518060400160405280600781526020017f234246333641380000000000000000000000000000000000000000000000000081525081526020016040518060400160405280600781526020017f234439353538350000000000000000000000000000000000000000000000000081525081526020016040518060400160405280600781526020017f233430324342460000000000000000000000000000000000000000000000000081525081526020016040518060400160405280600781526020017f233330353442460000000000000000000000000000000000000000000000000081525081526020016040518060400160405280600781526020017f233334313934300000000000000000000000000000000000000000000000000081525081525081526020016040518060a001604052806040518060400160405280600781526020017f234246333641380000000000000000000000000000000000000000000000000081525081526020016040518060400160405280600781526020017f234439353538350000000000000000000000000000000000000000000000000081525081526020016040518060400160405280600781526020017f233330353442460000000000000000000000000000000000000000000000000081525081526020016040518060400160405280600781526020017f233334313934300000000000000000000000000000000000000000000000000081525081526020016040518060400160405280600781526020017f233430324342460000000000000000000000000000000000000000000000000081525081525081526020016040518060a001604052806040518060400160405280600781526020017f234246333641380000000000000000000000000000000000000000000000000081525081526020016040518060400160405280600781526020017f234439353538350000000000000000000000000000000000000000000000000081525081526020016040518060400160405280600781526020017f233330353442460000000000000000000000000000000000000000000000000081525081526020016040518060400160405280600781526020017f233430324342460000000000000000000000000000000000000000000000000081525081526020016040518060400160405280600781526020017f233334313934300000000000000000000000000000000000000000000000000081525081525081526020016040518060a001604052806040518060400160405280600781526020017f234246333641380000000000000000000000000000000000000000000000000081525081526020016040518060400160405280600781526020017f234439353538350000000000000000000000000000000000000000000000000081525081526020016040518060400160405280600781526020017f233334313934300000000000000000000000000000000000000000000000000081525081526020016040518060400160405280600781526020017f233430324342460000000000000000000000000000000000000000000000000081525081526020016040518060400160405280600781526020017f233330353442460000000000000000000000000000000000000000000000000081525081525081526020016040518060a001604052806040518060400160405280600781526020017f234246333641380000000000000000000000000000000000000000000000000081525081526020016040518060400160405280600781526020017f234439353538350000000000000000000000000000000000000000000000000081525081526020016040518060400160405280600781526020017f233334313934300000000000000000000000000000000000000000000000000081525081526020016040518060400160405280600781526020017f233330353442460000000000000000000000000000000000000000000000000081525081526020016040518060400160405280600781526020017f233430324342460000000000000000000000000000000000000000000000000081525081525081526020016040518060a001604052806040518060400160405280600781526020017f233338424446320000000000000000000000000000000000000000000000000081525081526020016040518060400160405280600781526020017f234632414537320000000000000000000000000000000000000000000000000081525081526020016040518060400160405280600781526020017f233644324244340000000000000000000000000000000000000000000000000081525081526020016040518060400160405280600781526020017f234439373934310000000000000000000000000000000000000000000000000081525081526020016040518060400160405280600781526020017f233044423943430000000000000000000000000000000000000000000000000081525081525081526020016040518060a001604052806040518060400160405280600781526020017f233338424446320000000000000000000000000000000000000000000000000081525081526020016040518060400160405280600781526020017f234632414537320000000000000000000000000000000000000000000000000081525081526020016040518060400160405280600781526020017f233644324244340000000000000000000000000000000000000000000000000081525081526020016040518060400160405280600781526020017f233044423943430000000000000000000000000000000000000000000000000081525081526020016040518060400160405280600781526020017f234439373934310000000000000000000000000000000000000000000000000081525081525081526020016040518060a001604052806040518060400160405280600781526020017f233338424446320000000000000000000000000000000000000000000000000081525081526020016040518060400160405280600781526020017f234632414537320000000000000000000000000000000000000000000000000081525081526020016040518060400160405280600781526020017f233044423943430000000000000000000000000000000000000000000000000081525081526020016040518060400160405280600781526020017f234439373934310000000000000000000000000000000000000000000000000081525081526020016040518060400160405280600781526020017f233644324244340000000000000000000000000000000000000000000000000081525081525081526020016040518060a001604052806040518060400160405280600781526020017f233338424446320000000000000000000000000000000000000000000000000081525081526020016040518060400160405280600781526020017f234632414537320000000000000000000000000000000000000000000000000081525081526020016040518060400160405280600781526020017f233044423943430000000000000000000000000000000000000000000000000081525081526020016040518060400160405280600781526020017f233644324244340000000000000000000000000000000000000000000000000081525081526020016040518060400160405280600781526020017f234439373934310000000000000000000000000000000000000000000000000081525081525081526020016040518060a001604052806040518060400160405280600781526020017f233338424446320000000000000000000000000000000000000000000000000081525081526020016040518060400160405280600781526020017f234632414537320000000000000000000000000000000000000000000000000081525081526020016040518060400160405280600781526020017f233044423943430000000000000000000000000000000000000000000000000081525081526020016040518060400160405280600781526020017f234439373934310000000000000000000000000000000000000000000000000081525081526020016040518060400160405280600781526020017f233644324244340000000000000000000000000000000000000000000000000081525081525081526020016040518060a001604052806040518060400160405280600781526020017f233338424446320000000000000000000000000000000000000000000000000081525081526020016040518060400160405280600781526020017f234632414537320000000000000000000000000000000000000000000000000081525081526020016040518060400160405280600781526020017f233044423943430000000000000000000000000000000000000000000000000081525081526020016040518060400160405280600781526020017f233644324244340000000000000000000000000000000000000000000000000081525081526020016040518060400160405280600781526020017f234439373934310000000000000000000000000000000000000000000000000081525081525081526020016040518060a001604052806040518060400160405280600781526020017f234632364231440000000000000000000000000000000000000000000000000081525081526020016040518060400160405280600781526020017f233844354546320000000000000000000000000000000000000000000000000081525081526020016040518060400160405280600781526020017f234632373743370000000000000000000000000000000000000000000000000081525081526020016040518060400160405280600781526020017f233542343446320000000000000000000000000000000000000000000000000081525081526020016040518060400160405280600781526020017f234632453835320000000000000000000000000000000000000000000000000081525081525081526020016040518060a001604052806040518060400160405280600781526020017f234632364231440000000000000000000000000000000000000000000000000081525081526020016040518060400160405280600781526020017f233844354546320000000000000000000000000000000000000000000000000081525081526020016040518060400160405280600781526020017f234632373743370000000000000000000000000000000000000000000000000081525081526020016040518060400160405280600781526020017f234632453835320000000000000000000000000000000000000000000000000081525081526020016040518060400160405280600781526020017f233542343446320000000000000000000000000000000000000000000000000081525081525081526020016040518060a001604052806040518060400160405280600781526020017f234632364231440000000000000000000000000000000000000000000000000081525081526020016040518060400160405280600781526020017f233844354546320000000000000000000000000000000000000000000000000081525081526020016040518060400160405280600781526020017f233542343446320000000000000000000000000000000000000000000000000081525081526020016040518060400160405280600781526020017f234632373743370000000000000000000000000000000000000000000000000081525081526020016040518060400160405280600781526020017f234632453835320000000000000000000000000000000000000000000000000081525081525081526020016040518060a001604052806040518060400160405280600781526020017f234632364231440000000000000000000000000000000000000000000000000081525081526020016040518060400160405280600781526020017f233844354546320000000000000000000000000000000000000000000000000081525081526020016040518060400160405280600781526020017f233542343446320000000000000000000000000000000000000000000000000081525081526020016040518060400160405280600781526020017f234632453835320000000000000000000000000000000000000000000000000081525081526020016040518060400160405280600781526020017f234632373743370000000000000000000000000000000000000000000000000081525081525081526020016040518060a001604052806040518060400160405280600781526020017f234632364231440000000000000000000000000000000000000000000000000081525081526020016040518060400160405280600781526020017f233844354546320000000000000000000000000000000000000000000000000081525081526020016040518060400160405280600881526020017f234632453835322000000000000000000000000000000000000000000000000081525081526020016040518060400160405280600781526020017f233542343446320000000000000000000000000000000000000000000000000081525081526020016040518060400160405280600781526020017f234632373743370000000000000000000000000000000000000000000000000081525081525081526020016040518060a001604052806040518060400160405280600781526020017f234632364231440000000000000000000000000000000000000000000000000081525081526020016040518060400160405280600781526020017f233844354546320000000000000000000000000000000000000000000000000081525081526020016040518060400160405280600881526020017f234632453835322000000000000000000000000000000000000000000000000081525081526020016040518060400160405280600881526020017f232046323737433700000000000000000000000000000000000000000000000081525081526020016040518060400160405280600781526020017f233542343446320000000000000000000000000000000000000000000000000081525081525081526020016040518060a001604052806040518060400160405280600781526020017f233634353838430000000000000000000000000000000000000000000000000081525081526020016040518060400160405280600781526020017f234145453646320000000000000000000000000000000000000000000000000081525081526020016040518060400160405280600781526020017f234134393644390000000000000000000000000000000000000000000000000081525081526020016040518060400160405280600781526020017f233733353634350000000000000000000000000000000000000000000000000081525081526020016040518060400160405280600781526020017f234632413741370000000000000000000000000000000000000000000000000081525081525081526020016040518060a001604052806040518060400160405280600781526020017f233634353838430000000000000000000000000000000000000000000000000081525081526020016040518060400160405280600781526020017f234145453646320000000000000000000000000000000000000000000000000081525081526020016040518060400160405280600781526020017f234134393644390000000000000000000000000000000000000000000000000081525081526020016040518060400160405280600781526020017f233733353634350000000000000000000000000000000000000000000000000081525081526020016040518060400160405280600781526020017f234632413741370000000000000000000000000000000000000000000000000081525081525081526020016040518060a001604052806040518060400160405280600781526020017f233634353838430000000000000000000000000000000000000000000000000081525081526020016040518060400160405280600781526020017f234145453646320000000000000000000000000000000000000000000000000081525081526020016040518060400160405280600881526020017f234632413741372000000000000000000000000000000000000000000000000081525081526020016040518060400160405280600781526020017f233733353634350000000000000000000000000000000000000000000000000081525081526020016040518060400160405280600781526020017f234134393644390000000000000000000000000000000000000000000000000081525081525081526020016040518060a001604052806040518060400160405280600781526020017f233634353838430000000000000000000000000000000000000000000000000081525081526020016040518060400160405280600781526020017f234145453646320000000000000000000000000000000000000000000000000081525081526020016040518060400160405280600881526020017f234632413741372000000000000000000000000000000000000000000000000081525081526020016040518060400160405280600781526020017f234134393644390000000000000000000000000000000000000000000000000081525081526020016040518060400160405280600781526020017f233733353634350000000000000000000000000000000000000000000000000081525081525081526020016040518060a001604052806040518060400160405280600781526020017f233634353838430000000000000000000000000000000000000000000000000081525081526020016040518060400160405280600781526020017f234145453646320000000000000000000000000000000000000000000000000081525081526020016040518060400160405280600781526020017f234632413741370000000000000000000000000000000000000000000000000081525081526020016040518060400160405280600781526020017f233733353634350000000000000000000000000000000000000000000000000081525081526020016040518060400160405280600781526020017f234134393644390000000000000000000000000000000000000000000000000081525081525081526020016040518060a001604052806040518060400160405280600781526020017f233634353838430000000000000000000000000000000000000000000000000081525081526020016040518060400160405280600781526020017f234145453646320000000000000000000000000000000000000000000000000081525081526020016040518060400160405280600781526020017f234632413741370000000000000000000000000000000000000000000000000081525081526020016040518060400160405280600781526020017f234134393644390000000000000000000000000000000000000000000000000081525081526020016040518060400160405280600781526020017f233733353634350000000000000000000000000000000000000000000000000081525081525081526020016040518060a001604052806040518060400160405280600781526020017f233733323933370000000000000000000000000000000000000000000000000081525081526020016040518060400160405280600781526020017f234632453243450000000000000000000000000000000000000000000000000081525081526020016040518060400160405280600781526020017f234246394438410000000000000000000000000000000000000000000000000081525081526020016040518060400160405280600781526020017f233944334536300000000000000000000000000000000000000000000000000081525081526020016040518060400160405280600781526020017f234243363836380000000000000000000000000000000000000000000000000081525081525081526020016040518060a001604052806040518060400160405280600781526020017f233733323933370000000000000000000000000000000000000000000000000081525081526020016040518060400160405280600781526020017f234632453243450000000000000000000000000000000000000000000000000081525081526020016040518060400160405280600781526020017f234246394438410000000000000000000000000000000000000000000000000081525081526020016040518060400160405280600781526020017f234243363836380000000000000000000000000000000000000000000000000081525081526020016040518060400160405280600781526020017f233944334536300000000000000000000000000000000000000000000000000081525081525081526020016040518060a001604052806040518060400160405280600781526020017f233733323933370000000000000000000000000000000000000000000000000081525081526020016040518060400160405280600781526020017f234632453243450000000000000000000000000000000000000000000000000081525081526020016040518060400160405280600781526020017f233944334536300000000000000000000000000000000000000000000000000081525081526020016040518060400160405280600781526020017f234246394438410000000000000000000000000000000000000000000000000081525081526020016040518060400160405280600781526020017f234243363836380000000000000000000000000000000000000000000000000081525081525081526020016040518060a001604052806040518060400160405280600781526020017f233733323933370000000000000000000000000000000000000000000000000081525081526020016040518060400160405280600781526020017f234632453243450000000000000000000000000000000000000000000000000081525081526020016040518060400160405280600781526020017f233944334536300000000000000000000000000000000000000000000000000081525081526020016040518060400160405280600781526020017f234243363836380000000000000000000000000000000000000000000000000081525081526020016040518060400160405280600781526020017f2342463944384100000000000000000000000000000000000000000000000000815250815250815250600790604062004d659291906200514d565b506040518060600160405280604051806105a0016040528061056781526020016200a69d61056791398152602001604051806104c0016040528061049a81526020016200af7661049a91398152602001604051806102a0016040528061026d81526020016200ac2861026d913981525061014790600362004de8929190620051a5565b506040518061010001604052806040518060600160405280600060ff168152602001600160ff168152602001600260ff1681525081526020016040518060600160405280600060ff168152602001600260ff168152602001600160ff1681525081526020016040518060600160405280600160ff168152602001600060ff168152602001600260ff1681525081526020016040518060600160405280600160ff168152602001600260ff168152602001600060ff1681525081526020016040518060600160405280600260ff168152602001600060ff168152602001600160ff1681525081526020016040518060600160405280600260ff168152602001600160ff168152602001600060ff1681525081526020016040518060600160405280600060ff168152602001600160ff168152602001600260ff1681525081526020016040518060600160405280600160ff168152602001600060ff168152602001600260ff1681525081525061014a90600862004f66929190620051ff565b506040518061010001604052806040518060600160405280603981526020016200ae956039913981526020016040518060600160405280602681526020016200aef86026913981526020016040518060400160405280602081526020017f52656d656d6265722074686174206375726174696f6e206973207269736b792e81525081526020016040518060600160405280602181526020016200af1e6021913981526020016040518060600160405280603781526020016200af3f6037913981526020016040518060600160405280602a81526020016200aece602a913981526020016040518060600160405280602481526020016200ac046024913981526020016040518060600160405280602a81526020016200aece602a91398152506101529060086200509892919062005254565b50348015620050a657600080fd5b506040518060400160405280600a81526020017f4d657461666963617465000000000000000000000000000000000000000000008152506040518060400160405280600381526020017f4d4654000000000000000000000000000000000000000000000000000000000081525081600090805190602001906200512b929190620052ae565b50806001908051906020019062005144929190620052ae565b50505062005598565b826040600502810192821562005192579160200282015b828111156200519157825182906005620051809291906200533f565b509160200191906005019062005164565b5b509050620051a1919062005399565b5090565b8260038101928215620051ec579160200282015b82811115620051eb578251829080519060200190620051da929190620052ae565b5091602001919060010190620051b9565b5b509050620051fb9190620053c1565b5090565b826008810192821562005241579160200282015b8281111562005240578251829060036200522f929190620053e9565b509160200191906001019062005213565b5b5090506200525091906200548a565b5090565b82600881019282156200529b579160200282015b828111156200529a57825182908051906020019062005289929190620052ae565b509160200191906001019062005268565b5b509050620052aa9190620053c1565b5090565b828054620052bc9062005533565b90600052602060002090601f016020900481019282620052e057600085556200532c565b82601f10620052fb57805160ff19168380011785556200532c565b828001600101855582156200532c579182015b828111156200532b5782518255916020019190600101906200530e565b5b5090506200533b9190620054b2565b5090565b826005810192821562005386579160200282015b828111156200538557825182908051906020019062005374929190620052ae565b509160200191906001019062005353565b5b509050620053959190620053c1565b5090565b5b80821115620053bd5760008181620053b39190620054d1565b506005016200539a565b5090565b5b80821115620053e55760008181620053db9190620054e6565b50600101620053c2565b5090565b826003601f01602090048101928215620054775791602002820160005b838211156200544657835183826101000a81548160ff021916908360ff160217905550926020019260010160208160000104928301926001030262005406565b8015620054755782816101000a81549060ff021916905560010160208160000104928301926001030262005446565b505b509050620054869190620054b2565b5090565b5b80821115620054ae5760008181620054a491906200552c565b506001016200548b565b5090565b5b80821115620054cd576000816000905550600101620054b3565b5090565b508060050190620054e39190620053c1565b50565b508054620054f49062005533565b6000825580601f1062005508575062005529565b601f016020900490600052602060002090810190620055289190620054b2565b5b50565b5060009055565b600060028204905060018216806200554c57607f821691505b6020821081141562005563576200556262005569565b5b50919050565b7f4e487b7100000000000000000000000000000000000000000000000000000000600052602260045260246000fd5b6150f580620055a86000396000f3fe608060405234801561001057600080fd5b50600436106101165760003560e01c80635e57966d116100a2578063a22cb46511610071578063a22cb4651461031a578063b88d4fde14610336578063c75440e114610352578063c87b56dd14610382578063e985e9c5146103b257610116565b80635e57966d1461026c5780636352211e1461029c57806370a08231146102cc57806395d89b41146102fc57610116565b80631249c58b116100e95780631249c58b146101b557806323b872dd146101d3578063277ecfbb146101ef578063355e88c51461022057806342842e0e1461025057610116565b806301ffc9a71461011b57806306fdde031461014b578063081812fc14610169578063095ea7b314610199575b600080fd5b61013560048036038101906101309190612cf5565b6103e2565b6040516101429190613949565b60405180910390f35b6101536104c4565b6040516101609190613964565b60405180910390f35b610183600480360381019061017e9190612d47565b610556565b60405161019091906138b9565b60405180910390f35b6101b360048036038101906101ae9190612cb9565b6105db565b005b6101bd6106f3565b6040516101ca9190613ba6565b60405180910390f35b6101ed60048036038101906101e89190612bb3565b6107fd565b005b61020960048036038101906102049190612d47565b61085d565b604051610217929190613920565b60405180910390f35b61023a60048036038101906102359190612d70565b6108a2565b6040516102479190613964565b60405180910390f35b61026a60048036038101906102659190612bb3565b610fff565b005b61028660048036038101906102819190612b4e565b61101f565b6040516102939190613964565b60405180910390f35b6102b660048036038101906102b19190612d47565b611049565b6040516102c391906138b9565b60405180910390f35b6102e660048036038101906102e19190612b4e565b6110fb565b6040516102f39190613ba6565b60405180910390f35b6103046111b3565b6040516103119190613964565b60405180910390f35b610334600480360381019061032f9190612c7d565b611245565b005b610350600480360381019061034b9190612c02565b6113c6565b005b61036c60048036038101906103679190612d47565b611428565b6040516103799190613964565b60405180910390f35b61039c60048036038101906103979190612d47565b6118e6565b6040516103a99190613964565b60405180910390f35b6103cc60048036038101906103c79190612b77565b6119f2565b6040516103d99190613949565b60405180910390f35b60007f80ac58cd000000000000000000000000000000000000000000000000000000007bffffffffffffffffffffffffffffffffffffffffffffffffffffffff1916827bffffffffffffffffffffffffffffffffffffffffffffffffffffffff191614806104ad57507f5b5e139f000000000000000000000000000000000000000000000000000000007bffffffffffffffffffffffffffffffffffffffffffffffffffffffff1916827bffffffffffffffffffffffffffffffffffffffffffffffffffffffff1916145b806104bd57506104bc82611a86565b5b9050919050565b6060600080546104d390613e97565b80601f01602080910402602001604051908101604052809291908181526020018280546104ff90613e97565b801561054c5780601f106105215761010080835404028352916020019161054c565b820191906000526020600020905b81548152906001019060200180831161052f57829003601f168201915b5050505050905090565b600061056182611af0565b6105a0576040517f08c379a000000000000000000000000000000000000000000000000000000000815260040161059790613ac6565b60405180910390fd5b6004600083815260200190815260200160002060009054906101000a900473ffffffffffffffffffffffffffffffffffffffff169050919050565b60006105e682611049565b90508073ffffffffffffffffffffffffffffffffffffffff168373ffffffffffffffffffffffffffffffffffffffff161415610657576040517f08c379a000000000000000000000000000000000000000000000000000000000815260040161064e90613b26565b60405180910390fd5b8073ffffffffffffffffffffffffffffffffffffffff16610676611b5c565b73ffffffffffffffffffffffffffffffffffffffff1614806106a557506106a48161069f611b5c565b6119f2565b5b6106e4576040517f08c379a00000000000000000000000000000000000000000000000000000000081526004016106db90613a46565b60405180910390fd5b6106ee8383611b64565b505050565b6000600654905060016006546107099190613c5a565b600681905550610717612a38565b33816000019073ffffffffffffffffffffffffffffffffffffffff16908173ffffffffffffffffffffffffffffffffffffffff16815250508142336040516020016107649392919061387c565b6040516020818303038152906040528051906020012060001c8160200181815250508061015a600084815260200190815260200160002060008201518160000160006101000a81548173ffffffffffffffffffffffffffffffffffffffff021916908373ffffffffffffffffffffffffffffffffffffffff160217905550602082015181600101559050506107f93383611c1d565b5090565b61080e610808611b5c565b82611deb565b61084d576040517f08c379a000000000000000000000000000000000000000000000000000000000815260040161084490613b66565b60405180910390fd5b610858838383611ec9565b505050565b61015a6020528060005260406000206000915090508060000160009054906101000a900473ffffffffffffffffffffffffffffffffffffffff16908060010154905082565b6060600060078460ff16604081106108e3577f4e487b7100000000000000000000000000000000000000000000000000000000600052603260045260246000fd5b60050201600260058110610920577f4e487b7100000000000000000000000000000000000000000000000000000000600052603260045260246000fd5b01805461092c90613e97565b80601f016020809104026020016040519081016040528092919081815260200182805461095890613e97565b80156109a55780601f1061097a576101008083540402835291602001916109a5565b820191906000526020600020905b81548152906001019060200180831161098857829003601f168201915b50505050509050600060078560ff16604081106109eb577f4e487b7100000000000000000000000000000000000000000000000000000000600052603260045260246000fd5b60050201600360058110610a28577f4e487b7100000000000000000000000000000000000000000000000000000000600052603260045260246000fd5b018054610a3490613e97565b80601f0160208091040260200160405190810160405280929190818152602001828054610a6090613e97565b8015610aad5780601f10610a8257610100808354040283529160200191610aad565b820191906000526020600020905b815481529060010190602001808311610a9057829003601f168201915b50505050509050600060078660ff1660408110610af3577f4e487b7100000000000000000000000000000000000000000000000000000000600052603260045260246000fd5b60050201600460058110610b30577f4e487b7100000000000000000000000000000000000000000000000000000000600052603260045260246000fd5b018054610b3c90613e97565b80601f0160208091040260200160405190810160405280929190818152602001828054610b6890613e97565b8015610bb55780601f10610b8a57610100808354040283529160200191610bb5565b820191906000526020600020905b815481529060010190602001808311610b9857829003601f168201915b50505050509050600061014761014a8760ff1660088110610bff577f4e487b7100000000000000000000000000000000000000000000000000000000600052603260045260246000fd5b01600060038110610c39577f4e487b7100000000000000000000000000000000000000000000000000000000600052603260045260246000fd5b602091828204019190069054906101000a900460ff1660ff1660038110610c89577f4e487b7100000000000000000000000000000000000000000000000000000000600052603260045260246000fd5b018054610c9590613e97565b80601f0160208091040260200160405190810160405280929190818152602001828054610cc190613e97565b8015610d0e5780601f10610ce357610100808354040283529160200191610d0e565b820191906000526020600020905b815481529060010190602001808311610cf157829003601f168201915b50505050509050600061014761014a8860ff1660088110610d58577f4e487b7100000000000000000000000000000000000000000000000000000000600052603260045260246000fd5b01600160038110610d92577f4e487b7100000000000000000000000000000000000000000000000000000000600052603260045260246000fd5b602091828204019190069054906101000a900460ff1660ff1660038110610de2577f4e487b7100000000000000000000000000000000000000000000000000000000600052603260045260246000fd5b018054610dee90613e97565b80601f0160208091040260200160405190810160405280929190818152602001828054610e1a90613e97565b8015610e675780601f10610e3c57610100808354040283529160200191610e67565b820191906000526020600020905b815481529060010190602001808311610e4a57829003601f168201915b50505050509050600061014761014a8960ff1660088110610eb1577f4e487b7100000000000000000000000000000000000000000000000000000000600052603260045260246000fd5b01600260038110610eeb577f4e487b7100000000000000000000000000000000000000000000000000000000600052603260045260246000fd5b602091828204019190069054906101000a900460ff1660ff1660038110610f3b577f4e487b7100000000000000000000000000000000000000000000000000000000600052603260045260246000fd5b018054610f4790613e97565b80601f0160208091040260200160405190810160405280929190818152602001828054610f7390613e97565b8015610fc05780601f10610f9557610100808354040283529160200191610fc0565b820191906000526020600020905b815481529060010190602001808311610fa357829003601f168201915b50505050509050858386848785604051602001610fe2969594939291906137a0565b604051602081830303815290604052965050505050505092915050565b61101a838383604051806020016040528060008152506113c6565b505050565b60606110428273ffffffffffffffffffffffffffffffffffffffff166014612125565b9050919050565b6000806002600084815260200190815260200160002060009054906101000a900473ffffffffffffffffffffffffffffffffffffffff169050600073ffffffffffffffffffffffffffffffffffffffff168173ffffffffffffffffffffffffffffffffffffffff1614156110f2576040517f08c379a00000000000000000000000000000000000000000000000000000000081526004016110e990613a86565b60405180910390fd5b80915050919050565b60008073ffffffffffffffffffffffffffffffffffffffff168273ffffffffffffffffffffffffffffffffffffffff16141561116c576040517f08c379a000000000000000000000000000000000000000000000000000000000815260040161116390613a66565b60405180910390fd5b600360008373ffffffffffffffffffffffffffffffffffffffff1673ffffffffffffffffffffffffffffffffffffffff168152602001908152602001600020549050919050565b6060600180546111c290613e97565b80601f01602080910402602001604051908101604052809291908181526020018280546111ee90613e97565b801561123b5780601f106112105761010080835404028352916020019161123b565b820191906000526020600020905b81548152906001019060200180831161121e57829003601f168201915b5050505050905090565b61124d611b5c565b73ffffffffffffffffffffffffffffffffffffffff168273ffffffffffffffffffffffffffffffffffffffff1614156112bb576040517f08c379a00000000000000000000000000000000000000000000000000000000081526004016112b290613a06565b60405180910390fd5b80600560006112c8611b5c565b73ffffffffffffffffffffffffffffffffffffffff1673ffffffffffffffffffffffffffffffffffffffff16815260200190815260200160002060008473ffffffffffffffffffffffffffffffffffffffff1673ffffffffffffffffffffffffffffffffffffffff16815260200190815260200160002060006101000a81548160ff0219169083151502179055508173ffffffffffffffffffffffffffffffffffffffff16611375611b5c565b73ffffffffffffffffffffffffffffffffffffffff167f17307eab39ab6107e8899845ad3d59bd9653f200f220920489ca2b5937696c31836040516113ba9190613949565b60405180910390a35050565b6113d76113d1611b5c565b83611deb565b611416576040517f08c379a000000000000000000000000000000000000000000000000000000000815260040161140d90613b66565b60405180910390fd5b6114228484848461241f565b50505050565b6060600061146c61015a600085815260200190815260200160002060000160009054906101000a900473ffffffffffffffffffffffffffffffffffffffff1661101f565b905060006114798461247b565b905060006040518060400160405280600481526020017f3235303100000000000000000000000000000000000000000000000000000000815250905060006040518060400160405280600281526020017f3231000000000000000000000000000000000000000000000000000000000000815250905060006040518060400160405280600a81526020017f323032302e31312e3131000000000000000000000000000000000000000000008152509050600061015a60008981526020019081526020016000206001015460001b6040516020016115569190613553565b604051602081830303815290604052905060006004611576836001612628565b6115809190613ce1565b905060006020611591846000612628565b61159b9190613ce1565b9050600060206115ac856002612628565b6115b69190613ce1565b905060006101528360ff16600881106115f8577f4e487b7100000000000000000000000000000000000000000000000000000000600052603260045260246000fd5b01805461160490613e97565b80601f016020809104026020016040519081016040528092919081815260200182805461163090613e97565b801561167d5780601f106116525761010080835404028352916020019161167d565b820191906000526020600020905b81548152906001019060200180831161166057829003601f168201915b50505050509050600060078560ff16604081106116c3577f4e487b7100000000000000000000000000000000000000000000000000000000600052603260045260246000fd5b60050201600060058110611700577f4e487b7100000000000000000000000000000000000000000000000000000000600052603260045260246000fd5b01805461170c90613e97565b80601f016020809104026020016040519081016040528092919081815260200182805461173890613e97565b80156117855780601f1061175a57610100808354040283529160200191611785565b820191906000526020600020905b81548152906001019060200180831161176857829003601f168201915b50505050509050600060078660ff16604081106117cb577f4e487b7100000000000000000000000000000000000000000000000000000000600052603260045260246000fd5b60050201600160058110611808577f4e487b7100000000000000000000000000000000000000000000000000000000600052603260045260246000fd5b01805461181490613e97565b80601f016020809104026020016040519081016040528092919081815260200182805461184090613e97565b801561188d5780601f106118625761010080835404028352916020019161188d565b820191906000526020600020905b81548152906001019060200180831161187057829003601f168201915b5050505050905060006118a087866108a2565b905082828e8e8e8e8e8a886040516020016118c3999897969594939291906135d6565b6040516020818303038152906040529d5050505050505050505050505050919050565b60606118f182611af0565b611930576040517f08c379a000000000000000000000000000000000000000000000000000000000815260040161192790613b06565b60405180910390fd5b60006040518060400160405280601e81526020017f5468652047726170682043757261746f72204d6574616669636174696f6e00008152509050600060405180610120016040528060fb8152602001614fc560fb91399050600061199b61199686611428565b6126de565b90506119c98383836040516020016119b59392919061356e565b6040516020818303038152906040526126de565b6040516020016119d9919061377e565b6040516020818303038152906040529350505050919050565b6000600560008473ffffffffffffffffffffffffffffffffffffffff1673ffffffffffffffffffffffffffffffffffffffff16815260200190815260200160002060008373ffffffffffffffffffffffffffffffffffffffff1673ffffffffffffffffffffffffffffffffffffffff16815260200190815260200160002060009054906101000a900460ff16905092915050565b60007f01ffc9a7000000000000000000000000000000000000000000000000000000007bffffffffffffffffffffffffffffffffffffffffffffffffffffffff1916827bffffffffffffffffffffffffffffffffffffffffffffffffffffffff1916149050919050565b60008073ffffffffffffffffffffffffffffffffffffffff166002600084815260200190815260200160002060009054906101000a900473ffffffffffffffffffffffffffffffffffffffff1673ffffffffffffffffffffffffffffffffffffffff1614159050919050565b600033905090565b816004600083815260200190815260200160002060006101000a81548173ffffffffffffffffffffffffffffffffffffffff021916908373ffffffffffffffffffffffffffffffffffffffff160217905550808273ffffffffffffffffffffffffffffffffffffffff16611bd783611049565b73ffffffffffffffffffffffffffffffffffffffff167f8c5be1e5ebec7d5bd14f71427d1e84f3dd0314c0f7b2291e5b200ac8c7c3b92560405160405180910390a45050565b600073ffffffffffffffffffffffffffffffffffffffff168273ffffffffffffffffffffffffffffffffffffffff161415611c8d576040517f08c379a0000000000000000000000000000000000000000000000000000000008152600401611c8490613aa6565b60405180910390fd5b611c9681611af0565b15611cd6576040517f08c379a0000000000000000000000000000000000000000000000000000000008152600401611ccd906139c6565b60405180910390fd5b611ce260008383612889565b6001600360008473ffffffffffffffffffffffffffffffffffffffff1673ffffffffffffffffffffffffffffffffffffffff1681526020019081526020016000206000828254611d329190613c5a565b92505081905550816002600083815260200190815260200160002060006101000a81548173ffffffffffffffffffffffffffffffffffffffff021916908373ffffffffffffffffffffffffffffffffffffffff160217905550808273ffffffffffffffffffffffffffffffffffffffff16600073ffffffffffffffffffffffffffffffffffffffff167fddf252ad1be2c89b69c2b068fc378daa952ba7f163c4a11628f55a4df523b3ef60405160405180910390a45050565b6000611df682611af0565b611e35576040517f08c379a0000000000000000000000000000000000000000000000000000000008152600401611e2c90613a26565b60405180910390fd5b6000611e4083611049565b90508073ffffffffffffffffffffffffffffffffffffffff168473ffffffffffffffffffffffffffffffffffffffff161480611eaf57508373ffffffffffffffffffffffffffffffffffffffff16611e9784610556565b73ffffffffffffffffffffffffffffffffffffffff16145b80611ec05750611ebf81856119f2565b5b91505092915050565b8273ffffffffffffffffffffffffffffffffffffffff16611ee982611049565b73ffffffffffffffffffffffffffffffffffffffff1614611f3f576040517f08c379a0000000000000000000000000000000000000000000000000000000008152600401611f3690613ae6565b60405180910390fd5b600073ffffffffffffffffffffffffffffffffffffffff168273ffffffffffffffffffffffffffffffffffffffff161415611faf576040517f08c379a0000000000000000000000000000000000000000000000000000000008152600401611fa6906139e6565b60405180910390fd5b611fba838383612889565b611fc5600082611b64565b6001600360008573ffffffffffffffffffffffffffffffffffffffff1673ffffffffffffffffffffffffffffffffffffffff16815260200190815260200160002060008282546120159190613d6c565b925050819055506001600360008473ffffffffffffffffffffffffffffffffffffffff1673ffffffffffffffffffffffffffffffffffffffff168152602001908152602001600020600082825461206c9190613c5a565b92505081905550816002600083815260200190815260200160002060006101000a81548173ffffffffffffffffffffffffffffffffffffffff021916908373ffffffffffffffffffffffffffffffffffffffff160217905550808273ffffffffffffffffffffffffffffffffffffffff168473ffffffffffffffffffffffffffffffffffffffff167fddf252ad1be2c89b69c2b068fc378daa952ba7f163c4a11628f55a4df523b3ef60405160405180910390a4505050565b6060600060028360026121389190613d12565b6121429190613c5a565b67ffffffffffffffff811115612181577f4e487b7100000000000000000000000000000000000000000000000000000000600052604160045260246000fd5b6040519080825280601f01601f1916602001820160405280156121b35781602001600182028036833780820191505090505b5090507f300000000000000000000000000000000000000000000000000000000000000081600081518110612211577f4e487b7100000000000000000000000000000000000000000000000000000000600052603260045260246000fd5b60200101907effffffffffffffffffffffffffffffffffffffffffffffffffffffffffffff1916908160001a9053507f78000000000000000000000000000000000000000000000000000000000000008160018151811061229b577f4e487b7100000000000000000000000000000000000000000000000000000000600052603260045260246000fd5b60200101907effffffffffffffffffffffffffffffffffffffffffffffffffffffffffffff1916908160001a905350600060018460026122db9190613d12565b6122e59190613c5a565b90505b60018111156123d1577f3031323334353637383961626364656600000000000000000000000000000000600f86166010811061234d577f4e487b7100000000000000000000000000000000000000000000000000000000600052603260045260246000fd5b1a60f81b82828151811061238a577f4e487b7100000000000000000000000000000000000000000000000000000000600052603260045260246000fd5b60200101907effffffffffffffffffffffffffffffffffffffffffffffffffffffffffffff1916908160001a905350600485901c9450806123ca90613e6d565b90506122e8565b5060008414612415576040517f08c379a000000000000000000000000000000000000000000000000000000000815260040161240c90613986565b60405180910390fd5b8091505092915050565b61242a848484611ec9565b6124368484848461288e565b612475576040517f08c379a000000000000000000000000000000000000000000000000000000000815260040161246c906139a6565b60405180910390fd5b50505050565b606060008214156124c3576040518060400160405280600181526020017f30000000000000000000000000000000000000000000000000000000000000008152509050612623565b600082905060005b600082146124f55780806124de90613efa565b915050600a826124ee9190613cb0565b91506124cb565b60008167ffffffffffffffff811115612537577f4e487b7100000000000000000000000000000000000000000000000000000000600052604160045260246000fd5b6040519080825280601f01601f1916602001820160405280156125695781602001600182028036833780820191505090505b5090505b6000851461261c576001826125829190613d6c565b9150600a856125919190613f7b565b603061259d9190613c5a565b60f81b8183815181106125d9577f4e487b7100000000000000000000000000000000000000000000000000000000600052603260045260246000fd5b60200101907effffffffffffffffffffffffffffffffffffffffffffffffffffffffffffff1916908160001a905350600a856126159190613cb0565b945061256d565b8093505050505b919050565b6000816001836126389190613c5a565b1015612679576040517f08c379a000000000000000000000000000000000000000000000000000000000815260040161267090613b46565b60405180910390fd5b6001826126869190613c5a565b835110156126c9576040517f08c379a00000000000000000000000000000000000000000000000000000000081526004016126c090613b86565b60405180910390fd5b60008260018501015190508091505092915050565b606060008251141561270157604051806020016040528060008152509050612884565b6000604051806060016040528060408152602001614f8560409139905060006003600285516127309190613c5a565b61273a9190613cb0565b60046127469190613d12565b905060006020826127579190613c5a565b67ffffffffffffffff811115612796577f4e487b7100000000000000000000000000000000000000000000000000000000600052604160045260246000fd5b6040519080825280601f01601f1916602001820160405280156127c85781602001600182028036833780820191505090505b509050818152600183018586518101602084015b81831015612843576003830192508251603f8160121c1685015160f81b8252600182019150603f81600c1c1685015160f81b8252600182019150603f8160061c1685015160f81b8252600182019150603f811685015160f81b8252600182019150506127dc565b60038951066001811461285d576002811461286d57612878565b613d3d60f01b6002830352612878565b603d60f81b60018303525b50505050508093505050505b919050565b505050565b60006128af8473ffffffffffffffffffffffffffffffffffffffff16612a25565b15612a18578373ffffffffffffffffffffffffffffffffffffffff1663150b7a026128d8611b5c565b8786866040518563ffffffff1660e01b81526004016128fa94939291906138d4565b602060405180830381600087803b15801561291457600080fd5b505af192505050801561294557506040513d601f19601f820116820180604052508101906129429190612d1e565b60015b6129c8573d8060008114612975576040519150601f19603f3d011682016040523d82523d6000602084013e61297a565b606091505b506000815114156129c0576040517f08c379a00000000000000000000000000000000000000000000000000000000081526004016129b7906139a6565b60405180910390fd5b805181602001fd5b63150b7a0260e01b7bffffffffffffffffffffffffffffffffffffffffffffffffffffffff1916817bffffffffffffffffffffffffffffffffffffffffffffffffffffffff191614915050612a1d565b600190505b949350505050565b600080823b905060008111915050919050565b6040518060400160405280600073ffffffffffffffffffffffffffffffffffffffff168152602001600081525090565b6000612a7b612a7684613be6565b613bc1565b905082815260208101848484011115612a9357600080fd5b612a9e848285613e2b565b509392505050565b600081359050612ab581614f11565b92915050565b600081359050612aca81614f28565b92915050565b600081359050612adf81614f3f565b92915050565b600081519050612af481614f3f565b92915050565b600082601f830112612b0b57600080fd5b8135612b1b848260208601612a68565b91505092915050565b600081359050612b3381614f56565b92915050565b600081359050612b4881614f6d565b92915050565b600060208284031215612b6057600080fd5b6000612b6e84828501612aa6565b91505092915050565b60008060408385031215612b8a57600080fd5b6000612b9885828601612aa6565b9250506020612ba985828601612aa6565b9150509250929050565b600080600060608486031215612bc857600080fd5b6000612bd686828701612aa6565b9350506020612be786828701612aa6565b9250506040612bf886828701612b24565b9150509250925092565b60008060008060808587031215612c1857600080fd5b6000612c2687828801612aa6565b9450506020612c3787828801612aa6565b9350506040612c4887828801612b24565b925050606085013567ffffffffffffffff811115612c6557600080fd5b612c7187828801612afa565b91505092959194509250565b60008060408385031215612c9057600080fd5b6000612c9e85828601612aa6565b9250506020612caf85828601612abb565b9150509250929050565b60008060408385031215612ccc57600080fd5b6000612cda85828601612aa6565b9250506020612ceb85828601612b24565b9150509250929050565b600060208284031215612d0757600080fd5b6000612d1584828501612ad0565b91505092915050565b600060208284031215612d3057600080fd5b6000612d3e84828501612ae5565b91505092915050565b600060208284031215612d5957600080fd5b6000612d6784828501612b24565b91505092915050565b60008060408385031215612d8357600080fd5b6000612d9185828601612b39565b9250506020612da285828601612b39565b9150509250929050565b612db581613da0565b82525050565b612dcc612dc782613da0565b613f43565b82525050565b612ddb81613db2565b82525050565b612df2612ded82613dbe565b613f55565b82525050565b6000612e0382613c17565b612e0d8185613c2d565b9350612e1d818560208601613e3a565b612e2681614068565b840191505092915050565b6000612e3c82613c22565b612e468185613c3e565b9350612e56818560208601613e3a565b612e5f81614068565b840191505092915050565b6000612e7582613c22565b612e7f8185613c4f565b9350612e8f818560208601613e3a565b80840191505092915050565b6000612ea8603983613c4f565b9150612eb382614086565b603982019050919050565b6000612ecb602083613c3e565b9150612ed6826140d5565b602082019050919050565b6000612eee600983613c4f565b9150612ef9826140fe565b600982019050919050565b6000612f11601c83613c4f565b9150612f1c82614127565b601c82019050919050565b6000612f34603283613c3e565b9150612f3f82614150565b604082019050919050565b6000612f586101e083613c4f565b9150612f638261419f565b6101e082019050919050565b6000612f7c602383613c4f565b9150612f87826143e3565b602382019050919050565b6000612f9f601c83613c3e565b9150612faa82614432565b602082019050919050565b6000612fc2602283613c4f565b9150612fcd8261445b565b602282019050919050565b6000612fe5604383613c4f565b9150612ff0826144aa565b604382019050919050565b6000613008602483613c3e565b91506130138261451f565b604082019050919050565b600061302b601983613c3e565b91506130368261456e565b602082019050919050565b600061304e602883613c4f565b915061305982614597565b602882019050919050565b6000613071602c83613c3e565b915061307c826145e6565b604082019050919050565b6000613094603a83613c4f565b915061309f82614635565b603a82019050919050565b60006130b7603883613c3e565b91506130c282614684565b604082019050919050565b60006130da600483613c4f565b91506130e5826146d3565b600482019050919050565b60006130fd602a83613c3e565b9150613108826146fc565b604082019050919050565b6000613120602983613c3e565b915061312b8261474b565b604082019050919050565b6000613143602b83613c4f565b915061314e8261479a565b602b82019050919050565b6000613166600283613c4f565b9150613171826147e9565b600282019050919050565b6000613189600783613c4f565b915061319482614812565b600782019050919050565b60006131ac602083613c3e565b91506131b78261483b565b602082019050919050565b60006131cf600d83613c4f565b91506131da82614864565b600d82019050919050565b60006131f2602283613c4f565b91506131fd8261488d565b602282019050919050565b6000613215602c83613c3e565b9150613220826148dc565b604082019050919050565b6000613238601283613c4f565b91506132438261492b565b601282019050919050565b600061325b603083613c4f565b915061326682614954565b603082019050919050565b600061327e605583613c4f565b9150613289826149a3565b605582019050919050565b60006132a1602983613c3e565b91506132ac82614a18565b604082019050919050565b60006132c4602f83613c3e565b91506132cf82614a67565b604082019050919050565b60006132e7600483613c4f565b91506132f282614ab6565b600482019050919050565b600061330a604483613c4f565b915061331582614adf565b604482019050919050565b600061332d602d83613c4f565b915061333882614b54565b602d82019050919050565b6000613350602183613c3e565b915061335b82614ba3565b604082019050919050565b6000613373601d83613c4f565b915061337e82614bf2565b601d82019050919050565b6000613396601083613c3e565b91506133a182614c1b565b602082019050919050565b60006133b9600c83613c4f565b91506133c482614c44565b600c82019050919050565b60006133dc603183613c3e565b91506133e782614c6d565b604082019050919050565b60006133ff602183613c4f565b915061340a82614cbc565b602182019050919050565b6000613422601383613c3e565b915061342d82614d0b565b602082019050919050565b6000613445603083613c4f565b915061345082614d34565b603082019050919050565b6000613468602b83613c4f565b915061347382614d83565b602b82019050919050565b600061348b602283613c4f565b915061349682614dd2565b602282019050919050565b60006134ae602183613c4f565b91506134b982614e21565b602182019050919050565b60006134d1600683613c4f565b91506134dc82614e70565b600682019050919050565b60006134f4603b83613c4f565b91506134ff82614e99565b603b82019050919050565b6000613517601a83613c4f565b915061352282614ee8565b601a82019050919050565b61353681613e14565b82525050565b61354d61354882613e14565b613f71565b82525050565b600061355f8284612de1565b60208201915081905092915050565b600061357982612ee1565b91506135858286612e6a565b91506135908261322b565b915061359c8285612e6a565b91506135a7826131c2565b91506135b28261350a565b91506135be8284612e6a565b91506135c982613159565b9150819050949350505050565b60006135e182613271565b91506135ec82613320565b91506135f8828c612e6a565b9150613603826130cd565b915061360e82612fd8565b9150613619826133ac565b9150613625828b612e6a565b915061363082612f04565b915061363b82612f6f565b9150613647828a612e6a565b91506136528261317c565b915061365d826134e7565b915061366882613041565b91506136748289612e6a565b915061367f8261317c565b915061368a82612e9b565b91506136968288612e6a565b91506136a18261317c565b91506136ac82613136565b91506136b88287612e6a565b91506136c38261317c565b91506136ce82613438565b91506136da8286612e6a565b91506136e58261317c565b91506136f0826132fd565b91506136fb82613087565b91506137078285612e6a565b91506137128261317c565b915061371d826133f2565b91506137288261324e565b9150613733826131e5565b915061373e82612f4a565b9150613749826132da565b9150613754826132da565b91506137608284612e6a565b915061376b826134c4565b91508190509a9950505050505050505050565b600061378982613366565b91506137958284612e6a565b915081905092915050565b60006137ab826134a1565b91506137b68261345b565b91506137c28289612e6a565b91506137cd826130cd565b91506137d98288612e6a565b91506137e4826132da565b91506137ef8261347e565b91506137fa8261345b565b91506138068287612e6a565b9150613811826130cd565b915061381d8286612e6a565b9150613828826132da565b915061383382612fb5565b915061383e8261345b565b915061384a8285612e6a565b9150613855826130cd565b91506138618284612e6a565b915061386c826132da565b9150819050979650505050505050565b6000613888828661353c565b602082019150613898828561353c565b6020820191506138a88284612dbb565b601482019150819050949350505050565b60006020820190506138ce6000830184612dac565b92915050565b60006080820190506138e96000830187612dac565b6138f66020830186612dac565b613903604083018561352d565b81810360608301526139158184612df8565b905095945050505050565b60006040820190506139356000830185612dac565b613942602083018461352d565b9392505050565b600060208201905061395e6000830184612dd2565b92915050565b6000602082019050818103600083015261397e8184612e31565b905092915050565b6000602082019050818103600083015261399f81612ebe565b9050919050565b600060208201905081810360008301526139bf81612f27565b9050919050565b600060208201905081810360008301526139df81612f92565b9050919050565b600060208201905081810360008301526139ff81612ffb565b9050919050565b60006020820190508181036000830152613a1f8161301e565b9050919050565b60006020820190508181036000830152613a3f81613064565b9050919050565b60006020820190508181036000830152613a5f816130aa565b9050919050565b60006020820190508181036000830152613a7f816130f0565b9050919050565b60006020820190508181036000830152613a9f81613113565b9050919050565b60006020820190508181036000830152613abf8161319f565b9050919050565b60006020820190508181036000830152613adf81613208565b9050919050565b60006020820190508181036000830152613aff81613294565b9050919050565b60006020820190508181036000830152613b1f816132b7565b9050919050565b60006020820190508181036000830152613b3f81613343565b9050919050565b60006020820190508181036000830152613b5f81613389565b9050919050565b60006020820190508181036000830152613b7f816133cf565b9050919050565b60006020820190508181036000830152613b9f81613415565b9050919050565b6000602082019050613bbb600083018461352d565b92915050565b6000613bcb613bdc565b9050613bd78282613ec9565b919050565b6000604051905090565b600067ffffffffffffffff821115613c0157613c00614039565b5b613c0a82614068565b9050602081019050919050565b600081519050919050565b600081519050919050565b600082825260208201905092915050565b600082825260208201905092915050565b600081905092915050565b6000613c6582613e14565b9150613c7083613e14565b9250827fffffffffffffffffffffffffffffffffffffffffffffffffffffffffffffffff03821115613ca557613ca4613fac565b5b828201905092915050565b6000613cbb82613e14565b9150613cc683613e14565b925082613cd657613cd5613fdb565b5b828204905092915050565b6000613cec82613e1e565b9150613cf783613e1e565b925082613d0757613d06613fdb565b5b828204905092915050565b6000613d1d82613e14565b9150613d2883613e14565b9250817fffffffffffffffffffffffffffffffffffffffffffffffffffffffffffffffff0483118215151615613d6157613d60613fac565b5b828202905092915050565b6000613d7782613e14565b9150613d8283613e14565b925082821015613d9557613d94613fac565b5b828203905092915050565b6000613dab82613df4565b9050919050565b60008115159050919050565b6000819050919050565b60007fffffffff0000000000000000000000000000000000000000000000000000000082169050919050565b600073ffffffffffffffffffffffffffffffffffffffff82169050919050565b6000819050919050565b600060ff82169050919050565b82818337600083830152505050565b60005b83811015613e58578082015181840152602081019050613e3d565b83811115613e67576000848401525b50505050565b6000613e7882613e14565b91506000821415613e8c57613e8b613fac565b5b600182039050919050565b60006002820490506001821680613eaf57607f821691505b60208210811415613ec357613ec261400a565b5b50919050565b613ed282614068565b810181811067ffffffffffffffff82111715613ef157613ef0614039565b5b80604052505050565b6000613f0582613e14565b91507fffffffffffffffffffffffffffffffffffffffffffffffffffffffffffffffff821415613f3857613f37613fac565b5b600182019050919050565b6000613f4e82613f5f565b9050919050565b6000819050919050565b6000613f6a82614079565b9050919050565b6000819050919050565b6000613f8682613e14565b9150613f9183613e14565b925082613fa157613fa0613fdb565b5b828206905092915050565b7f4e487b7100000000000000000000000000000000000000000000000000000000600052601160045260246000fd5b7f4e487b7100000000000000000000000000000000000000000000000000000000600052601260045260246000fd5b7f4e487b7100000000000000000000000000000000000000000000000000000000600052602260045260246000fd5b7f4e487b7100000000000000000000000000000000000000000000000000000000600052604160045260246000fd5b6000601f19601f8301169050919050565b60008160601b9050919050565b7f3c7465787420783d223330352220793d223134362220666f6e742d73697a653d60008201527f2232392220746578742d616e63686f723d22656e64223e312f00000000000000602082015250565b7f537472696e67733a20686578206c656e67746820696e73756666696369656e74600082015250565b7f7b226e616d65223a220000000000000000000000000000000000000000000000600082015250565b7f2220643d224d33302033313068343630763131304833307a22202f3e00000000600082015250565b7f4552433732313a207472616e7366657220746f206e6f6e20455243373231526560008201527f63656976657220696d706c656d656e7465720000000000000000000000000000602082015250565b7f3c706174682066696c6c2d72756c653d226576656e6f64642220636c69702d7260008201527f756c653d226576656e6f6464222066696c6c3d22236666662220643d224d313360208201527f352e33203130362e32632d372e3120302d31322e382d352e372d31322e382d3160408201527f322e3820302d372e3120352e372d31322e382031322e382d31322e3820372e3160608201527f20302031322e3820352e372031322e382031322e38203020372e312d352e372060808201527f31322e382d31322e382031322e386d302d33326331302e3620302031392e322060a08201527f382e362031392e322031392e32732d382e362031392e322d31392e322031392e60c08201527f322d31392e322d382e362d31392e322d31392e3220382e362d31392e3220313960e08201527f2e322d31392e327a6d31382e332033392e3463312e3320312e3320312e3320336101008201527f2e33203020342e356c2d31322e382031322e38632d312e3320312e332d332e336101208201527f20312e332d342e3520302d312e332d312e332d312e332d332e3320302d342e356101408201527f6c31322e382d31322e3863312e322d312e3320332e332d312e3320342e3520306101608201527f7a6d372e342d33362e32633020312e382d312e3420332e322d332e3220332e326101808201527f2d312e3820302d332e322d312e342d332e322d332e3273312e342d332e3220336101a08201527f2e322d332e3263312e37203020332e3220312e3420332e3220332e327a222f3e6101c082015250565b7f3c7465787420783d2233302220793d2232382220666f6e742d73697a653d223160008201527f37223e0000000000000000000000000000000000000000000000000000000000602082015250565b7f4552433732313a20746f6b656e20616c7265616479206d696e74656400000000600082015250565b7f3c67207472616e73666f726d3d227472616e736c617465283335332c3434382960008201527f223e000000000000000000000000000000000000000000000000000000000000602082015250565b7f3c7265637420783d2233302220793d223430222077696474683d22343630222060008201527f6865696768743d22353230222072783d223236222066696c6c3d22236666662260208201527f202f3e0000000000000000000000000000000000000000000000000000000000604082015250565b7f4552433732313a207472616e7366657220746f20746865207a65726f2061646460008201527f7265737300000000000000000000000000000000000000000000000000000000602082015250565b7f4552433732313a20617070726f766520746f2063616c6c657200000000000000600082015250565b7f3c7465787420783d2234322220793d223134362220666f6e742d73697a653d2260008201527f3239223e49443a20000000000000000000000000000000000000000000000000602082015250565b7f4552433732313a206f70657261746f7220717565727920666f72206e6f6e657860008201527f697374656e7420746f6b656e0000000000000000000000000000000000000000602082015250565b7f3c7465787420746578742d616e63686f723d226d6964646c652220783d22323560008201527f302220793d223336392220666f6e742d73697a653d223135223e000000000000602082015250565b7f4552433732313a20617070726f76652063616c6c6572206973206e6f74206f7760008201527f6e6572206e6f7220617070726f76656420666f7220616c6c0000000000000000602082015250565b7f22202f3e00000000000000000000000000000000000000000000000000000000600082015250565b7f4552433732313a2062616c616e636520717565727920666f7220746865207a6560008201527f726f206164647265737300000000000000000000000000000000000000000000602082015250565b7f4552433732313a206f776e657220717565727920666f72206e6f6e657869737460008201527f656e7420746f6b656e0000000000000000000000000000000000000000000000602082015250565b7f3c7465787420783d2234322220793d223139322220666f6e742d73697a653d2260008201527f3239223e54494d45533a20000000000000000000000000000000000000000000602082015250565b7f227d000000000000000000000000000000000000000000000000000000000000600082015250565b7f3c2f746578743e00000000000000000000000000000000000000000000000000600082015250565b7f4552433732313a206d696e7420746f20746865207a65726f2061646472657373600082015250565b7f222c2022696d616765223a202200000000000000000000000000000000000000600082015250565b7f3c67207472616e73666f726d3d227472616e736c617465282d3838202d35322960008201527f223e000000000000000000000000000000000000000000000000000000000000602082015250565b7f4552433732313a20617070726f76656420717565727920666f72206e6f6e657860008201527f697374656e7420746f6b656e0000000000000000000000000000000000000000602082015250565b7f222c20226465736372697074696f6e223a220000000000000000000000000000600082015250565b7f3c636972636c652063783d223438222063793d2234382220723d22343822206660008201527f696c6c3d222336373437656422202f3e00000000000000000000000000000000602082015250565b7f3c73766720786d6c6e733d22687474703a2f2f7777772e77332e6f72672f323060008201527f30302f737667222077696474683d2235323022206865696768743d223630302260208201527f20666f6e742d66616d696c793d22417269616c223e0000000000000000000000604082015250565b7f4552433732313a207472616e73666572206f6620746f6b656e2074686174206960008201527f73206e6f74206f776e0000000000000000000000000000000000000000000000602082015250565b7f4552433732314d657461646174613a2055524920717565727920666f72206e6f60008201527f6e6578697374656e7420746f6b656e0000000000000000000000000000000000602082015250565b7f3c2f673e00000000000000000000000000000000000000000000000000000000600082015250565b7f3c7465787420783d2234322220793d223239362220666f6e742d73697a653d2260008201527f3239223e534e415053484f54544544204f4e3a20323032312e372e33303c2f7460208201527f6578743e00000000000000000000000000000000000000000000000000000000604082015250565b7f3c726563742077696474683d2235323022206865696768743d2236303022207260008201527f783d223236222066696c6c3d2200000000000000000000000000000000000000602082015250565b7f4552433732313a20617070726f76616c20746f2063757272656e74206f776e6560008201527f7200000000000000000000000000000000000000000000000000000000000000602082015250565b7f646174613a6170706c69636174696f6e2f6a736f6e3b6261736536342c000000600082015250565b7f746f55696e74385f6f766572666c6f7700000000000000000000000000000000600082015250565b7f3c706174682066696c6c3d220000000000000000000000000000000000000000600082015250565b7f4552433732313a207472616e736665722063616c6c6572206973206e6f74206f60008201527f776e6572206e6f7220617070726f766564000000000000000000000000000000602082015250565b7f3c67207472616e73666f726d3d227472616e736c617465283334382c3630292260008201527f3e00000000000000000000000000000000000000000000000000000000000000602082015250565b7f746f55696e74385f6f75744f66426f756e647300000000000000000000000000600082015250565b7f3c7465787420783d2234322220793d223234322220666f6e742d73697a653d2260008201527f3239223e53544152544544204f4e3a2000000000000000000000000000000000602082015250565b7f3c726563742077696474683d22383822206865696768743d223838222072783d60008201527f223136222066696c6c3d22000000000000000000000000000000000000000000602082015250565b7f3c67207472616e73666f726d3d227472616e736c617465283231362c3434382960008201527f223e000000000000000000000000000000000000000000000000000000000000602082015250565b7f3c67207472616e73666f726d3d227472616e736c6174652837392c343438292260008201527f3e00000000000000000000000000000000000000000000000000000000000000602082015250565b7f3c2f7376673e0000000000000000000000000000000000000000000000000000600082015250565b7f3c7465787420783d2234322220793d2239362220666f6e742d73697a653d223360008201527f31223e5468652047726170682043757261746f723c2f746578743e0000000000602082015250565b7f646174613a696d6167652f7376672b786d6c3b6261736536342c000000000000600082015250565b614f1a81613da0565b8114614f2557600080fd5b50565b614f3181613db2565b8114614f3c57600080fd5b50565b614f4881613dc8565b8114614f5357600080fd5b50565b614f5f81613e14565b8114614f6a57600080fd5b50565b614f7681613e1e565b8114614f8157600080fd5b5056fe4142434445464748494a4b4c4d4e4f505152535455565758595a6162636465666768696a6b6c6d6e6f707172737475767778797a303132333435363738392b2f43757261746f727320757365207468656972206b6e6f776c65646765206f662074686520776562332065636f73797374656d20746f2061737365737320616e64207369676e616c206f6e207468652073756267726170687320746861742073686f756c6420626520696e646578656420627920546865204772617068204e6574776f726b2e204d65746166696361746520697320616e206f6e2d636861696e2067656e657261746976652061727420616e6420646563656e7472616c697a6564206365727469666963617465206372656174656420666f7220746865206d657461766572736520616e642074686520776562203320776f726c642ea2646970667358221220fb3546624ec4afcca59b1d083bd1ba3d3a77bc76170d18d37007a35009ee14d264736f6c634300080400333c67207472616e73666f726d3d226d6174726978282e313120302030202e31312031362e352031362e3529223e3c706174682066696c6c3d22236666662220643d224d3139362e382035342e3873312e312d2e3420322e322d2e366331302e322d312e382033322e342031352e322033332e362031362e312031362e332031322e372032342e342031392032372e312032322e3420362e3320372e3820392e372031352e312032302e372032362e3920352e3920362e3420392e3320392e39203131203920342e362d322e342d31322e352d33302e372d31302d363720312e342d31392e3920382e362d34322e322031352e372d34322e3220362e3720302031312e392032302e312031332e392032372e392031322e372034392e352d382e312036382e382036203130372e312031302e372032392e322031342e382033362e362031342e382033362e3620322e3320342e3120372e372031332e3820392e392032372e3320312e3120362e362e372031302e332d2e332031332e372d2e322e352d342031322e322d31332e392031352e322d382e3720322e372d31362e332d332e322d31392e332e362d312e3820322e332e3120352e352d322e3420382e312d3220322d332e392e372d3620322e322d342e3520332e312d2e312031322e322d332e362032322e342d2e3720322e312d322e3720342e382d362e362031302e322d31322e352031372e312d31392e352032312e362d31382e312032372e362e3620322e3420322e3620352e3520312e3520392e36203020302d2e3420312e342d312e3220322e382d342e3520372e352d32362e342031362e362d32392e332031372e382d31362e3920372e312d31392e3420392e352d32332e3720372e362d342e392d322e312d342e372d362e352d31322e372d31302e362d332e342d312e372d342e392d312e372d392e392d342e332d352e392d332e312d352e362d342e312d382e312d352d362e322d322e312d392e3220332e322d32322e3320372e352d392e3120322e392d31332e3620322e332d31352e3120352e392d312e3620332e3820312e3620392e342d2e332031302e362d31202e362d322e322d2e352d332e332e332d312e322e392d2e3320322e382d312e3220342d312e3620322e322d372e352e342d372e382e332d31312e382d332e372d32342e362d322e332d33362e382d342e372d33302e382d362d34382e342d312e332d35312e352d392e392d312e312d332e312e382d342e342d2e362d392d312e382d352e372d352e382d372e332d31342e322d31342e332d392d372e342d31332e362d31312e342d31352e332d31372e372d312e342d352d2e332d39202e362d31332e3120342e362d32302e392e322d32302e3120342e382d34322e3820322e322d31302e3820352e312d31392e312031302e392d33352e3720362e382d31392e362031302e322d32392e342031342e322d33332e3820342e392d352e3520392d372034372d31372e342033332e372d392e322033392e312d31302e342034382e352d392e3920382e352e352031352e3620322e312032392e3520352e332032302e3920342e382032312e3420372e312033332e3820382e3420313520312e352033322e3220302033322e332030203020302031312e322d31332e3220392e392d32332e392d2e372d352e392d352d392e362d31312e322d31342e392d31382e312d31352e362d33342e322d33302e312d34352e382d34362e332d352e332d372e342d382e382d31332e392d362e392d31392e392e392d3320342e312d382e3420392e352d31302e347a22202f3e3c656c6c697073652066696c6c3d2223666666222063783d22333139222063793d223339342e32222072783d223135322e37222072793d2238362e3522202f3e3c2f673e496e2072657475726e2c2063757261746f7273206561726e20717565727920666565732e3c706174682066696c6c3d22236666662220643d224d32312e34342036332e353263312e3620312e373220352e30342e393220392e32382d312e34342d332e38382d322e362d362e38382d362e342d382e35362d31302e38342d322e343820352e31322d332e313620392e36342d2e37322031322e32387a6d34302e342d33332e333663312e39362d332e383420322e35362d362e393620312e30382d382e362d322e32382d322e35322d362e35362d312e39322d31312e362e353220342e323420312e3620372e393220342e34342031302e353220382e30387a4d34332e342032302e363863312e36203020332e31322e313620342e36342e343820362e38382d332e38382031332e31362d352031362e36342d312e3220322e323420322e343420312e343820362e382d312e31362031312e3932762e30346c2d2e32342e34382e30342e3034632d352e36342031322e34342d31362e35362032332d32392e33322033302e35326c2d2e38342e3532632d352e3820332e342d31302e373620342e35322d31332e3420312e36382d332e35322d332e38342d322e32382d31302e323420312e35362d31372e31322d2e33322d312e35322d2e34382d332e30382d2e34382d342e36382d2e30382d31322e35362031302e30342d32322e36382032322e35362d32322e36387a6d32312e36342031352e3936632e363420322e3132203120342e3336203120362e363820302031322e35322d31302e31322032322e36342d32322e36342032322e36342d322e333620302d342e362d2e33362d362e37322d312031322e362d372e35322032322e31362d31362e38382032382e33362d32382e33327a22202f3e43757261746f72732061726520637269746963616c20746f2074686520477261706820646563656e7472616c697a65642065636f6e6f6d792e43757261746f7273206d616b6520546865204772617068206e6574776f726b20656666696369656e742e4372656174696e672061207375626772617068206973207065726d697373696f6e6c6573732e412073756267726170682063616e206661696c2064756520746f2061206275672e43757261746f7273206172652065636f6e6f6d6963616c6c7920696e63656e746976697a656420746f207369676e616c206561726c792e3c706174682066696c6c3d22236666662220643d224d34322e39352033372e303563332e35203020362e3620312e3520382e3920332e383520322e3320322e3420332e3720352e3720332e3720392e332030202e39352d2e3120312e392d2e3320322e38356831352e3863312e3035203020312e332e3620312e3320312e33732d2e323520312e332d312e3320312e33682d3535632d312e303520302d312e332d2e362d312e332d312e33732e32352d312e3320312e332d312e336831342e36632d2e322d2e392d2e332d312e38352d2e332d322e383520302d332e363520312e342d362e393520332e372d392e3320322e332d322e333520352e34352d332e383520382e392d332e38357a4d34342e322036322e37632d312e303520302d312e332d2e362d312e332d312e33732e32352d312e3320312e332d312e336832382e343563312e3035203020312e332e3620312e3320312e33732d2e323520312e332d312e3320312e334834342e327a6d2d33302e342030632d312e303520302d312e332d2e362d312e332d312e33732e32352d312e3320312e332d312e336831342e373563312e3035203020312e332e3620312e3320312e33732d2e323520312e332d312e3320312e334831332e387a6d31372e392d33302e3435632d2e342d2e372d2e31352d312e35352e352d312e3973312e35352d2e313520312e392e354c33352e39203334632e342e372e313520312e35352d2e3520312e3935732d312e35352e31352d312e392d2e356c2d312e382d332e327a6d31302e31352d332e333563302d2e382e36352d312e3420312e342d312e3473312e342e363520312e3420312e3476332e366330202e382d2e363520312e342d312e3420312e34732d312e342d2e36352d312e342d312e34762d332e367a6d31302e343520322e32632e342d2e363520312e32352d2e3920312e392d2e35732e3920312e32352e3520312e396c2d312e3820332e3135632d2e342e372d312e32352e392d312e392e352d2e36352d2e342d2e392d312e32352d2e352d312e396c312e382d332e31357a6d372e3920372e3135632e36352d2e3420312e35352d2e313520312e392e35732e313520312e35352d2e3520312e39356c2d332e3120312e38632d2e36352e342d312e35352e31352d312e392d2e35732d2e31352d312e35352e352d312e39356c332e312d312e387a6d332e33352031302e3135632e38203020312e342e363520312e3420312e342030202e382d2e363520312e342d312e3420312e34682d332e36632d2e3820302d312e342d2e36352d312e342d312e34732e36352d312e3420312e342d312e3468332e367a6d2d34312e3220322e3235632d2e3820302d312e342d2e36352d312e342d312e34732e36352d312e3420312e342d312e34483236632e38203020312e342e363520312e3420312e34732d2e363520312e342d312e3420312e34682d332e36357a6d322e322d31302e3435632d2e372d2e342d2e392d312e32352d2e352d312e392e342d2e3720312e32352d2e3920312e392d2e356c332e313520312e38632e36352e342e3920312e32352e3520312e39732d312e32352e392d312e392e356c2d332e31352d312e387a22202f3e",
			"opcodes": "PUSH1 0x80 PUSH1 0x40 MSTORE PUSH1 0x0 PUSH1 0x6 SSTORE PUSH1 0x40 MLOAD DUP1 PUSH2 0x800 ADD PUSH1 0x40 MSTORE DUP1 PUSH1 0x40 MLOAD DUP1 PUSH1 0xA0 ADD PUSH1 0x40 MSTORE DUP1 PUSH1 0x40 MLOAD DUP1 PUSH1 0x40 ADD PUSH1 0x40 MSTORE DUP1 PUSH1 0x7 DUP2 MSTORE PUSH1 0x20 ADD PUSH32 0x2336663463666600000000000000000000000000000000000000000000000000 DUP2 MSTORE POP DUP2 MSTORE PUSH1 0x20 ADD PUSH1 0x40 MLOAD DUP1 PUSH1 0x40 ADD PUSH1 0x40 MSTORE DUP1 PUSH1 0x8 DUP2 MSTORE PUSH1 0x20 ADD PUSH32 0x2346464635394420000000000000000000000000000000000000000000000000 DUP2 MSTORE POP DUP2 MSTORE PUSH1 0x20 ADD PUSH1 0x40 MLOAD DUP1 PUSH1 0x40 ADD PUSH1 0x40 MSTORE DUP1 PUSH1 0x7 DUP2 MSTORE PUSH1 0x20 ADD PUSH32 0x2343453933443800000000000000000000000000000000000000000000000000 DUP2 MSTORE POP DUP2 MSTORE PUSH1 0x20 ADD PUSH1 0x40 MLOAD DUP1 PUSH1 0x40 ADD PUSH1 0x40 MSTORE DUP1 PUSH1 0x7 DUP2 MSTORE PUSH1 0x20 ADD PUSH32 0x2342324446444200000000000000000000000000000000000000000000000000 DUP2 MSTORE POP DUP2 MSTORE PUSH1 0x20 ADD PUSH1 0x40 MLOAD DUP1 PUSH1 0x40 ADD PUSH1 0x40 MSTORE DUP1 PUSH1 0x7 DUP2 MSTORE PUSH1 0x20 ADD PUSH32 0x2346464343383000000000000000000000000000000000000000000000000000 DUP2 MSTORE POP DUP2 MSTORE POP DUP2 MSTORE PUSH1 0x20 ADD PUSH1 0x40 MLOAD DUP1 PUSH1 0xA0 ADD PUSH1 0x40 MSTORE DUP1 PUSH1 0x40 MLOAD DUP1 PUSH1 0x40 ADD PUSH1 0x40 MSTORE DUP1 PUSH1 0x7 DUP2 MSTORE PUSH1 0x20 ADD PUSH32 0x2336663463666600000000000000000000000000000000000000000000000000 DUP2 MSTORE POP DUP2 MSTORE PUSH1 0x20 ADD PUSH1 0x40 MLOAD DUP1 PUSH1 0x40 ADD PUSH1 0x40 MSTORE DUP1 PUSH1 0x8 DUP2 MSTORE PUSH1 0x20 ADD PUSH32 0x2346464635394420000000000000000000000000000000000000000000000000 DUP2 MSTORE POP DUP2 MSTORE PUSH1 0x20 ADD PUSH1 0x40 MLOAD DUP1 PUSH1 0x40 ADD PUSH1 0x40 MSTORE DUP1 PUSH1 0x7 DUP2 MSTORE PUSH1 0x20 ADD PUSH32 0x2343453933443800000000000000000000000000000000000000000000000000 DUP2 MSTORE POP DUP2 MSTORE PUSH1 0x20 ADD PUSH1 0x40 MLOAD DUP1 PUSH1 0x40 ADD PUSH1 0x40 MSTORE DUP1 PUSH1 0x7 DUP2 MSTORE PUSH1 0x20 ADD PUSH32 0x2346464343383000000000000000000000000000000000000000000000000000 DUP2 MSTORE POP DUP2 MSTORE PUSH1 0x20 ADD PUSH1 0x40 MLOAD DUP1 PUSH1 0x40 ADD PUSH1 0x40 MSTORE DUP1 PUSH1 0x7 DUP2 MSTORE PUSH1 0x20 ADD PUSH32 0x2342324446444200000000000000000000000000000000000000000000000000 DUP2 MSTORE POP DUP2 MSTORE POP DUP2 MSTORE PUSH1 0x20 ADD PUSH1 0x40 MLOAD DUP1 PUSH1 0xA0 ADD PUSH1 0x40 MSTORE DUP1 PUSH1 0x40 MLOAD DUP1 PUSH1 0x40 ADD PUSH1 0x40 MSTORE DUP1 PUSH1 0x7 DUP2 MSTORE PUSH1 0x20 ADD PUSH32 0x2336663463666600000000000000000000000000000000000000000000000000 DUP2 MSTORE POP DUP2 MSTORE PUSH1 0x20 ADD PUSH1 0x40 MLOAD DUP1 PUSH1 0x40 ADD PUSH1 0x40 MSTORE DUP1 PUSH1 0x8 DUP2 MSTORE PUSH1 0x20 ADD PUSH32 0x2346464635394420000000000000000000000000000000000000000000000000 DUP2 MSTORE POP DUP2 MSTORE PUSH1 0x20 ADD PUSH1 0x40 MLOAD DUP1 PUSH1 0x40 ADD PUSH1 0x40 MSTORE DUP1 PUSH1 0x7 DUP2 MSTORE PUSH1 0x20 ADD PUSH32 0x2342324446444200000000000000000000000000000000000000000000000000 DUP2 MSTORE POP DUP2 MSTORE PUSH1 0x20 ADD PUSH1 0x40 MLOAD DUP1 PUSH1 0x40 ADD PUSH1 0x40 MSTORE DUP1 PUSH1 0x7 DUP2 MSTORE PUSH1 0x20 ADD PUSH32 0x2343453933443800000000000000000000000000000000000000000000000000 DUP2 MSTORE POP DUP2 MSTORE PUSH1 0x20 ADD PUSH1 0x40 MLOAD DUP1 PUSH1 0x40 ADD PUSH1 0x40 MSTORE DUP1 PUSH1 0x7 DUP2 MSTORE PUSH1 0x20 ADD PUSH32 0x2346464343383000000000000000000000000000000000000000000000000000 DUP2 MSTORE POP DUP2 MSTORE POP DUP2 MSTORE PUSH1 0x20 ADD PUSH1 0x40 MLOAD DUP1 PUSH1 0xA0 ADD PUSH1 0x40 MSTORE DUP1 PUSH1 0x40 MLOAD DUP1 PUSH1 0x40 ADD PUSH1 0x40 MSTORE DUP1 PUSH1 0x7 DUP2 MSTORE PUSH1 0x20 ADD PUSH32 0x2336663463666600000000000000000000000000000000000000000000000000 DUP2 MSTORE POP DUP2 MSTORE PUSH1 0x20 ADD PUSH1 0x40 MLOAD DUP1 PUSH1 0x40 ADD PUSH1 0x40 MSTORE DUP1 PUSH1 0x8 DUP2 MSTORE PUSH1 0x20 ADD PUSH32 0x2346464635394420000000000000000000000000000000000000000000000000 DUP2 MSTORE POP DUP2 MSTORE PUSH1 0x20 ADD PUSH1 0x40 MLOAD DUP1 PUSH1 0x40 ADD PUSH1 0x40 MSTORE DUP1 PUSH1 0x7 DUP2 MSTORE PUSH1 0x20 ADD PUSH32 0x2342324446444200000000000000000000000000000000000000000000000000 DUP2 MSTORE POP DUP2 MSTORE PUSH1 0x20 ADD PUSH1 0x40 MLOAD DUP1 PUSH1 0x40 ADD PUSH1 0x40 MSTORE DUP1 PUSH1 0x7 DUP2 MSTORE PUSH1 0x20 ADD PUSH32 0x2346464343383000000000000000000000000000000000000000000000000000 DUP2 MSTORE POP DUP2 MSTORE PUSH1 0x20 ADD PUSH1 0x40 MLOAD DUP1 PUSH1 0x40 ADD PUSH1 0x40 MSTORE DUP1 PUSH1 0x7 DUP2 MSTORE PUSH1 0x20 ADD PUSH32 0x2343453933443800000000000000000000000000000000000000000000000000 DUP2 MSTORE POP DUP2 MSTORE POP DUP2 MSTORE PUSH1 0x20 ADD PUSH1 0x40 MLOAD DUP1 PUSH1 0xA0 ADD PUSH1 0x40 MSTORE DUP1 PUSH1 0x40 MLOAD DUP1 PUSH1 0x40 ADD PUSH1 0x40 MSTORE DUP1 PUSH1 0x7 DUP2 MSTORE PUSH1 0x20 ADD PUSH32 0x2336663463666600000000000000000000000000000000000000000000000000 DUP2 MSTORE POP DUP2 MSTORE PUSH1 0x20 ADD PUSH1 0x40 MLOAD DUP1 PUSH1 0x40 ADD PUSH1 0x40 MSTORE DUP1 PUSH1 0x8 DUP2 MSTORE PUSH1 0x20 ADD PUSH32 0x2346464635394420000000000000000000000000000000000000000000000000 DUP2 MSTORE POP DUP2 MSTORE PUSH1 0x20 ADD PUSH1 0x40 MLOAD DUP1 PUSH1 0x40 ADD PUSH1 0x40 MSTORE DUP1 PUSH1 0x7 DUP2 MSTORE PUSH1 0x20 ADD PUSH32 0x2346464343383000000000000000000000000000000000000000000000000000 DUP2 MSTORE POP DUP2 MSTORE PUSH1 0x20 ADD PUSH1 0x40 MLOAD DUP1 PUSH1 0x40 ADD PUSH1 0x40 MSTORE DUP1 PUSH1 0x7 DUP2 MSTORE PUSH1 0x20 ADD PUSH32 0x2342324446444200000000000000000000000000000000000000000000000000 DUP2 MSTORE POP DUP2 MSTORE PUSH1 0x20 ADD PUSH1 0x40 MLOAD DUP1 PUSH1 0x40 ADD PUSH1 0x40 MSTORE DUP1 PUSH1 0x7 DUP2 MSTORE PUSH1 0x20 ADD PUSH32 0x2343453933443800000000000000000000000000000000000000000000000000 DUP2 MSTORE POP DUP2 MSTORE POP DUP2 MSTORE PUSH1 0x20 ADD PUSH1 0x40 MLOAD DUP1 PUSH1 0xA0 ADD PUSH1 0x40 MSTORE DUP1 PUSH1 0x40 MLOAD DUP1 PUSH1 0x40 ADD PUSH1 0x40 MSTORE DUP1 PUSH1 0x7 DUP2 MSTORE PUSH1 0x20 ADD PUSH32 0x2336663463666600000000000000000000000000000000000000000000000000 DUP2 MSTORE POP DUP2 MSTORE PUSH1 0x20 ADD PUSH1 0x40 MLOAD DUP1 PUSH1 0x40 ADD PUSH1 0x40 MSTORE DUP1 PUSH1 0x8 DUP2 MSTORE PUSH1 0x20 ADD PUSH32 0x2346464635394420000000000000000000000000000000000000000000000000 DUP2 MSTORE POP DUP2 MSTORE PUSH1 0x20 ADD PUSH1 0x40 MLOAD DUP1 PUSH1 0x40 ADD PUSH1 0x40 MSTORE DUP1 PUSH1 0x7 DUP2 MSTORE PUSH1 0x20 ADD PUSH32 0x2346464343383000000000000000000000000000000000000000000000000000 DUP2 MSTORE POP DUP2 MSTORE PUSH1 0x20 ADD PUSH1 0x40 MLOAD DUP1 PUSH1 0x40 ADD PUSH1 0x40 MSTORE DUP1 PUSH1 0x7 DUP2 MSTORE PUSH1 0x20 ADD PUSH32 0x2343453933443800000000000000000000000000000000000000000000000000 DUP2 MSTORE POP DUP2 MSTORE PUSH1 0x20 ADD PUSH1 0x40 MLOAD DUP1 PUSH1 0x40 ADD PUSH1 0x40 MSTORE DUP1 PUSH1 0x7 DUP2 MSTORE PUSH1 0x20 ADD PUSH32 0x2342324446444200000000000000000000000000000000000000000000000000 DUP2 MSTORE POP DUP2 MSTORE POP DUP2 MSTORE PUSH1 0x20 ADD PUSH1 0x40 MLOAD DUP1 PUSH1 0xA0 ADD PUSH1 0x40 MSTORE DUP1 PUSH1 0x40 MLOAD DUP1 PUSH1 0x40 ADD PUSH1 0x40 MSTORE DUP1 PUSH1 0x7 DUP2 MSTORE PUSH1 0x20 ADD PUSH32 0x2346323844384400000000000000000000000000000000000000000000000000 DUP2 MSTORE POP DUP2 MSTORE PUSH1 0x20 ADD PUSH1 0x40 MLOAD DUP1 PUSH1 0x40 ADD PUSH1 0x40 MSTORE DUP1 PUSH1 0x7 DUP2 MSTORE PUSH1 0x20 ADD PUSH32 0x2346324239414300000000000000000000000000000000000000000000000000 DUP2 MSTORE POP DUP2 MSTORE PUSH1 0x20 ADD PUSH1 0x40 MLOAD DUP1 PUSH1 0x40 ADD PUSH1 0x40 MSTORE DUP1 PUSH1 0x7 DUP2 MSTORE PUSH1 0x20 ADD PUSH32 0x2344454430463200000000000000000000000000000000000000000000000000 DUP2 MSTORE POP DUP2 MSTORE PUSH1 0x20 ADD PUSH1 0x40 MLOAD DUP1 PUSH1 0x40 ADD PUSH1 0x40 MSTORE DUP1 PUSH1 0x7 DUP2 MSTORE PUSH1 0x20 ADD PUSH32 0x2339314141463200000000000000000000000000000000000000000000000000 DUP2 MSTORE POP DUP2 MSTORE PUSH1 0x20 ADD PUSH1 0x40 MLOAD DUP1 PUSH1 0x40 ADD PUSH1 0x40 MSTORE DUP1 PUSH1 0x7 DUP2 MSTORE PUSH1 0x20 ADD PUSH32 0x2336423938463200000000000000000000000000000000000000000000000000 DUP2 MSTORE POP DUP2 MSTORE POP DUP2 MSTORE PUSH1 0x20 ADD PUSH1 0x40 MLOAD DUP1 PUSH1 0xA0 ADD PUSH1 0x40 MSTORE DUP1 PUSH1 0x40 MLOAD DUP1 PUSH1 0x40 ADD PUSH1 0x40 MSTORE DUP1 PUSH1 0x7 DUP2 MSTORE PUSH1 0x20 ADD PUSH32 0x2346323844384400000000000000000000000000000000000000000000000000 DUP2 MSTORE POP DUP2 MSTORE PUSH1 0x20 ADD PUSH1 0x40 MLOAD DUP1 PUSH1 0x40 ADD PUSH1 0x40 MSTORE DUP1 PUSH1 0x7 DUP2 MSTORE PUSH1 0x20 ADD PUSH32 0x2346324239414300000000000000000000000000000000000000000000000000 DUP2 MSTORE POP DUP2 MSTORE PUSH1 0x20 ADD PUSH1 0x40 MLOAD DUP1 PUSH1 0x40 ADD PUSH1 0x40 MSTORE DUP1 PUSH1 0x7 DUP2 MSTORE PUSH1 0x20 ADD PUSH32 0x2344454430463200000000000000000000000000000000000000000000000000 DUP2 MSTORE POP DUP2 MSTORE PUSH1 0x20 ADD PUSH1 0x40 MLOAD DUP1 PUSH1 0x40 ADD PUSH1 0x40 MSTORE DUP1 PUSH1 0x7 DUP2 MSTORE PUSH1 0x20 ADD PUSH32 0x2336423938463200000000000000000000000000000000000000000000000000 DUP2 MSTORE POP DUP2 MSTORE PUSH1 0x20 ADD PUSH1 0x40 MLOAD DUP1 PUSH1 0x40 ADD PUSH1 0x40 MSTORE DUP1 PUSH1 0x7 DUP2 MSTORE PUSH1 0x20 ADD PUSH32 0x2339314141463200000000000000000000000000000000000000000000000000 DUP2 MSTORE POP DUP2 MSTORE POP DUP2 MSTORE PUSH1 0x20 ADD PUSH1 0x40 MLOAD DUP1 PUSH1 0xA0 ADD PUSH1 0x40 MSTORE DUP1 PUSH1 0x40 MLOAD DUP1 PUSH1 0x40 ADD PUSH1 0x40 MSTORE DUP1 PUSH1 0x7 DUP2 MSTORE PUSH1 0x20 ADD PUSH32 0x2346323844384400000000000000000000000000000000000000000000000000 DUP2 MSTORE POP DUP2 MSTORE PUSH1 0x20 ADD PUSH1 0x40 MLOAD DUP1 PUSH1 0x40 ADD PUSH1 0x40 MSTORE DUP1 PUSH1 0x7 DUP2 MSTORE PUSH1 0x20 ADD PUSH32 0x2346324239414300000000000000000000000000000000000000000000000000 DUP2 MSTORE POP DUP2 MSTORE PUSH1 0x20 ADD PUSH1 0x40 MLOAD DUP1 PUSH1 0x40 ADD PUSH1 0x40 MSTORE DUP1 PUSH1 0x7 DUP2 MSTORE PUSH1 0x20 ADD PUSH32 0x2339314141463200000000000000000000000000000000000000000000000000 DUP2 MSTORE POP DUP2 MSTORE PUSH1 0x20 ADD PUSH1 0x40 MLOAD DUP1 PUSH1 0x40 ADD PUSH1 0x40 MSTORE DUP1 PUSH1 0x7 DUP2 MSTORE PUSH1 0x20 ADD PUSH32 0x2344454430463200000000000000000000000000000000000000000000000000 DUP2 MSTORE POP DUP2 MSTORE PUSH1 0x20 ADD PUSH1 0x40 MLOAD DUP1 PUSH1 0x40 ADD PUSH1 0x40 MSTORE DUP1 PUSH1 0x7 DUP2 MSTORE PUSH1 0x20 ADD PUSH32 0x2336423938463200000000000000000000000000000000000000000000000000 DUP2 MSTORE POP DUP2 MSTORE POP DUP2 MSTORE PUSH1 0x20 ADD PUSH1 0x40 MLOAD DUP1 PUSH1 0xA0 ADD PUSH1 0x40 MSTORE DUP1 PUSH1 0x40 MLOAD DUP1 PUSH1 0x40 ADD PUSH1 0x40 MSTORE DUP1 PUSH1 0x7 DUP2 MSTORE PUSH1 0x20 ADD PUSH32 0x2346323844384400000000000000000000000000000000000000000000000000 DUP2 MSTORE POP DUP2 MSTORE PUSH1 0x20 ADD PUSH1 0x40 MLOAD DUP1 PUSH1 0x40 ADD PUSH1 0x40 MSTORE DUP1 PUSH1 0x7 DUP2 MSTORE PUSH1 0x20 ADD PUSH32 0x2346324239414300000000000000000000000000000000000000000000000000 DUP2 MSTORE POP DUP2 MSTORE PUSH1 0x20 ADD PUSH1 0x40 MLOAD DUP1 PUSH1 0x40 ADD PUSH1 0x40 MSTORE DUP1 PUSH1 0x7 DUP2 MSTORE PUSH1 0x20 ADD PUSH32 0x2339314141463200000000000000000000000000000000000000000000000000 DUP2 MSTORE POP DUP2 MSTORE PUSH1 0x20 ADD PUSH1 0x40 MLOAD DUP1 PUSH1 0x40 ADD PUSH1 0x40 MSTORE DUP1 PUSH1 0x7 DUP2 MSTORE PUSH1 0x20 ADD PUSH32 0x2336423938463200000000000000000000000000000000000000000000000000 DUP2 MSTORE POP DUP2 MSTORE PUSH1 0x20 ADD PUSH1 0x40 MLOAD DUP1 PUSH1 0x40 ADD PUSH1 0x40 MSTORE DUP1 PUSH1 0x7 DUP2 MSTORE PUSH1 0x20 ADD PUSH32 0x2344454430463200000000000000000000000000000000000000000000000000 DUP2 MSTORE POP DUP2 MSTORE POP DUP2 MSTORE PUSH1 0x20 ADD PUSH1 0x40 MLOAD DUP1 PUSH1 0xA0 ADD PUSH1 0x40 MSTORE DUP1 PUSH1 0x40 MLOAD DUP1 PUSH1 0x40 ADD PUSH1 0x40 MSTORE DUP1 PUSH1 0x7 DUP2 MSTORE PUSH1 0x20 ADD PUSH32 0x2346323844384400000000000000000000000000000000000000000000000000 DUP2 MSTORE POP DUP2 MSTORE PUSH1 0x20 ADD PUSH1 0x40 MLOAD DUP1 PUSH1 0x40 ADD PUSH1 0x40 MSTORE DUP1 PUSH1 0x7 DUP2 MSTORE PUSH1 0x20 ADD PUSH32 0x2346324239414300000000000000000000000000000000000000000000000000 DUP2 MSTORE POP DUP2 MSTORE PUSH1 0x20 ADD PUSH1 0x40 MLOAD DUP1 PUSH1 0x40 ADD PUSH1 0x40 MSTORE DUP1 PUSH1 0x7 DUP2 MSTORE PUSH1 0x20 ADD PUSH32 0x2336423938463200000000000000000000000000000000000000000000000000 DUP2 MSTORE POP DUP2 MSTORE PUSH1 0x20 ADD PUSH1 0x40 MLOAD DUP1 PUSH1 0x40 ADD PUSH1 0x40 MSTORE DUP1 PUSH1 0x7 DUP2 MSTORE PUSH1 0x20 ADD PUSH32 0x2339314141463200000000000000000000000000000000000000000000000000 DUP2 MSTORE POP DUP2 MSTORE PUSH1 0x20 ADD PUSH1 0x40 MLOAD DUP1 PUSH1 0x40 ADD PUSH1 0x40 MSTORE DUP1 PUSH1 0x7 DUP2 MSTORE PUSH1 0x20 ADD PUSH32 0x2344454430463200000000000000000000000000000000000000000000000000 DUP2 MSTORE POP DUP2 MSTORE POP DUP2 MSTORE PUSH1 0x20 ADD PUSH1 0x40 MLOAD DUP1 PUSH1 0xA0 ADD PUSH1 0x40 MSTORE DUP1 PUSH1 0x40 MLOAD DUP1 PUSH1 0x40 ADD PUSH1 0x40 MSTORE DUP1 PUSH1 0x7 DUP2 MSTORE PUSH1 0x20 ADD PUSH32 0x2346323844384400000000000000000000000000000000000000000000000000 DUP2 MSTORE POP DUP2 MSTORE PUSH1 0x20 ADD PUSH1 0x40 MLOAD DUP1 PUSH1 0x40 ADD PUSH1 0x40 MSTORE DUP1 PUSH1 0x7 DUP2 MSTORE PUSH1 0x20 ADD PUSH32 0x2346324239414300000000000000000000000000000000000000000000000000 DUP2 MSTORE POP DUP2 MSTORE PUSH1 0x20 ADD PUSH1 0x40 MLOAD DUP1 PUSH1 0x40 ADD PUSH1 0x40 MSTORE DUP1 PUSH1 0x7 DUP2 MSTORE PUSH1 0x20 ADD PUSH32 0x2336423938463200000000000000000000000000000000000000000000000000 DUP2 MSTORE POP DUP2 MSTORE PUSH1 0x20 ADD PUSH1 0x40 MLOAD DUP1 PUSH1 0x40 ADD PUSH1 0x40 MSTORE DUP1 PUSH1 0x8 DUP2 MSTORE PUSH1 0x20 ADD PUSH32 0x2320444544304632000000000000000000000000000000000000000000000000 DUP2 MSTORE POP DUP2 MSTORE PUSH1 0x20 ADD PUSH1 0x40 MLOAD DUP1 PUSH1 0x40 ADD PUSH1 0x40 MSTORE DUP1 PUSH1 0x7 DUP2 MSTORE PUSH1 0x20 ADD PUSH32 0x2339314141463200000000000000000000000000000000000000000000000000 DUP2 MSTORE POP DUP2 MSTORE POP DUP2 MSTORE PUSH1 0x20 ADD PUSH1 0x40 MLOAD DUP1 PUSH1 0xA0 ADD PUSH1 0x40 MSTORE DUP1 PUSH1 0x40 MLOAD DUP1 PUSH1 0x40 ADD PUSH1 0x40 MSTORE DUP1 PUSH1 0x7 DUP2 MSTORE PUSH1 0x20 ADD PUSH32 0x2334303842383000000000000000000000000000000000000000000000000000 DUP2 MSTORE POP DUP2 MSTORE PUSH1 0x20 ADD PUSH1 0x40 MLOAD DUP1 PUSH1 0x40 ADD PUSH1 0x40 MSTORE DUP1 PUSH1 0x7 DUP2 MSTORE PUSH1 0x20 ADD PUSH32 0x2346464339423300000000000000000000000000000000000000000000000000 DUP2 MSTORE POP DUP2 MSTORE PUSH1 0x20 ADD PUSH1 0x40 MLOAD DUP1 PUSH1 0x40 ADD PUSH1 0x40 MSTORE DUP1 PUSH1 0x7 DUP2 MSTORE PUSH1 0x20 ADD PUSH32 0x2342323835373200000000000000000000000000000000000000000000000000 DUP2 MSTORE POP DUP2 MSTORE PUSH1 0x20 ADD PUSH1 0x40 MLOAD DUP1 PUSH1 0x40 ADD PUSH1 0x40 MSTORE DUP1 PUSH1 0x7 DUP2 MSTORE PUSH1 0x20 ADD PUSH32 0x2339464530463600000000000000000000000000000000000000000000000000 DUP2 MSTORE POP DUP2 MSTORE PUSH1 0x20 ADD PUSH1 0x40 MLOAD DUP1 PUSH1 0x40 ADD PUSH1 0x40 MSTORE DUP1 PUSH1 0x7 DUP2 MSTORE PUSH1 0x20 ADD PUSH32 0x2342413638433800000000000000000000000000000000000000000000000000 DUP2 MSTORE POP DUP2 MSTORE POP DUP2 MSTORE PUSH1 0x20 ADD PUSH1 0x40 MLOAD DUP1 PUSH1 0xA0 ADD PUSH1 0x40 MSTORE DUP1 PUSH1 0x40 MLOAD DUP1 PUSH1 0x40 ADD PUSH1 0x40 MSTORE DUP1 PUSH1 0x7 DUP2 MSTORE PUSH1 0x20 ADD PUSH32 0x2334303842383000000000000000000000000000000000000000000000000000 DUP2 MSTORE POP DUP2 MSTORE PUSH1 0x20 ADD PUSH1 0x40 MLOAD DUP1 PUSH1 0x40 ADD PUSH1 0x40 MSTORE DUP1 PUSH1 0x7 DUP2 MSTORE PUSH1 0x20 ADD PUSH32 0x2346464339423300000000000000000000000000000000000000000000000000 DUP2 MSTORE POP DUP2 MSTORE PUSH1 0x20 ADD PUSH1 0x40 MLOAD DUP1 PUSH1 0x40 ADD PUSH1 0x40 MSTORE DUP1 PUSH1 0x7 DUP2 MSTORE PUSH1 0x20 ADD PUSH32 0x2342323835373200000000000000000000000000000000000000000000000000 DUP2 MSTORE POP DUP2 MSTORE PUSH1 0x20 ADD PUSH1 0x40 MLOAD DUP1 PUSH1 0x40 ADD PUSH1 0x40 MSTORE DUP1 PUSH1 0x7 DUP2 MSTORE PUSH1 0x20 ADD PUSH32 0x2342413638433800000000000000000000000000000000000000000000000000 DUP2 MSTORE POP DUP2 MSTORE PUSH1 0x20 ADD PUSH1 0x40 MLOAD DUP1 PUSH1 0x40 ADD PUSH1 0x40 MSTORE DUP1 PUSH1 0x8 DUP2 MSTORE PUSH1 0x20 ADD PUSH32 0x2023394645304636000000000000000000000000000000000000000000000000 DUP2 MSTORE POP DUP2 MSTORE POP DUP2 MSTORE PUSH1 0x20 ADD PUSH1 0x40 MLOAD DUP1 PUSH1 0xA0 ADD PUSH1 0x40 MSTORE DUP1 PUSH1 0x40 MLOAD DUP1 PUSH1 0x40 ADD PUSH1 0x40 MSTORE DUP1 PUSH1 0x7 DUP2 MSTORE PUSH1 0x20 ADD PUSH32 0x2334303842383000000000000000000000000000000000000000000000000000 DUP2 MSTORE POP DUP2 MSTORE PUSH1 0x20 ADD PUSH1 0x40 MLOAD DUP1 PUSH1 0x40 ADD PUSH1 0x40 MSTORE DUP1 PUSH1 0x7 DUP2 MSTORE PUSH1 0x20 ADD PUSH32 0x2346464339423300000000000000000000000000000000000000000000000000 DUP2 MSTORE POP DUP2 MSTORE PUSH1 0x20 ADD PUSH1 0x40 MLOAD DUP1 PUSH1 0x40 ADD PUSH1 0x40 MSTORE DUP1 PUSH1 0x7 DUP2 MSTORE PUSH1 0x20 ADD PUSH32 0x2339464530463600000000000000000000000000000000000000000000000000 DUP2 MSTORE POP DUP2 MSTORE PUSH1 0x20 ADD PUSH1 0x40 MLOAD DUP1 PUSH1 0x40 ADD PUSH1 0x40 MSTORE DUP1 PUSH1 0x7 DUP2 MSTORE PUSH1 0x20 ADD PUSH32 0x2342323835373200000000000000000000000000000000000000000000000000 DUP2 MSTORE POP DUP2 MSTORE PUSH1 0x20 ADD PUSH1 0x40 MLOAD DUP1 PUSH1 0x40 ADD PUSH1 0x40 MSTORE DUP1 PUSH1 0x7 DUP2 MSTORE PUSH1 0x20 ADD PUSH32 0x2342413638433800000000000000000000000000000000000000000000000000 DUP2 MSTORE POP DUP2 MSTORE POP DUP2 MSTORE PUSH1 0x20 ADD PUSH1 0x40 MLOAD DUP1 PUSH1 0xA0 ADD PUSH1 0x40 MSTORE DUP1 PUSH1 0x40 MLOAD DUP1 PUSH1 0x40 ADD PUSH1 0x40 MSTORE DUP1 PUSH1 0x7 DUP2 MSTORE PUSH1 0x20 ADD PUSH32 0x2334303842383000000000000000000000000000000000000000000000000000 DUP2 MSTORE POP DUP2 MSTORE PUSH1 0x20 ADD PUSH1 0x40 MLOAD DUP1 PUSH1 0x40 ADD PUSH1 0x40 MSTORE DUP1 PUSH1 0x7 DUP2 MSTORE PUSH1 0x20 ADD PUSH32 0x2346464339423300000000000000000000000000000000000000000000000000 DUP2 MSTORE POP DUP2 MSTORE PUSH1 0x20 ADD PUSH1 0x40 MLOAD DUP1 PUSH1 0x40 ADD PUSH1 0x40 MSTORE DUP1 PUSH1 0x7 DUP2 MSTORE PUSH1 0x20 ADD PUSH32 0x2339464530463600000000000000000000000000000000000000000000000000 DUP2 MSTORE POP DUP2 MSTORE PUSH1 0x20 ADD PUSH1 0x40 MLOAD DUP1 PUSH1 0x40 ADD PUSH1 0x40 MSTORE DUP1 PUSH1 0x7 DUP2 MSTORE PUSH1 0x20 ADD PUSH32 0x2342413638433800000000000000000000000000000000000000000000000000 DUP2 MSTORE POP DUP2 MSTORE PUSH1 0x20 ADD PUSH1 0x40 MLOAD DUP1 PUSH1 0x40 ADD PUSH1 0x40 MSTORE DUP1 PUSH1 0x8 DUP2 MSTORE PUSH1 0x20 ADD PUSH32 0x2023423238353732000000000000000000000000000000000000000000000000 DUP2 MSTORE POP DUP2 MSTORE POP DUP2 MSTORE PUSH1 0x20 ADD PUSH1 0x40 MLOAD DUP1 PUSH1 0xA0 ADD PUSH1 0x40 MSTORE DUP1 PUSH1 0x40 MLOAD DUP1 PUSH1 0x40 ADD PUSH1 0x40 MSTORE DUP1 PUSH1 0x7 DUP2 MSTORE PUSH1 0x20 ADD PUSH32 0x2334303842383000000000000000000000000000000000000000000000000000 DUP2 MSTORE POP DUP2 MSTORE PUSH1 0x20 ADD PUSH1 0x40 MLOAD DUP1 PUSH1 0x40 ADD PUSH1 0x40 MSTORE DUP1 PUSH1 0x7 DUP2 MSTORE PUSH1 0x20 ADD PUSH32 0x2346464339423300000000000000000000000000000000000000000000000000 DUP2 MSTORE POP DUP2 MSTORE PUSH1 0x20 ADD PUSH1 0x40 MLOAD DUP1 PUSH1 0x40 ADD PUSH1 0x40 MSTORE DUP1 PUSH1 0x8 DUP2 MSTORE PUSH1 0x20 ADD PUSH32 0x2342413638433820000000000000000000000000000000000000000000000000 DUP2 MSTORE POP DUP2 MSTORE PUSH1 0x20 ADD PUSH1 0x40 MLOAD DUP1 PUSH1 0x40 ADD PUSH1 0x40 MSTORE DUP1 PUSH1 0x7 DUP2 MSTORE PUSH1 0x20 ADD PUSH32 0x2339464530463600000000000000000000000000000000000000000000000000 DUP2 MSTORE POP DUP2 MSTORE PUSH1 0x20 ADD PUSH1 0x40 MLOAD DUP1 PUSH1 0x40 ADD PUSH1 0x40 MSTORE DUP1 PUSH1 0x7 DUP2 MSTORE PUSH1 0x20 ADD PUSH32 0x2342323835373200000000000000000000000000000000000000000000000000 DUP2 MSTORE POP DUP2 MSTORE POP DUP2 MSTORE PUSH1 0x20 ADD PUSH1 0x40 MLOAD DUP1 PUSH1 0xA0 ADD PUSH1 0x40 MSTORE DUP1 PUSH1 0x40 MLOAD DUP1 PUSH1 0x40 ADD PUSH1 0x40 MSTORE DUP1 PUSH1 0x7 DUP2 MSTORE PUSH1 0x20 ADD PUSH32 0x2334303842383000000000000000000000000000000000000000000000000000 DUP2 MSTORE POP DUP2 MSTORE PUSH1 0x20 ADD PUSH1 0x40 MLOAD DUP1 PUSH1 0x40 ADD PUSH1 0x40 MSTORE DUP1 PUSH1 0x7 DUP2 MSTORE PUSH1 0x20 ADD PUSH32 0x2346464339423300000000000000000000000000000000000000000000000000 DUP2 MSTORE POP DUP2 MSTORE PUSH1 0x20 ADD PUSH1 0x40 MLOAD DUP1 PUSH1 0x40 ADD PUSH1 0x40 MSTORE DUP1 PUSH1 0x8 DUP2 MSTORE PUSH1 0x20 ADD PUSH32 0x2342413638433820000000000000000000000000000000000000000000000000 DUP2 MSTORE POP DUP2 MSTORE PUSH1 0x20 ADD PUSH1 0x40 MLOAD DUP1 PUSH1 0x40 ADD PUSH1 0x40 MSTORE DUP1 PUSH1 0x7 DUP2 MSTORE PUSH1 0x20 ADD PUSH32 0x2342323835373200000000000000000000000000000000000000000000000000 DUP2 MSTORE POP DUP2 MSTORE PUSH1 0x20 ADD PUSH1 0x40 MLOAD DUP1 PUSH1 0x40 ADD PUSH1 0x40 MSTORE DUP1 PUSH1 0x8 DUP2 MSTORE PUSH1 0x20 ADD PUSH32 0x2023394645304636000000000000000000000000000000000000000000000000 DUP2 MSTORE POP DUP2 MSTORE POP DUP2 MSTORE PUSH1 0x20 ADD PUSH1 0x40 MLOAD DUP1 PUSH1 0xA0 ADD PUSH1 0x40 MSTORE DUP1 PUSH1 0x40 MLOAD DUP1 PUSH1 0x40 ADD PUSH1 0x40 MSTORE DUP1 PUSH1 0x7 DUP2 MSTORE PUSH1 0x20 ADD PUSH32 0x2331453838453500000000000000000000000000000000000000000000000000 DUP2 MSTORE POP DUP2 MSTORE PUSH1 0x20 ADD PUSH1 0x40 MLOAD DUP1 PUSH1 0x40 ADD PUSH1 0x40 MSTORE DUP1 PUSH1 0x7 DUP2 MSTORE PUSH1 0x20 ADD PUSH32 0x2346324437383500000000000000000000000000000000000000000000000000 DUP2 MSTORE POP DUP2 MSTORE PUSH1 0x20 ADD PUSH1 0x40 MLOAD DUP1 PUSH1 0x40 ADD PUSH1 0x40 MSTORE DUP1 PUSH1 0x7 DUP2 MSTORE PUSH1 0x20 ADD PUSH32 0x2342463830393100000000000000000000000000000000000000000000000000 DUP2 MSTORE POP DUP2 MSTORE PUSH1 0x20 ADD PUSH1 0x40 MLOAD DUP1 PUSH1 0x40 ADD PUSH1 0x40 MSTORE DUP1 PUSH1 0x7 DUP2 MSTORE PUSH1 0x20 ADD PUSH32 0x2336443942413600000000000000000000000000000000000000000000000000 DUP2 MSTORE POP DUP2 MSTORE PUSH1 0x20 ADD PUSH1 0x40 MLOAD DUP1 PUSH1 0x40 ADD PUSH1 0x40 MSTORE DUP1 PUSH1 0x7 DUP2 MSTORE PUSH1 0x20 ADD PUSH32 0x2346324244433700000000000000000000000000000000000000000000000000 DUP2 MSTORE POP DUP2 MSTORE POP DUP2 MSTORE PUSH1 0x20 ADD PUSH1 0x40 MLOAD DUP1 PUSH1 0xA0 ADD PUSH1 0x40 MSTORE DUP1 PUSH1 0x40 MLOAD DUP1 PUSH1 0x40 ADD PUSH1 0x40 MSTORE DUP1 PUSH1 0x7 DUP2 MSTORE PUSH1 0x20 ADD PUSH32 0x2331453838453500000000000000000000000000000000000000000000000000 DUP2 MSTORE POP DUP2 MSTORE PUSH1 0x20 ADD PUSH1 0x40 MLOAD DUP1 PUSH1 0x40 ADD PUSH1 0x40 MSTORE DUP1 PUSH1 0x7 DUP2 MSTORE PUSH1 0x20 ADD PUSH32 0x2346324437383500000000000000000000000000000000000000000000000000 DUP2 MSTORE POP DUP2 MSTORE PUSH1 0x20 ADD PUSH1 0x40 MLOAD DUP1 PUSH1 0x40 ADD PUSH1 0x40 MSTORE DUP1 PUSH1 0x7 DUP2 MSTORE PUSH1 0x20 ADD PUSH32 0x2342463830393100000000000000000000000000000000000000000000000000 DUP2 MSTORE POP DUP2 MSTORE PUSH1 0x20 ADD PUSH1 0x40 MLOAD DUP1 PUSH1 0x40 ADD PUSH1 0x40 MSTORE DUP1 PUSH1 0x7 DUP2 MSTORE PUSH1 0x20 ADD PUSH32 0x2346324244433700000000000000000000000000000000000000000000000000 DUP2 MSTORE POP DUP2 MSTORE PUSH1 0x20 ADD PUSH1 0x40 MLOAD DUP1 PUSH1 0x40 ADD PUSH1 0x40 MSTORE DUP1 PUSH1 0x7 DUP2 MSTORE PUSH1 0x20 ADD PUSH32 0x2336443942413600000000000000000000000000000000000000000000000000 DUP2 MSTORE POP DUP2 MSTORE POP DUP2 MSTORE PUSH1 0x20 ADD PUSH1 0x40 MLOAD DUP1 PUSH1 0xA0 ADD PUSH1 0x40 MSTORE DUP1 PUSH1 0x40 MLOAD DUP1 PUSH1 0x40 ADD PUSH1 0x40 MSTORE DUP1 PUSH1 0x7 DUP2 MSTORE PUSH1 0x20 ADD PUSH32 0x2331453838453500000000000000000000000000000000000000000000000000 DUP2 MSTORE POP DUP2 MSTORE PUSH1 0x20 ADD PUSH1 0x40 MLOAD DUP1 PUSH1 0x40 ADD PUSH1 0x40 MSTORE DUP1 PUSH1 0x7 DUP2 MSTORE PUSH1 0x20 ADD PUSH32 0x2346324437383500000000000000000000000000000000000000000000000000 DUP2 MSTORE POP DUP2 MSTORE PUSH1 0x20 ADD PUSH1 0x40 MLOAD DUP1 PUSH1 0x40 ADD PUSH1 0x40 MSTORE DUP1 PUSH1 0x8 DUP2 MSTORE PUSH1 0x20 ADD PUSH32 0x2336443942413620000000000000000000000000000000000000000000000000 DUP2 MSTORE POP DUP2 MSTORE PUSH1 0x20 ADD PUSH1 0x40 MLOAD DUP1 PUSH1 0x40 ADD PUSH1 0x40 MSTORE DUP1 PUSH1 0x7 DUP2 MSTORE PUSH1 0x20 ADD PUSH32 0x2342463830393100000000000000000000000000000000000000000000000000 DUP2 MSTORE POP DUP2 MSTORE PUSH1 0x20 ADD PUSH1 0x40 MLOAD DUP1 PUSH1 0x40 ADD PUSH1 0x40 MSTORE DUP1 PUSH1 0x7 DUP2 MSTORE PUSH1 0x20 ADD PUSH32 0x2346324244433700000000000000000000000000000000000000000000000000 DUP2 MSTORE POP DUP2 MSTORE POP DUP2 MSTORE PUSH1 0x20 ADD PUSH1 0x40 MLOAD DUP1 PUSH1 0xA0 ADD PUSH1 0x40 MSTORE DUP1 PUSH1 0x40 MLOAD DUP1 PUSH1 0x40 ADD PUSH1 0x40 MSTORE DUP1 PUSH1 0x7 DUP2 MSTORE PUSH1 0x20 ADD PUSH32 0x2331453838453500000000000000000000000000000000000000000000000000 DUP2 MSTORE POP DUP2 MSTORE PUSH1 0x20 ADD PUSH1 0x40 MLOAD DUP1 PUSH1 0x40 ADD PUSH1 0x40 MSTORE DUP1 PUSH1 0x7 DUP2 MSTORE PUSH1 0x20 ADD PUSH32 0x2346324437383500000000000000000000000000000000000000000000000000 DUP2 MSTORE POP DUP2 MSTORE PUSH1 0x20 ADD PUSH1 0x40 MLOAD DUP1 PUSH1 0x40 ADD PUSH1 0x40 MSTORE DUP1 PUSH1 0x8 DUP2 MSTORE PUSH1 0x20 ADD PUSH32 0x2336443942413620000000000000000000000000000000000000000000000000 DUP2 MSTORE POP DUP2 MSTORE PUSH1 0x20 ADD PUSH1 0x40 MLOAD DUP1 PUSH1 0x40 ADD PUSH1 0x40 MSTORE DUP1 PUSH1 0x7 DUP2 MSTORE PUSH1 0x20 ADD PUSH32 0x2346324244433700000000000000000000000000000000000000000000000000 DUP2 MSTORE POP DUP2 MSTORE PUSH1 0x20 ADD PUSH1 0x40 MLOAD DUP1 PUSH1 0x40 ADD PUSH1 0x40 MSTORE DUP1 PUSH1 0x8 DUP2 MSTORE PUSH1 0x20 ADD PUSH32 0x2023424638303931000000000000000000000000000000000000000000000000 DUP2 MSTORE POP DUP2 MSTORE POP DUP2 MSTORE PUSH1 0x20 ADD PUSH1 0x40 MLOAD DUP1 PUSH1 0xA0 ADD PUSH1 0x40 MSTORE DUP1 PUSH1 0x40 MLOAD DUP1 PUSH1 0x40 ADD PUSH1 0x40 MSTORE DUP1 PUSH1 0x7 DUP2 MSTORE PUSH1 0x20 ADD PUSH32 0x2331453838453500000000000000000000000000000000000000000000000000 DUP2 MSTORE POP DUP2 MSTORE PUSH1 0x20 ADD PUSH1 0x40 MLOAD DUP1 PUSH1 0x40 ADD PUSH1 0x40 MSTORE DUP1 PUSH1 0x7 DUP2 MSTORE PUSH1 0x20 ADD PUSH32 0x2346324437383500000000000000000000000000000000000000000000000000 DUP2 MSTORE POP DUP2 MSTORE PUSH1 0x20 ADD PUSH1 0x40 MLOAD DUP1 PUSH1 0x40 ADD PUSH1 0x40 MSTORE DUP1 PUSH1 0x8 DUP2 MSTORE PUSH1 0x20 ADD PUSH32 0x2346324244433720000000000000000000000000000000000000000000000000 DUP2 MSTORE POP DUP2 MSTORE PUSH1 0x20 ADD PUSH1 0x40 MLOAD DUP1 PUSH1 0x40 ADD PUSH1 0x40 MSTORE DUP1 PUSH1 0x7 DUP2 MSTORE PUSH1 0x20 ADD PUSH32 0x2336443942413600000000000000000000000000000000000000000000000000 DUP2 MSTORE POP DUP2 MSTORE PUSH1 0x20 ADD PUSH1 0x40 MLOAD DUP1 PUSH1 0x40 ADD PUSH1 0x40 MSTORE DUP1 PUSH1 0x7 DUP2 MSTORE PUSH1 0x20 ADD PUSH32 0x2342463830393100000000000000000000000000000000000000000000000000 DUP2 MSTORE POP DUP2 MSTORE POP DUP2 MSTORE PUSH1 0x20 ADD PUSH1 0x40 MLOAD DUP1 PUSH1 0xA0 ADD PUSH1 0x40 MSTORE DUP1 PUSH1 0x40 MLOAD DUP1 PUSH1 0x40 ADD PUSH1 0x40 MSTORE DUP1 PUSH1 0x7 DUP2 MSTORE PUSH1 0x20 ADD PUSH32 0x2331453838453500000000000000000000000000000000000000000000000000 DUP2 MSTORE POP DUP2 MSTORE PUSH1 0x20 ADD PUSH1 0x40 MLOAD DUP1 PUSH1 0x40 ADD PUSH1 0x40 MSTORE DUP1 PUSH1 0x7 DUP2 MSTORE PUSH1 0x20 ADD PUSH32 0x2346324437383500000000000000000000000000000000000000000000000000 DUP2 MSTORE POP DUP2 MSTORE PUSH1 0x20 ADD PUSH1 0x40 MLOAD DUP1 PUSH1 0x40 ADD PUSH1 0x40 MSTORE DUP1 PUSH1 0x8 DUP2 MSTORE PUSH1 0x20 ADD PUSH32 0x2346324244433720000000000000000000000000000000000000000000000000 DUP2 MSTORE POP DUP2 MSTORE PUSH1 0x20 ADD PUSH1 0x40 MLOAD DUP1 PUSH1 0x40 ADD PUSH1 0x40 MSTORE DUP1 PUSH1 0x7 DUP2 MSTORE PUSH1 0x20 ADD PUSH32 0x2342463830393100000000000000000000000000000000000000000000000000 DUP2 MSTORE POP DUP2 MSTORE PUSH1 0x20 ADD PUSH1 0x40 MLOAD DUP1 PUSH1 0x40 ADD PUSH1 0x40 MSTORE DUP1 PUSH1 0x7 DUP2 MSTORE PUSH1 0x20 ADD PUSH32 0x2336443942413600000000000000000000000000000000000000000000000000 DUP2 MSTORE POP DUP2 MSTORE POP DUP2 MSTORE PUSH1 0x20 ADD PUSH1 0x40 MLOAD DUP1 PUSH1 0xA0 ADD PUSH1 0x40 MSTORE DUP1 PUSH1 0x40 MLOAD DUP1 PUSH1 0x40 ADD PUSH1 0x40 MSTORE DUP1 PUSH1 0x7 DUP2 MSTORE PUSH1 0x20 ADD PUSH32 0x2346424330324400000000000000000000000000000000000000000000000000 DUP2 MSTORE POP DUP2 MSTORE PUSH1 0x20 ADD PUSH1 0x40 MLOAD DUP1 PUSH1 0x40 ADD PUSH1 0x40 MSTORE DUP1 PUSH1 0x7 DUP2 MSTORE PUSH1 0x20 ADD PUSH32 0x2343333735434400000000000000000000000000000000000000000000000000 DUP2 MSTORE POP DUP2 MSTORE PUSH1 0x20 ADD PUSH1 0x40 MLOAD DUP1 PUSH1 0x40 ADD PUSH1 0x40 MSTORE DUP1 PUSH1 0x7 DUP2 MSTORE PUSH1 0x20 ADD PUSH32 0x2334434146353000000000000000000000000000000000000000000000000000 DUP2 MSTORE POP DUP2 MSTORE PUSH1 0x20 ADD PUSH1 0x40 MLOAD DUP1 PUSH1 0x40 ADD PUSH1 0x40 MSTORE DUP1 PUSH1 0x7 DUP2 MSTORE PUSH1 0x20 ADD PUSH32 0x2346303632374400000000000000000000000000000000000000000000000000 DUP2 MSTORE POP DUP2 MSTORE PUSH1 0x20 ADD PUSH1 0x40 MLOAD DUP1 PUSH1 0x40 ADD PUSH1 0x40 MSTORE DUP1 PUSH1 0x7 DUP2 MSTORE PUSH1 0x20 ADD PUSH32 0x2334324135463500000000000000000000000000000000000000000000000000 DUP2 MSTORE POP DUP2 MSTORE POP DUP2 MSTORE PUSH1 0x20 ADD PUSH1 0x40 MLOAD DUP1 PUSH1 0xA0 ADD PUSH1 0x40 MSTORE DUP1 PUSH1 0x40 MLOAD DUP1 PUSH1 0x40 ADD PUSH1 0x40 MSTORE DUP1 PUSH1 0x7 DUP2 MSTORE PUSH1 0x20 ADD PUSH32 0x2346424330324400000000000000000000000000000000000000000000000000 DUP2 MSTORE POP DUP2 MSTORE PUSH1 0x20 ADD PUSH1 0x40 MLOAD DUP1 PUSH1 0x40 ADD PUSH1 0x40 MSTORE DUP1 PUSH1 0x7 DUP2 MSTORE PUSH1 0x20 ADD PUSH32 0x2343333735434400000000000000000000000000000000000000000000000000 DUP2 MSTORE POP DUP2 MSTORE PUSH1 0x20 ADD PUSH1 0x40 MLOAD DUP1 PUSH1 0x40 ADD PUSH1 0x40 MSTORE DUP1 PUSH1 0x7 DUP2 MSTORE PUSH1 0x20 ADD PUSH32 0x2334434146353000000000000000000000000000000000000000000000000000 DUP2 MSTORE POP DUP2 MSTORE PUSH1 0x20 ADD PUSH1 0x40 MLOAD DUP1 PUSH1 0x40 ADD PUSH1 0x40 MSTORE DUP1 PUSH1 0x7 DUP2 MSTORE PUSH1 0x20 ADD PUSH32 0x2334324135463500000000000000000000000000000000000000000000000000 DUP2 MSTORE POP DUP2 MSTORE PUSH1 0x20 ADD PUSH1 0x40 MLOAD DUP1 PUSH1 0x40 ADD PUSH1 0x40 MSTORE DUP1 PUSH1 0x7 DUP2 MSTORE PUSH1 0x20 ADD PUSH32 0x2346303632374400000000000000000000000000000000000000000000000000 DUP2 MSTORE POP DUP2 MSTORE POP DUP2 MSTORE PUSH1 0x20 ADD PUSH1 0x40 MLOAD DUP1 PUSH1 0xA0 ADD PUSH1 0x40 MSTORE DUP1 PUSH1 0x40 MLOAD DUP1 PUSH1 0x40 ADD PUSH1 0x40 MSTORE DUP1 PUSH1 0x7 DUP2 MSTORE PUSH1 0x20 ADD PUSH32 0x2346424330324400000000000000000000000000000000000000000000000000 DUP2 MSTORE POP DUP2 MSTORE PUSH1 0x20 ADD PUSH1 0x40 MLOAD DUP1 PUSH1 0x40 ADD PUSH1 0x40 MSTORE DUP1 PUSH1 0x7 DUP2 MSTORE PUSH1 0x20 ADD PUSH32 0x2343333735434400000000000000000000000000000000000000000000000000 DUP2 MSTORE POP DUP2 MSTORE PUSH1 0x20 ADD PUSH1 0x40 MLOAD DUP1 PUSH1 0x40 ADD PUSH1 0x40 MSTORE DUP1 PUSH1 0x7 DUP2 MSTORE PUSH1 0x20 ADD PUSH32 0x2346303632374400000000000000000000000000000000000000000000000000 DUP2 MSTORE POP DUP2 MSTORE PUSH1 0x20 ADD PUSH1 0x40 MLOAD DUP1 PUSH1 0x40 ADD PUSH1 0x40 MSTORE DUP1 PUSH1 0x7 DUP2 MSTORE PUSH1 0x20 ADD PUSH32 0x2334434146353000000000000000000000000000000000000000000000000000 DUP2 MSTORE POP DUP2 MSTORE PUSH1 0x20 ADD PUSH1 0x40 MLOAD DUP1 PUSH1 0x40 ADD PUSH1 0x40 MSTORE DUP1 PUSH1 0x7 DUP2 MSTORE PUSH1 0x20 ADD PUSH32 0x2334324135463500000000000000000000000000000000000000000000000000 DUP2 MSTORE POP DUP2 MSTORE POP DUP2 MSTORE PUSH1 0x20 ADD PUSH1 0x40 MLOAD DUP1 PUSH1 0xA0 ADD PUSH1 0x40 MSTORE DUP1 PUSH1 0x40 MLOAD DUP1 PUSH1 0x40 ADD PUSH1 0x40 MSTORE DUP1 PUSH1 0x7 DUP2 MSTORE PUSH1 0x20 ADD PUSH32 0x2346424330324400000000000000000000000000000000000000000000000000 DUP2 MSTORE POP DUP2 MSTORE PUSH1 0x20 ADD PUSH1 0x40 MLOAD DUP1 PUSH1 0x40 ADD PUSH1 0x40 MSTORE DUP1 PUSH1 0x7 DUP2 MSTORE PUSH1 0x20 ADD PUSH32 0x2343333735434400000000000000000000000000000000000000000000000000 DUP2 MSTORE POP DUP2 MSTORE PUSH1 0x20 ADD PUSH1 0x40 MLOAD DUP1 PUSH1 0x40 ADD PUSH1 0x40 MSTORE DUP1 PUSH1 0x7 DUP2 MSTORE PUSH1 0x20 ADD PUSH32 0x2346303632374400000000000000000000000000000000000000000000000000 DUP2 MSTORE POP DUP2 MSTORE PUSH1 0x20 ADD PUSH1 0x40 MLOAD DUP1 PUSH1 0x40 ADD PUSH1 0x40 MSTORE DUP1 PUSH1 0x7 DUP2 MSTORE PUSH1 0x20 ADD PUSH32 0x2334324135463500000000000000000000000000000000000000000000000000 DUP2 MSTORE POP DUP2 MSTORE PUSH1 0x20 ADD PUSH1 0x40 MLOAD DUP1 PUSH1 0x40 ADD PUSH1 0x40 MSTORE DUP1 PUSH1 0x7 DUP2 MSTORE PUSH1 0x20 ADD PUSH32 0x2334434146353000000000000000000000000000000000000000000000000000 DUP2 MSTORE POP DUP2 MSTORE POP DUP2 MSTORE PUSH1 0x20 ADD PUSH1 0x40 MLOAD DUP1 PUSH1 0xA0 ADD PUSH1 0x40 MSTORE DUP1 PUSH1 0x40 MLOAD DUP1 PUSH1 0x40 ADD PUSH1 0x40 MSTORE DUP1 PUSH1 0x7 DUP2 MSTORE PUSH1 0x20 ADD PUSH32 0x2346424330324400000000000000000000000000000000000000000000000000 DUP2 MSTORE POP DUP2 MSTORE PUSH1 0x20 ADD PUSH1 0x40 MLOAD DUP1 PUSH1 0x40 ADD PUSH1 0x40 MSTORE DUP1 PUSH1 0x7 DUP2 MSTORE PUSH1 0x20 ADD PUSH32 0x2343333735434400000000000000000000000000000000000000000000000000 DUP2 MSTORE POP DUP2 MSTORE PUSH1 0x20 ADD PUSH1 0x40 MLOAD DUP1 PUSH1 0x40 ADD PUSH1 0x40 MSTORE DUP1 PUSH1 0x7 DUP2 MSTORE PUSH1 0x20 ADD PUSH32 0x2334324135463500000000000000000000000000000000000000000000000000 DUP2 MSTORE POP DUP2 MSTORE PUSH1 0x20 ADD PUSH1 0x40 MLOAD DUP1 PUSH1 0x40 ADD PUSH1 0x40 MSTORE DUP1 PUSH1 0x7 DUP2 MSTORE PUSH1 0x20 ADD PUSH32 0x2346303632374400000000000000000000000000000000000000000000000000 DUP2 MSTORE POP DUP2 MSTORE PUSH1 0x20 ADD PUSH1 0x40 MLOAD DUP1 PUSH1 0x40 ADD PUSH1 0x40 MSTORE DUP1 PUSH1 0x7 DUP2 MSTORE PUSH1 0x20 ADD PUSH32 0x2334434146353000000000000000000000000000000000000000000000000000 DUP2 MSTORE POP DUP2 MSTORE POP DUP2 MSTORE PUSH1 0x20 ADD PUSH1 0x40 MLOAD DUP1 PUSH1 0xA0 ADD PUSH1 0x40 MSTORE DUP1 PUSH1 0x40 MLOAD DUP1 PUSH1 0x40 ADD PUSH1 0x40 MSTORE DUP1 PUSH1 0x7 DUP2 MSTORE PUSH1 0x20 ADD PUSH32 0x2346424330324400000000000000000000000000000000000000000000000000 DUP2 MSTORE POP DUP2 MSTORE PUSH1 0x20 ADD PUSH1 0x40 MLOAD DUP1 PUSH1 0x40 ADD PUSH1 0x40 MSTORE DUP1 PUSH1 0x7 DUP2 MSTORE PUSH1 0x20 ADD PUSH32 0x2343333735434400000000000000000000000000000000000000000000000000 DUP2 MSTORE POP DUP2 MSTORE PUSH1 0x20 ADD PUSH1 0x40 MLOAD DUP1 PUSH1 0x40 ADD PUSH1 0x40 MSTORE DUP1 PUSH1 0x7 DUP2 MSTORE PUSH1 0x20 ADD PUSH32 0x2334324135463500000000000000000000000000000000000000000000000000 DUP2 MSTORE POP DUP2 MSTORE PUSH1 0x20 ADD PUSH1 0x40 MLOAD DUP1 PUSH1 0x40 ADD PUSH1 0x40 MSTORE DUP1 PUSH1 0x8 DUP2 MSTORE PUSH1 0x20 ADD PUSH32 0x2334434146353020000000000000000000000000000000000000000000000000 DUP2 MSTORE POP DUP2 MSTORE PUSH1 0x20 ADD PUSH1 0x40 MLOAD DUP1 PUSH1 0x40 ADD PUSH1 0x40 MSTORE DUP1 PUSH1 0x7 DUP2 MSTORE PUSH1 0x20 ADD PUSH32 0x2346303632374400000000000000000000000000000000000000000000000000 DUP2 MSTORE POP DUP2 MSTORE POP DUP2 MSTORE PUSH1 0x20 ADD PUSH1 0x40 MLOAD DUP1 PUSH1 0xA0 ADD PUSH1 0x40 MSTORE DUP1 PUSH1 0x40 MLOAD DUP1 PUSH1 0x40 ADD PUSH1 0x40 MSTORE DUP1 PUSH1 0x7 DUP2 MSTORE PUSH1 0x20 ADD PUSH32 0x2335354439394200000000000000000000000000000000000000000000000000 DUP2 MSTORE POP DUP2 MSTORE PUSH1 0x20 ADD PUSH1 0x40 MLOAD DUP1 PUSH1 0x40 ADD PUSH1 0x40 MSTORE DUP1 PUSH1 0x7 DUP2 MSTORE PUSH1 0x20 ADD PUSH32 0x2346324334364400000000000000000000000000000000000000000000000000 DUP2 MSTORE POP DUP2 MSTORE PUSH1 0x20 ADD PUSH1 0x40 MLOAD DUP1 PUSH1 0x40 ADD PUSH1 0x40 MSTORE DUP1 PUSH1 0x7 DUP2 MSTORE PUSH1 0x20 ADD PUSH32 0x2333413336353900000000000000000000000000000000000000000000000000 DUP2 MSTORE POP DUP2 MSTORE PUSH1 0x20 ADD PUSH1 0x40 MLOAD DUP1 PUSH1 0x40 ADD PUSH1 0x40 MSTORE DUP1 PUSH1 0x7 DUP2 MSTORE PUSH1 0x20 ADD PUSH32 0x2343344632454500000000000000000000000000000000000000000000000000 DUP2 MSTORE POP DUP2 MSTORE PUSH1 0x20 ADD PUSH1 0x40 MLOAD DUP1 PUSH1 0x40 ADD PUSH1 0x40 MSTORE DUP1 PUSH1 0x7 DUP2 MSTORE PUSH1 0x20 ADD PUSH32 0x2336363742463200000000000000000000000000000000000000000000000000 DUP2 MSTORE POP DUP2 MSTORE POP DUP2 MSTORE PUSH1 0x20 ADD PUSH1 0x40 MLOAD DUP1 PUSH1 0xA0 ADD PUSH1 0x40 MSTORE DUP1 PUSH1 0x40 MLOAD DUP1 PUSH1 0x40 ADD PUSH1 0x40 MSTORE DUP1 PUSH1 0x7 DUP2 MSTORE PUSH1 0x20 ADD PUSH32 0x2335354439394200000000000000000000000000000000000000000000000000 DUP2 MSTORE POP DUP2 MSTORE PUSH1 0x20 ADD PUSH1 0x40 MLOAD DUP1 PUSH1 0x40 ADD PUSH1 0x40 MSTORE DUP1 PUSH1 0x7 DUP2 MSTORE PUSH1 0x20 ADD PUSH32 0x2346324334364400000000000000000000000000000000000000000000000000 DUP2 MSTORE POP DUP2 MSTORE PUSH1 0x20 ADD PUSH1 0x40 MLOAD DUP1 PUSH1 0x40 ADD PUSH1 0x40 MSTORE DUP1 PUSH1 0x7 DUP2 MSTORE PUSH1 0x20 ADD PUSH32 0x2333413336353900000000000000000000000000000000000000000000000000 DUP2 MSTORE POP DUP2 MSTORE PUSH1 0x20 ADD PUSH1 0x40 MLOAD DUP1 PUSH1 0x40 ADD PUSH1 0x40 MSTORE DUP1 PUSH1 0x7 DUP2 MSTORE PUSH1 0x20 ADD PUSH32 0x2336363742463200000000000000000000000000000000000000000000000000 DUP2 MSTORE POP DUP2 MSTORE PUSH1 0x20 ADD PUSH1 0x40 MLOAD DUP1 PUSH1 0x40 ADD PUSH1 0x40 MSTORE DUP1 PUSH1 0x7 DUP2 MSTORE PUSH1 0x20 ADD PUSH32 0x2343344632454500000000000000000000000000000000000000000000000000 DUP2 MSTORE POP DUP2 MSTORE POP DUP2 MSTORE PUSH1 0x20 ADD PUSH1 0x40 MLOAD DUP1 PUSH1 0xA0 ADD PUSH1 0x40 MSTORE DUP1 PUSH1 0x40 MLOAD DUP1 PUSH1 0x40 ADD PUSH1 0x40 MSTORE DUP1 PUSH1 0x7 DUP2 MSTORE PUSH1 0x20 ADD PUSH32 0x2335354439394200000000000000000000000000000000000000000000000000 DUP2 MSTORE POP DUP2 MSTORE PUSH1 0x20 ADD PUSH1 0x40 MLOAD DUP1 PUSH1 0x40 ADD PUSH1 0x40 MSTORE DUP1 PUSH1 0x7 DUP2 MSTORE PUSH1 0x20 ADD PUSH32 0x2346324334364400000000000000000000000000000000000000000000000000 DUP2 MSTORE POP DUP2 MSTORE PUSH1 0x20 ADD PUSH1 0x40 MLOAD DUP1 PUSH1 0x40 ADD PUSH1 0x40 MSTORE DUP1 PUSH1 0x7 DUP2 MSTORE PUSH1 0x20 ADD PUSH32 0x2343344632454500000000000000000000000000000000000000000000000000 DUP2 MSTORE POP DUP2 MSTORE PUSH1 0x20 ADD PUSH1 0x40 MLOAD DUP1 PUSH1 0x40 ADD PUSH1 0x40 MSTORE DUP1 PUSH1 0x7 DUP2 MSTORE PUSH1 0x20 ADD PUSH32 0x2333413336353900000000000000000000000000000000000000000000000000 DUP2 MSTORE POP DUP2 MSTORE PUSH1 0x20 ADD PUSH1 0x40 MLOAD DUP1 PUSH1 0x40 ADD PUSH1 0x40 MSTORE DUP1 PUSH1 0x7 DUP2 MSTORE PUSH1 0x20 ADD PUSH32 0x2336363742463200000000000000000000000000000000000000000000000000 DUP2 MSTORE POP DUP2 MSTORE POP DUP2 MSTORE PUSH1 0x20 ADD PUSH1 0x40 MLOAD DUP1 PUSH1 0xA0 ADD PUSH1 0x40 MSTORE DUP1 PUSH1 0x40 MLOAD DUP1 PUSH1 0x40 ADD PUSH1 0x40 MSTORE DUP1 PUSH1 0x7 DUP2 MSTORE PUSH1 0x20 ADD PUSH32 0x2335354439394200000000000000000000000000000000000000000000000000 DUP2 MSTORE POP DUP2 MSTORE PUSH1 0x20 ADD PUSH1 0x40 MLOAD DUP1 PUSH1 0x40 ADD PUSH1 0x40 MSTORE DUP1 PUSH1 0x7 DUP2 MSTORE PUSH1 0x20 ADD PUSH32 0x2346324334364400000000000000000000000000000000000000000000000000 DUP2 MSTORE POP DUP2 MSTORE PUSH1 0x20 ADD PUSH1 0x40 MLOAD DUP1 PUSH1 0x40 ADD PUSH1 0x40 MSTORE DUP1 PUSH1 0x7 DUP2 MSTORE PUSH1 0x20 ADD PUSH32 0x2343344632454500000000000000000000000000000000000000000000000000 DUP2 MSTORE POP DUP2 MSTORE PUSH1 0x20 ADD PUSH1 0x40 MLOAD DUP1 PUSH1 0x40 ADD PUSH1 0x40 MSTORE DUP1 PUSH1 0x7 DUP2 MSTORE PUSH1 0x20 ADD PUSH32 0x2336363742463200000000000000000000000000000000000000000000000000 DUP2 MSTORE POP DUP2 MSTORE PUSH1 0x20 ADD PUSH1 0x40 MLOAD DUP1 PUSH1 0x40 ADD PUSH1 0x40 MSTORE DUP1 PUSH1 0x7 DUP2 MSTORE PUSH1 0x20 ADD PUSH32 0x2333413336353900000000000000000000000000000000000000000000000000 DUP2 MSTORE POP DUP2 MSTORE POP DUP2 MSTORE PUSH1 0x20 ADD PUSH1 0x40 MLOAD DUP1 PUSH1 0xA0 ADD PUSH1 0x40 MSTORE DUP1 PUSH1 0x40 MLOAD DUP1 PUSH1 0x40 ADD PUSH1 0x40 MSTORE DUP1 PUSH1 0x7 DUP2 MSTORE PUSH1 0x20 ADD PUSH32 0x2335354439394200000000000000000000000000000000000000000000000000 DUP2 MSTORE POP DUP2 MSTORE PUSH1 0x20 ADD PUSH1 0x40 MLOAD DUP1 PUSH1 0x40 ADD PUSH1 0x40 MSTORE DUP1 PUSH1 0x7 DUP2 MSTORE PUSH1 0x20 ADD PUSH32 0x2346324334364400000000000000000000000000000000000000000000000000 DUP2 MSTORE POP DUP2 MSTORE PUSH1 0x20 ADD PUSH1 0x40 MLOAD DUP1 PUSH1 0x40 ADD PUSH1 0x40 MSTORE DUP1 PUSH1 0x7 DUP2 MSTORE PUSH1 0x20 ADD PUSH32 0x2336363742463200000000000000000000000000000000000000000000000000 DUP2 MSTORE POP DUP2 MSTORE PUSH1 0x20 ADD PUSH1 0x40 MLOAD DUP1 PUSH1 0x40 ADD PUSH1 0x40 MSTORE DUP1 PUSH1 0x7 DUP2 MSTORE PUSH1 0x20 ADD PUSH32 0x2343344632454500000000000000000000000000000000000000000000000000 DUP2 MSTORE POP DUP2 MSTORE PUSH1 0x20 ADD PUSH1 0x40 MLOAD DUP1 PUSH1 0x40 ADD PUSH1 0x40 MSTORE DUP1 PUSH1 0x7 DUP2 MSTORE PUSH1 0x20 ADD PUSH32 0x2333413336353900000000000000000000000000000000000000000000000000 DUP2 MSTORE POP DUP2 MSTORE POP DUP2 MSTORE PUSH1 0x20 ADD PUSH1 0x40 MLOAD DUP1 PUSH1 0xA0 ADD PUSH1 0x40 MSTORE DUP1 PUSH1 0x40 MLOAD DUP1 PUSH1 0x40 ADD PUSH1 0x40 MSTORE DUP1 PUSH1 0x7 DUP2 MSTORE PUSH1 0x20 ADD PUSH32 0x2335354439394200000000000000000000000000000000000000000000000000 DUP2 MSTORE POP DUP2 MSTORE PUSH1 0x20 ADD PUSH1 0x40 MLOAD DUP1 PUSH1 0x40 ADD PUSH1 0x40 MSTORE DUP1 PUSH1 0x7 DUP2 MSTORE PUSH1 0x20 ADD PUSH32 0x2346324334364400000000000000000000000000000000000000000000000000 DUP2 MSTORE POP DUP2 MSTORE PUSH1 0x20 ADD PUSH1 0x40 MLOAD DUP1 PUSH1 0x40 ADD PUSH1 0x40 MSTORE DUP1 PUSH1 0x7 DUP2 MSTORE PUSH1 0x20 ADD PUSH32 0x2336363742463200000000000000000000000000000000000000000000000000 DUP2 MSTORE POP DUP2 MSTORE PUSH1 0x20 ADD PUSH1 0x40 MLOAD DUP1 PUSH1 0x40 ADD PUSH1 0x40 MSTORE DUP1 PUSH1 0x7 DUP2 MSTORE PUSH1 0x20 ADD PUSH32 0x2333413336353900000000000000000000000000000000000000000000000000 DUP2 MSTORE POP DUP2 MSTORE PUSH1 0x20 ADD PUSH1 0x40 MLOAD DUP1 PUSH1 0x40 ADD PUSH1 0x40 MSTORE DUP1 PUSH1 0x7 DUP2 MSTORE PUSH1 0x20 ADD PUSH32 0x2343344632454500000000000000000000000000000000000000000000000000 DUP2 MSTORE POP DUP2 MSTORE POP DUP2 MSTORE PUSH1 0x20 ADD PUSH1 0x40 MLOAD DUP1 PUSH1 0xA0 ADD PUSH1 0x40 MSTORE DUP1 PUSH1 0x40 MLOAD DUP1 PUSH1 0x40 ADD PUSH1 0x40 MSTORE DUP1 PUSH1 0x7 DUP2 MSTORE PUSH1 0x20 ADD PUSH32 0x2342463336413800000000000000000000000000000000000000000000000000 DUP2 MSTORE POP DUP2 MSTORE PUSH1 0x20 ADD PUSH1 0x40 MLOAD DUP1 PUSH1 0x40 ADD PUSH1 0x40 MSTORE DUP1 PUSH1 0x7 DUP2 MSTORE PUSH1 0x20 ADD PUSH32 0x2344393535383500000000000000000000000000000000000000000000000000 DUP2 MSTORE POP DUP2 MSTORE PUSH1 0x20 ADD PUSH1 0x40 MLOAD DUP1 PUSH1 0x40 ADD PUSH1 0x40 MSTORE DUP1 PUSH1 0x7 DUP2 MSTORE PUSH1 0x20 ADD PUSH32 0x2334303243424600000000000000000000000000000000000000000000000000 DUP2 MSTORE POP DUP2 MSTORE PUSH1 0x20 ADD PUSH1 0x40 MLOAD DUP1 PUSH1 0x40 ADD PUSH1 0x40 MSTORE DUP1 PUSH1 0x7 DUP2 MSTORE PUSH1 0x20 ADD PUSH32 0x2333343139343000000000000000000000000000000000000000000000000000 DUP2 MSTORE POP DUP2 MSTORE PUSH1 0x20 ADD PUSH1 0x40 MLOAD DUP1 PUSH1 0x40 ADD PUSH1 0x40 MSTORE DUP1 PUSH1 0x7 DUP2 MSTORE PUSH1 0x20 ADD PUSH32 0x2333303534424600000000000000000000000000000000000000000000000000 DUP2 MSTORE POP DUP2 MSTORE POP DUP2 MSTORE PUSH1 0x20 ADD PUSH1 0x40 MLOAD DUP1 PUSH1 0xA0 ADD PUSH1 0x40 MSTORE DUP1 PUSH1 0x40 MLOAD DUP1 PUSH1 0x40 ADD PUSH1 0x40 MSTORE DUP1 PUSH1 0x7 DUP2 MSTORE PUSH1 0x20 ADD PUSH32 0x2342463336413800000000000000000000000000000000000000000000000000 DUP2 MSTORE POP DUP2 MSTORE PUSH1 0x20 ADD PUSH1 0x40 MLOAD DUP1 PUSH1 0x40 ADD PUSH1 0x40 MSTORE DUP1 PUSH1 0x7 DUP2 MSTORE PUSH1 0x20 ADD PUSH32 0x2344393535383500000000000000000000000000000000000000000000000000 DUP2 MSTORE POP DUP2 MSTORE PUSH1 0x20 ADD PUSH1 0x40 MLOAD DUP1 PUSH1 0x40 ADD PUSH1 0x40 MSTORE DUP1 PUSH1 0x7 DUP2 MSTORE PUSH1 0x20 ADD PUSH32 0x2334303243424600000000000000000000000000000000000000000000000000 DUP2 MSTORE POP DUP2 MSTORE PUSH1 0x20 ADD PUSH1 0x40 MLOAD DUP1 PUSH1 0x40 ADD PUSH1 0x40 MSTORE DUP1 PUSH1 0x7 DUP2 MSTORE PUSH1 0x20 ADD PUSH32 0x2333303534424600000000000000000000000000000000000000000000000000 DUP2 MSTORE POP DUP2 MSTORE PUSH1 0x20 ADD PUSH1 0x40 MLOAD DUP1 PUSH1 0x40 ADD PUSH1 0x40 MSTORE DUP1 PUSH1 0x7 DUP2 MSTORE PUSH1 0x20 ADD PUSH32 0x2333343139343000000000000000000000000000000000000000000000000000 DUP2 MSTORE POP DUP2 MSTORE POP DUP2 MSTORE PUSH1 0x20 ADD PUSH1 0x40 MLOAD DUP1 PUSH1 0xA0 ADD PUSH1 0x40 MSTORE DUP1 PUSH1 0x40 MLOAD DUP1 PUSH1 0x40 ADD PUSH1 0x40 MSTORE DUP1 PUSH1 0x7 DUP2 MSTORE PUSH1 0x20 ADD PUSH32 0x2342463336413800000000000000000000000000000000000000000000000000 DUP2 MSTORE POP DUP2 MSTORE PUSH1 0x20 ADD PUSH1 0x40 MLOAD DUP1 PUSH1 0x40 ADD PUSH1 0x40 MSTORE DUP1 PUSH1 0x7 DUP2 MSTORE PUSH1 0x20 ADD PUSH32 0x2344393535383500000000000000000000000000000000000000000000000000 DUP2 MSTORE POP DUP2 MSTORE PUSH1 0x20 ADD PUSH1 0x40 MLOAD DUP1 PUSH1 0x40 ADD PUSH1 0x40 MSTORE DUP1 PUSH1 0x7 DUP2 MSTORE PUSH1 0x20 ADD PUSH32 0x2333303534424600000000000000000000000000000000000000000000000000 DUP2 MSTORE POP DUP2 MSTORE PUSH1 0x20 ADD PUSH1 0x40 MLOAD DUP1 PUSH1 0x40 ADD PUSH1 0x40 MSTORE DUP1 PUSH1 0x7 DUP2 MSTORE PUSH1 0x20 ADD PUSH32 0x2333343139343000000000000000000000000000000000000000000000000000 DUP2 MSTORE POP DUP2 MSTORE PUSH1 0x20 ADD PUSH1 0x40 MLOAD DUP1 PUSH1 0x40 ADD PUSH1 0x40 MSTORE DUP1 PUSH1 0x7 DUP2 MSTORE PUSH1 0x20 ADD PUSH32 0x2334303243424600000000000000000000000000000000000000000000000000 DUP2 MSTORE POP DUP2 MSTORE POP DUP2 MSTORE PUSH1 0x20 ADD PUSH1 0x40 MLOAD DUP1 PUSH1 0xA0 ADD PUSH1 0x40 MSTORE DUP1 PUSH1 0x40 MLOAD DUP1 PUSH1 0x40 ADD PUSH1 0x40 MSTORE DUP1 PUSH1 0x7 DUP2 MSTORE PUSH1 0x20 ADD PUSH32 0x2342463336413800000000000000000000000000000000000000000000000000 DUP2 MSTORE POP DUP2 MSTORE PUSH1 0x20 ADD PUSH1 0x40 MLOAD DUP1 PUSH1 0x40 ADD PUSH1 0x40 MSTORE DUP1 PUSH1 0x7 DUP2 MSTORE PUSH1 0x20 ADD PUSH32 0x2344393535383500000000000000000000000000000000000000000000000000 DUP2 MSTORE POP DUP2 MSTORE PUSH1 0x20 ADD PUSH1 0x40 MLOAD DUP1 PUSH1 0x40 ADD PUSH1 0x40 MSTORE DUP1 PUSH1 0x7 DUP2 MSTORE PUSH1 0x20 ADD PUSH32 0x2333303534424600000000000000000000000000000000000000000000000000 DUP2 MSTORE POP DUP2 MSTORE PUSH1 0x20 ADD PUSH1 0x40 MLOAD DUP1 PUSH1 0x40 ADD PUSH1 0x40 MSTORE DUP1 PUSH1 0x7 DUP2 MSTORE PUSH1 0x20 ADD PUSH32 0x2334303243424600000000000000000000000000000000000000000000000000 DUP2 MSTORE POP DUP2 MSTORE PUSH1 0x20 ADD PUSH1 0x40 MLOAD DUP1 PUSH1 0x40 ADD PUSH1 0x40 MSTORE DUP1 PUSH1 0x7 DUP2 MSTORE PUSH1 0x20 ADD PUSH32 0x2333343139343000000000000000000000000000000000000000000000000000 DUP2 MSTORE POP DUP2 MSTORE POP DUP2 MSTORE PUSH1 0x20 ADD PUSH1 0x40 MLOAD DUP1 PUSH1 0xA0 ADD PUSH1 0x40 MSTORE DUP1 PUSH1 0x40 MLOAD DUP1 PUSH1 0x40 ADD PUSH1 0x40 MSTORE DUP1 PUSH1 0x7 DUP2 MSTORE PUSH1 0x20 ADD PUSH32 0x2342463336413800000000000000000000000000000000000000000000000000 DUP2 MSTORE POP DUP2 MSTORE PUSH1 0x20 ADD PUSH1 0x40 MLOAD DUP1 PUSH1 0x40 ADD PUSH1 0x40 MSTORE DUP1 PUSH1 0x7 DUP2 MSTORE PUSH1 0x20 ADD PUSH32 0x2344393535383500000000000000000000000000000000000000000000000000 DUP2 MSTORE POP DUP2 MSTORE PUSH1 0x20 ADD PUSH1 0x40 MLOAD DUP1 PUSH1 0x40 ADD PUSH1 0x40 MSTORE DUP1 PUSH1 0x7 DUP2 MSTORE PUSH1 0x20 ADD PUSH32 0x2333343139343000000000000000000000000000000000000000000000000000 DUP2 MSTORE POP DUP2 MSTORE PUSH1 0x20 ADD PUSH1 0x40 MLOAD DUP1 PUSH1 0x40 ADD PUSH1 0x40 MSTORE DUP1 PUSH1 0x7 DUP2 MSTORE PUSH1 0x20 ADD PUSH32 0x2334303243424600000000000000000000000000000000000000000000000000 DUP2 MSTORE POP DUP2 MSTORE PUSH1 0x20 ADD PUSH1 0x40 MLOAD DUP1 PUSH1 0x40 ADD PUSH1 0x40 MSTORE DUP1 PUSH1 0x7 DUP2 MSTORE PUSH1 0x20 ADD PUSH32 0x2333303534424600000000000000000000000000000000000000000000000000 DUP2 MSTORE POP DUP2 MSTORE POP DUP2 MSTORE PUSH1 0x20 ADD PUSH1 0x40 MLOAD DUP1 PUSH1 0xA0 ADD PUSH1 0x40 MSTORE DUP1 PUSH1 0x40 MLOAD DUP1 PUSH1 0x40 ADD PUSH1 0x40 MSTORE DUP1 PUSH1 0x7 DUP2 MSTORE PUSH1 0x20 ADD PUSH32 0x2342463336413800000000000000000000000000000000000000000000000000 DUP2 MSTORE POP DUP2 MSTORE PUSH1 0x20 ADD PUSH1 0x40 MLOAD DUP1 PUSH1 0x40 ADD PUSH1 0x40 MSTORE DUP1 PUSH1 0x7 DUP2 MSTORE PUSH1 0x20 ADD PUSH32 0x2344393535383500000000000000000000000000000000000000000000000000 DUP2 MSTORE POP DUP2 MSTORE PUSH1 0x20 ADD PUSH1 0x40 MLOAD DUP1 PUSH1 0x40 ADD PUSH1 0x40 MSTORE DUP1 PUSH1 0x7 DUP2 MSTORE PUSH1 0x20 ADD PUSH32 0x2333343139343000000000000000000000000000000000000000000000000000 DUP2 MSTORE POP DUP2 MSTORE PUSH1 0x20 ADD PUSH1 0x40 MLOAD DUP1 PUSH1 0x40 ADD PUSH1 0x40 MSTORE DUP1 PUSH1 0x7 DUP2 MSTORE PUSH1 0x20 ADD PUSH32 0x2333303534424600000000000000000000000000000000000000000000000000 DUP2 MSTORE POP DUP2 MSTORE PUSH1 0x20 ADD PUSH1 0x40 MLOAD DUP1 PUSH1 0x40 ADD PUSH1 0x40 MSTORE DUP1 PUSH1 0x7 DUP2 MSTORE PUSH1 0x20 ADD PUSH32 0x2334303243424600000000000000000000000000000000000000000000000000 DUP2 MSTORE POP DUP2 MSTORE POP DUP2 MSTORE PUSH1 0x20 ADD PUSH1 0x40 MLOAD DUP1 PUSH1 0xA0 ADD PUSH1 0x40 MSTORE DUP1 PUSH1 0x40 MLOAD DUP1 PUSH1 0x40 ADD PUSH1 0x40 MSTORE DUP1 PUSH1 0x7 DUP2 MSTORE PUSH1 0x20 ADD PUSH32 0x2333384244463200000000000000000000000000000000000000000000000000 DUP2 MSTORE POP DUP2 MSTORE PUSH1 0x20 ADD PUSH1 0x40 MLOAD DUP1 PUSH1 0x40 ADD PUSH1 0x40 MSTORE DUP1 PUSH1 0x7 DUP2 MSTORE PUSH1 0x20 ADD PUSH32 0x2346324145373200000000000000000000000000000000000000000000000000 DUP2 MSTORE POP DUP2 MSTORE PUSH1 0x20 ADD PUSH1 0x40 MLOAD DUP1 PUSH1 0x40 ADD PUSH1 0x40 MSTORE DUP1 PUSH1 0x7 DUP2 MSTORE PUSH1 0x20 ADD PUSH32 0x2336443242443400000000000000000000000000000000000000000000000000 DUP2 MSTORE POP DUP2 MSTORE PUSH1 0x20 ADD PUSH1 0x40 MLOAD DUP1 PUSH1 0x40 ADD PUSH1 0x40 MSTORE DUP1 PUSH1 0x7 DUP2 MSTORE PUSH1 0x20 ADD PUSH32 0x2344393739343100000000000000000000000000000000000000000000000000 DUP2 MSTORE POP DUP2 MSTORE PUSH1 0x20 ADD PUSH1 0x40 MLOAD DUP1 PUSH1 0x40 ADD PUSH1 0x40 MSTORE DUP1 PUSH1 0x7 DUP2 MSTORE PUSH1 0x20 ADD PUSH32 0x2330444239434300000000000000000000000000000000000000000000000000 DUP2 MSTORE POP DUP2 MSTORE POP DUP2 MSTORE PUSH1 0x20 ADD PUSH1 0x40 MLOAD DUP1 PUSH1 0xA0 ADD PUSH1 0x40 MSTORE DUP1 PUSH1 0x40 MLOAD DUP1 PUSH1 0x40 ADD PUSH1 0x40 MSTORE DUP1 PUSH1 0x7 DUP2 MSTORE PUSH1 0x20 ADD PUSH32 0x2333384244463200000000000000000000000000000000000000000000000000 DUP2 MSTORE POP DUP2 MSTORE PUSH1 0x20 ADD PUSH1 0x40 MLOAD DUP1 PUSH1 0x40 ADD PUSH1 0x40 MSTORE DUP1 PUSH1 0x7 DUP2 MSTORE PUSH1 0x20 ADD PUSH32 0x2346324145373200000000000000000000000000000000000000000000000000 DUP2 MSTORE POP DUP2 MSTORE PUSH1 0x20 ADD PUSH1 0x40 MLOAD DUP1 PUSH1 0x40 ADD PUSH1 0x40 MSTORE DUP1 PUSH1 0x7 DUP2 MSTORE PUSH1 0x20 ADD PUSH32 0x2336443242443400000000000000000000000000000000000000000000000000 DUP2 MSTORE POP DUP2 MSTORE PUSH1 0x20 ADD PUSH1 0x40 MLOAD DUP1 PUSH1 0x40 ADD PUSH1 0x40 MSTORE DUP1 PUSH1 0x7 DUP2 MSTORE PUSH1 0x20 ADD PUSH32 0x2330444239434300000000000000000000000000000000000000000000000000 DUP2 MSTORE POP DUP2 MSTORE PUSH1 0x20 ADD PUSH1 0x40 MLOAD DUP1 PUSH1 0x40 ADD PUSH1 0x40 MSTORE DUP1 PUSH1 0x7 DUP2 MSTORE PUSH1 0x20 ADD PUSH32 0x2344393739343100000000000000000000000000000000000000000000000000 DUP2 MSTORE POP DUP2 MSTORE POP DUP2 MSTORE PUSH1 0x20 ADD PUSH1 0x40 MLOAD DUP1 PUSH1 0xA0 ADD PUSH1 0x40 MSTORE DUP1 PUSH1 0x40 MLOAD DUP1 PUSH1 0x40 ADD PUSH1 0x40 MSTORE DUP1 PUSH1 0x7 DUP2 MSTORE PUSH1 0x20 ADD PUSH32 0x2333384244463200000000000000000000000000000000000000000000000000 DUP2 MSTORE POP DUP2 MSTORE PUSH1 0x20 ADD PUSH1 0x40 MLOAD DUP1 PUSH1 0x40 ADD PUSH1 0x40 MSTORE DUP1 PUSH1 0x7 DUP2 MSTORE PUSH1 0x20 ADD PUSH32 0x2346324145373200000000000000000000000000000000000000000000000000 DUP2 MSTORE POP DUP2 MSTORE PUSH1 0x20 ADD PUSH1 0x40 MLOAD DUP1 PUSH1 0x40 ADD PUSH1 0x40 MSTORE DUP1 PUSH1 0x7 DUP2 MSTORE PUSH1 0x20 ADD PUSH32 0x2330444239434300000000000000000000000000000000000000000000000000 DUP2 MSTORE POP DUP2 MSTORE PUSH1 0x20 ADD PUSH1 0x40 MLOAD DUP1 PUSH1 0x40 ADD PUSH1 0x40 MSTORE DUP1 PUSH1 0x7 DUP2 MSTORE PUSH1 0x20 ADD PUSH32 0x2344393739343100000000000000000000000000000000000000000000000000 DUP2 MSTORE POP DUP2 MSTORE PUSH1 0x20 ADD PUSH1 0x40 MLOAD DUP1 PUSH1 0x40 ADD PUSH1 0x40 MSTORE DUP1 PUSH1 0x7 DUP2 MSTORE PUSH1 0x20 ADD PUSH32 0x2336443242443400000000000000000000000000000000000000000000000000 DUP2 MSTORE POP DUP2 MSTORE POP DUP2 MSTORE PUSH1 0x20 ADD PUSH1 0x40 MLOAD DUP1 PUSH1 0xA0 ADD PUSH1 0x40 MSTORE DUP1 PUSH1 0x40 MLOAD DUP1 PUSH1 0x40 ADD PUSH1 0x40 MSTORE DUP1 PUSH1 0x7 DUP2 MSTORE PUSH1 0x20 ADD PUSH32 0x2333384244463200000000000000000000000000000000000000000000000000 DUP2 MSTORE POP DUP2 MSTORE PUSH1 0x20 ADD PUSH1 0x40 MLOAD DUP1 PUSH1 0x40 ADD PUSH1 0x40 MSTORE DUP1 PUSH1 0x7 DUP2 MSTORE PUSH1 0x20 ADD PUSH32 0x2346324145373200000000000000000000000000000000000000000000000000 DUP2 MSTORE POP DUP2 MSTORE PUSH1 0x20 ADD PUSH1 0x40 MLOAD DUP1 PUSH1 0x40 ADD PUSH1 0x40 MSTORE DUP1 PUSH1 0x7 DUP2 MSTORE PUSH1 0x20 ADD PUSH32 0x2330444239434300000000000000000000000000000000000000000000000000 DUP2 MSTORE POP DUP2 MSTORE PUSH1 0x20 ADD PUSH1 0x40 MLOAD DUP1 PUSH1 0x40 ADD PUSH1 0x40 MSTORE DUP1 PUSH1 0x7 DUP2 MSTORE PUSH1 0x20 ADD PUSH32 0x2336443242443400000000000000000000000000000000000000000000000000 DUP2 MSTORE POP DUP2 MSTORE PUSH1 0x20 ADD PUSH1 0x40 MLOAD DUP1 PUSH1 0x40 ADD PUSH1 0x40 MSTORE DUP1 PUSH1 0x7 DUP2 MSTORE PUSH1 0x20 ADD PUSH32 0x2344393739343100000000000000000000000000000000000000000000000000 DUP2 MSTORE POP DUP2 MSTORE POP DUP2 MSTORE PUSH1 0x20 ADD PUSH1 0x40 MLOAD DUP1 PUSH1 0xA0 ADD PUSH1 0x40 MSTORE DUP1 PUSH1 0x40 MLOAD DUP1 PUSH1 0x40 ADD PUSH1 0x40 MSTORE DUP1 PUSH1 0x7 DUP2 MSTORE PUSH1 0x20 ADD PUSH32 0x2333384244463200000000000000000000000000000000000000000000000000 DUP2 MSTORE POP DUP2 MSTORE PUSH1 0x20 ADD PUSH1 0x40 MLOAD DUP1 PUSH1 0x40 ADD PUSH1 0x40 MSTORE DUP1 PUSH1 0x7 DUP2 MSTORE PUSH1 0x20 ADD PUSH32 0x2346324145373200000000000000000000000000000000000000000000000000 DUP2 MSTORE POP DUP2 MSTORE PUSH1 0x20 ADD PUSH1 0x40 MLOAD DUP1 PUSH1 0x40 ADD PUSH1 0x40 MSTORE DUP1 PUSH1 0x7 DUP2 MSTORE PUSH1 0x20 ADD PUSH32 0x2330444239434300000000000000000000000000000000000000000000000000 DUP2 MSTORE POP DUP2 MSTORE PUSH1 0x20 ADD PUSH1 0x40 MLOAD DUP1 PUSH1 0x40 ADD PUSH1 0x40 MSTORE DUP1 PUSH1 0x7 DUP2 MSTORE PUSH1 0x20 ADD PUSH32 0x2344393739343100000000000000000000000000000000000000000000000000 DUP2 MSTORE POP DUP2 MSTORE PUSH1 0x20 ADD PUSH1 0x40 MLOAD DUP1 PUSH1 0x40 ADD PUSH1 0x40 MSTORE DUP1 PUSH1 0x7 DUP2 MSTORE PUSH1 0x20 ADD PUSH32 0x2336443242443400000000000000000000000000000000000000000000000000 DUP2 MSTORE POP DUP2 MSTORE POP DUP2 MSTORE PUSH1 0x20 ADD PUSH1 0x40 MLOAD DUP1 PUSH1 0xA0 ADD PUSH1 0x40 MSTORE DUP1 PUSH1 0x40 MLOAD DUP1 PUSH1 0x40 ADD PUSH1 0x40 MSTORE DUP1 PUSH1 0x7 DUP2 MSTORE PUSH1 0x20 ADD PUSH32 0x2333384244463200000000000000000000000000000000000000000000000000 DUP2 MSTORE POP DUP2 MSTORE PUSH1 0x20 ADD PUSH1 0x40 MLOAD DUP1 PUSH1 0x40 ADD PUSH1 0x40 MSTORE DUP1 PUSH1 0x7 DUP2 MSTORE PUSH1 0x20 ADD PUSH32 0x2346324145373200000000000000000000000000000000000000000000000000 DUP2 MSTORE POP DUP2 MSTORE PUSH1 0x20 ADD PUSH1 0x40 MLOAD DUP1 PUSH1 0x40 ADD PUSH1 0x40 MSTORE DUP1 PUSH1 0x7 DUP2 MSTORE PUSH1 0x20 ADD PUSH32 0x2330444239434300000000000000000000000000000000000000000000000000 DUP2 MSTORE POP DUP2 MSTORE PUSH1 0x20 ADD PUSH1 0x40 MLOAD DUP1 PUSH1 0x40 ADD PUSH1 0x40 MSTORE DUP1 PUSH1 0x7 DUP2 MSTORE PUSH1 0x20 ADD PUSH32 0x2336443242443400000000000000000000000000000000000000000000000000 DUP2 MSTORE POP DUP2 MSTORE PUSH1 0x20 ADD PUSH1 0x40 MLOAD DUP1 PUSH1 0x40 ADD PUSH1 0x40 MSTORE DUP1 PUSH1 0x7 DUP2 MSTORE PUSH1 0x20 ADD PUSH32 0x2344393739343100000000000000000000000000000000000000000000000000 DUP2 MSTORE POP DUP2 MSTORE POP DUP2 MSTORE PUSH1 0x20 ADD PUSH1 0x40 MLOAD DUP1 PUSH1 0xA0 ADD PUSH1 0x40 MSTORE DUP1 PUSH1 0x40 MLOAD DUP1 PUSH1 0x40 ADD PUSH1 0x40 MSTORE DUP1 PUSH1 0x7 DUP2 MSTORE PUSH1 0x20 ADD PUSH32 0x2346323642314400000000000000000000000000000000000000000000000000 DUP2 MSTORE POP DUP2 MSTORE PUSH1 0x20 ADD PUSH1 0x40 MLOAD DUP1 PUSH1 0x40 ADD PUSH1 0x40 MSTORE DUP1 PUSH1 0x7 DUP2 MSTORE PUSH1 0x20 ADD PUSH32 0x2338443545463200000000000000000000000000000000000000000000000000 DUP2 MSTORE POP DUP2 MSTORE PUSH1 0x20 ADD PUSH1 0x40 MLOAD DUP1 PUSH1 0x40 ADD PUSH1 0x40 MSTORE DUP1 PUSH1 0x7 DUP2 MSTORE PUSH1 0x20 ADD PUSH32 0x2346323737433700000000000000000000000000000000000000000000000000 DUP2 MSTORE POP DUP2 MSTORE PUSH1 0x20 ADD PUSH1 0x40 MLOAD DUP1 PUSH1 0x40 ADD PUSH1 0x40 MSTORE DUP1 PUSH1 0x7 DUP2 MSTORE PUSH1 0x20 ADD PUSH32 0x2335423434463200000000000000000000000000000000000000000000000000 DUP2 MSTORE POP DUP2 MSTORE PUSH1 0x20 ADD PUSH1 0x40 MLOAD DUP1 PUSH1 0x40 ADD PUSH1 0x40 MSTORE DUP1 PUSH1 0x7 DUP2 MSTORE PUSH1 0x20 ADD PUSH32 0x2346324538353200000000000000000000000000000000000000000000000000 DUP2 MSTORE POP DUP2 MSTORE POP DUP2 MSTORE PUSH1 0x20 ADD PUSH1 0x40 MLOAD DUP1 PUSH1 0xA0 ADD PUSH1 0x40 MSTORE DUP1 PUSH1 0x40 MLOAD DUP1 PUSH1 0x40 ADD PUSH1 0x40 MSTORE DUP1 PUSH1 0x7 DUP2 MSTORE PUSH1 0x20 ADD PUSH32 0x2346323642314400000000000000000000000000000000000000000000000000 DUP2 MSTORE POP DUP2 MSTORE PUSH1 0x20 ADD PUSH1 0x40 MLOAD DUP1 PUSH1 0x40 ADD PUSH1 0x40 MSTORE DUP1 PUSH1 0x7 DUP2 MSTORE PUSH1 0x20 ADD PUSH32 0x2338443545463200000000000000000000000000000000000000000000000000 DUP2 MSTORE POP DUP2 MSTORE PUSH1 0x20 ADD PUSH1 0x40 MLOAD DUP1 PUSH1 0x40 ADD PUSH1 0x40 MSTORE DUP1 PUSH1 0x7 DUP2 MSTORE PUSH1 0x20 ADD PUSH32 0x2346323737433700000000000000000000000000000000000000000000000000 DUP2 MSTORE POP DUP2 MSTORE PUSH1 0x20 ADD PUSH1 0x40 MLOAD DUP1 PUSH1 0x40 ADD PUSH1 0x40 MSTORE DUP1 PUSH1 0x7 DUP2 MSTORE PUSH1 0x20 ADD PUSH32 0x2346324538353200000000000000000000000000000000000000000000000000 DUP2 MSTORE POP DUP2 MSTORE PUSH1 0x20 ADD PUSH1 0x40 MLOAD DUP1 PUSH1 0x40 ADD PUSH1 0x40 MSTORE DUP1 PUSH1 0x7 DUP2 MSTORE PUSH1 0x20 ADD PUSH32 0x2335423434463200000000000000000000000000000000000000000000000000 DUP2 MSTORE POP DUP2 MSTORE POP DUP2 MSTORE PUSH1 0x20 ADD PUSH1 0x40 MLOAD DUP1 PUSH1 0xA0 ADD PUSH1 0x40 MSTORE DUP1 PUSH1 0x40 MLOAD DUP1 PUSH1 0x40 ADD PUSH1 0x40 MSTORE DUP1 PUSH1 0x7 DUP2 MSTORE PUSH1 0x20 ADD PUSH32 0x2346323642314400000000000000000000000000000000000000000000000000 DUP2 MSTORE POP DUP2 MSTORE PUSH1 0x20 ADD PUSH1 0x40 MLOAD DUP1 PUSH1 0x40 ADD PUSH1 0x40 MSTORE DUP1 PUSH1 0x7 DUP2 MSTORE PUSH1 0x20 ADD PUSH32 0x2338443545463200000000000000000000000000000000000000000000000000 DUP2 MSTORE POP DUP2 MSTORE PUSH1 0x20 ADD PUSH1 0x40 MLOAD DUP1 PUSH1 0x40 ADD PUSH1 0x40 MSTORE DUP1 PUSH1 0x7 DUP2 MSTORE PUSH1 0x20 ADD PUSH32 0x2335423434463200000000000000000000000000000000000000000000000000 DUP2 MSTORE POP DUP2 MSTORE PUSH1 0x20 ADD PUSH1 0x40 MLOAD DUP1 PUSH1 0x40 ADD PUSH1 0x40 MSTORE DUP1 PUSH1 0x7 DUP2 MSTORE PUSH1 0x20 ADD PUSH32 0x2346323737433700000000000000000000000000000000000000000000000000 DUP2 MSTORE POP DUP2 MSTORE PUSH1 0x20 ADD PUSH1 0x40 MLOAD DUP1 PUSH1 0x40 ADD PUSH1 0x40 MSTORE DUP1 PUSH1 0x7 DUP2 MSTORE PUSH1 0x20 ADD PUSH32 0x2346324538353200000000000000000000000000000000000000000000000000 DUP2 MSTORE POP DUP2 MSTORE POP DUP2 MSTORE PUSH1 0x20 ADD PUSH1 0x40 MLOAD DUP1 PUSH1 0xA0 ADD PUSH1 0x40 MSTORE DUP1 PUSH1 0x40 MLOAD DUP1 PUSH1 0x40 ADD PUSH1 0x40 MSTORE DUP1 PUSH1 0x7 DUP2 MSTORE PUSH1 0x20 ADD PUSH32 0x2346323642314400000000000000000000000000000000000000000000000000 DUP2 MSTORE POP DUP2 MSTORE PUSH1 0x20 ADD PUSH1 0x40 MLOAD DUP1 PUSH1 0x40 ADD PUSH1 0x40 MSTORE DUP1 PUSH1 0x7 DUP2 MSTORE PUSH1 0x20 ADD PUSH32 0x2338443545463200000000000000000000000000000000000000000000000000 DUP2 MSTORE POP DUP2 MSTORE PUSH1 0x20 ADD PUSH1 0x40 MLOAD DUP1 PUSH1 0x40 ADD PUSH1 0x40 MSTORE DUP1 PUSH1 0x7 DUP2 MSTORE PUSH1 0x20 ADD PUSH32 0x2335423434463200000000000000000000000000000000000000000000000000 DUP2 MSTORE POP DUP2 MSTORE PUSH1 0x20 ADD PUSH1 0x40 MLOAD DUP1 PUSH1 0x40 ADD PUSH1 0x40 MSTORE DUP1 PUSH1 0x7 DUP2 MSTORE PUSH1 0x20 ADD PUSH32 0x2346324538353200000000000000000000000000000000000000000000000000 DUP2 MSTORE POP DUP2 MSTORE PUSH1 0x20 ADD PUSH1 0x40 MLOAD DUP1 PUSH1 0x40 ADD PUSH1 0x40 MSTORE DUP1 PUSH1 0x7 DUP2 MSTORE PUSH1 0x20 ADD PUSH32 0x2346323737433700000000000000000000000000000000000000000000000000 DUP2 MSTORE POP DUP2 MSTORE POP DUP2 MSTORE PUSH1 0x20 ADD PUSH1 0x40 MLOAD DUP1 PUSH1 0xA0 ADD PUSH1 0x40 MSTORE DUP1 PUSH1 0x40 MLOAD DUP1 PUSH1 0x40 ADD PUSH1 0x40 MSTORE DUP1 PUSH1 0x7 DUP2 MSTORE PUSH1 0x20 ADD PUSH32 0x2346323642314400000000000000000000000000000000000000000000000000 DUP2 MSTORE POP DUP2 MSTORE PUSH1 0x20 ADD PUSH1 0x40 MLOAD DUP1 PUSH1 0x40 ADD PUSH1 0x40 MSTORE DUP1 PUSH1 0x7 DUP2 MSTORE PUSH1 0x20 ADD PUSH32 0x2338443545463200000000000000000000000000000000000000000000000000 DUP2 MSTORE POP DUP2 MSTORE PUSH1 0x20 ADD PUSH1 0x40 MLOAD DUP1 PUSH1 0x40 ADD PUSH1 0x40 MSTORE DUP1 PUSH1 0x8 DUP2 MSTORE PUSH1 0x20 ADD PUSH32 0x2346324538353220000000000000000000000000000000000000000000000000 DUP2 MSTORE POP DUP2 MSTORE PUSH1 0x20 ADD PUSH1 0x40 MLOAD DUP1 PUSH1 0x40 ADD PUSH1 0x40 MSTORE DUP1 PUSH1 0x7 DUP2 MSTORE PUSH1 0x20 ADD PUSH32 0x2335423434463200000000000000000000000000000000000000000000000000 DUP2 MSTORE POP DUP2 MSTORE PUSH1 0x20 ADD PUSH1 0x40 MLOAD DUP1 PUSH1 0x40 ADD PUSH1 0x40 MSTORE DUP1 PUSH1 0x7 DUP2 MSTORE PUSH1 0x20 ADD PUSH32 0x2346323737433700000000000000000000000000000000000000000000000000 DUP2 MSTORE POP DUP2 MSTORE POP DUP2 MSTORE PUSH1 0x20 ADD PUSH1 0x40 MLOAD DUP1 PUSH1 0xA0 ADD PUSH1 0x40 MSTORE DUP1 PUSH1 0x40 MLOAD DUP1 PUSH1 0x40 ADD PUSH1 0x40 MSTORE DUP1 PUSH1 0x7 DUP2 MSTORE PUSH1 0x20 ADD PUSH32 0x2346323642314400000000000000000000000000000000000000000000000000 DUP2 MSTORE POP DUP2 MSTORE PUSH1 0x20 ADD PUSH1 0x40 MLOAD DUP1 PUSH1 0x40 ADD PUSH1 0x40 MSTORE DUP1 PUSH1 0x7 DUP2 MSTORE PUSH1 0x20 ADD PUSH32 0x2338443545463200000000000000000000000000000000000000000000000000 DUP2 MSTORE POP DUP2 MSTORE PUSH1 0x20 ADD PUSH1 0x40 MLOAD DUP1 PUSH1 0x40 ADD PUSH1 0x40 MSTORE DUP1 PUSH1 0x8 DUP2 MSTORE PUSH1 0x20 ADD PUSH32 0x2346324538353220000000000000000000000000000000000000000000000000 DUP2 MSTORE POP DUP2 MSTORE PUSH1 0x20 ADD PUSH1 0x40 MLOAD DUP1 PUSH1 0x40 ADD PUSH1 0x40 MSTORE DUP1 PUSH1 0x8 DUP2 MSTORE PUSH1 0x20 ADD PUSH32 0x2320463237374337000000000000000000000000000000000000000000000000 DUP2 MSTORE POP DUP2 MSTORE PUSH1 0x20 ADD PUSH1 0x40 MLOAD DUP1 PUSH1 0x40 ADD PUSH1 0x40 MSTORE DUP1 PUSH1 0x7 DUP2 MSTORE PUSH1 0x20 ADD PUSH32 0x2335423434463200000000000000000000000000000000000000000000000000 DUP2 MSTORE POP DUP2 MSTORE POP DUP2 MSTORE PUSH1 0x20 ADD PUSH1 0x40 MLOAD DUP1 PUSH1 0xA0 ADD PUSH1 0x40 MSTORE DUP1 PUSH1 0x40 MLOAD DUP1 PUSH1 0x40 ADD PUSH1 0x40 MSTORE DUP1 PUSH1 0x7 DUP2 MSTORE PUSH1 0x20 ADD PUSH32 0x2336343538384300000000000000000000000000000000000000000000000000 DUP2 MSTORE POP DUP2 MSTORE PUSH1 0x20 ADD PUSH1 0x40 MLOAD DUP1 PUSH1 0x40 ADD PUSH1 0x40 MSTORE DUP1 PUSH1 0x7 DUP2 MSTORE PUSH1 0x20 ADD PUSH32 0x2341454536463200000000000000000000000000000000000000000000000000 DUP2 MSTORE POP DUP2 MSTORE PUSH1 0x20 ADD PUSH1 0x40 MLOAD DUP1 PUSH1 0x40 ADD PUSH1 0x40 MSTORE DUP1 PUSH1 0x7 DUP2 MSTORE PUSH1 0x20 ADD PUSH32 0x2341343936443900000000000000000000000000000000000000000000000000 DUP2 MSTORE POP DUP2 MSTORE PUSH1 0x20 ADD PUSH1 0x40 MLOAD DUP1 PUSH1 0x40 ADD PUSH1 0x40 MSTORE DUP1 PUSH1 0x7 DUP2 MSTORE PUSH1 0x20 ADD PUSH32 0x2337333536343500000000000000000000000000000000000000000000000000 DUP2 MSTORE POP DUP2 MSTORE PUSH1 0x20 ADD PUSH1 0x40 MLOAD DUP1 PUSH1 0x40 ADD PUSH1 0x40 MSTORE DUP1 PUSH1 0x7 DUP2 MSTORE PUSH1 0x20 ADD PUSH32 0x2346324137413700000000000000000000000000000000000000000000000000 DUP2 MSTORE POP DUP2 MSTORE POP DUP2 MSTORE PUSH1 0x20 ADD PUSH1 0x40 MLOAD DUP1 PUSH1 0xA0 ADD PUSH1 0x40 MSTORE DUP1 PUSH1 0x40 MLOAD DUP1 PUSH1 0x40 ADD PUSH1 0x40 MSTORE DUP1 PUSH1 0x7 DUP2 MSTORE PUSH1 0x20 ADD PUSH32 0x2336343538384300000000000000000000000000000000000000000000000000 DUP2 MSTORE POP DUP2 MSTORE PUSH1 0x20 ADD PUSH1 0x40 MLOAD DUP1 PUSH1 0x40 ADD PUSH1 0x40 MSTORE DUP1 PUSH1 0x7 DUP2 MSTORE PUSH1 0x20 ADD PUSH32 0x2341454536463200000000000000000000000000000000000000000000000000 DUP2 MSTORE POP DUP2 MSTORE PUSH1 0x20 ADD PUSH1 0x40 MLOAD DUP1 PUSH1 0x40 ADD PUSH1 0x40 MSTORE DUP1 PUSH1 0x7 DUP2 MSTORE PUSH1 0x20 ADD PUSH32 0x2341343936443900000000000000000000000000000000000000000000000000 DUP2 MSTORE POP DUP2 MSTORE PUSH1 0x20 ADD PUSH1 0x40 MLOAD DUP1 PUSH1 0x40 ADD PUSH1 0x40 MSTORE DUP1 PUSH1 0x7 DUP2 MSTORE PUSH1 0x20 ADD PUSH32 0x2337333536343500000000000000000000000000000000000000000000000000 DUP2 MSTORE POP DUP2 MSTORE PUSH1 0x20 ADD PUSH1 0x40 MLOAD DUP1 PUSH1 0x40 ADD PUSH1 0x40 MSTORE DUP1 PUSH1 0x7 DUP2 MSTORE PUSH1 0x20 ADD PUSH32 0x2346324137413700000000000000000000000000000000000000000000000000 DUP2 MSTORE POP DUP2 MSTORE POP DUP2 MSTORE PUSH1 0x20 ADD PUSH1 0x40 MLOAD DUP1 PUSH1 0xA0 ADD PUSH1 0x40 MSTORE DUP1 PUSH1 0x40 MLOAD DUP1 PUSH1 0x40 ADD PUSH1 0x40 MSTORE DUP1 PUSH1 0x7 DUP2 MSTORE PUSH1 0x20 ADD PUSH32 0x2336343538384300000000000000000000000000000000000000000000000000 DUP2 MSTORE POP DUP2 MSTORE PUSH1 0x20 ADD PUSH1 0x40 MLOAD DUP1 PUSH1 0x40 ADD PUSH1 0x40 MSTORE DUP1 PUSH1 0x7 DUP2 MSTORE PUSH1 0x20 ADD PUSH32 0x2341454536463200000000000000000000000000000000000000000000000000 DUP2 MSTORE POP DUP2 MSTORE PUSH1 0x20 ADD PUSH1 0x40 MLOAD DUP1 PUSH1 0x40 ADD PUSH1 0x40 MSTORE DUP1 PUSH1 0x8 DUP2 MSTORE PUSH1 0x20 ADD PUSH32 0x2346324137413720000000000000000000000000000000000000000000000000 DUP2 MSTORE POP DUP2 MSTORE PUSH1 0x20 ADD PUSH1 0x40 MLOAD DUP1 PUSH1 0x40 ADD PUSH1 0x40 MSTORE DUP1 PUSH1 0x7 DUP2 MSTORE PUSH1 0x20 ADD PUSH32 0x2337333536343500000000000000000000000000000000000000000000000000 DUP2 MSTORE POP DUP2 MSTORE PUSH1 0x20 ADD PUSH1 0x40 MLOAD DUP1 PUSH1 0x40 ADD PUSH1 0x40 MSTORE DUP1 PUSH1 0x7 DUP2 MSTORE PUSH1 0x20 ADD PUSH32 0x2341343936443900000000000000000000000000000000000000000000000000 DUP2 MSTORE POP DUP2 MSTORE POP DUP2 MSTORE PUSH1 0x20 ADD PUSH1 0x40 MLOAD DUP1 PUSH1 0xA0 ADD PUSH1 0x40 MSTORE DUP1 PUSH1 0x40 MLOAD DUP1 PUSH1 0x40 ADD PUSH1 0x40 MSTORE DUP1 PUSH1 0x7 DUP2 MSTORE PUSH1 0x20 ADD PUSH32 0x2336343538384300000000000000000000000000000000000000000000000000 DUP2 MSTORE POP DUP2 MSTORE PUSH1 0x20 ADD PUSH1 0x40 MLOAD DUP1 PUSH1 0x40 ADD PUSH1 0x40 MSTORE DUP1 PUSH1 0x7 DUP2 MSTORE PUSH1 0x20 ADD PUSH32 0x2341454536463200000000000000000000000000000000000000000000000000 DUP2 MSTORE POP DUP2 MSTORE PUSH1 0x20 ADD PUSH1 0x40 MLOAD DUP1 PUSH1 0x40 ADD PUSH1 0x40 MSTORE DUP1 PUSH1 0x8 DUP2 MSTORE PUSH1 0x20 ADD PUSH32 0x2346324137413720000000000000000000000000000000000000000000000000 DUP2 MSTORE POP DUP2 MSTORE PUSH1 0x20 ADD PUSH1 0x40 MLOAD DUP1 PUSH1 0x40 ADD PUSH1 0x40 MSTORE DUP1 PUSH1 0x7 DUP2 MSTORE PUSH1 0x20 ADD PUSH32 0x2341343936443900000000000000000000000000000000000000000000000000 DUP2 MSTORE POP DUP2 MSTORE PUSH1 0x20 ADD PUSH1 0x40 MLOAD DUP1 PUSH1 0x40 ADD PUSH1 0x40 MSTORE DUP1 PUSH1 0x7 DUP2 MSTORE PUSH1 0x20 ADD PUSH32 0x2337333536343500000000000000000000000000000000000000000000000000 DUP2 MSTORE POP DUP2 MSTORE POP DUP2 MSTORE PUSH1 0x20 ADD PUSH1 0x40 MLOAD DUP1 PUSH1 0xA0 ADD PUSH1 0x40 MSTORE DUP1 PUSH1 0x40 MLOAD DUP1 PUSH1 0x40 ADD PUSH1 0x40 MSTORE DUP1 PUSH1 0x7 DUP2 MSTORE PUSH1 0x20 ADD PUSH32 0x2336343538384300000000000000000000000000000000000000000000000000 DUP2 MSTORE POP DUP2 MSTORE PUSH1 0x20 ADD PUSH1 0x40 MLOAD DUP1 PUSH1 0x40 ADD PUSH1 0x40 MSTORE DUP1 PUSH1 0x7 DUP2 MSTORE PUSH1 0x20 ADD PUSH32 0x2341454536463200000000000000000000000000000000000000000000000000 DUP2 MSTORE POP DUP2 MSTORE PUSH1 0x20 ADD PUSH1 0x40 MLOAD DUP1 PUSH1 0x40 ADD PUSH1 0x40 MSTORE DUP1 PUSH1 0x7 DUP2 MSTORE PUSH1 0x20 ADD PUSH32 0x2346324137413700000000000000000000000000000000000000000000000000 DUP2 MSTORE POP DUP2 MSTORE PUSH1 0x20 ADD PUSH1 0x40 MLOAD DUP1 PUSH1 0x40 ADD PUSH1 0x40 MSTORE DUP1 PUSH1 0x7 DUP2 MSTORE PUSH1 0x20 ADD PUSH32 0x2337333536343500000000000000000000000000000000000000000000000000 DUP2 MSTORE POP DUP2 MSTORE PUSH1 0x20 ADD PUSH1 0x40 MLOAD DUP1 PUSH1 0x40 ADD PUSH1 0x40 MSTORE DUP1 PUSH1 0x7 DUP2 MSTORE PUSH1 0x20 ADD PUSH32 0x2341343936443900000000000000000000000000000000000000000000000000 DUP2 MSTORE POP DUP2 MSTORE POP DUP2 MSTORE PUSH1 0x20 ADD PUSH1 0x40 MLOAD DUP1 PUSH1 0xA0 ADD PUSH1 0x40 MSTORE DUP1 PUSH1 0x40 MLOAD DUP1 PUSH1 0x40 ADD PUSH1 0x40 MSTORE DUP1 PUSH1 0x7 DUP2 MSTORE PUSH1 0x20 ADD PUSH32 0x2336343538384300000000000000000000000000000000000000000000000000 DUP2 MSTORE POP DUP2 MSTORE PUSH1 0x20 ADD PUSH1 0x40 MLOAD DUP1 PUSH1 0x40 ADD PUSH1 0x40 MSTORE DUP1 PUSH1 0x7 DUP2 MSTORE PUSH1 0x20 ADD PUSH32 0x2341454536463200000000000000000000000000000000000000000000000000 DUP2 MSTORE POP DUP2 MSTORE PUSH1 0x20 ADD PUSH1 0x40 MLOAD DUP1 PUSH1 0x40 ADD PUSH1 0x40 MSTORE DUP1 PUSH1 0x7 DUP2 MSTORE PUSH1 0x20 ADD PUSH32 0x2346324137413700000000000000000000000000000000000000000000000000 DUP2 MSTORE POP DUP2 MSTORE PUSH1 0x20 ADD PUSH1 0x40 MLOAD DUP1 PUSH1 0x40 ADD PUSH1 0x40 MSTORE DUP1 PUSH1 0x7 DUP2 MSTORE PUSH1 0x20 ADD PUSH32 0x2341343936443900000000000000000000000000000000000000000000000000 DUP2 MSTORE POP DUP2 MSTORE PUSH1 0x20 ADD PUSH1 0x40 MLOAD DUP1 PUSH1 0x40 ADD PUSH1 0x40 MSTORE DUP1 PUSH1 0x7 DUP2 MSTORE PUSH1 0x20 ADD PUSH32 0x2337333536343500000000000000000000000000000000000000000000000000 DUP2 MSTORE POP DUP2 MSTORE POP DUP2 MSTORE PUSH1 0x20 ADD PUSH1 0x40 MLOAD DUP1 PUSH1 0xA0 ADD PUSH1 0x40 MSTORE DUP1 PUSH1 0x40 MLOAD DUP1 PUSH1 0x40 ADD PUSH1 0x40 MSTORE DUP1 PUSH1 0x7 DUP2 MSTORE PUSH1 0x20 ADD PUSH32 0x2337333239333700000000000000000000000000000000000000000000000000 DUP2 MSTORE POP DUP2 MSTORE PUSH1 0x20 ADD PUSH1 0x40 MLOAD DUP1 PUSH1 0x40 ADD PUSH1 0x40 MSTORE DUP1 PUSH1 0x7 DUP2 MSTORE PUSH1 0x20 ADD PUSH32 0x2346324532434500000000000000000000000000000000000000000000000000 DUP2 MSTORE POP DUP2 MSTORE PUSH1 0x20 ADD PUSH1 0x40 MLOAD DUP1 PUSH1 0x40 ADD PUSH1 0x40 MSTORE DUP1 PUSH1 0x7 DUP2 MSTORE PUSH1 0x20 ADD PUSH32 0x2342463944384100000000000000000000000000000000000000000000000000 DUP2 MSTORE POP DUP2 MSTORE PUSH1 0x20 ADD PUSH1 0x40 MLOAD DUP1 PUSH1 0x40 ADD PUSH1 0x40 MSTORE DUP1 PUSH1 0x7 DUP2 MSTORE PUSH1 0x20 ADD PUSH32 0x2339443345363000000000000000000000000000000000000000000000000000 DUP2 MSTORE POP DUP2 MSTORE PUSH1 0x20 ADD PUSH1 0x40 MLOAD DUP1 PUSH1 0x40 ADD PUSH1 0x40 MSTORE DUP1 PUSH1 0x7 DUP2 MSTORE PUSH1 0x20 ADD PUSH32 0x2342433638363800000000000000000000000000000000000000000000000000 DUP2 MSTORE POP DUP2 MSTORE POP DUP2 MSTORE PUSH1 0x20 ADD PUSH1 0x40 MLOAD DUP1 PUSH1 0xA0 ADD PUSH1 0x40 MSTORE DUP1 PUSH1 0x40 MLOAD DUP1 PUSH1 0x40 ADD PUSH1 0x40 MSTORE DUP1 PUSH1 0x7 DUP2 MSTORE PUSH1 0x20 ADD PUSH32 0x2337333239333700000000000000000000000000000000000000000000000000 DUP2 MSTORE POP DUP2 MSTORE PUSH1 0x20 ADD PUSH1 0x40 MLOAD DUP1 PUSH1 0x40 ADD PUSH1 0x40 MSTORE DUP1 PUSH1 0x7 DUP2 MSTORE PUSH1 0x20 ADD PUSH32 0x2346324532434500000000000000000000000000000000000000000000000000 DUP2 MSTORE POP DUP2 MSTORE PUSH1 0x20 ADD PUSH1 0x40 MLOAD DUP1 PUSH1 0x40 ADD PUSH1 0x40 MSTORE DUP1 PUSH1 0x7 DUP2 MSTORE PUSH1 0x20 ADD PUSH32 0x2342463944384100000000000000000000000000000000000000000000000000 DUP2 MSTORE POP DUP2 MSTORE PUSH1 0x20 ADD PUSH1 0x40 MLOAD DUP1 PUSH1 0x40 ADD PUSH1 0x40 MSTORE DUP1 PUSH1 0x7 DUP2 MSTORE PUSH1 0x20 ADD PUSH32 0x2342433638363800000000000000000000000000000000000000000000000000 DUP2 MSTORE POP DUP2 MSTORE PUSH1 0x20 ADD PUSH1 0x40 MLOAD DUP1 PUSH1 0x40 ADD PUSH1 0x40 MSTORE DUP1 PUSH1 0x7 DUP2 MSTORE PUSH1 0x20 ADD PUSH32 0x2339443345363000000000000000000000000000000000000000000000000000 DUP2 MSTORE POP DUP2 MSTORE POP DUP2 MSTORE PUSH1 0x20 ADD PUSH1 0x40 MLOAD DUP1 PUSH1 0xA0 ADD PUSH1 0x40 MSTORE DUP1 PUSH1 0x40 MLOAD DUP1 PUSH1 0x40 ADD PUSH1 0x40 MSTORE DUP1 PUSH1 0x7 DUP2 MSTORE PUSH1 0x20 ADD PUSH32 0x2337333239333700000000000000000000000000000000000000000000000000 DUP2 MSTORE POP DUP2 MSTORE PUSH1 0x20 ADD PUSH1 0x40 MLOAD DUP1 PUSH1 0x40 ADD PUSH1 0x40 MSTORE DUP1 PUSH1 0x7 DUP2 MSTORE PUSH1 0x20 ADD PUSH32 0x2346324532434500000000000000000000000000000000000000000000000000 DUP2 MSTORE POP DUP2 MSTORE PUSH1 0x20 ADD PUSH1 0x40 MLOAD DUP1 PUSH1 0x40 ADD PUSH1 0x40 MSTORE DUP1 PUSH1 0x7 DUP2 MSTORE PUSH1 0x20 ADD PUSH32 0x2339443345363000000000000000000000000000000000000000000000000000 DUP2 MSTORE POP DUP2 MSTORE PUSH1 0x20 ADD PUSH1 0x40 MLOAD DUP1 PUSH1 0x40 ADD PUSH1 0x40 MSTORE DUP1 PUSH1 0x7 DUP2 MSTORE PUSH1 0x20 ADD PUSH32 0x2342463944384100000000000000000000000000000000000000000000000000 DUP2 MSTORE POP DUP2 MSTORE PUSH1 0x20 ADD PUSH1 0x40 MLOAD DUP1 PUSH1 0x40 ADD PUSH1 0x40 MSTORE DUP1 PUSH1 0x7 DUP2 MSTORE PUSH1 0x20 ADD PUSH32 0x2342433638363800000000000000000000000000000000000000000000000000 DUP2 MSTORE POP DUP2 MSTORE POP DUP2 MSTORE PUSH1 0x20 ADD PUSH1 0x40 MLOAD DUP1 PUSH1 0xA0 ADD PUSH1 0x40 MSTORE DUP1 PUSH1 0x40 MLOAD DUP1 PUSH1 0x40 ADD PUSH1 0x40 MSTORE DUP1 PUSH1 0x7 DUP2 MSTORE PUSH1 0x20 ADD PUSH32 0x2337333239333700000000000000000000000000000000000000000000000000 DUP2 MSTORE POP DUP2 MSTORE PUSH1 0x20 ADD PUSH1 0x40 MLOAD DUP1 PUSH1 0x40 ADD PUSH1 0x40 MSTORE DUP1 PUSH1 0x7 DUP2 MSTORE PUSH1 0x20 ADD PUSH32 0x2346324532434500000000000000000000000000000000000000000000000000 DUP2 MSTORE POP DUP2 MSTORE PUSH1 0x20 ADD PUSH1 0x40 MLOAD DUP1 PUSH1 0x40 ADD PUSH1 0x40 MSTORE DUP1 PUSH1 0x7 DUP2 MSTORE PUSH1 0x20 ADD PUSH32 0x2339443345363000000000000000000000000000000000000000000000000000 DUP2 MSTORE POP DUP2 MSTORE PUSH1 0x20 ADD PUSH1 0x40 MLOAD DUP1 PUSH1 0x40 ADD PUSH1 0x40 MSTORE DUP1 PUSH1 0x7 DUP2 MSTORE PUSH1 0x20 ADD PUSH32 0x2342433638363800000000000000000000000000000000000000000000000000 DUP2 MSTORE POP DUP2 MSTORE PUSH1 0x20 ADD PUSH1 0x40 MLOAD DUP1 PUSH1 0x40 ADD PUSH1 0x40 MSTORE DUP1 PUSH1 0x7 DUP2 MSTORE PUSH1 0x20 ADD PUSH32 0x2342463944384100000000000000000000000000000000000000000000000000 DUP2 MSTORE POP DUP2 MSTORE POP DUP2 MSTORE POP PUSH1 0x7 SWAP1 PUSH1 0x40 PUSH3 0x4D65 SWAP3 SWAP2 SWAP1 PUSH3 0x514D JUMP JUMPDEST POP PUSH1 0x40 MLOAD DUP1 PUSH1 0x60 ADD PUSH1 0x40 MSTORE DUP1 PUSH1 0x40 MLOAD DUP1 PUSH2 0x5A0 ADD PUSH1 0x40 MSTORE DUP1 PUSH2 0x567 DUP2 MSTORE PUSH1 0x20 ADD PUSH3 0xA69D PUSH2 0x567 SWAP2 CODECOPY DUP2 MSTORE PUSH1 0x20 ADD PUSH1 0x40 MLOAD DUP1 PUSH2 0x4C0 ADD PUSH1 0x40 MSTORE DUP1 PUSH2 0x49A DUP2 MSTORE PUSH1 0x20 ADD PUSH3 0xAF76 PUSH2 0x49A SWAP2 CODECOPY DUP2 MSTORE PUSH1 0x20 ADD PUSH1 0x40 MLOAD DUP1 PUSH2 0x2A0 ADD PUSH1 0x40 MSTORE DUP1 PUSH2 0x26D DUP2 MSTORE PUSH1 0x20 ADD PUSH3 0xAC28 PUSH2 0x26D SWAP2 CODECOPY DUP2 MSTORE POP PUSH2 0x147 SWAP1 PUSH1 0x3 PUSH3 0x4DE8 SWAP3 SWAP2 SWAP1 PUSH3 0x51A5 JUMP JUMPDEST POP PUSH1 0x40 MLOAD DUP1 PUSH2 0x100 ADD PUSH1 0x40 MSTORE DUP1 PUSH1 0x40 MLOAD DUP1 PUSH1 0x60 ADD PUSH1 0x40 MSTORE DUP1 PUSH1 0x0 PUSH1 0xFF AND DUP2 MSTORE PUSH1 0x20 ADD PUSH1 0x1 PUSH1 0xFF AND DUP2 MSTORE PUSH1 0x20 ADD PUSH1 0x2 PUSH1 0xFF AND DUP2 MSTORE POP DUP2 MSTORE PUSH1 0x20 ADD PUSH1 0x40 MLOAD DUP1 PUSH1 0x60 ADD PUSH1 0x40 MSTORE DUP1 PUSH1 0x0 PUSH1 0xFF AND DUP2 MSTORE PUSH1 0x20 ADD PUSH1 0x2 PUSH1 0xFF AND DUP2 MSTORE PUSH1 0x20 ADD PUSH1 0x1 PUSH1 0xFF AND DUP2 MSTORE POP DUP2 MSTORE PUSH1 0x20 ADD PUSH1 0x40 MLOAD DUP1 PUSH1 0x60 ADD PUSH1 0x40 MSTORE DUP1 PUSH1 0x1 PUSH1 0xFF AND DUP2 MSTORE PUSH1 0x20 ADD PUSH1 0x0 PUSH1 0xFF AND DUP2 MSTORE PUSH1 0x20 ADD PUSH1 0x2 PUSH1 0xFF AND DUP2 MSTORE POP DUP2 MSTORE PUSH1 0x20 ADD PUSH1 0x40 MLOAD DUP1 PUSH1 0x60 ADD PUSH1 0x40 MSTORE DUP1 PUSH1 0x1 PUSH1 0xFF AND DUP2 MSTORE PUSH1 0x20 ADD PUSH1 0x2 PUSH1 0xFF AND DUP2 MSTORE PUSH1 0x20 ADD PUSH1 0x0 PUSH1 0xFF AND DUP2 MSTORE POP DUP2 MSTORE PUSH1 0x20 ADD PUSH1 0x40 MLOAD DUP1 PUSH1 0x60 ADD PUSH1 0x40 MSTORE DUP1 PUSH1 0x2 PUSH1 0xFF AND DUP2 MSTORE PUSH1 0x20 ADD PUSH1 0x0 PUSH1 0xFF AND DUP2 MSTORE PUSH1 0x20 ADD PUSH1 0x1 PUSH1 0xFF AND DUP2 MSTORE POP DUP2 MSTORE PUSH1 0x20 ADD PUSH1 0x40 MLOAD DUP1 PUSH1 0x60 ADD PUSH1 0x40 MSTORE DUP1 PUSH1 0x2 PUSH1 0xFF AND DUP2 MSTORE PUSH1 0x20 ADD PUSH1 0x1 PUSH1 0xFF AND DUP2 MSTORE PUSH1 0x20 ADD PUSH1 0x0 PUSH1 0xFF AND DUP2 MSTORE POP DUP2 MSTORE PUSH1 0x20 ADD PUSH1 0x40 MLOAD DUP1 PUSH1 0x60 ADD PUSH1 0x40 MSTORE DUP1 PUSH1 0x0 PUSH1 0xFF AND DUP2 MSTORE PUSH1 0x20 ADD PUSH1 0x1 PUSH1 0xFF AND DUP2 MSTORE PUSH1 0x20 ADD PUSH1 0x2 PUSH1 0xFF AND DUP2 MSTORE POP DUP2 MSTORE PUSH1 0x20 ADD PUSH1 0x40 MLOAD DUP1 PUSH1 0x60 ADD PUSH1 0x40 MSTORE DUP1 PUSH1 0x1 PUSH1 0xFF AND DUP2 MSTORE PUSH1 0x20 ADD PUSH1 0x0 PUSH1 0xFF AND DUP2 MSTORE PUSH1 0x20 ADD PUSH1 0x2 PUSH1 0xFF AND DUP2 MSTORE POP DUP2 MSTORE POP PUSH2 0x14A SWAP1 PUSH1 0x8 PUSH3 0x4F66 SWAP3 SWAP2 SWAP1 PUSH3 0x51FF JUMP JUMPDEST POP PUSH1 0x40 MLOAD DUP1 PUSH2 0x100 ADD PUSH1 0x40 MSTORE DUP1 PUSH1 0x40 MLOAD DUP1 PUSH1 0x60 ADD PUSH1 0x40 MSTORE DUP1 PUSH1 0x39 DUP2 MSTORE PUSH1 0x20 ADD PUSH3 0xAE95 PUSH1 0x39 SWAP2 CODECOPY DUP2 MSTORE PUSH1 0x20 ADD PUSH1 0x40 MLOAD DUP1 PUSH1 0x60 ADD PUSH1 0x40 MSTORE DUP1 PUSH1 0x26 DUP2 MSTORE PUSH1 0x20 ADD PUSH3 0xAEF8 PUSH1 0x26 SWAP2 CODECOPY DUP2 MSTORE PUSH1 0x20 ADD PUSH1 0x40 MLOAD DUP1 PUSH1 0x40 ADD PUSH1 0x40 MSTORE DUP1 PUSH1 0x20 DUP2 MSTORE PUSH1 0x20 ADD PUSH32 0x52656D656D6265722074686174206375726174696F6E206973207269736B792E DUP2 MSTORE POP DUP2 MSTORE PUSH1 0x20 ADD PUSH1 0x40 MLOAD DUP1 PUSH1 0x60 ADD PUSH1 0x40 MSTORE DUP1 PUSH1 0x21 DUP2 MSTORE PUSH1 0x20 ADD PUSH3 0xAF1E PUSH1 0x21 SWAP2 CODECOPY DUP2 MSTORE PUSH1 0x20 ADD PUSH1 0x40 MLOAD DUP1 PUSH1 0x60 ADD PUSH1 0x40 MSTORE DUP1 PUSH1 0x37 DUP2 MSTORE PUSH1 0x20 ADD PUSH3 0xAF3F PUSH1 0x37 SWAP2 CODECOPY DUP2 MSTORE PUSH1 0x20 ADD PUSH1 0x40 MLOAD DUP1 PUSH1 0x60 ADD PUSH1 0x40 MSTORE DUP1 PUSH1 0x2A DUP2 MSTORE PUSH1 0x20 ADD PUSH3 0xAECE PUSH1 0x2A SWAP2 CODECOPY DUP2 MSTORE PUSH1 0x20 ADD PUSH1 0x40 MLOAD DUP1 PUSH1 0x60 ADD PUSH1 0x40 MSTORE DUP1 PUSH1 0x24 DUP2 MSTORE PUSH1 0x20 ADD PUSH3 0xAC04 PUSH1 0x24 SWAP2 CODECOPY DUP2 MSTORE PUSH1 0x20 ADD PUSH1 0x40 MLOAD DUP1 PUSH1 0x60 ADD PUSH1 0x40 MSTORE DUP1 PUSH1 0x2A DUP2 MSTORE PUSH1 0x20 ADD PUSH3 0xAECE PUSH1 0x2A SWAP2 CODECOPY DUP2 MSTORE POP PUSH2 0x152 SWAP1 PUSH1 0x8 PUSH3 0x5098 SWAP3 SWAP2 SWAP1 PUSH3 0x5254 JUMP JUMPDEST POP CALLVALUE DUP1 ISZERO PUSH3 0x50A6 JUMPI PUSH1 0x0 DUP1 REVERT JUMPDEST POP PUSH1 0x40 MLOAD DUP1 PUSH1 0x40 ADD PUSH1 0x40 MSTORE DUP1 PUSH1 0xA DUP2 MSTORE PUSH1 0x20 ADD PUSH32 0x4D65746166696361746500000000000000000000000000000000000000000000 DUP2 MSTORE POP PUSH1 0x40 MLOAD DUP1 PUSH1 0x40 ADD PUSH1 0x40 MSTORE DUP1 PUSH1 0x3 DUP2 MSTORE PUSH1 0x20 ADD PUSH32 0x4D46540000000000000000000000000000000000000000000000000000000000 DUP2 MSTORE POP DUP2 PUSH1 0x0 SWAP1 DUP1 MLOAD SWAP1 PUSH1 0x20 ADD SWAP1 PUSH3 0x512B SWAP3 SWAP2 SWAP1 PUSH3 0x52AE JUMP JUMPDEST POP DUP1 PUSH1 0x1 SWAP1 DUP1 MLOAD SWAP1 PUSH1 0x20 ADD SWAP1 PUSH3 0x5144 SWAP3 SWAP2 SWAP1 PUSH3 0x52AE JUMP JUMPDEST POP POP POP PUSH3 0x5598 JUMP JUMPDEST DUP3 PUSH1 0x40 PUSH1 0x5 MUL DUP2 ADD SWAP3 DUP3 ISZERO PUSH3 0x5192 JUMPI SWAP2 PUSH1 0x20 MUL DUP3 ADD JUMPDEST DUP3 DUP2 GT ISZERO PUSH3 0x5191 JUMPI DUP3 MLOAD DUP3 SWAP1 PUSH1 0x5 PUSH3 0x5180 SWAP3 SWAP2 SWAP1 PUSH3 0x533F JUMP JUMPDEST POP SWAP2 PUSH1 0x20 ADD SWAP2 SWAP1 PUSH1 0x5 ADD SWAP1 PUSH3 0x5164 JUMP JUMPDEST JUMPDEST POP SWAP1 POP PUSH3 0x51A1 SWAP2 SWAP1 PUSH3 0x5399 JUMP JUMPDEST POP SWAP1 JUMP JUMPDEST DUP3 PUSH1 0x3 DUP2 ADD SWAP3 DUP3 ISZERO PUSH3 0x51EC JUMPI SWAP2 PUSH1 0x20 MUL DUP3 ADD JUMPDEST DUP3 DUP2 GT ISZERO PUSH3 0x51EB JUMPI DUP3 MLOAD DUP3 SWAP1 DUP1 MLOAD SWAP1 PUSH1 0x20 ADD SWAP1 PUSH3 0x51DA SWAP3 SWAP2 SWAP1 PUSH3 0x52AE JUMP JUMPDEST POP SWAP2 PUSH1 0x20 ADD SWAP2 SWAP1 PUSH1 0x1 ADD SWAP1 PUSH3 0x51B9 JUMP JUMPDEST JUMPDEST POP SWAP1 POP PUSH3 0x51FB SWAP2 SWAP1 PUSH3 0x53C1 JUMP JUMPDEST POP SWAP1 JUMP JUMPDEST DUP3 PUSH1 0x8 DUP2 ADD SWAP3 DUP3 ISZERO PUSH3 0x5241 JUMPI SWAP2 PUSH1 0x20 MUL DUP3 ADD JUMPDEST DUP3 DUP2 GT ISZERO PUSH3 0x5240 JUMPI DUP3 MLOAD DUP3 SWAP1 PUSH1 0x3 PUSH3 0x522F SWAP3 SWAP2 SWAP1 PUSH3 0x53E9 JUMP JUMPDEST POP SWAP2 PUSH1 0x20 ADD SWAP2 SWAP1 PUSH1 0x1 ADD SWAP1 PUSH3 0x5213 JUMP JUMPDEST JUMPDEST POP SWAP1 POP PUSH3 0x5250 SWAP2 SWAP1 PUSH3 0x548A JUMP JUMPDEST POP SWAP1 JUMP JUMPDEST DUP3 PUSH1 0x8 DUP2 ADD SWAP3 DUP3 ISZERO PUSH3 0x529B JUMPI SWAP2 PUSH1 0x20 MUL DUP3 ADD JUMPDEST DUP3 DUP2 GT ISZERO PUSH3 0x529A JUMPI DUP3 MLOAD DUP3 SWAP1 DUP1 MLOAD SWAP1 PUSH1 0x20 ADD SWAP1 PUSH3 0x5289 SWAP3 SWAP2 SWAP1 PUSH3 0x52AE JUMP JUMPDEST POP SWAP2 PUSH1 0x20 ADD SWAP2 SWAP1 PUSH1 0x1 ADD SWAP1 PUSH3 0x5268 JUMP JUMPDEST JUMPDEST POP SWAP1 POP PUSH3 0x52AA SWAP2 SWAP1 PUSH3 0x53C1 JUMP JUMPDEST POP SWAP1 JUMP JUMPDEST DUP3 DUP1 SLOAD PUSH3 0x52BC SWAP1 PUSH3 0x5533 JUMP JUMPDEST SWAP1 PUSH1 0x0 MSTORE PUSH1 0x20 PUSH1 0x0 KECCAK256 SWAP1 PUSH1 0x1F ADD PUSH1 0x20 SWAP1 DIV DUP2 ADD SWAP3 DUP3 PUSH3 0x52E0 JUMPI PUSH1 0x0 DUP6 SSTORE PUSH3 0x532C JUMP JUMPDEST DUP3 PUSH1 0x1F LT PUSH3 0x52FB JUMPI DUP1 MLOAD PUSH1 0xFF NOT AND DUP4 DUP1 ADD OR DUP6 SSTORE PUSH3 0x532C JUMP JUMPDEST DUP3 DUP1 ADD PUSH1 0x1 ADD DUP6 SSTORE DUP3 ISZERO PUSH3 0x532C JUMPI SWAP2 DUP3 ADD JUMPDEST DUP3 DUP2 GT ISZERO PUSH3 0x532B JUMPI DUP3 MLOAD DUP3 SSTORE SWAP2 PUSH1 0x20 ADD SWAP2 SWAP1 PUSH1 0x1 ADD SWAP1 PUSH3 0x530E JUMP JUMPDEST JUMPDEST POP SWAP1 POP PUSH3 0x533B SWAP2 SWAP1 PUSH3 0x54B2 JUMP JUMPDEST POP SWAP1 JUMP JUMPDEST DUP3 PUSH1 0x5 DUP2 ADD SWAP3 DUP3 ISZERO PUSH3 0x5386 JUMPI SWAP2 PUSH1 0x20 MUL DUP3 ADD JUMPDEST DUP3 DUP2 GT ISZERO PUSH3 0x5385 JUMPI DUP3 MLOAD DUP3 SWAP1 DUP1 MLOAD SWAP1 PUSH1 0x20 ADD SWAP1 PUSH3 0x5374 SWAP3 SWAP2 SWAP1 PUSH3 0x52AE JUMP JUMPDEST POP SWAP2 PUSH1 0x20 ADD SWAP2 SWAP1 PUSH1 0x1 ADD SWAP1 PUSH3 0x5353 JUMP JUMPDEST JUMPDEST POP SWAP1 POP PUSH3 0x5395 SWAP2 SWAP1 PUSH3 0x53C1 JUMP JUMPDEST POP SWAP1 JUMP JUMPDEST JUMPDEST DUP1 DUP3 GT ISZERO PUSH3 0x53BD JUMPI PUSH1 0x0 DUP2 DUP2 PUSH3 0x53B3 SWAP2 SWAP1 PUSH3 0x54D1 JUMP JUMPDEST POP PUSH1 0x5 ADD PUSH3 0x539A JUMP JUMPDEST POP SWAP1 JUMP JUMPDEST JUMPDEST DUP1 DUP3 GT ISZERO PUSH3 0x53E5 JUMPI PUSH1 0x0 DUP2 DUP2 PUSH3 0x53DB SWAP2 SWAP1 PUSH3 0x54E6 JUMP JUMPDEST POP PUSH1 0x1 ADD PUSH3 0x53C2 JUMP JUMPDEST POP SWAP1 JUMP JUMPDEST DUP3 PUSH1 0x3 PUSH1 0x1F ADD PUSH1 0x20 SWAP1 DIV DUP2 ADD SWAP3 DUP3 ISZERO PUSH3 0x5477 JUMPI SWAP2 PUSH1 0x20 MUL DUP3 ADD PUSH1 0x0 JUMPDEST DUP4 DUP3 GT ISZERO PUSH3 0x5446 JUMPI DUP4 MLOAD DUP4 DUP3 PUSH2 0x100 EXP DUP2 SLOAD DUP2 PUSH1 0xFF MUL NOT AND SWAP1 DUP4 PUSH1 0xFF AND MUL OR SWAP1 SSTORE POP SWAP3 PUSH1 0x20 ADD SWAP3 PUSH1 0x1 ADD PUSH1 0x20 DUP2 PUSH1 0x0 ADD DIV SWAP3 DUP4 ADD SWAP3 PUSH1 0x1 SUB MUL PUSH3 0x5406 JUMP JUMPDEST DUP1 ISZERO PUSH3 0x5475 JUMPI DUP3 DUP2 PUSH2 0x100 EXP DUP2 SLOAD SWAP1 PUSH1 0xFF MUL NOT AND SWAP1 SSTORE PUSH1 0x1 ADD PUSH1 0x20 DUP2 PUSH1 0x0 ADD DIV SWAP3 DUP4 ADD SWAP3 PUSH1 0x1 SUB MUL PUSH3 0x5446 JUMP JUMPDEST POP JUMPDEST POP SWAP1 POP PUSH3 0x5486 SWAP2 SWAP1 PUSH3 0x54B2 JUMP JUMPDEST POP SWAP1 JUMP JUMPDEST JUMPDEST DUP1 DUP3 GT ISZERO PUSH3 0x54AE JUMPI PUSH1 0x0 DUP2 DUP2 PUSH3 0x54A4 SWAP2 SWAP1 PUSH3 0x552C JUMP JUMPDEST POP PUSH1 0x1 ADD PUSH3 0x548B JUMP JUMPDEST POP SWAP1 JUMP JUMPDEST JUMPDEST DUP1 DUP3 GT ISZERO PUSH3 0x54CD JUMPI PUSH1 0x0 DUP2 PUSH1 0x0 SWAP1 SSTORE POP PUSH1 0x1 ADD PUSH3 0x54B3 JUMP JUMPDEST POP SWAP1 JUMP JUMPDEST POP DUP1 PUSH1 0x5 ADD SWAP1 PUSH3 0x54E3 SWAP2 SWAP1 PUSH3 0x53C1 JUMP JUMPDEST POP JUMP JUMPDEST POP DUP1 SLOAD PUSH3 0x54F4 SWAP1 PUSH3 0x5533 JUMP JUMPDEST PUSH1 0x0 DUP3 SSTORE DUP1 PUSH1 0x1F LT PUSH3 0x5508 JUMPI POP PUSH3 0x5529 JUMP JUMPDEST PUSH1 0x1F ADD PUSH1 0x20 SWAP1 DIV SWAP1 PUSH1 0x0 MSTORE PUSH1 0x20 PUSH1 0x0 KECCAK256 SWAP1 DUP2 ADD SWAP1 PUSH3 0x5528 SWAP2 SWAP1 PUSH3 0x54B2 JUMP JUMPDEST JUMPDEST POP JUMP JUMPDEST POP PUSH1 0x0 SWAP1 SSTORE JUMP JUMPDEST PUSH1 0x0 PUSH1 0x2 DUP3 DIV SWAP1 POP PUSH1 0x1 DUP3 AND DUP1 PUSH3 0x554C JUMPI PUSH1 0x7F DUP3 AND SWAP2 POP JUMPDEST PUSH1 0x20 DUP3 LT DUP2 EQ ISZERO PUSH3 0x5563 JUMPI PUSH3 0x5562 PUSH3 0x5569 JUMP JUMPDEST JUMPDEST POP SWAP2 SWAP1 POP JUMP JUMPDEST PUSH32 0x4E487B7100000000000000000000000000000000000000000000000000000000 PUSH1 0x0 MSTORE PUSH1 0x22 PUSH1 0x4 MSTORE PUSH1 0x24 PUSH1 0x0 REVERT JUMPDEST PUSH2 0x50F5 DUP1 PUSH3 0x55A8 PUSH1 0x0 CODECOPY PUSH1 0x0 RETURN INVALID PUSH1 0x80 PUSH1 0x40 MSTORE CALLVALUE DUP1 ISZERO PUSH2 0x10 JUMPI PUSH1 0x0 DUP1 REVERT JUMPDEST POP PUSH1 0x4 CALLDATASIZE LT PUSH2 0x116 JUMPI PUSH1 0x0 CALLDATALOAD PUSH1 0xE0 SHR DUP1 PUSH4 0x5E57966D GT PUSH2 0xA2 JUMPI DUP1 PUSH4 0xA22CB465 GT PUSH2 0x71 JUMPI DUP1 PUSH4 0xA22CB465 EQ PUSH2 0x31A JUMPI DUP1 PUSH4 0xB88D4FDE EQ PUSH2 0x336 JUMPI DUP1 PUSH4 0xC75440E1 EQ PUSH2 0x352 JUMPI DUP1 PUSH4 0xC87B56DD EQ PUSH2 0x382 JUMPI DUP1 PUSH4 0xE985E9C5 EQ PUSH2 0x3B2 JUMPI PUSH2 0x116 JUMP JUMPDEST DUP1 PUSH4 0x5E57966D EQ PUSH2 0x26C JUMPI DUP1 PUSH4 0x6352211E EQ PUSH2 0x29C JUMPI DUP1 PUSH4 0x70A08231 EQ PUSH2 0x2CC JUMPI DUP1 PUSH4 0x95D89B41 EQ PUSH2 0x2FC JUMPI PUSH2 0x116 JUMP JUMPDEST DUP1 PUSH4 0x1249C58B GT PUSH2 0xE9 JUMPI DUP1 PUSH4 0x1249C58B EQ PUSH2 0x1B5 JUMPI DUP1 PUSH4 0x23B872DD EQ PUSH2 0x1D3 JUMPI DUP1 PUSH4 0x277ECFBB EQ PUSH2 0x1EF JUMPI DUP1 PUSH4 0x355E88C5 EQ PUSH2 0x220 JUMPI DUP1 PUSH4 0x42842E0E EQ PUSH2 0x250 JUMPI PUSH2 0x116 JUMP JUMPDEST DUP1 PUSH4 0x1FFC9A7 EQ PUSH2 0x11B JUMPI DUP1 PUSH4 0x6FDDE03 EQ PUSH2 0x14B JUMPI DUP1 PUSH4 0x81812FC EQ PUSH2 0x169 JUMPI DUP1 PUSH4 0x95EA7B3 EQ PUSH2 0x199 JUMPI JUMPDEST PUSH1 0x0 DUP1 REVERT JUMPDEST PUSH2 0x135 PUSH1 0x4 DUP1 CALLDATASIZE SUB DUP2 ADD SWAP1 PUSH2 0x130 SWAP2 SWAP1 PUSH2 0x2CF5 JUMP JUMPDEST PUSH2 0x3E2 JUMP JUMPDEST PUSH1 0x40 MLOAD PUSH2 0x142 SWAP2 SWAP1 PUSH2 0x3949 JUMP JUMPDEST PUSH1 0x40 MLOAD DUP1 SWAP2 SUB SWAP1 RETURN JUMPDEST PUSH2 0x153 PUSH2 0x4C4 JUMP JUMPDEST PUSH1 0x40 MLOAD PUSH2 0x160 SWAP2 SWAP1 PUSH2 0x3964 JUMP JUMPDEST PUSH1 0x40 MLOAD DUP1 SWAP2 SUB SWAP1 RETURN JUMPDEST PUSH2 0x183 PUSH1 0x4 DUP1 CALLDATASIZE SUB DUP2 ADD SWAP1 PUSH2 0x17E SWAP2 SWAP1 PUSH2 0x2D47 JUMP JUMPDEST PUSH2 0x556 JUMP JUMPDEST PUSH1 0x40 MLOAD PUSH2 0x190 SWAP2 SWAP1 PUSH2 0x38B9 JUMP JUMPDEST PUSH1 0x40 MLOAD DUP1 SWAP2 SUB SWAP1 RETURN JUMPDEST PUSH2 0x1B3 PUSH1 0x4 DUP1 CALLDATASIZE SUB DUP2 ADD SWAP1 PUSH2 0x1AE SWAP2 SWAP1 PUSH2 0x2CB9 JUMP JUMPDEST PUSH2 0x5DB JUMP JUMPDEST STOP JUMPDEST PUSH2 0x1BD PUSH2 0x6F3 JUMP JUMPDEST PUSH1 0x40 MLOAD PUSH2 0x1CA SWAP2 SWAP1 PUSH2 0x3BA6 JUMP JUMPDEST PUSH1 0x40 MLOAD DUP1 SWAP2 SUB SWAP1 RETURN JUMPDEST PUSH2 0x1ED PUSH1 0x4 DUP1 CALLDATASIZE SUB DUP2 ADD SWAP1 PUSH2 0x1E8 SWAP2 SWAP1 PUSH2 0x2BB3 JUMP JUMPDEST PUSH2 0x7FD JUMP JUMPDEST STOP JUMPDEST PUSH2 0x209 PUSH1 0x4 DUP1 CALLDATASIZE SUB DUP2 ADD SWAP1 PUSH2 0x204 SWAP2 SWAP1 PUSH2 0x2D47 JUMP JUMPDEST PUSH2 0x85D JUMP JUMPDEST PUSH1 0x40 MLOAD PUSH2 0x217 SWAP3 SWAP2 SWAP1 PUSH2 0x3920 JUMP JUMPDEST PUSH1 0x40 MLOAD DUP1 SWAP2 SUB SWAP1 RETURN JUMPDEST PUSH2 0x23A PUSH1 0x4 DUP1 CALLDATASIZE SUB DUP2 ADD SWAP1 PUSH2 0x235 SWAP2 SWAP1 PUSH2 0x2D70 JUMP JUMPDEST PUSH2 0x8A2 JUMP JUMPDEST PUSH1 0x40 MLOAD PUSH2 0x247 SWAP2 SWAP1 PUSH2 0x3964 JUMP JUMPDEST PUSH1 0x40 MLOAD DUP1 SWAP2 SUB SWAP1 RETURN JUMPDEST PUSH2 0x26A PUSH1 0x4 DUP1 CALLDATASIZE SUB DUP2 ADD SWAP1 PUSH2 0x265 SWAP2 SWAP1 PUSH2 0x2BB3 JUMP JUMPDEST PUSH2 0xFFF JUMP JUMPDEST STOP JUMPDEST PUSH2 0x286 PUSH1 0x4 DUP1 CALLDATASIZE SUB DUP2 ADD SWAP1 PUSH2 0x281 SWAP2 SWAP1 PUSH2 0x2B4E JUMP JUMPDEST PUSH2 0x101F JUMP JUMPDEST PUSH1 0x40 MLOAD PUSH2 0x293 SWAP2 SWAP1 PUSH2 0x3964 JUMP JUMPDEST PUSH1 0x40 MLOAD DUP1 SWAP2 SUB SWAP1 RETURN JUMPDEST PUSH2 0x2B6 PUSH1 0x4 DUP1 CALLDATASIZE SUB DUP2 ADD SWAP1 PUSH2 0x2B1 SWAP2 SWAP1 PUSH2 0x2D47 JUMP JUMPDEST PUSH2 0x1049 JUMP JUMPDEST PUSH1 0x40 MLOAD PUSH2 0x2C3 SWAP2 SWAP1 PUSH2 0x38B9 JUMP JUMPDEST PUSH1 0x40 MLOAD DUP1 SWAP2 SUB SWAP1 RETURN JUMPDEST PUSH2 0x2E6 PUSH1 0x4 DUP1 CALLDATASIZE SUB DUP2 ADD SWAP1 PUSH2 0x2E1 SWAP2 SWAP1 PUSH2 0x2B4E JUMP JUMPDEST PUSH2 0x10FB JUMP JUMPDEST PUSH1 0x40 MLOAD PUSH2 0x2F3 SWAP2 SWAP1 PUSH2 0x3BA6 JUMP JUMPDEST PUSH1 0x40 MLOAD DUP1 SWAP2 SUB SWAP1 RETURN JUMPDEST PUSH2 0x304 PUSH2 0x11B3 JUMP JUMPDEST PUSH1 0x40 MLOAD PUSH2 0x311 SWAP2 SWAP1 PUSH2 0x3964 JUMP JUMPDEST PUSH1 0x40 MLOAD DUP1 SWAP2 SUB SWAP1 RETURN JUMPDEST PUSH2 0x334 PUSH1 0x4 DUP1 CALLDATASIZE SUB DUP2 ADD SWAP1 PUSH2 0x32F SWAP2 SWAP1 PUSH2 0x2C7D JUMP JUMPDEST PUSH2 0x1245 JUMP JUMPDEST STOP JUMPDEST PUSH2 0x350 PUSH1 0x4 DUP1 CALLDATASIZE SUB DUP2 ADD SWAP1 PUSH2 0x34B SWAP2 SWAP1 PUSH2 0x2C02 JUMP JUMPDEST PUSH2 0x13C6 JUMP JUMPDEST STOP JUMPDEST PUSH2 0x36C PUSH1 0x4 DUP1 CALLDATASIZE SUB DUP2 ADD SWAP1 PUSH2 0x367 SWAP2 SWAP1 PUSH2 0x2D47 JUMP JUMPDEST PUSH2 0x1428 JUMP JUMPDEST PUSH1 0x40 MLOAD PUSH2 0x379 SWAP2 SWAP1 PUSH2 0x3964 JUMP JUMPDEST PUSH1 0x40 MLOAD DUP1 SWAP2 SUB SWAP1 RETURN JUMPDEST PUSH2 0x39C PUSH1 0x4 DUP1 CALLDATASIZE SUB DUP2 ADD SWAP1 PUSH2 0x397 SWAP2 SWAP1 PUSH2 0x2D47 JUMP JUMPDEST PUSH2 0x18E6 JUMP JUMPDEST PUSH1 0x40 MLOAD PUSH2 0x3A9 SWAP2 SWAP1 PUSH2 0x3964 JUMP JUMPDEST PUSH1 0x40 MLOAD DUP1 SWAP2 SUB SWAP1 RETURN JUMPDEST PUSH2 0x3CC PUSH1 0x4 DUP1 CALLDATASIZE SUB DUP2 ADD SWAP1 PUSH2 0x3C7 SWAP2 SWAP1 PUSH2 0x2B77 JUMP JUMPDEST PUSH2 0x19F2 JUMP JUMPDEST PUSH1 0x40 MLOAD PUSH2 0x3D9 SWAP2 SWAP1 PUSH2 0x3949 JUMP JUMPDEST PUSH1 0x40 MLOAD DUP1 SWAP2 SUB SWAP1 RETURN JUMPDEST PUSH1 0x0 PUSH32 0x80AC58CD00000000000000000000000000000000000000000000000000000000 PUSH28 0xFFFFFFFFFFFFFFFFFFFFFFFFFFFFFFFFFFFFFFFFFFFFFFFFFFFFFFFF NOT AND DUP3 PUSH28 0xFFFFFFFFFFFFFFFFFFFFFFFFFFFFFFFFFFFFFFFFFFFFFFFFFFFFFFFF NOT AND EQ DUP1 PUSH2 0x4AD JUMPI POP PUSH32 0x5B5E139F00000000000000000000000000000000000000000000000000000000 PUSH28 0xFFFFFFFFFFFFFFFFFFFFFFFFFFFFFFFFFFFFFFFFFFFFFFFFFFFFFFFF NOT AND DUP3 PUSH28 0xFFFFFFFFFFFFFFFFFFFFFFFFFFFFFFFFFFFFFFFFFFFFFFFFFFFFFFFF NOT AND EQ JUMPDEST DUP1 PUSH2 0x4BD JUMPI POP PUSH2 0x4BC DUP3 PUSH2 0x1A86 JUMP JUMPDEST JUMPDEST SWAP1 POP SWAP2 SWAP1 POP JUMP JUMPDEST PUSH1 0x60 PUSH1 0x0 DUP1 SLOAD PUSH2 0x4D3 SWAP1 PUSH2 0x3E97 JUMP JUMPDEST DUP1 PUSH1 0x1F ADD PUSH1 0x20 DUP1 SWAP2 DIV MUL PUSH1 0x20 ADD PUSH1 0x40 MLOAD SWAP1 DUP2 ADD PUSH1 0x40 MSTORE DUP1 SWAP3 SWAP2 SWAP1 DUP2 DUP2 MSTORE PUSH1 0x20 ADD DUP3 DUP1 SLOAD PUSH2 0x4FF SWAP1 PUSH2 0x3E97 JUMP JUMPDEST DUP1 ISZERO PUSH2 0x54C JUMPI DUP1 PUSH1 0x1F LT PUSH2 0x521 JUMPI PUSH2 0x100 DUP1 DUP4 SLOAD DIV MUL DUP4 MSTORE SWAP2 PUSH1 0x20 ADD SWAP2 PUSH2 0x54C JUMP JUMPDEST DUP3 ADD SWAP2 SWAP1 PUSH1 0x0 MSTORE PUSH1 0x20 PUSH1 0x0 KECCAK256 SWAP1 JUMPDEST DUP2 SLOAD DUP2 MSTORE SWAP1 PUSH1 0x1 ADD SWAP1 PUSH1 0x20 ADD DUP1 DUP4 GT PUSH2 0x52F JUMPI DUP3 SWAP1 SUB PUSH1 0x1F AND DUP3 ADD SWAP2 JUMPDEST POP POP POP POP POP SWAP1 POP SWAP1 JUMP JUMPDEST PUSH1 0x0 PUSH2 0x561 DUP3 PUSH2 0x1AF0 JUMP JUMPDEST PUSH2 0x5A0 JUMPI PUSH1 0x40 MLOAD PUSH32 0x8C379A000000000000000000000000000000000000000000000000000000000 DUP2 MSTORE PUSH1 0x4 ADD PUSH2 0x597 SWAP1 PUSH2 0x3AC6 JUMP JUMPDEST PUSH1 0x40 MLOAD DUP1 SWAP2 SUB SWAP1 REVERT JUMPDEST PUSH1 0x4 PUSH1 0x0 DUP4 DUP2 MSTORE PUSH1 0x20 ADD SWAP1 DUP2 MSTORE PUSH1 0x20 ADD PUSH1 0x0 KECCAK256 PUSH1 0x0 SWAP1 SLOAD SWAP1 PUSH2 0x100 EXP SWAP1 DIV PUSH20 0xFFFFFFFFFFFFFFFFFFFFFFFFFFFFFFFFFFFFFFFF AND SWAP1 POP SWAP2 SWAP1 POP JUMP JUMPDEST PUSH1 0x0 PUSH2 0x5E6 DUP3 PUSH2 0x1049 JUMP JUMPDEST SWAP1 POP DUP1 PUSH20 0xFFFFFFFFFFFFFFFFFFFFFFFFFFFFFFFFFFFFFFFF AND DUP4 PUSH20 0xFFFFFFFFFFFFFFFFFFFFFFFFFFFFFFFFFFFFFFFF AND EQ ISZERO PUSH2 0x657 JUMPI PUSH1 0x40 MLOAD PUSH32 0x8C379A000000000000000000000000000000000000000000000000000000000 DUP2 MSTORE PUSH1 0x4 ADD PUSH2 0x64E SWAP1 PUSH2 0x3B26 JUMP JUMPDEST PUSH1 0x40 MLOAD DUP1 SWAP2 SUB SWAP1 REVERT JUMPDEST DUP1 PUSH20 0xFFFFFFFFFFFFFFFFFFFFFFFFFFFFFFFFFFFFFFFF AND PUSH2 0x676 PUSH2 0x1B5C JUMP JUMPDEST PUSH20 0xFFFFFFFFFFFFFFFFFFFFFFFFFFFFFFFFFFFFFFFF AND EQ DUP1 PUSH2 0x6A5 JUMPI POP PUSH2 0x6A4 DUP2 PUSH2 0x69F PUSH2 0x1B5C JUMP JUMPDEST PUSH2 0x19F2 JUMP JUMPDEST JUMPDEST PUSH2 0x6E4 JUMPI PUSH1 0x40 MLOAD PUSH32 0x8C379A000000000000000000000000000000000000000000000000000000000 DUP2 MSTORE PUSH1 0x4 ADD PUSH2 0x6DB SWAP1 PUSH2 0x3A46 JUMP JUMPDEST PUSH1 0x40 MLOAD DUP1 SWAP2 SUB SWAP1 REVERT JUMPDEST PUSH2 0x6EE DUP4 DUP4 PUSH2 0x1B64 JUMP JUMPDEST POP POP POP JUMP JUMPDEST PUSH1 0x0 PUSH1 0x6 SLOAD SWAP1 POP PUSH1 0x1 PUSH1 0x6 SLOAD PUSH2 0x709 SWAP2 SWAP1 PUSH2 0x3C5A JUMP JUMPDEST PUSH1 0x6 DUP2 SWAP1 SSTORE POP PUSH2 0x717 PUSH2 0x2A38 JUMP JUMPDEST CALLER DUP2 PUSH1 0x0 ADD SWAP1 PUSH20 0xFFFFFFFFFFFFFFFFFFFFFFFFFFFFFFFFFFFFFFFF AND SWAP1 DUP2 PUSH20 0xFFFFFFFFFFFFFFFFFFFFFFFFFFFFFFFFFFFFFFFF AND DUP2 MSTORE POP POP DUP2 TIMESTAMP CALLER PUSH1 0x40 MLOAD PUSH1 0x20 ADD PUSH2 0x764 SWAP4 SWAP3 SWAP2 SWAP1 PUSH2 0x387C JUMP JUMPDEST PUSH1 0x40 MLOAD PUSH1 0x20 DUP2 DUP4 SUB SUB DUP2 MSTORE SWAP1 PUSH1 0x40 MSTORE DUP1 MLOAD SWAP1 PUSH1 0x20 ADD KECCAK256 PUSH1 0x0 SHR DUP2 PUSH1 0x20 ADD DUP2 DUP2 MSTORE POP POP DUP1 PUSH2 0x15A PUSH1 0x0 DUP5 DUP2 MSTORE PUSH1 0x20 ADD SWAP1 DUP2 MSTORE PUSH1 0x20 ADD PUSH1 0x0 KECCAK256 PUSH1 0x0 DUP3 ADD MLOAD DUP2 PUSH1 0x0 ADD PUSH1 0x0 PUSH2 0x100 EXP DUP2 SLOAD DUP2 PUSH20 0xFFFFFFFFFFFFFFFFFFFFFFFFFFFFFFFFFFFFFFFF MUL NOT AND SWAP1 DUP4 PUSH20 0xFFFFFFFFFFFFFFFFFFFFFFFFFFFFFFFFFFFFFFFF AND MUL OR SWAP1 SSTORE POP PUSH1 0x20 DUP3 ADD MLOAD DUP2 PUSH1 0x1 ADD SSTORE SWAP1 POP POP PUSH2 0x7F9 CALLER DUP4 PUSH2 0x1C1D JUMP JUMPDEST POP SWAP1 JUMP JUMPDEST PUSH2 0x80E PUSH2 0x808 PUSH2 0x1B5C JUMP JUMPDEST DUP3 PUSH2 0x1DEB JUMP JUMPDEST PUSH2 0x84D JUMPI PUSH1 0x40 MLOAD PUSH32 0x8C379A000000000000000000000000000000000000000000000000000000000 DUP2 MSTORE PUSH1 0x4 ADD PUSH2 0x844 SWAP1 PUSH2 0x3B66 JUMP JUMPDEST PUSH1 0x40 MLOAD DUP1 SWAP2 SUB SWAP1 REVERT JUMPDEST PUSH2 0x858 DUP4 DUP4 DUP4 PUSH2 0x1EC9 JUMP JUMPDEST POP POP POP JUMP JUMPDEST PUSH2 0x15A PUSH1 0x20 MSTORE DUP1 PUSH1 0x0 MSTORE PUSH1 0x40 PUSH1 0x0 KECCAK256 PUSH1 0x0 SWAP2 POP SWAP1 POP DUP1 PUSH1 0x0 ADD PUSH1 0x0 SWAP1 SLOAD SWAP1 PUSH2 0x100 EXP SWAP1 DIV PUSH20 0xFFFFFFFFFFFFFFFFFFFFFFFFFFFFFFFFFFFFFFFF AND SWAP1 DUP1 PUSH1 0x1 ADD SLOAD SWAP1 POP DUP3 JUMP JUMPDEST PUSH1 0x60 PUSH1 0x0 PUSH1 0x7 DUP5 PUSH1 0xFF AND PUSH1 0x40 DUP2 LT PUSH2 0x8E3 JUMPI PUSH32 0x4E487B7100000000000000000000000000000000000000000000000000000000 PUSH1 0x0 MSTORE PUSH1 0x32 PUSH1 0x4 MSTORE PUSH1 0x24 PUSH1 0x0 REVERT JUMPDEST PUSH1 0x5 MUL ADD PUSH1 0x2 PUSH1 0x5 DUP2 LT PUSH2 0x920 JUMPI PUSH32 0x4E487B7100000000000000000000000000000000000000000000000000000000 PUSH1 0x0 MSTORE PUSH1 0x32 PUSH1 0x4 MSTORE PUSH1 0x24 PUSH1 0x0 REVERT JUMPDEST ADD DUP1 SLOAD PUSH2 0x92C SWAP1 PUSH2 0x3E97 JUMP JUMPDEST DUP1 PUSH1 0x1F ADD PUSH1 0x20 DUP1 SWAP2 DIV MUL PUSH1 0x20 ADD PUSH1 0x40 MLOAD SWAP1 DUP2 ADD PUSH1 0x40 MSTORE DUP1 SWAP3 SWAP2 SWAP1 DUP2 DUP2 MSTORE PUSH1 0x20 ADD DUP3 DUP1 SLOAD PUSH2 0x958 SWAP1 PUSH2 0x3E97 JUMP JUMPDEST DUP1 ISZERO PUSH2 0x9A5 JUMPI DUP1 PUSH1 0x1F LT PUSH2 0x97A JUMPI PUSH2 0x100 DUP1 DUP4 SLOAD DIV MUL DUP4 MSTORE SWAP2 PUSH1 0x20 ADD SWAP2 PUSH2 0x9A5 JUMP JUMPDEST DUP3 ADD SWAP2 SWAP1 PUSH1 0x0 MSTORE PUSH1 0x20 PUSH1 0x0 KECCAK256 SWAP1 JUMPDEST DUP2 SLOAD DUP2 MSTORE SWAP1 PUSH1 0x1 ADD SWAP1 PUSH1 0x20 ADD DUP1 DUP4 GT PUSH2 0x988 JUMPI DUP3 SWAP1 SUB PUSH1 0x1F AND DUP3 ADD SWAP2 JUMPDEST POP POP POP POP POP SWAP1 POP PUSH1 0x0 PUSH1 0x7 DUP6 PUSH1 0xFF AND PUSH1 0x40 DUP2 LT PUSH2 0x9EB JUMPI PUSH32 0x4E487B7100000000000000000000000000000000000000000000000000000000 PUSH1 0x0 MSTORE PUSH1 0x32 PUSH1 0x4 MSTORE PUSH1 0x24 PUSH1 0x0 REVERT JUMPDEST PUSH1 0x5 MUL ADD PUSH1 0x3 PUSH1 0x5 DUP2 LT PUSH2 0xA28 JUMPI PUSH32 0x4E487B7100000000000000000000000000000000000000000000000000000000 PUSH1 0x0 MSTORE PUSH1 0x32 PUSH1 0x4 MSTORE PUSH1 0x24 PUSH1 0x0 REVERT JUMPDEST ADD DUP1 SLOAD PUSH2 0xA34 SWAP1 PUSH2 0x3E97 JUMP JUMPDEST DUP1 PUSH1 0x1F ADD PUSH1 0x20 DUP1 SWAP2 DIV MUL PUSH1 0x20 ADD PUSH1 0x40 MLOAD SWAP1 DUP2 ADD PUSH1 0x40 MSTORE DUP1 SWAP3 SWAP2 SWAP1 DUP2 DUP2 MSTORE PUSH1 0x20 ADD DUP3 DUP1 SLOAD PUSH2 0xA60 SWAP1 PUSH2 0x3E97 JUMP JUMPDEST DUP1 ISZERO PUSH2 0xAAD JUMPI DUP1 PUSH1 0x1F LT PUSH2 0xA82 JUMPI PUSH2 0x100 DUP1 DUP4 SLOAD DIV MUL DUP4 MSTORE SWAP2 PUSH1 0x20 ADD SWAP2 PUSH2 0xAAD JUMP JUMPDEST DUP3 ADD SWAP2 SWAP1 PUSH1 0x0 MSTORE PUSH1 0x20 PUSH1 0x0 KECCAK256 SWAP1 JUMPDEST DUP2 SLOAD DUP2 MSTORE SWAP1 PUSH1 0x1 ADD SWAP1 PUSH1 0x20 ADD DUP1 DUP4 GT PUSH2 0xA90 JUMPI DUP3 SWAP1 SUB PUSH1 0x1F AND DUP3 ADD SWAP2 JUMPDEST POP POP POP POP POP SWAP1 POP PUSH1 0x0 PUSH1 0x7 DUP7 PUSH1 0xFF AND PUSH1 0x40 DUP2 LT PUSH2 0xAF3 JUMPI PUSH32 0x4E487B7100000000000000000000000000000000000000000000000000000000 PUSH1 0x0 MSTORE PUSH1 0x32 PUSH1 0x4 MSTORE PUSH1 0x24 PUSH1 0x0 REVERT JUMPDEST PUSH1 0x5 MUL ADD PUSH1 0x4 PUSH1 0x5 DUP2 LT PUSH2 0xB30 JUMPI PUSH32 0x4E487B7100000000000000000000000000000000000000000000000000000000 PUSH1 0x0 MSTORE PUSH1 0x32 PUSH1 0x4 MSTORE PUSH1 0x24 PUSH1 0x0 REVERT JUMPDEST ADD DUP1 SLOAD PUSH2 0xB3C SWAP1 PUSH2 0x3E97 JUMP JUMPDEST DUP1 PUSH1 0x1F ADD PUSH1 0x20 DUP1 SWAP2 DIV MUL PUSH1 0x20 ADD PUSH1 0x40 MLOAD SWAP1 DUP2 ADD PUSH1 0x40 MSTORE DUP1 SWAP3 SWAP2 SWAP1 DUP2 DUP2 MSTORE PUSH1 0x20 ADD DUP3 DUP1 SLOAD PUSH2 0xB68 SWAP1 PUSH2 0x3E97 JUMP JUMPDEST DUP1 ISZERO PUSH2 0xBB5 JUMPI DUP1 PUSH1 0x1F LT PUSH2 0xB8A JUMPI PUSH2 0x100 DUP1 DUP4 SLOAD DIV MUL DUP4 MSTORE SWAP2 PUSH1 0x20 ADD SWAP2 PUSH2 0xBB5 JUMP JUMPDEST DUP3 ADD SWAP2 SWAP1 PUSH1 0x0 MSTORE PUSH1 0x20 PUSH1 0x0 KECCAK256 SWAP1 JUMPDEST DUP2 SLOAD DUP2 MSTORE SWAP1 PUSH1 0x1 ADD SWAP1 PUSH1 0x20 ADD DUP1 DUP4 GT PUSH2 0xB98 JUMPI DUP3 SWAP1 SUB PUSH1 0x1F AND DUP3 ADD SWAP2 JUMPDEST POP POP POP POP POP SWAP1 POP PUSH1 0x0 PUSH2 0x147 PUSH2 0x14A DUP8 PUSH1 0xFF AND PUSH1 0x8 DUP2 LT PUSH2 0xBFF JUMPI PUSH32 0x4E487B7100000000000000000000000000000000000000000000000000000000 PUSH1 0x0 MSTORE PUSH1 0x32 PUSH1 0x4 MSTORE PUSH1 0x24 PUSH1 0x0 REVERT JUMPDEST ADD PUSH1 0x0 PUSH1 0x3 DUP2 LT PUSH2 0xC39 JUMPI PUSH32 0x4E487B7100000000000000000000000000000000000000000000000000000000 PUSH1 0x0 MSTORE PUSH1 0x32 PUSH1 0x4 MSTORE PUSH1 0x24 PUSH1 0x0 REVERT JUMPDEST PUSH1 0x20 SWAP2 DUP3 DUP3 DIV ADD SWAP2 SWAP1 MOD SWAP1 SLOAD SWAP1 PUSH2 0x100 EXP SWAP1 DIV PUSH1 0xFF AND PUSH1 0xFF AND PUSH1 0x3 DUP2 LT PUSH2 0xC89 JUMPI PUSH32 0x4E487B7100000000000000000000000000000000000000000000000000000000 PUSH1 0x0 MSTORE PUSH1 0x32 PUSH1 0x4 MSTORE PUSH1 0x24 PUSH1 0x0 REVERT JUMPDEST ADD DUP1 SLOAD PUSH2 0xC95 SWAP1 PUSH2 0x3E97 JUMP JUMPDEST DUP1 PUSH1 0x1F ADD PUSH1 0x20 DUP1 SWAP2 DIV MUL PUSH1 0x20 ADD PUSH1 0x40 MLOAD SWAP1 DUP2 ADD PUSH1 0x40 MSTORE DUP1 SWAP3 SWAP2 SWAP1 DUP2 DUP2 MSTORE PUSH1 0x20 ADD DUP3 DUP1 SLOAD PUSH2 0xCC1 SWAP1 PUSH2 0x3E97 JUMP JUMPDEST DUP1 ISZERO PUSH2 0xD0E JUMPI DUP1 PUSH1 0x1F LT PUSH2 0xCE3 JUMPI PUSH2 0x100 DUP1 DUP4 SLOAD DIV MUL DUP4 MSTORE SWAP2 PUSH1 0x20 ADD SWAP2 PUSH2 0xD0E JUMP JUMPDEST DUP3 ADD SWAP2 SWAP1 PUSH1 0x0 MSTORE PUSH1 0x20 PUSH1 0x0 KECCAK256 SWAP1 JUMPDEST DUP2 SLOAD DUP2 MSTORE SWAP1 PUSH1 0x1 ADD SWAP1 PUSH1 0x20 ADD DUP1 DUP4 GT PUSH2 0xCF1 JUMPI DUP3 SWAP1 SUB PUSH1 0x1F AND DUP3 ADD SWAP2 JUMPDEST POP POP POP POP POP SWAP1 POP PUSH1 0x0 PUSH2 0x147 PUSH2 0x14A DUP9 PUSH1 0xFF AND PUSH1 0x8 DUP2 LT PUSH2 0xD58 JUMPI PUSH32 0x4E487B7100000000000000000000000000000000000000000000000000000000 PUSH1 0x0 MSTORE PUSH1 0x32 PUSH1 0x4 MSTORE PUSH1 0x24 PUSH1 0x0 REVERT JUMPDEST ADD PUSH1 0x1 PUSH1 0x3 DUP2 LT PUSH2 0xD92 JUMPI PUSH32 0x4E487B7100000000000000000000000000000000000000000000000000000000 PUSH1 0x0 MSTORE PUSH1 0x32 PUSH1 0x4 MSTORE PUSH1 0x24 PUSH1 0x0 REVERT JUMPDEST PUSH1 0x20 SWAP2 DUP3 DUP3 DIV ADD SWAP2 SWAP1 MOD SWAP1 SLOAD SWAP1 PUSH2 0x100 EXP SWAP1 DIV PUSH1 0xFF AND PUSH1 0xFF AND PUSH1 0x3 DUP2 LT PUSH2 0xDE2 JUMPI PUSH32 0x4E487B7100000000000000000000000000000000000000000000000000000000 PUSH1 0x0 MSTORE PUSH1 0x32 PUSH1 0x4 MSTORE PUSH1 0x24 PUSH1 0x0 REVERT JUMPDEST ADD DUP1 SLOAD PUSH2 0xDEE SWAP1 PUSH2 0x3E97 JUMP JUMPDEST DUP1 PUSH1 0x1F ADD PUSH1 0x20 DUP1 SWAP2 DIV MUL PUSH1 0x20 ADD PUSH1 0x40 MLOAD SWAP1 DUP2 ADD PUSH1 0x40 MSTORE DUP1 SWAP3 SWAP2 SWAP1 DUP2 DUP2 MSTORE PUSH1 0x20 ADD DUP3 DUP1 SLOAD PUSH2 0xE1A SWAP1 PUSH2 0x3E97 JUMP JUMPDEST DUP1 ISZERO PUSH2 0xE67 JUMPI DUP1 PUSH1 0x1F LT PUSH2 0xE3C JUMPI PUSH2 0x100 DUP1 DUP4 SLOAD DIV MUL DUP4 MSTORE SWAP2 PUSH1 0x20 ADD SWAP2 PUSH2 0xE67 JUMP JUMPDEST DUP3 ADD SWAP2 SWAP1 PUSH1 0x0 MSTORE PUSH1 0x20 PUSH1 0x0 KECCAK256 SWAP1 JUMPDEST DUP2 SLOAD DUP2 MSTORE SWAP1 PUSH1 0x1 ADD SWAP1 PUSH1 0x20 ADD DUP1 DUP4 GT PUSH2 0xE4A JUMPI DUP3 SWAP1 SUB PUSH1 0x1F AND DUP3 ADD SWAP2 JUMPDEST POP POP POP POP POP SWAP1 POP PUSH1 0x0 PUSH2 0x147 PUSH2 0x14A DUP10 PUSH1 0xFF AND PUSH1 0x8 DUP2 LT PUSH2 0xEB1 JUMPI PUSH32 0x4E487B7100000000000000000000000000000000000000000000000000000000 PUSH1 0x0 MSTORE PUSH1 0x32 PUSH1 0x4 MSTORE PUSH1 0x24 PUSH1 0x0 REVERT JUMPDEST ADD PUSH1 0x2 PUSH1 0x3 DUP2 LT PUSH2 0xEEB JUMPI PUSH32 0x4E487B7100000000000000000000000000000000000000000000000000000000 PUSH1 0x0 MSTORE PUSH1 0x32 PUSH1 0x4 MSTORE PUSH1 0x24 PUSH1 0x0 REVERT JUMPDEST PUSH1 0x20 SWAP2 DUP3 DUP3 DIV ADD SWAP2 SWAP1 MOD SWAP1 SLOAD SWAP1 PUSH2 0x100 EXP SWAP1 DIV PUSH1 0xFF AND PUSH1 0xFF AND PUSH1 0x3 DUP2 LT PUSH2 0xF3B JUMPI PUSH32 0x4E487B7100000000000000000000000000000000000000000000000000000000 PUSH1 0x0 MSTORE PUSH1 0x32 PUSH1 0x4 MSTORE PUSH1 0x24 PUSH1 0x0 REVERT JUMPDEST ADD DUP1 SLOAD PUSH2 0xF47 SWAP1 PUSH2 0x3E97 JUMP JUMPDEST DUP1 PUSH1 0x1F ADD PUSH1 0x20 DUP1 SWAP2 DIV MUL PUSH1 0x20 ADD PUSH1 0x40 MLOAD SWAP1 DUP2 ADD PUSH1 0x40 MSTORE DUP1 SWAP3 SWAP2 SWAP1 DUP2 DUP2 MSTORE PUSH1 0x20 ADD DUP3 DUP1 SLOAD PUSH2 0xF73 SWAP1 PUSH2 0x3E97 JUMP JUMPDEST DUP1 ISZERO PUSH2 0xFC0 JUMPI DUP1 PUSH1 0x1F LT PUSH2 0xF95 JUMPI PUSH2 0x100 DUP1 DUP4 SLOAD DIV MUL DUP4 MSTORE SWAP2 PUSH1 0x20 ADD SWAP2 PUSH2 0xFC0 JUMP JUMPDEST DUP3 ADD SWAP2 SWAP1 PUSH1 0x0 MSTORE PUSH1 0x20 PUSH1 0x0 KECCAK256 SWAP1 JUMPDEST DUP2 SLOAD DUP2 MSTORE SWAP1 PUSH1 0x1 ADD SWAP1 PUSH1 0x20 ADD DUP1 DUP4 GT PUSH2 0xFA3 JUMPI DUP3 SWAP1 SUB PUSH1 0x1F AND DUP3 ADD SWAP2 JUMPDEST POP POP POP POP POP SWAP1 POP DUP6 DUP4 DUP7 DUP5 DUP8 DUP6 PUSH1 0x40 MLOAD PUSH1 0x20 ADD PUSH2 0xFE2 SWAP7 SWAP6 SWAP5 SWAP4 SWAP3 SWAP2 SWAP1 PUSH2 0x37A0 JUMP JUMPDEST PUSH1 0x40 MLOAD PUSH1 0x20 DUP2 DUP4 SUB SUB DUP2 MSTORE SWAP1 PUSH1 0x40 MSTORE SWAP7 POP POP POP POP POP POP POP SWAP3 SWAP2 POP POP JUMP JUMPDEST PUSH2 0x101A DUP4 DUP4 DUP4 PUSH1 0x40 MLOAD DUP1 PUSH1 0x20 ADD PUSH1 0x40 MSTORE DUP1 PUSH1 0x0 DUP2 MSTORE POP PUSH2 0x13C6 JUMP JUMPDEST POP POP POP JUMP JUMPDEST PUSH1 0x60 PUSH2 0x1042 DUP3 PUSH20 0xFFFFFFFFFFFFFFFFFFFFFFFFFFFFFFFFFFFFFFFF AND PUSH1 0x14 PUSH2 0x2125 JUMP JUMPDEST SWAP1 POP SWAP2 SWAP1 POP JUMP JUMPDEST PUSH1 0x0 DUP1 PUSH1 0x2 PUSH1 0x0 DUP5 DUP2 MSTORE PUSH1 0x20 ADD SWAP1 DUP2 MSTORE PUSH1 0x20 ADD PUSH1 0x0 KECCAK256 PUSH1 0x0 SWAP1 SLOAD SWAP1 PUSH2 0x100 EXP SWAP1 DIV PUSH20 0xFFFFFFFFFFFFFFFFFFFFFFFFFFFFFFFFFFFFFFFF AND SWAP1 POP PUSH1 0x0 PUSH20 0xFFFFFFFFFFFFFFFFFFFFFFFFFFFFFFFFFFFFFFFF AND DUP2 PUSH20 0xFFFFFFFFFFFFFFFFFFFFFFFFFFFFFFFFFFFFFFFF AND EQ ISZERO PUSH2 0x10F2 JUMPI PUSH1 0x40 MLOAD PUSH32 0x8C379A000000000000000000000000000000000000000000000000000000000 DUP2 MSTORE PUSH1 0x4 ADD PUSH2 0x10E9 SWAP1 PUSH2 0x3A86 JUMP JUMPDEST PUSH1 0x40 MLOAD DUP1 SWAP2 SUB SWAP1 REVERT JUMPDEST DUP1 SWAP2 POP POP SWAP2 SWAP1 POP JUMP JUMPDEST PUSH1 0x0 DUP1 PUSH20 0xFFFFFFFFFFFFFFFFFFFFFFFFFFFFFFFFFFFFFFFF AND DUP3 PUSH20 0xFFFFFFFFFFFFFFFFFFFFFFFFFFFFFFFFFFFFFFFF AND EQ ISZERO PUSH2 0x116C JUMPI PUSH1 0x40 MLOAD PUSH32 0x8C379A000000000000000000000000000000000000000000000000000000000 DUP2 MSTORE PUSH1 0x4 ADD PUSH2 0x1163 SWAP1 PUSH2 0x3A66 JUMP JUMPDEST PUSH1 0x40 MLOAD DUP1 SWAP2 SUB SWAP1 REVERT JUMPDEST PUSH1 0x3 PUSH1 0x0 DUP4 PUSH20 0xFFFFFFFFFFFFFFFFFFFFFFFFFFFFFFFFFFFFFFFF AND PUSH20 0xFFFFFFFFFFFFFFFFFFFFFFFFFFFFFFFFFFFFFFFF AND DUP2 MSTORE PUSH1 0x20 ADD SWAP1 DUP2 MSTORE PUSH1 0x20 ADD PUSH1 0x0 KECCAK256 SLOAD SWAP1 POP SWAP2 SWAP1 POP JUMP JUMPDEST PUSH1 0x60 PUSH1 0x1 DUP1 SLOAD PUSH2 0x11C2 SWAP1 PUSH2 0x3E97 JUMP JUMPDEST DUP1 PUSH1 0x1F ADD PUSH1 0x20 DUP1 SWAP2 DIV MUL PUSH1 0x20 ADD PUSH1 0x40 MLOAD SWAP1 DUP2 ADD PUSH1 0x40 MSTORE DUP1 SWAP3 SWAP2 SWAP1 DUP2 DUP2 MSTORE PUSH1 0x20 ADD DUP3 DUP1 SLOAD PUSH2 0x11EE SWAP1 PUSH2 0x3E97 JUMP JUMPDEST DUP1 ISZERO PUSH2 0x123B JUMPI DUP1 PUSH1 0x1F LT PUSH2 0x1210 JUMPI PUSH2 0x100 DUP1 DUP4 SLOAD DIV MUL DUP4 MSTORE SWAP2 PUSH1 0x20 ADD SWAP2 PUSH2 0x123B JUMP JUMPDEST DUP3 ADD SWAP2 SWAP1 PUSH1 0x0 MSTORE PUSH1 0x20 PUSH1 0x0 KECCAK256 SWAP1 JUMPDEST DUP2 SLOAD DUP2 MSTORE SWAP1 PUSH1 0x1 ADD SWAP1 PUSH1 0x20 ADD DUP1 DUP4 GT PUSH2 0x121E JUMPI DUP3 SWAP1 SUB PUSH1 0x1F AND DUP3 ADD SWAP2 JUMPDEST POP POP POP POP POP SWAP1 POP SWAP1 JUMP JUMPDEST PUSH2 0x124D PUSH2 0x1B5C JUMP JUMPDEST PUSH20 0xFFFFFFFFFFFFFFFFFFFFFFFFFFFFFFFFFFFFFFFF AND DUP3 PUSH20 0xFFFFFFFFFFFFFFFFFFFFFFFFFFFFFFFFFFFFFFFF AND EQ ISZERO PUSH2 0x12BB JUMPI PUSH1 0x40 MLOAD PUSH32 0x8C379A000000000000000000000000000000000000000000000000000000000 DUP2 MSTORE PUSH1 0x4 ADD PUSH2 0x12B2 SWAP1 PUSH2 0x3A06 JUMP JUMPDEST PUSH1 0x40 MLOAD DUP1 SWAP2 SUB SWAP1 REVERT JUMPDEST DUP1 PUSH1 0x5 PUSH1 0x0 PUSH2 0x12C8 PUSH2 0x1B5C JUMP JUMPDEST PUSH20 0xFFFFFFFFFFFFFFFFFFFFFFFFFFFFFFFFFFFFFFFF AND PUSH20 0xFFFFFFFFFFFFFFFFFFFFFFFFFFFFFFFFFFFFFFFF AND DUP2 MSTORE PUSH1 0x20 ADD SWAP1 DUP2 MSTORE PUSH1 0x20 ADD PUSH1 0x0 KECCAK256 PUSH1 0x0 DUP5 PUSH20 0xFFFFFFFFFFFFFFFFFFFFFFFFFFFFFFFFFFFFFFFF AND PUSH20 0xFFFFFFFFFFFFFFFFFFFFFFFFFFFFFFFFFFFFFFFF AND DUP2 MSTORE PUSH1 0x20 ADD SWAP1 DUP2 MSTORE PUSH1 0x20 ADD PUSH1 0x0 KECCAK256 PUSH1 0x0 PUSH2 0x100 EXP DUP2 SLOAD DUP2 PUSH1 0xFF MUL NOT AND SWAP1 DUP4 ISZERO ISZERO MUL OR SWAP1 SSTORE POP DUP2 PUSH20 0xFFFFFFFFFFFFFFFFFFFFFFFFFFFFFFFFFFFFFFFF AND PUSH2 0x1375 PUSH2 0x1B5C JUMP JUMPDEST PUSH20 0xFFFFFFFFFFFFFFFFFFFFFFFFFFFFFFFFFFFFFFFF AND PUSH32 0x17307EAB39AB6107E8899845AD3D59BD9653F200F220920489CA2B5937696C31 DUP4 PUSH1 0x40 MLOAD PUSH2 0x13BA SWAP2 SWAP1 PUSH2 0x3949 JUMP JUMPDEST PUSH1 0x40 MLOAD DUP1 SWAP2 SUB SWAP1 LOG3 POP POP JUMP JUMPDEST PUSH2 0x13D7 PUSH2 0x13D1 PUSH2 0x1B5C JUMP JUMPDEST DUP4 PUSH2 0x1DEB JUMP JUMPDEST PUSH2 0x1416 JUMPI PUSH1 0x40 MLOAD PUSH32 0x8C379A000000000000000000000000000000000000000000000000000000000 DUP2 MSTORE PUSH1 0x4 ADD PUSH2 0x140D SWAP1 PUSH2 0x3B66 JUMP JUMPDEST PUSH1 0x40 MLOAD DUP1 SWAP2 SUB SWAP1 REVERT JUMPDEST PUSH2 0x1422 DUP5 DUP5 DUP5 DUP5 PUSH2 0x241F JUMP JUMPDEST POP POP POP POP JUMP JUMPDEST PUSH1 0x60 PUSH1 0x0 PUSH2 0x146C PUSH2 0x15A PUSH1 0x0 DUP6 DUP2 MSTORE PUSH1 0x20 ADD SWAP1 DUP2 MSTORE PUSH1 0x20 ADD PUSH1 0x0 KECCAK256 PUSH1 0x0 ADD PUSH1 0x0 SWAP1 SLOAD SWAP1 PUSH2 0x100 EXP SWAP1 DIV PUSH20 0xFFFFFFFFFFFFFFFFFFFFFFFFFFFFFFFFFFFFFFFF AND PUSH2 0x101F JUMP JUMPDEST SWAP1 POP PUSH1 0x0 PUSH2 0x1479 DUP5 PUSH2 0x247B JUMP JUMPDEST SWAP1 POP PUSH1 0x0 PUSH1 0x40 MLOAD DUP1 PUSH1 0x40 ADD PUSH1 0x40 MSTORE DUP1 PUSH1 0x4 DUP2 MSTORE PUSH1 0x20 ADD PUSH32 0x3235303100000000000000000000000000000000000000000000000000000000 DUP2 MSTORE POP SWAP1 POP PUSH1 0x0 PUSH1 0x40 MLOAD DUP1 PUSH1 0x40 ADD PUSH1 0x40 MSTORE DUP1 PUSH1 0x2 DUP2 MSTORE PUSH1 0x20 ADD PUSH32 0x3231000000000000000000000000000000000000000000000000000000000000 DUP2 MSTORE POP SWAP1 POP PUSH1 0x0 PUSH1 0x40 MLOAD DUP1 PUSH1 0x40 ADD PUSH1 0x40 MSTORE DUP1 PUSH1 0xA DUP2 MSTORE PUSH1 0x20 ADD PUSH32 0x323032302E31312E313100000000000000000000000000000000000000000000 DUP2 MSTORE POP SWAP1 POP PUSH1 0x0 PUSH2 0x15A PUSH1 0x0 DUP10 DUP2 MSTORE PUSH1 0x20 ADD SWAP1 DUP2 MSTORE PUSH1 0x20 ADD PUSH1 0x0 KECCAK256 PUSH1 0x1 ADD SLOAD PUSH1 0x0 SHL PUSH1 0x40 MLOAD PUSH1 0x20 ADD PUSH2 0x1556 SWAP2 SWAP1 PUSH2 0x3553 JUMP JUMPDEST PUSH1 0x40 MLOAD PUSH1 0x20 DUP2 DUP4 SUB SUB DUP2 MSTORE SWAP1 PUSH1 0x40 MSTORE SWAP1 POP PUSH1 0x0 PUSH1 0x4 PUSH2 0x1576 DUP4 PUSH1 0x1 PUSH2 0x2628 JUMP JUMPDEST PUSH2 0x1580 SWAP2 SWAP1 PUSH2 0x3CE1 JUMP JUMPDEST SWAP1 POP PUSH1 0x0 PUSH1 0x20 PUSH2 0x1591 DUP5 PUSH1 0x0 PUSH2 0x2628 JUMP JUMPDEST PUSH2 0x159B SWAP2 SWAP1 PUSH2 0x3CE1 JUMP JUMPDEST SWAP1 POP PUSH1 0x0 PUSH1 0x20 PUSH2 0x15AC DUP6 PUSH1 0x2 PUSH2 0x2628 JUMP JUMPDEST PUSH2 0x15B6 SWAP2 SWAP1 PUSH2 0x3CE1 JUMP JUMPDEST SWAP1 POP PUSH1 0x0 PUSH2 0x152 DUP4 PUSH1 0xFF AND PUSH1 0x8 DUP2 LT PUSH2 0x15F8 JUMPI PUSH32 0x4E487B7100000000000000000000000000000000000000000000000000000000 PUSH1 0x0 MSTORE PUSH1 0x32 PUSH1 0x4 MSTORE PUSH1 0x24 PUSH1 0x0 REVERT JUMPDEST ADD DUP1 SLOAD PUSH2 0x1604 SWAP1 PUSH2 0x3E97 JUMP JUMPDEST DUP1 PUSH1 0x1F ADD PUSH1 0x20 DUP1 SWAP2 DIV MUL PUSH1 0x20 ADD PUSH1 0x40 MLOAD SWAP1 DUP2 ADD PUSH1 0x40 MSTORE DUP1 SWAP3 SWAP2 SWAP1 DUP2 DUP2 MSTORE PUSH1 0x20 ADD DUP3 DUP1 SLOAD PUSH2 0x1630 SWAP1 PUSH2 0x3E97 JUMP JUMPDEST DUP1 ISZERO PUSH2 0x167D JUMPI DUP1 PUSH1 0x1F LT PUSH2 0x1652 JUMPI PUSH2 0x100 DUP1 DUP4 SLOAD DIV MUL DUP4 MSTORE SWAP2 PUSH1 0x20 ADD SWAP2 PUSH2 0x167D JUMP JUMPDEST DUP3 ADD SWAP2 SWAP1 PUSH1 0x0 MSTORE PUSH1 0x20 PUSH1 0x0 KECCAK256 SWAP1 JUMPDEST DUP2 SLOAD DUP2 MSTORE SWAP1 PUSH1 0x1 ADD SWAP1 PUSH1 0x20 ADD DUP1 DUP4 GT PUSH2 0x1660 JUMPI DUP3 SWAP1 SUB PUSH1 0x1F AND DUP3 ADD SWAP2 JUMPDEST POP POP POP POP POP SWAP1 POP PUSH1 0x0 PUSH1 0x7 DUP6 PUSH1 0xFF AND PUSH1 0x40 DUP2 LT PUSH2 0x16C3 JUMPI PUSH32 0x4E487B7100000000000000000000000000000000000000000000000000000000 PUSH1 0x0 MSTORE PUSH1 0x32 PUSH1 0x4 MSTORE PUSH1 0x24 PUSH1 0x0 REVERT JUMPDEST PUSH1 0x5 MUL ADD PUSH1 0x0 PUSH1 0x5 DUP2 LT PUSH2 0x1700 JUMPI PUSH32 0x4E487B7100000000000000000000000000000000000000000000000000000000 PUSH1 0x0 MSTORE PUSH1 0x32 PUSH1 0x4 MSTORE PUSH1 0x24 PUSH1 0x0 REVERT JUMPDEST ADD DUP1 SLOAD PUSH2 0x170C SWAP1 PUSH2 0x3E97 JUMP JUMPDEST DUP1 PUSH1 0x1F ADD PUSH1 0x20 DUP1 SWAP2 DIV MUL PUSH1 0x20 ADD PUSH1 0x40 MLOAD SWAP1 DUP2 ADD PUSH1 0x40 MSTORE DUP1 SWAP3 SWAP2 SWAP1 DUP2 DUP2 MSTORE PUSH1 0x20 ADD DUP3 DUP1 SLOAD PUSH2 0x1738 SWAP1 PUSH2 0x3E97 JUMP JUMPDEST DUP1 ISZERO PUSH2 0x1785 JUMPI DUP1 PUSH1 0x1F LT PUSH2 0x175A JUMPI PUSH2 0x100 DUP1 DUP4 SLOAD DIV MUL DUP4 MSTORE SWAP2 PUSH1 0x20 ADD SWAP2 PUSH2 0x1785 JUMP JUMPDEST DUP3 ADD SWAP2 SWAP1 PUSH1 0x0 MSTORE PUSH1 0x20 PUSH1 0x0 KECCAK256 SWAP1 JUMPDEST DUP2 SLOAD DUP2 MSTORE SWAP1 PUSH1 0x1 ADD SWAP1 PUSH1 0x20 ADD DUP1 DUP4 GT PUSH2 0x1768 JUMPI DUP3 SWAP1 SUB PUSH1 0x1F AND DUP3 ADD SWAP2 JUMPDEST POP POP POP POP POP SWAP1 POP PUSH1 0x0 PUSH1 0x7 DUP7 PUSH1 0xFF AND PUSH1 0x40 DUP2 LT PUSH2 0x17CB JUMPI PUSH32 0x4E487B7100000000000000000000000000000000000000000000000000000000 PUSH1 0x0 MSTORE PUSH1 0x32 PUSH1 0x4 MSTORE PUSH1 0x24 PUSH1 0x0 REVERT JUMPDEST PUSH1 0x5 MUL ADD PUSH1 0x1 PUSH1 0x5 DUP2 LT PUSH2 0x1808 JUMPI PUSH32 0x4E487B7100000000000000000000000000000000000000000000000000000000 PUSH1 0x0 MSTORE PUSH1 0x32 PUSH1 0x4 MSTORE PUSH1 0x24 PUSH1 0x0 REVERT JUMPDEST ADD DUP1 SLOAD PUSH2 0x1814 SWAP1 PUSH2 0x3E97 JUMP JUMPDEST DUP1 PUSH1 0x1F ADD PUSH1 0x20 DUP1 SWAP2 DIV MUL PUSH1 0x20 ADD PUSH1 0x40 MLOAD SWAP1 DUP2 ADD PUSH1 0x40 MSTORE DUP1 SWAP3 SWAP2 SWAP1 DUP2 DUP2 MSTORE PUSH1 0x20 ADD DUP3 DUP1 SLOAD PUSH2 0x1840 SWAP1 PUSH2 0x3E97 JUMP JUMPDEST DUP1 ISZERO PUSH2 0x188D JUMPI DUP1 PUSH1 0x1F LT PUSH2 0x1862 JUMPI PUSH2 0x100 DUP1 DUP4 SLOAD DIV MUL DUP4 MSTORE SWAP2 PUSH1 0x20 ADD SWAP2 PUSH2 0x188D JUMP JUMPDEST DUP3 ADD SWAP2 SWAP1 PUSH1 0x0 MSTORE PUSH1 0x20 PUSH1 0x0 KECCAK256 SWAP1 JUMPDEST DUP2 SLOAD DUP2 MSTORE SWAP1 PUSH1 0x1 ADD SWAP1 PUSH1 0x20 ADD DUP1 DUP4 GT PUSH2 0x1870 JUMPI DUP3 SWAP1 SUB PUSH1 0x1F AND DUP3 ADD SWAP2 JUMPDEST POP POP POP POP POP SWAP1 POP PUSH1 0x0 PUSH2 0x18A0 DUP8 DUP7 PUSH2 0x8A2 JUMP JUMPDEST SWAP1 POP DUP3 DUP3 DUP15 DUP15 DUP15 DUP15 DUP15 DUP11 DUP9 PUSH1 0x40 MLOAD PUSH1 0x20 ADD PUSH2 0x18C3 SWAP10 SWAP9 SWAP8 SWAP7 SWAP6 SWAP5 SWAP4 SWAP3 SWAP2 SWAP1 PUSH2 0x35D6 JUMP JUMPDEST PUSH1 0x40 MLOAD PUSH1 0x20 DUP2 DUP4 SUB SUB DUP2 MSTORE SWAP1 PUSH1 0x40 MSTORE SWAP14 POP POP POP POP POP POP POP POP POP POP POP POP POP POP SWAP2 SWAP1 POP JUMP JUMPDEST PUSH1 0x60 PUSH2 0x18F1 DUP3 PUSH2 0x1AF0 JUMP JUMPDEST PUSH2 0x1930 JUMPI PUSH1 0x40 MLOAD PUSH32 0x8C379A000000000000000000000000000000000000000000000000000000000 DUP2 MSTORE PUSH1 0x4 ADD PUSH2 0x1927 SWAP1 PUSH2 0x3B06 JUMP JUMPDEST PUSH1 0x40 MLOAD DUP1 SWAP2 SUB SWAP1 REVERT JUMPDEST PUSH1 0x0 PUSH1 0x40 MLOAD DUP1 PUSH1 0x40 ADD PUSH1 0x40 MSTORE DUP1 PUSH1 0x1E DUP2 MSTORE PUSH1 0x20 ADD PUSH32 0x5468652047726170682043757261746F72204D6574616669636174696F6E0000 DUP2 MSTORE POP SWAP1 POP PUSH1 0x0 PUSH1 0x40 MLOAD DUP1 PUSH2 0x120 ADD PUSH1 0x40 MSTORE DUP1 PUSH1 0xFB DUP2 MSTORE PUSH1 0x20 ADD PUSH2 0x4FC5 PUSH1 0xFB SWAP2 CODECOPY SWAP1 POP PUSH1 0x0 PUSH2 0x199B PUSH2 0x1996 DUP7 PUSH2 0x1428 JUMP JUMPDEST PUSH2 0x26DE JUMP JUMPDEST SWAP1 POP PUSH2 0x19C9 DUP4 DUP4 DUP4 PUSH1 0x40 MLOAD PUSH1 0x20 ADD PUSH2 0x19B5 SWAP4 SWAP3 SWAP2 SWAP1 PUSH2 0x356E JUMP JUMPDEST PUSH1 0x40 MLOAD PUSH1 0x20 DUP2 DUP4 SUB SUB DUP2 MSTORE SWAP1 PUSH1 0x40 MSTORE PUSH2 0x26DE JUMP JUMPDEST PUSH1 0x40 MLOAD PUSH1 0x20 ADD PUSH2 0x19D9 SWAP2 SWAP1 PUSH2 0x377E JUMP JUMPDEST PUSH1 0x40 MLOAD PUSH1 0x20 DUP2 DUP4 SUB SUB DUP2 MSTORE SWAP1 PUSH1 0x40 MSTORE SWAP4 POP POP POP POP SWAP2 SWAP1 POP JUMP JUMPDEST PUSH1 0x0 PUSH1 0x5 PUSH1 0x0 DUP5 PUSH20 0xFFFFFFFFFFFFFFFFFFFFFFFFFFFFFFFFFFFFFFFF AND PUSH20 0xFFFFFFFFFFFFFFFFFFFFFFFFFFFFFFFFFFFFFFFF AND DUP2 MSTORE PUSH1 0x20 ADD SWAP1 DUP2 MSTORE PUSH1 0x20 ADD PUSH1 0x0 KECCAK256 PUSH1 0x0 DUP4 PUSH20 0xFFFFFFFFFFFFFFFFFFFFFFFFFFFFFFFFFFFFFFFF AND PUSH20 0xFFFFFFFFFFFFFFFFFFFFFFFFFFFFFFFFFFFFFFFF AND DUP2 MSTORE PUSH1 0x20 ADD SWAP1 DUP2 MSTORE PUSH1 0x20 ADD PUSH1 0x0 KECCAK256 PUSH1 0x0 SWAP1 SLOAD SWAP1 PUSH2 0x100 EXP SWAP1 DIV PUSH1 0xFF AND SWAP1 POP SWAP3 SWAP2 POP POP JUMP JUMPDEST PUSH1 0x0 PUSH32 0x1FFC9A700000000000000000000000000000000000000000000000000000000 PUSH28 0xFFFFFFFFFFFFFFFFFFFFFFFFFFFFFFFFFFFFFFFFFFFFFFFFFFFFFFFF NOT AND DUP3 PUSH28 0xFFFFFFFFFFFFFFFFFFFFFFFFFFFFFFFFFFFFFFFFFFFFFFFFFFFFFFFF NOT AND EQ SWAP1 POP SWAP2 SWAP1 POP JUMP JUMPDEST PUSH1 0x0 DUP1 PUSH20 0xFFFFFFFFFFFFFFFFFFFFFFFFFFFFFFFFFFFFFFFF AND PUSH1 0x2 PUSH1 0x0 DUP5 DUP2 MSTORE PUSH1 0x20 ADD SWAP1 DUP2 MSTORE PUSH1 0x20 ADD PUSH1 0x0 KECCAK256 PUSH1 0x0 SWAP1 SLOAD SWAP1 PUSH2 0x100 EXP SWAP1 DIV PUSH20 0xFFFFFFFFFFFFFFFFFFFFFFFFFFFFFFFFFFFFFFFF AND PUSH20 0xFFFFFFFFFFFFFFFFFFFFFFFFFFFFFFFFFFFFFFFF AND EQ ISZERO SWAP1 POP SWAP2 SWAP1 POP JUMP JUMPDEST PUSH1 0x0 CALLER SWAP1 POP SWAP1 JUMP JUMPDEST DUP2 PUSH1 0x4 PUSH1 0x0 DUP4 DUP2 MSTORE PUSH1 0x20 ADD SWAP1 DUP2 MSTORE PUSH1 0x20 ADD PUSH1 0x0 KECCAK256 PUSH1 0x0 PUSH2 0x100 EXP DUP2 SLOAD DUP2 PUSH20 0xFFFFFFFFFFFFFFFFFFFFFFFFFFFFFFFFFFFFFFFF MUL NOT AND SWAP1 DUP4 PUSH20 0xFFFFFFFFFFFFFFFFFFFFFFFFFFFFFFFFFFFFFFFF AND MUL OR SWAP1 SSTORE POP DUP1 DUP3 PUSH20 0xFFFFFFFFFFFFFFFFFFFFFFFFFFFFFFFFFFFFFFFF AND PUSH2 0x1BD7 DUP4 PUSH2 0x1049 JUMP JUMPDEST PUSH20 0xFFFFFFFFFFFFFFFFFFFFFFFFFFFFFFFFFFFFFFFF AND PUSH32 0x8C5BE1E5EBEC7D5BD14F71427D1E84F3DD0314C0F7B2291E5B200AC8C7C3B925 PUSH1 0x40 MLOAD PUSH1 0x40 MLOAD DUP1 SWAP2 SUB SWAP1 LOG4 POP POP JUMP JUMPDEST PUSH1 0x0 PUSH20 0xFFFFFFFFFFFFFFFFFFFFFFFFFFFFFFFFFFFFFFFF AND DUP3 PUSH20 0xFFFFFFFFFFFFFFFFFFFFFFFFFFFFFFFFFFFFFFFF AND EQ ISZERO PUSH2 0x1C8D JUMPI PUSH1 0x40 MLOAD PUSH32 0x8C379A000000000000000000000000000000000000000000000000000000000 DUP2 MSTORE PUSH1 0x4 ADD PUSH2 0x1C84 SWAP1 PUSH2 0x3AA6 JUMP JUMPDEST PUSH1 0x40 MLOAD DUP1 SWAP2 SUB SWAP1 REVERT JUMPDEST PUSH2 0x1C96 DUP2 PUSH2 0x1AF0 JUMP JUMPDEST ISZERO PUSH2 0x1CD6 JUMPI PUSH1 0x40 MLOAD PUSH32 0x8C379A000000000000000000000000000000000000000000000000000000000 DUP2 MSTORE PUSH1 0x4 ADD PUSH2 0x1CCD SWAP1 PUSH2 0x39C6 JUMP JUMPDEST PUSH1 0x40 MLOAD DUP1 SWAP2 SUB SWAP1 REVERT JUMPDEST PUSH2 0x1CE2 PUSH1 0x0 DUP4 DUP4 PUSH2 0x2889 JUMP JUMPDEST PUSH1 0x1 PUSH1 0x3 PUSH1 0x0 DUP5 PUSH20 0xFFFFFFFFFFFFFFFFFFFFFFFFFFFFFFFFFFFFFFFF AND PUSH20 0xFFFFFFFFFFFFFFFFFFFFFFFFFFFFFFFFFFFFFFFF AND DUP2 MSTORE PUSH1 0x20 ADD SWAP1 DUP2 MSTORE PUSH1 0x20 ADD PUSH1 0x0 KECCAK256 PUSH1 0x0 DUP3 DUP3 SLOAD PUSH2 0x1D32 SWAP2 SWAP1 PUSH2 0x3C5A JUMP JUMPDEST SWAP3 POP POP DUP2 SWAP1 SSTORE POP DUP2 PUSH1 0x2 PUSH1 0x0 DUP4 DUP2 MSTORE PUSH1 0x20 ADD SWAP1 DUP2 MSTORE PUSH1 0x20 ADD PUSH1 0x0 KECCAK256 PUSH1 0x0 PUSH2 0x100 EXP DUP2 SLOAD DUP2 PUSH20 0xFFFFFFFFFFFFFFFFFFFFFFFFFFFFFFFFFFFFFFFF MUL NOT AND SWAP1 DUP4 PUSH20 0xFFFFFFFFFFFFFFFFFFFFFFFFFFFFFFFFFFFFFFFF AND MUL OR SWAP1 SSTORE POP DUP1 DUP3 PUSH20 0xFFFFFFFFFFFFFFFFFFFFFFFFFFFFFFFFFFFFFFFF AND PUSH1 0x0 PUSH20 0xFFFFFFFFFFFFFFFFFFFFFFFFFFFFFFFFFFFFFFFF AND PUSH32 0xDDF252AD1BE2C89B69C2B068FC378DAA952BA7F163C4A11628F55A4DF523B3EF PUSH1 0x40 MLOAD PUSH1 0x40 MLOAD DUP1 SWAP2 SUB SWAP1 LOG4 POP POP JUMP JUMPDEST PUSH1 0x0 PUSH2 0x1DF6 DUP3 PUSH2 0x1AF0 JUMP JUMPDEST PUSH2 0x1E35 JUMPI PUSH1 0x40 MLOAD PUSH32 0x8C379A000000000000000000000000000000000000000000000000000000000 DUP2 MSTORE PUSH1 0x4 ADD PUSH2 0x1E2C SWAP1 PUSH2 0x3A26 JUMP JUMPDEST PUSH1 0x40 MLOAD DUP1 SWAP2 SUB SWAP1 REVERT JUMPDEST PUSH1 0x0 PUSH2 0x1E40 DUP4 PUSH2 0x1049 JUMP JUMPDEST SWAP1 POP DUP1 PUSH20 0xFFFFFFFFFFFFFFFFFFFFFFFFFFFFFFFFFFFFFFFF AND DUP5 PUSH20 0xFFFFFFFFFFFFFFFFFFFFFFFFFFFFFFFFFFFFFFFF AND EQ DUP1 PUSH2 0x1EAF JUMPI POP DUP4 PUSH20 0xFFFFFFFFFFFFFFFFFFFFFFFFFFFFFFFFFFFFFFFF AND PUSH2 0x1E97 DUP5 PUSH2 0x556 JUMP JUMPDEST PUSH20 0xFFFFFFFFFFFFFFFFFFFFFFFFFFFFFFFFFFFFFFFF AND EQ JUMPDEST DUP1 PUSH2 0x1EC0 JUMPI POP PUSH2 0x1EBF DUP2 DUP6 PUSH2 0x19F2 JUMP JUMPDEST JUMPDEST SWAP2 POP POP SWAP3 SWAP2 POP POP JUMP JUMPDEST DUP3 PUSH20 0xFFFFFFFFFFFFFFFFFFFFFFFFFFFFFFFFFFFFFFFF AND PUSH2 0x1EE9 DUP3 PUSH2 0x1049 JUMP JUMPDEST PUSH20 0xFFFFFFFFFFFFFFFFFFFFFFFFFFFFFFFFFFFFFFFF AND EQ PUSH2 0x1F3F JUMPI PUSH1 0x40 MLOAD PUSH32 0x8C379A000000000000000000000000000000000000000000000000000000000 DUP2 MSTORE PUSH1 0x4 ADD PUSH2 0x1F36 SWAP1 PUSH2 0x3AE6 JUMP JUMPDEST PUSH1 0x40 MLOAD DUP1 SWAP2 SUB SWAP1 REVERT JUMPDEST PUSH1 0x0 PUSH20 0xFFFFFFFFFFFFFFFFFFFFFFFFFFFFFFFFFFFFFFFF AND DUP3 PUSH20 0xFFFFFFFFFFFFFFFFFFFFFFFFFFFFFFFFFFFFFFFF AND EQ ISZERO PUSH2 0x1FAF JUMPI PUSH1 0x40 MLOAD PUSH32 0x8C379A000000000000000000000000000000000000000000000000000000000 DUP2 MSTORE PUSH1 0x4 ADD PUSH2 0x1FA6 SWAP1 PUSH2 0x39E6 JUMP JUMPDEST PUSH1 0x40 MLOAD DUP1 SWAP2 SUB SWAP1 REVERT JUMPDEST PUSH2 0x1FBA DUP4 DUP4 DUP4 PUSH2 0x2889 JUMP JUMPDEST PUSH2 0x1FC5 PUSH1 0x0 DUP3 PUSH2 0x1B64 JUMP JUMPDEST PUSH1 0x1 PUSH1 0x3 PUSH1 0x0 DUP6 PUSH20 0xFFFFFFFFFFFFFFFFFFFFFFFFFFFFFFFFFFFFFFFF AND PUSH20 0xFFFFFFFFFFFFFFFFFFFFFFFFFFFFFFFFFFFFFFFF AND DUP2 MSTORE PUSH1 0x20 ADD SWAP1 DUP2 MSTORE PUSH1 0x20 ADD PUSH1 0x0 KECCAK256 PUSH1 0x0 DUP3 DUP3 SLOAD PUSH2 0x2015 SWAP2 SWAP1 PUSH2 0x3D6C JUMP JUMPDEST SWAP3 POP POP DUP2 SWAP1 SSTORE POP PUSH1 0x1 PUSH1 0x3 PUSH1 0x0 DUP5 PUSH20 0xFFFFFFFFFFFFFFFFFFFFFFFFFFFFFFFFFFFFFFFF AND PUSH20 0xFFFFFFFFFFFFFFFFFFFFFFFFFFFFFFFFFFFFFFFF AND DUP2 MSTORE PUSH1 0x20 ADD SWAP1 DUP2 MSTORE PUSH1 0x20 ADD PUSH1 0x0 KECCAK256 PUSH1 0x0 DUP3 DUP3 SLOAD PUSH2 0x206C SWAP2 SWAP1 PUSH2 0x3C5A JUMP JUMPDEST SWAP3 POP POP DUP2 SWAP1 SSTORE POP DUP2 PUSH1 0x2 PUSH1 0x0 DUP4 DUP2 MSTORE PUSH1 0x20 ADD SWAP1 DUP2 MSTORE PUSH1 0x20 ADD PUSH1 0x0 KECCAK256 PUSH1 0x0 PUSH2 0x100 EXP DUP2 SLOAD DUP2 PUSH20 0xFFFFFFFFFFFFFFFFFFFFFFFFFFFFFFFFFFFFFFFF MUL NOT AND SWAP1 DUP4 PUSH20 0xFFFFFFFFFFFFFFFFFFFFFFFFFFFFFFFFFFFFFFFF AND MUL OR SWAP1 SSTORE POP DUP1 DUP3 PUSH20 0xFFFFFFFFFFFFFFFFFFFFFFFFFFFFFFFFFFFFFFFF AND DUP5 PUSH20 0xFFFFFFFFFFFFFFFFFFFFFFFFFFFFFFFFFFFFFFFF AND PUSH32 0xDDF252AD1BE2C89B69C2B068FC378DAA952BA7F163C4A11628F55A4DF523B3EF PUSH1 0x40 MLOAD PUSH1 0x40 MLOAD DUP1 SWAP2 SUB SWAP1 LOG4 POP POP POP JUMP JUMPDEST PUSH1 0x60 PUSH1 0x0 PUSH1 0x2 DUP4 PUSH1 0x2 PUSH2 0x2138 SWAP2 SWAP1 PUSH2 0x3D12 JUMP JUMPDEST PUSH2 0x2142 SWAP2 SWAP1 PUSH2 0x3C5A JUMP JUMPDEST PUSH8 0xFFFFFFFFFFFFFFFF DUP2 GT ISZERO PUSH2 0x2181 JUMPI PUSH32 0x4E487B7100000000000000000000000000000000000000000000000000000000 PUSH1 0x0 MSTORE PUSH1 0x41 PUSH1 0x4 MSTORE PUSH1 0x24 PUSH1 0x0 REVERT JUMPDEST PUSH1 0x40 MLOAD SWAP1 DUP1 DUP3 MSTORE DUP1 PUSH1 0x1F ADD PUSH1 0x1F NOT AND PUSH1 0x20 ADD DUP3 ADD PUSH1 0x40 MSTORE DUP1 ISZERO PUSH2 0x21B3 JUMPI DUP2 PUSH1 0x20 ADD PUSH1 0x1 DUP3 MUL DUP1 CALLDATASIZE DUP4 CALLDATACOPY DUP1 DUP3 ADD SWAP2 POP POP SWAP1 POP JUMPDEST POP SWAP1 POP PUSH32 0x3000000000000000000000000000000000000000000000000000000000000000 DUP2 PUSH1 0x0 DUP2 MLOAD DUP2 LT PUSH2 0x2211 JUMPI PUSH32 0x4E487B7100000000000000000000000000000000000000000000000000000000 PUSH1 0x0 MSTORE PUSH1 0x32 PUSH1 0x4 MSTORE PUSH1 0x24 PUSH1 0x0 REVERT JUMPDEST PUSH1 0x20 ADD ADD SWAP1 PUSH31 0xFFFFFFFFFFFFFFFFFFFFFFFFFFFFFFFFFFFFFFFFFFFFFFFFFFFFFFFFFFFFFF NOT AND SWAP1 DUP2 PUSH1 0x0 BYTE SWAP1 MSTORE8 POP PUSH32 0x7800000000000000000000000000000000000000000000000000000000000000 DUP2 PUSH1 0x1 DUP2 MLOAD DUP2 LT PUSH2 0x229B JUMPI PUSH32 0x4E487B7100000000000000000000000000000000000000000000000000000000 PUSH1 0x0 MSTORE PUSH1 0x32 PUSH1 0x4 MSTORE PUSH1 0x24 PUSH1 0x0 REVERT JUMPDEST PUSH1 0x20 ADD ADD SWAP1 PUSH31 0xFFFFFFFFFFFFFFFFFFFFFFFFFFFFFFFFFFFFFFFFFFFFFFFFFFFFFFFFFFFFFF NOT AND SWAP1 DUP2 PUSH1 0x0 BYTE SWAP1 MSTORE8 POP PUSH1 0x0 PUSH1 0x1 DUP5 PUSH1 0x2 PUSH2 0x22DB SWAP2 SWAP1 PUSH2 0x3D12 JUMP JUMPDEST PUSH2 0x22E5 SWAP2 SWAP1 PUSH2 0x3C5A JUMP JUMPDEST SWAP1 POP JUMPDEST PUSH1 0x1 DUP2 GT ISZERO PUSH2 0x23D1 JUMPI PUSH32 0x3031323334353637383961626364656600000000000000000000000000000000 PUSH1 0xF DUP7 AND PUSH1 0x10 DUP2 LT PUSH2 0x234D JUMPI PUSH32 0x4E487B7100000000000000000000000000000000000000000000000000000000 PUSH1 0x0 MSTORE PUSH1 0x32 PUSH1 0x4 MSTORE PUSH1 0x24 PUSH1 0x0 REVERT JUMPDEST BYTE PUSH1 0xF8 SHL DUP3 DUP3 DUP2 MLOAD DUP2 LT PUSH2 0x238A JUMPI PUSH32 0x4E487B7100000000000000000000000000000000000000000000000000000000 PUSH1 0x0 MSTORE PUSH1 0x32 PUSH1 0x4 MSTORE PUSH1 0x24 PUSH1 0x0 REVERT JUMPDEST PUSH1 0x20 ADD ADD SWAP1 PUSH31 0xFFFFFFFFFFFFFFFFFFFFFFFFFFFFFFFFFFFFFFFFFFFFFFFFFFFFFFFFFFFFFF NOT AND SWAP1 DUP2 PUSH1 0x0 BYTE SWAP1 MSTORE8 POP PUSH1 0x4 DUP6 SWAP1 SHR SWAP5 POP DUP1 PUSH2 0x23CA SWAP1 PUSH2 0x3E6D JUMP JUMPDEST SWAP1 POP PUSH2 0x22E8 JUMP JUMPDEST POP PUSH1 0x0 DUP5 EQ PUSH2 0x2415 JUMPI PUSH1 0x40 MLOAD PUSH32 0x8C379A000000000000000000000000000000000000000000000000000000000 DUP2 MSTORE PUSH1 0x4 ADD PUSH2 0x240C SWAP1 PUSH2 0x3986 JUMP JUMPDEST PUSH1 0x40 MLOAD DUP1 SWAP2 SUB SWAP1 REVERT JUMPDEST DUP1 SWAP2 POP POP SWAP3 SWAP2 POP POP JUMP JUMPDEST PUSH2 0x242A DUP5 DUP5 DUP5 PUSH2 0x1EC9 JUMP JUMPDEST PUSH2 0x2436 DUP5 DUP5 DUP5 DUP5 PUSH2 0x288E JUMP JUMPDEST PUSH2 0x2475 JUMPI PUSH1 0x40 MLOAD PUSH32 0x8C379A000000000000000000000000000000000000000000000000000000000 DUP2 MSTORE PUSH1 0x4 ADD PUSH2 0x246C SWAP1 PUSH2 0x39A6 JUMP JUMPDEST PUSH1 0x40 MLOAD DUP1 SWAP2 SUB SWAP1 REVERT JUMPDEST POP POP POP POP JUMP JUMPDEST PUSH1 0x60 PUSH1 0x0 DUP3 EQ ISZERO PUSH2 0x24C3 JUMPI PUSH1 0x40 MLOAD DUP1 PUSH1 0x40 ADD PUSH1 0x40 MSTORE DUP1 PUSH1 0x1 DUP2 MSTORE PUSH1 0x20 ADD PUSH32 0x3000000000000000000000000000000000000000000000000000000000000000 DUP2 MSTORE POP SWAP1 POP PUSH2 0x2623 JUMP JUMPDEST PUSH1 0x0 DUP3 SWAP1 POP PUSH1 0x0 JUMPDEST PUSH1 0x0 DUP3 EQ PUSH2 0x24F5 JUMPI DUP1 DUP1 PUSH2 0x24DE SWAP1 PUSH2 0x3EFA JUMP JUMPDEST SWAP2 POP POP PUSH1 0xA DUP3 PUSH2 0x24EE SWAP2 SWAP1 PUSH2 0x3CB0 JUMP JUMPDEST SWAP2 POP PUSH2 0x24CB JUMP JUMPDEST PUSH1 0x0 DUP2 PUSH8 0xFFFFFFFFFFFFFFFF DUP2 GT ISZERO PUSH2 0x2537 JUMPI PUSH32 0x4E487B7100000000000000000000000000000000000000000000000000000000 PUSH1 0x0 MSTORE PUSH1 0x41 PUSH1 0x4 MSTORE PUSH1 0x24 PUSH1 0x0 REVERT JUMPDEST PUSH1 0x40 MLOAD SWAP1 DUP1 DUP3 MSTORE DUP1 PUSH1 0x1F ADD PUSH1 0x1F NOT AND PUSH1 0x20 ADD DUP3 ADD PUSH1 0x40 MSTORE DUP1 ISZERO PUSH2 0x2569 JUMPI DUP2 PUSH1 0x20 ADD PUSH1 0x1 DUP3 MUL DUP1 CALLDATASIZE DUP4 CALLDATACOPY DUP1 DUP3 ADD SWAP2 POP POP SWAP1 POP JUMPDEST POP SWAP1 POP JUMPDEST PUSH1 0x0 DUP6 EQ PUSH2 0x261C JUMPI PUSH1 0x1 DUP3 PUSH2 0x2582 SWAP2 SWAP1 PUSH2 0x3D6C JUMP JUMPDEST SWAP2 POP PUSH1 0xA DUP6 PUSH2 0x2591 SWAP2 SWAP1 PUSH2 0x3F7B JUMP JUMPDEST PUSH1 0x30 PUSH2 0x259D SWAP2 SWAP1 PUSH2 0x3C5A JUMP JUMPDEST PUSH1 0xF8 SHL DUP2 DUP4 DUP2 MLOAD DUP2 LT PUSH2 0x25D9 JUMPI PUSH32 0x4E487B7100000000000000000000000000000000000000000000000000000000 PUSH1 0x0 MSTORE PUSH1 0x32 PUSH1 0x4 MSTORE PUSH1 0x24 PUSH1 0x0 REVERT JUMPDEST PUSH1 0x20 ADD ADD SWAP1 PUSH31 0xFFFFFFFFFFFFFFFFFFFFFFFFFFFFFFFFFFFFFFFFFFFFFFFFFFFFFFFFFFFFFF NOT AND SWAP1 DUP2 PUSH1 0x0 BYTE SWAP1 MSTORE8 POP PUSH1 0xA DUP6 PUSH2 0x2615 SWAP2 SWAP1 PUSH2 0x3CB0 JUMP JUMPDEST SWAP5 POP PUSH2 0x256D JUMP JUMPDEST DUP1 SWAP4 POP POP POP POP JUMPDEST SWAP2 SWAP1 POP JUMP JUMPDEST PUSH1 0x0 DUP2 PUSH1 0x1 DUP4 PUSH2 0x2638 SWAP2 SWAP1 PUSH2 0x3C5A JUMP JUMPDEST LT ISZERO PUSH2 0x2679 JUMPI PUSH1 0x40 MLOAD PUSH32 0x8C379A000000000000000000000000000000000000000000000000000000000 DUP2 MSTORE PUSH1 0x4 ADD PUSH2 0x2670 SWAP1 PUSH2 0x3B46 JUMP JUMPDEST PUSH1 0x40 MLOAD DUP1 SWAP2 SUB SWAP1 REVERT JUMPDEST PUSH1 0x1 DUP3 PUSH2 0x2686 SWAP2 SWAP1 PUSH2 0x3C5A JUMP JUMPDEST DUP4 MLOAD LT ISZERO PUSH2 0x26C9 JUMPI PUSH1 0x40 MLOAD PUSH32 0x8C379A000000000000000000000000000000000000000000000000000000000 DUP2 MSTORE PUSH1 0x4 ADD PUSH2 0x26C0 SWAP1 PUSH2 0x3B86 JUMP JUMPDEST PUSH1 0x40 MLOAD DUP1 SWAP2 SUB SWAP1 REVERT JUMPDEST PUSH1 0x0 DUP3 PUSH1 0x1 DUP6 ADD ADD MLOAD SWAP1 POP DUP1 SWAP2 POP POP SWAP3 SWAP2 POP POP JUMP JUMPDEST PUSH1 0x60 PUSH1 0x0 DUP3 MLOAD EQ ISZERO PUSH2 0x2701 JUMPI PUSH1 0x40 MLOAD DUP1 PUSH1 0x20 ADD PUSH1 0x40 MSTORE DUP1 PUSH1 0x0 DUP2 MSTORE POP SWAP1 POP PUSH2 0x2884 JUMP JUMPDEST PUSH1 0x0 PUSH1 0x40 MLOAD DUP1 PUSH1 0x60 ADD PUSH1 0x40 MSTORE DUP1 PUSH1 0x40 DUP2 MSTORE PUSH1 0x20 ADD PUSH2 0x4F85 PUSH1 0x40 SWAP2 CODECOPY SWAP1 POP PUSH1 0x0 PUSH1 0x3 PUSH1 0x2 DUP6 MLOAD PUSH2 0x2730 SWAP2 SWAP1 PUSH2 0x3C5A JUMP JUMPDEST PUSH2 0x273A SWAP2 SWAP1 PUSH2 0x3CB0 JUMP JUMPDEST PUSH1 0x4 PUSH2 0x2746 SWAP2 SWAP1 PUSH2 0x3D12 JUMP JUMPDEST SWAP1 POP PUSH1 0x0 PUSH1 0x20 DUP3 PUSH2 0x2757 SWAP2 SWAP1 PUSH2 0x3C5A JUMP JUMPDEST PUSH8 0xFFFFFFFFFFFFFFFF DUP2 GT ISZERO PUSH2 0x2796 JUMPI PUSH32 0x4E487B7100000000000000000000000000000000000000000000000000000000 PUSH1 0x0 MSTORE PUSH1 0x41 PUSH1 0x4 MSTORE PUSH1 0x24 PUSH1 0x0 REVERT JUMPDEST PUSH1 0x40 MLOAD SWAP1 DUP1 DUP3 MSTORE DUP1 PUSH1 0x1F ADD PUSH1 0x1F NOT AND PUSH1 0x20 ADD DUP3 ADD PUSH1 0x40 MSTORE DUP1 ISZERO PUSH2 0x27C8 JUMPI DUP2 PUSH1 0x20 ADD PUSH1 0x1 DUP3 MUL DUP1 CALLDATASIZE DUP4 CALLDATACOPY DUP1 DUP3 ADD SWAP2 POP POP SWAP1 POP JUMPDEST POP SWAP1 POP DUP2 DUP2 MSTORE PUSH1 0x1 DUP4 ADD DUP6 DUP7 MLOAD DUP2 ADD PUSH1 0x20 DUP5 ADD JUMPDEST DUP2 DUP4 LT ISZERO PUSH2 0x2843 JUMPI PUSH1 0x3 DUP4 ADD SWAP3 POP DUP3 MLOAD PUSH1 0x3F DUP2 PUSH1 0x12 SHR AND DUP6 ADD MLOAD PUSH1 0xF8 SHL DUP3 MSTORE PUSH1 0x1 DUP3 ADD SWAP2 POP PUSH1 0x3F DUP2 PUSH1 0xC SHR AND DUP6 ADD MLOAD PUSH1 0xF8 SHL DUP3 MSTORE PUSH1 0x1 DUP3 ADD SWAP2 POP PUSH1 0x3F DUP2 PUSH1 0x6 SHR AND DUP6 ADD MLOAD PUSH1 0xF8 SHL DUP3 MSTORE PUSH1 0x1 DUP3 ADD SWAP2 POP PUSH1 0x3F DUP2 AND DUP6 ADD MLOAD PUSH1 0xF8 SHL DUP3 MSTORE PUSH1 0x1 DUP3 ADD SWAP2 POP POP PUSH2 0x27DC JUMP JUMPDEST PUSH1 0x3 DUP10 MLOAD MOD PUSH1 0x1 DUP2 EQ PUSH2 0x285D JUMPI PUSH1 0x2 DUP2 EQ PUSH2 0x286D JUMPI PUSH2 0x2878 JUMP JUMPDEST PUSH2 0x3D3D PUSH1 0xF0 SHL PUSH1 0x2 DUP4 SUB MSTORE PUSH2 0x2878 JUMP JUMPDEST PUSH1 0x3D PUSH1 0xF8 SHL PUSH1 0x1 DUP4 SUB MSTORE JUMPDEST POP POP POP POP POP DUP1 SWAP4 POP POP POP POP JUMPDEST SWAP2 SWAP1 POP JUMP JUMPDEST POP POP POP JUMP JUMPDEST PUSH1 0x0 PUSH2 0x28AF DUP5 PUSH20 0xFFFFFFFFFFFFFFFFFFFFFFFFFFFFFFFFFFFFFFFF AND PUSH2 0x2A25 JUMP JUMPDEST ISZERO PUSH2 0x2A18 JUMPI DUP4 PUSH20 0xFFFFFFFFFFFFFFFFFFFFFFFFFFFFFFFFFFFFFFFF AND PUSH4 0x150B7A02 PUSH2 0x28D8 PUSH2 0x1B5C JUMP JUMPDEST DUP8 DUP7 DUP7 PUSH1 0x40 MLOAD DUP6 PUSH4 0xFFFFFFFF AND PUSH1 0xE0 SHL DUP2 MSTORE PUSH1 0x4 ADD PUSH2 0x28FA SWAP5 SWAP4 SWAP3 SWAP2 SWAP1 PUSH2 0x38D4 JUMP JUMPDEST PUSH1 0x20 PUSH1 0x40 MLOAD DUP1 DUP4 SUB DUP2 PUSH1 0x0 DUP8 DUP1 EXTCODESIZE ISZERO DUP1 ISZERO PUSH2 0x2914 JUMPI PUSH1 0x0 DUP1 REVERT JUMPDEST POP GAS CALL SWAP3 POP POP POP DUP1 ISZERO PUSH2 0x2945 JUMPI POP PUSH1 0x40 MLOAD RETURNDATASIZE PUSH1 0x1F NOT PUSH1 0x1F DUP3 ADD AND DUP3 ADD DUP1 PUSH1 0x40 MSTORE POP DUP2 ADD SWAP1 PUSH2 0x2942 SWAP2 SWAP1 PUSH2 0x2D1E JUMP JUMPDEST PUSH1 0x1 JUMPDEST PUSH2 0x29C8 JUMPI RETURNDATASIZE DUP1 PUSH1 0x0 DUP2 EQ PUSH2 0x2975 JUMPI PUSH1 0x40 MLOAD SWAP2 POP PUSH1 0x1F NOT PUSH1 0x3F RETURNDATASIZE ADD AND DUP3 ADD PUSH1 0x40 MSTORE RETURNDATASIZE DUP3 MSTORE RETURNDATASIZE PUSH1 0x0 PUSH1 0x20 DUP5 ADD RETURNDATACOPY PUSH2 0x297A JUMP JUMPDEST PUSH1 0x60 SWAP2 POP JUMPDEST POP PUSH1 0x0 DUP2 MLOAD EQ ISZERO PUSH2 0x29C0 JUMPI PUSH1 0x40 MLOAD PUSH32 0x8C379A000000000000000000000000000000000000000000000000000000000 DUP2 MSTORE PUSH1 0x4 ADD PUSH2 0x29B7 SWAP1 PUSH2 0x39A6 JUMP JUMPDEST PUSH1 0x40 MLOAD DUP1 SWAP2 SUB SWAP1 REVERT JUMPDEST DUP1 MLOAD DUP2 PUSH1 0x20 ADD REVERT JUMPDEST PUSH4 0x150B7A02 PUSH1 0xE0 SHL PUSH28 0xFFFFFFFFFFFFFFFFFFFFFFFFFFFFFFFFFFFFFFFFFFFFFFFFFFFFFFFF NOT AND DUP2 PUSH28 0xFFFFFFFFFFFFFFFFFFFFFFFFFFFFFFFFFFFFFFFFFFFFFFFFFFFFFFFF NOT AND EQ SWAP2 POP POP PUSH2 0x2A1D JUMP JUMPDEST PUSH1 0x1 SWAP1 POP JUMPDEST SWAP5 SWAP4 POP POP POP POP JUMP JUMPDEST PUSH1 0x0 DUP1 DUP3 EXTCODESIZE SWAP1 POP PUSH1 0x0 DUP2 GT SWAP2 POP POP SWAP2 SWAP1 POP JUMP JUMPDEST PUSH1 0x40 MLOAD DUP1 PUSH1 0x40 ADD PUSH1 0x40 MSTORE DUP1 PUSH1 0x0 PUSH20 0xFFFFFFFFFFFFFFFFFFFFFFFFFFFFFFFFFFFFFFFF AND DUP2 MSTORE PUSH1 0x20 ADD PUSH1 0x0 DUP2 MSTORE POP SWAP1 JUMP JUMPDEST PUSH1 0x0 PUSH2 0x2A7B PUSH2 0x2A76 DUP5 PUSH2 0x3BE6 JUMP JUMPDEST PUSH2 0x3BC1 JUMP JUMPDEST SWAP1 POP DUP3 DUP2 MSTORE PUSH1 0x20 DUP2 ADD DUP5 DUP5 DUP5 ADD GT ISZERO PUSH2 0x2A93 JUMPI PUSH1 0x0 DUP1 REVERT JUMPDEST PUSH2 0x2A9E DUP5 DUP3 DUP6 PUSH2 0x3E2B JUMP JUMPDEST POP SWAP4 SWAP3 POP POP POP JUMP JUMPDEST PUSH1 0x0 DUP2 CALLDATALOAD SWAP1 POP PUSH2 0x2AB5 DUP2 PUSH2 0x4F11 JUMP JUMPDEST SWAP3 SWAP2 POP POP JUMP JUMPDEST PUSH1 0x0 DUP2 CALLDATALOAD SWAP1 POP PUSH2 0x2ACA DUP2 PUSH2 0x4F28 JUMP JUMPDEST SWAP3 SWAP2 POP POP JUMP JUMPDEST PUSH1 0x0 DUP2 CALLDATALOAD SWAP1 POP PUSH2 0x2ADF DUP2 PUSH2 0x4F3F JUMP JUMPDEST SWAP3 SWAP2 POP POP JUMP JUMPDEST PUSH1 0x0 DUP2 MLOAD SWAP1 POP PUSH2 0x2AF4 DUP2 PUSH2 0x4F3F JUMP JUMPDEST SWAP3 SWAP2 POP POP JUMP JUMPDEST PUSH1 0x0 DUP3 PUSH1 0x1F DUP4 ADD SLT PUSH2 0x2B0B JUMPI PUSH1 0x0 DUP1 REVERT JUMPDEST DUP2 CALLDATALOAD PUSH2 0x2B1B DUP5 DUP3 PUSH1 0x20 DUP7 ADD PUSH2 0x2A68 JUMP JUMPDEST SWAP2 POP POP SWAP3 SWAP2 POP POP JUMP JUMPDEST PUSH1 0x0 DUP2 CALLDATALOAD SWAP1 POP PUSH2 0x2B33 DUP2 PUSH2 0x4F56 JUMP JUMPDEST SWAP3 SWAP2 POP POP JUMP JUMPDEST PUSH1 0x0 DUP2 CALLDATALOAD SWAP1 POP PUSH2 0x2B48 DUP2 PUSH2 0x4F6D JUMP JUMPDEST SWAP3 SWAP2 POP POP JUMP JUMPDEST PUSH1 0x0 PUSH1 0x20 DUP3 DUP5 SUB SLT ISZERO PUSH2 0x2B60 JUMPI PUSH1 0x0 DUP1 REVERT JUMPDEST PUSH1 0x0 PUSH2 0x2B6E DUP5 DUP3 DUP6 ADD PUSH2 0x2AA6 JUMP JUMPDEST SWAP2 POP POP SWAP3 SWAP2 POP POP JUMP JUMPDEST PUSH1 0x0 DUP1 PUSH1 0x40 DUP4 DUP6 SUB SLT ISZERO PUSH2 0x2B8A JUMPI PUSH1 0x0 DUP1 REVERT JUMPDEST PUSH1 0x0 PUSH2 0x2B98 DUP6 DUP3 DUP7 ADD PUSH2 0x2AA6 JUMP JUMPDEST SWAP3 POP POP PUSH1 0x20 PUSH2 0x2BA9 DUP6 DUP3 DUP7 ADD PUSH2 0x2AA6 JUMP JUMPDEST SWAP2 POP POP SWAP3 POP SWAP3 SWAP1 POP JUMP JUMPDEST PUSH1 0x0 DUP1 PUSH1 0x0 PUSH1 0x60 DUP5 DUP7 SUB SLT ISZERO PUSH2 0x2BC8 JUMPI PUSH1 0x0 DUP1 REVERT JUMPDEST PUSH1 0x0 PUSH2 0x2BD6 DUP7 DUP3 DUP8 ADD PUSH2 0x2AA6 JUMP JUMPDEST SWAP4 POP POP PUSH1 0x20 PUSH2 0x2BE7 DUP7 DUP3 DUP8 ADD PUSH2 0x2AA6 JUMP JUMPDEST SWAP3 POP POP PUSH1 0x40 PUSH2 0x2BF8 DUP7 DUP3 DUP8 ADD PUSH2 0x2B24 JUMP JUMPDEST SWAP2 POP POP SWAP3 POP SWAP3 POP SWAP3 JUMP JUMPDEST PUSH1 0x0 DUP1 PUSH1 0x0 DUP1 PUSH1 0x80 DUP6 DUP8 SUB SLT ISZERO PUSH2 0x2C18 JUMPI PUSH1 0x0 DUP1 REVERT JUMPDEST PUSH1 0x0 PUSH2 0x2C26 DUP8 DUP3 DUP9 ADD PUSH2 0x2AA6 JUMP JUMPDEST SWAP5 POP POP PUSH1 0x20 PUSH2 0x2C37 DUP8 DUP3 DUP9 ADD PUSH2 0x2AA6 JUMP JUMPDEST SWAP4 POP POP PUSH1 0x40 PUSH2 0x2C48 DUP8 DUP3 DUP9 ADD PUSH2 0x2B24 JUMP JUMPDEST SWAP3 POP POP PUSH1 0x60 DUP6 ADD CALLDATALOAD PUSH8 0xFFFFFFFFFFFFFFFF DUP2 GT ISZERO PUSH2 0x2C65 JUMPI PUSH1 0x0 DUP1 REVERT JUMPDEST PUSH2 0x2C71 DUP8 DUP3 DUP9 ADD PUSH2 0x2AFA JUMP JUMPDEST SWAP2 POP POP SWAP3 SWAP6 SWAP2 SWAP5 POP SWAP3 POP JUMP JUMPDEST PUSH1 0x0 DUP1 PUSH1 0x40 DUP4 DUP6 SUB SLT ISZERO PUSH2 0x2C90 JUMPI PUSH1 0x0 DUP1 REVERT JUMPDEST PUSH1 0x0 PUSH2 0x2C9E DUP6 DUP3 DUP7 ADD PUSH2 0x2AA6 JUMP JUMPDEST SWAP3 POP POP PUSH1 0x20 PUSH2 0x2CAF DUP6 DUP3 DUP7 ADD PUSH2 0x2ABB JUMP JUMPDEST SWAP2 POP POP SWAP3 POP SWAP3 SWAP1 POP JUMP JUMPDEST PUSH1 0x0 DUP1 PUSH1 0x40 DUP4 DUP6 SUB SLT ISZERO PUSH2 0x2CCC JUMPI PUSH1 0x0 DUP1 REVERT JUMPDEST PUSH1 0x0 PUSH2 0x2CDA DUP6 DUP3 DUP7 ADD PUSH2 0x2AA6 JUMP JUMPDEST SWAP3 POP POP PUSH1 0x20 PUSH2 0x2CEB DUP6 DUP3 DUP7 ADD PUSH2 0x2B24 JUMP JUMPDEST SWAP2 POP POP SWAP3 POP SWAP3 SWAP1 POP JUMP JUMPDEST PUSH1 0x0 PUSH1 0x20 DUP3 DUP5 SUB SLT ISZERO PUSH2 0x2D07 JUMPI PUSH1 0x0 DUP1 REVERT JUMPDEST PUSH1 0x0 PUSH2 0x2D15 DUP5 DUP3 DUP6 ADD PUSH2 0x2AD0 JUMP JUMPDEST SWAP2 POP POP SWAP3 SWAP2 POP POP JUMP JUMPDEST PUSH1 0x0 PUSH1 0x20 DUP3 DUP5 SUB SLT ISZERO PUSH2 0x2D30 JUMPI PUSH1 0x0 DUP1 REVERT JUMPDEST PUSH1 0x0 PUSH2 0x2D3E DUP5 DUP3 DUP6 ADD PUSH2 0x2AE5 JUMP JUMPDEST SWAP2 POP POP SWAP3 SWAP2 POP POP JUMP JUMPDEST PUSH1 0x0 PUSH1 0x20 DUP3 DUP5 SUB SLT ISZERO PUSH2 0x2D59 JUMPI PUSH1 0x0 DUP1 REVERT JUMPDEST PUSH1 0x0 PUSH2 0x2D67 DUP5 DUP3 DUP6 ADD PUSH2 0x2B24 JUMP JUMPDEST SWAP2 POP POP SWAP3 SWAP2 POP POP JUMP JUMPDEST PUSH1 0x0 DUP1 PUSH1 0x40 DUP4 DUP6 SUB SLT ISZERO PUSH2 0x2D83 JUMPI PUSH1 0x0 DUP1 REVERT JUMPDEST PUSH1 0x0 PUSH2 0x2D91 DUP6 DUP3 DUP7 ADD PUSH2 0x2B39 JUMP JUMPDEST SWAP3 POP POP PUSH1 0x20 PUSH2 0x2DA2 DUP6 DUP3 DUP7 ADD PUSH2 0x2B39 JUMP JUMPDEST SWAP2 POP POP SWAP3 POP SWAP3 SWAP1 POP JUMP JUMPDEST PUSH2 0x2DB5 DUP2 PUSH2 0x3DA0 JUMP JUMPDEST DUP3 MSTORE POP POP JUMP JUMPDEST PUSH2 0x2DCC PUSH2 0x2DC7 DUP3 PUSH2 0x3DA0 JUMP JUMPDEST PUSH2 0x3F43 JUMP JUMPDEST DUP3 MSTORE POP POP JUMP JUMPDEST PUSH2 0x2DDB DUP2 PUSH2 0x3DB2 JUMP JUMPDEST DUP3 MSTORE POP POP JUMP JUMPDEST PUSH2 0x2DF2 PUSH2 0x2DED DUP3 PUSH2 0x3DBE JUMP JUMPDEST PUSH2 0x3F55 JUMP JUMPDEST DUP3 MSTORE POP POP JUMP JUMPDEST PUSH1 0x0 PUSH2 0x2E03 DUP3 PUSH2 0x3C17 JUMP JUMPDEST PUSH2 0x2E0D DUP2 DUP6 PUSH2 0x3C2D JUMP JUMPDEST SWAP4 POP PUSH2 0x2E1D DUP2 DUP6 PUSH1 0x20 DUP7 ADD PUSH2 0x3E3A JUMP JUMPDEST PUSH2 0x2E26 DUP2 PUSH2 0x4068 JUMP JUMPDEST DUP5 ADD SWAP2 POP POP SWAP3 SWAP2 POP POP JUMP JUMPDEST PUSH1 0x0 PUSH2 0x2E3C DUP3 PUSH2 0x3C22 JUMP JUMPDEST PUSH2 0x2E46 DUP2 DUP6 PUSH2 0x3C3E JUMP JUMPDEST SWAP4 POP PUSH2 0x2E56 DUP2 DUP6 PUSH1 0x20 DUP7 ADD PUSH2 0x3E3A JUMP JUMPDEST PUSH2 0x2E5F DUP2 PUSH2 0x4068 JUMP JUMPDEST DUP5 ADD SWAP2 POP POP SWAP3 SWAP2 POP POP JUMP JUMPDEST PUSH1 0x0 PUSH2 0x2E75 DUP3 PUSH2 0x3C22 JUMP JUMPDEST PUSH2 0x2E7F DUP2 DUP6 PUSH2 0x3C4F JUMP JUMPDEST SWAP4 POP PUSH2 0x2E8F DUP2 DUP6 PUSH1 0x20 DUP7 ADD PUSH2 0x3E3A JUMP JUMPDEST DUP1 DUP5 ADD SWAP2 POP POP SWAP3 SWAP2 POP POP JUMP JUMPDEST PUSH1 0x0 PUSH2 0x2EA8 PUSH1 0x39 DUP4 PUSH2 0x3C4F JUMP JUMPDEST SWAP2 POP PUSH2 0x2EB3 DUP3 PUSH2 0x4086 JUMP JUMPDEST PUSH1 0x39 DUP3 ADD SWAP1 POP SWAP2 SWAP1 POP JUMP JUMPDEST PUSH1 0x0 PUSH2 0x2ECB PUSH1 0x20 DUP4 PUSH2 0x3C3E JUMP JUMPDEST SWAP2 POP PUSH2 0x2ED6 DUP3 PUSH2 0x40D5 JUMP JUMPDEST PUSH1 0x20 DUP3 ADD SWAP1 POP SWAP2 SWAP1 POP JUMP JUMPDEST PUSH1 0x0 PUSH2 0x2EEE PUSH1 0x9 DUP4 PUSH2 0x3C4F JUMP JUMPDEST SWAP2 POP PUSH2 0x2EF9 DUP3 PUSH2 0x40FE JUMP JUMPDEST PUSH1 0x9 DUP3 ADD SWAP1 POP SWAP2 SWAP1 POP JUMP JUMPDEST PUSH1 0x0 PUSH2 0x2F11 PUSH1 0x1C DUP4 PUSH2 0x3C4F JUMP JUMPDEST SWAP2 POP PUSH2 0x2F1C DUP3 PUSH2 0x4127 JUMP JUMPDEST PUSH1 0x1C DUP3 ADD SWAP1 POP SWAP2 SWAP1 POP JUMP JUMPDEST PUSH1 0x0 PUSH2 0x2F34 PUSH1 0x32 DUP4 PUSH2 0x3C3E JUMP JUMPDEST SWAP2 POP PUSH2 0x2F3F DUP3 PUSH2 0x4150 JUMP JUMPDEST PUSH1 0x40 DUP3 ADD SWAP1 POP SWAP2 SWAP1 POP JUMP JUMPDEST PUSH1 0x0 PUSH2 0x2F58 PUSH2 0x1E0 DUP4 PUSH2 0x3C4F JUMP JUMPDEST SWAP2 POP PUSH2 0x2F63 DUP3 PUSH2 0x419F JUMP JUMPDEST PUSH2 0x1E0 DUP3 ADD SWAP1 POP SWAP2 SWAP1 POP JUMP JUMPDEST PUSH1 0x0 PUSH2 0x2F7C PUSH1 0x23 DUP4 PUSH2 0x3C4F JUMP JUMPDEST SWAP2 POP PUSH2 0x2F87 DUP3 PUSH2 0x43E3 JUMP JUMPDEST PUSH1 0x23 DUP3 ADD SWAP1 POP SWAP2 SWAP1 POP JUMP JUMPDEST PUSH1 0x0 PUSH2 0x2F9F PUSH1 0x1C DUP4 PUSH2 0x3C3E JUMP JUMPDEST SWAP2 POP PUSH2 0x2FAA DUP3 PUSH2 0x4432 JUMP JUMPDEST PUSH1 0x20 DUP3 ADD SWAP1 POP SWAP2 SWAP1 POP JUMP JUMPDEST PUSH1 0x0 PUSH2 0x2FC2 PUSH1 0x22 DUP4 PUSH2 0x3C4F JUMP JUMPDEST SWAP2 POP PUSH2 0x2FCD DUP3 PUSH2 0x445B JUMP JUMPDEST PUSH1 0x22 DUP3 ADD SWAP1 POP SWAP2 SWAP1 POP JUMP JUMPDEST PUSH1 0x0 PUSH2 0x2FE5 PUSH1 0x43 DUP4 PUSH2 0x3C4F JUMP JUMPDEST SWAP2 POP PUSH2 0x2FF0 DUP3 PUSH2 0x44AA JUMP JUMPDEST PUSH1 0x43 DUP3 ADD SWAP1 POP SWAP2 SWAP1 POP JUMP JUMPDEST PUSH1 0x0 PUSH2 0x3008 PUSH1 0x24 DUP4 PUSH2 0x3C3E JUMP JUMPDEST SWAP2 POP PUSH2 0x3013 DUP3 PUSH2 0x451F JUMP JUMPDEST PUSH1 0x40 DUP3 ADD SWAP1 POP SWAP2 SWAP1 POP JUMP JUMPDEST PUSH1 0x0 PUSH2 0x302B PUSH1 0x19 DUP4 PUSH2 0x3C3E JUMP JUMPDEST SWAP2 POP PUSH2 0x3036 DUP3 PUSH2 0x456E JUMP JUMPDEST PUSH1 0x20 DUP3 ADD SWAP1 POP SWAP2 SWAP1 POP JUMP JUMPDEST PUSH1 0x0 PUSH2 0x304E PUSH1 0x28 DUP4 PUSH2 0x3C4F JUMP JUMPDEST SWAP2 POP PUSH2 0x3059 DUP3 PUSH2 0x4597 JUMP JUMPDEST PUSH1 0x28 DUP3 ADD SWAP1 POP SWAP2 SWAP1 POP JUMP JUMPDEST PUSH1 0x0 PUSH2 0x3071 PUSH1 0x2C DUP4 PUSH2 0x3C3E JUMP JUMPDEST SWAP2 POP PUSH2 0x307C DUP3 PUSH2 0x45E6 JUMP JUMPDEST PUSH1 0x40 DUP3 ADD SWAP1 POP SWAP2 SWAP1 POP JUMP JUMPDEST PUSH1 0x0 PUSH2 0x3094 PUSH1 0x3A DUP4 PUSH2 0x3C4F JUMP JUMPDEST SWAP2 POP PUSH2 0x309F DUP3 PUSH2 0x4635 JUMP JUMPDEST PUSH1 0x3A DUP3 ADD SWAP1 POP SWAP2 SWAP1 POP JUMP JUMPDEST PUSH1 0x0 PUSH2 0x30B7 PUSH1 0x38 DUP4 PUSH2 0x3C3E JUMP JUMPDEST SWAP2 POP PUSH2 0x30C2 DUP3 PUSH2 0x4684 JUMP JUMPDEST PUSH1 0x40 DUP3 ADD SWAP1 POP SWAP2 SWAP1 POP JUMP JUMPDEST PUSH1 0x0 PUSH2 0x30DA PUSH1 0x4 DUP4 PUSH2 0x3C4F JUMP JUMPDEST SWAP2 POP PUSH2 0x30E5 DUP3 PUSH2 0x46D3 JUMP JUMPDEST PUSH1 0x4 DUP3 ADD SWAP1 POP SWAP2 SWAP1 POP JUMP JUMPDEST PUSH1 0x0 PUSH2 0x30FD PUSH1 0x2A DUP4 PUSH2 0x3C3E JUMP JUMPDEST SWAP2 POP PUSH2 0x3108 DUP3 PUSH2 0x46FC JUMP JUMPDEST PUSH1 0x40 DUP3 ADD SWAP1 POP SWAP2 SWAP1 POP JUMP JUMPDEST PUSH1 0x0 PUSH2 0x3120 PUSH1 0x29 DUP4 PUSH2 0x3C3E JUMP JUMPDEST SWAP2 POP PUSH2 0x312B DUP3 PUSH2 0x474B JUMP JUMPDEST PUSH1 0x40 DUP3 ADD SWAP1 POP SWAP2 SWAP1 POP JUMP JUMPDEST PUSH1 0x0 PUSH2 0x3143 PUSH1 0x2B DUP4 PUSH2 0x3C4F JUMP JUMPDEST SWAP2 POP PUSH2 0x314E DUP3 PUSH2 0x479A JUMP JUMPDEST PUSH1 0x2B DUP3 ADD SWAP1 POP SWAP2 SWAP1 POP JUMP JUMPDEST PUSH1 0x0 PUSH2 0x3166 PUSH1 0x2 DUP4 PUSH2 0x3C4F JUMP JUMPDEST SWAP2 POP PUSH2 0x3171 DUP3 PUSH2 0x47E9 JUMP JUMPDEST PUSH1 0x2 DUP3 ADD SWAP1 POP SWAP2 SWAP1 POP JUMP JUMPDEST PUSH1 0x0 PUSH2 0x3189 PUSH1 0x7 DUP4 PUSH2 0x3C4F JUMP JUMPDEST SWAP2 POP PUSH2 0x3194 DUP3 PUSH2 0x4812 JUMP JUMPDEST PUSH1 0x7 DUP3 ADD SWAP1 POP SWAP2 SWAP1 POP JUMP JUMPDEST PUSH1 0x0 PUSH2 0x31AC PUSH1 0x20 DUP4 PUSH2 0x3C3E JUMP JUMPDEST SWAP2 POP PUSH2 0x31B7 DUP3 PUSH2 0x483B JUMP JUMPDEST PUSH1 0x20 DUP3 ADD SWAP1 POP SWAP2 SWAP1 POP JUMP JUMPDEST PUSH1 0x0 PUSH2 0x31CF PUSH1 0xD DUP4 PUSH2 0x3C4F JUMP JUMPDEST SWAP2 POP PUSH2 0x31DA DUP3 PUSH2 0x4864 JUMP JUMPDEST PUSH1 0xD DUP3 ADD SWAP1 POP SWAP2 SWAP1 POP JUMP JUMPDEST PUSH1 0x0 PUSH2 0x31F2 PUSH1 0x22 DUP4 PUSH2 0x3C4F JUMP JUMPDEST SWAP2 POP PUSH2 0x31FD DUP3 PUSH2 0x488D JUMP JUMPDEST PUSH1 0x22 DUP3 ADD SWAP1 POP SWAP2 SWAP1 POP JUMP JUMPDEST PUSH1 0x0 PUSH2 0x3215 PUSH1 0x2C DUP4 PUSH2 0x3C3E JUMP JUMPDEST SWAP2 POP PUSH2 0x3220 DUP3 PUSH2 0x48DC JUMP JUMPDEST PUSH1 0x40 DUP3 ADD SWAP1 POP SWAP2 SWAP1 POP JUMP JUMPDEST PUSH1 0x0 PUSH2 0x3238 PUSH1 0x12 DUP4 PUSH2 0x3C4F JUMP JUMPDEST SWAP2 POP PUSH2 0x3243 DUP3 PUSH2 0x492B JUMP JUMPDEST PUSH1 0x12 DUP3 ADD SWAP1 POP SWAP2 SWAP1 POP JUMP JUMPDEST PUSH1 0x0 PUSH2 0x325B PUSH1 0x30 DUP4 PUSH2 0x3C4F JUMP JUMPDEST SWAP2 POP PUSH2 0x3266 DUP3 PUSH2 0x4954 JUMP JUMPDEST PUSH1 0x30 DUP3 ADD SWAP1 POP SWAP2 SWAP1 POP JUMP JUMPDEST PUSH1 0x0 PUSH2 0x327E PUSH1 0x55 DUP4 PUSH2 0x3C4F JUMP JUMPDEST SWAP2 POP PUSH2 0x3289 DUP3 PUSH2 0x49A3 JUMP JUMPDEST PUSH1 0x55 DUP3 ADD SWAP1 POP SWAP2 SWAP1 POP JUMP JUMPDEST PUSH1 0x0 PUSH2 0x32A1 PUSH1 0x29 DUP4 PUSH2 0x3C3E JUMP JUMPDEST SWAP2 POP PUSH2 0x32AC DUP3 PUSH2 0x4A18 JUMP JUMPDEST PUSH1 0x40 DUP3 ADD SWAP1 POP SWAP2 SWAP1 POP JUMP JUMPDEST PUSH1 0x0 PUSH2 0x32C4 PUSH1 0x2F DUP4 PUSH2 0x3C3E JUMP JUMPDEST SWAP2 POP PUSH2 0x32CF DUP3 PUSH2 0x4A67 JUMP JUMPDEST PUSH1 0x40 DUP3 ADD SWAP1 POP SWAP2 SWAP1 POP JUMP JUMPDEST PUSH1 0x0 PUSH2 0x32E7 PUSH1 0x4 DUP4 PUSH2 0x3C4F JUMP JUMPDEST SWAP2 POP PUSH2 0x32F2 DUP3 PUSH2 0x4AB6 JUMP JUMPDEST PUSH1 0x4 DUP3 ADD SWAP1 POP SWAP2 SWAP1 POP JUMP JUMPDEST PUSH1 0x0 PUSH2 0x330A PUSH1 0x44 DUP4 PUSH2 0x3C4F JUMP JUMPDEST SWAP2 POP PUSH2 0x3315 DUP3 PUSH2 0x4ADF JUMP JUMPDEST PUSH1 0x44 DUP3 ADD SWAP1 POP SWAP2 SWAP1 POP JUMP JUMPDEST PUSH1 0x0 PUSH2 0x332D PUSH1 0x2D DUP4 PUSH2 0x3C4F JUMP JUMPDEST SWAP2 POP PUSH2 0x3338 DUP3 PUSH2 0x4B54 JUMP JUMPDEST PUSH1 0x2D DUP3 ADD SWAP1 POP SWAP2 SWAP1 POP JUMP JUMPDEST PUSH1 0x0 PUSH2 0x3350 PUSH1 0x21 DUP4 PUSH2 0x3C3E JUMP JUMPDEST SWAP2 POP PUSH2 0x335B DUP3 PUSH2 0x4BA3 JUMP JUMPDEST PUSH1 0x40 DUP3 ADD SWAP1 POP SWAP2 SWAP1 POP JUMP JUMPDEST PUSH1 0x0 PUSH2 0x3373 PUSH1 0x1D DUP4 PUSH2 0x3C4F JUMP JUMPDEST SWAP2 POP PUSH2 0x337E DUP3 PUSH2 0x4BF2 JUMP JUMPDEST PUSH1 0x1D DUP3 ADD SWAP1 POP SWAP2 SWAP1 POP JUMP JUMPDEST PUSH1 0x0 PUSH2 0x3396 PUSH1 0x10 DUP4 PUSH2 0x3C3E JUMP JUMPDEST SWAP2 POP PUSH2 0x33A1 DUP3 PUSH2 0x4C1B JUMP JUMPDEST PUSH1 0x20 DUP3 ADD SWAP1 POP SWAP2 SWAP1 POP JUMP JUMPDEST PUSH1 0x0 PUSH2 0x33B9 PUSH1 0xC DUP4 PUSH2 0x3C4F JUMP JUMPDEST SWAP2 POP PUSH2 0x33C4 DUP3 PUSH2 0x4C44 JUMP JUMPDEST PUSH1 0xC DUP3 ADD SWAP1 POP SWAP2 SWAP1 POP JUMP JUMPDEST PUSH1 0x0 PUSH2 0x33DC PUSH1 0x31 DUP4 PUSH2 0x3C3E JUMP JUMPDEST SWAP2 POP PUSH2 0x33E7 DUP3 PUSH2 0x4C6D JUMP JUMPDEST PUSH1 0x40 DUP3 ADD SWAP1 POP SWAP2 SWAP1 POP JUMP JUMPDEST PUSH1 0x0 PUSH2 0x33FF PUSH1 0x21 DUP4 PUSH2 0x3C4F JUMP JUMPDEST SWAP2 POP PUSH2 0x340A DUP3 PUSH2 0x4CBC JUMP JUMPDEST PUSH1 0x21 DUP3 ADD SWAP1 POP SWAP2 SWAP1 POP JUMP JUMPDEST PUSH1 0x0 PUSH2 0x3422 PUSH1 0x13 DUP4 PUSH2 0x3C3E JUMP JUMPDEST SWAP2 POP PUSH2 0x342D DUP3 PUSH2 0x4D0B JUMP JUMPDEST PUSH1 0x20 DUP3 ADD SWAP1 POP SWAP2 SWAP1 POP JUMP JUMPDEST PUSH1 0x0 PUSH2 0x3445 PUSH1 0x30 DUP4 PUSH2 0x3C4F JUMP JUMPDEST SWAP2 POP PUSH2 0x3450 DUP3 PUSH2 0x4D34 JUMP JUMPDEST PUSH1 0x30 DUP3 ADD SWAP1 POP SWAP2 SWAP1 POP JUMP JUMPDEST PUSH1 0x0 PUSH2 0x3468 PUSH1 0x2B DUP4 PUSH2 0x3C4F JUMP JUMPDEST SWAP2 POP PUSH2 0x3473 DUP3 PUSH2 0x4D83 JUMP JUMPDEST PUSH1 0x2B DUP3 ADD SWAP1 POP SWAP2 SWAP1 POP JUMP JUMPDEST PUSH1 0x0 PUSH2 0x348B PUSH1 0x22 DUP4 PUSH2 0x3C4F JUMP JUMPDEST SWAP2 POP PUSH2 0x3496 DUP3 PUSH2 0x4DD2 JUMP JUMPDEST PUSH1 0x22 DUP3 ADD SWAP1 POP SWAP2 SWAP1 POP JUMP JUMPDEST PUSH1 0x0 PUSH2 0x34AE PUSH1 0x21 DUP4 PUSH2 0x3C4F JUMP JUMPDEST SWAP2 POP PUSH2 0x34B9 DUP3 PUSH2 0x4E21 JUMP JUMPDEST PUSH1 0x21 DUP3 ADD SWAP1 POP SWAP2 SWAP1 POP JUMP JUMPDEST PUSH1 0x0 PUSH2 0x34D1 PUSH1 0x6 DUP4 PUSH2 0x3C4F JUMP JUMPDEST SWAP2 POP PUSH2 0x34DC DUP3 PUSH2 0x4E70 JUMP JUMPDEST PUSH1 0x6 DUP3 ADD SWAP1 POP SWAP2 SWAP1 POP JUMP JUMPDEST PUSH1 0x0 PUSH2 0x34F4 PUSH1 0x3B DUP4 PUSH2 0x3C4F JUMP JUMPDEST SWAP2 POP PUSH2 0x34FF DUP3 PUSH2 0x4E99 JUMP JUMPDEST PUSH1 0x3B DUP3 ADD SWAP1 POP SWAP2 SWAP1 POP JUMP JUMPDEST PUSH1 0x0 PUSH2 0x3517 PUSH1 0x1A DUP4 PUSH2 0x3C4F JUMP JUMPDEST SWAP2 POP PUSH2 0x3522 DUP3 PUSH2 0x4EE8 JUMP JUMPDEST PUSH1 0x1A DUP3 ADD SWAP1 POP SWAP2 SWAP1 POP JUMP JUMPDEST PUSH2 0x3536 DUP2 PUSH2 0x3E14 JUMP JUMPDEST DUP3 MSTORE POP POP JUMP JUMPDEST PUSH2 0x354D PUSH2 0x3548 DUP3 PUSH2 0x3E14 JUMP JUMPDEST PUSH2 0x3F71 JUMP JUMPDEST DUP3 MSTORE POP POP JUMP JUMPDEST PUSH1 0x0 PUSH2 0x355F DUP3 DUP5 PUSH2 0x2DE1 JUMP JUMPDEST PUSH1 0x20 DUP3 ADD SWAP2 POP DUP2 SWAP1 POP SWAP3 SWAP2 POP POP JUMP JUMPDEST PUSH1 0x0 PUSH2 0x3579 DUP3 PUSH2 0x2EE1 JUMP JUMPDEST SWAP2 POP PUSH2 0x3585 DUP3 DUP7 PUSH2 0x2E6A JUMP JUMPDEST SWAP2 POP PUSH2 0x3590 DUP3 PUSH2 0x322B JUMP JUMPDEST SWAP2 POP PUSH2 0x359C DUP3 DUP6 PUSH2 0x2E6A JUMP JUMPDEST SWAP2 POP PUSH2 0x35A7 DUP3 PUSH2 0x31C2 JUMP JUMPDEST SWAP2 POP PUSH2 0x35B2 DUP3 PUSH2 0x350A JUMP JUMPDEST SWAP2 POP PUSH2 0x35BE DUP3 DUP5 PUSH2 0x2E6A JUMP JUMPDEST SWAP2 POP PUSH2 0x35C9 DUP3 PUSH2 0x3159 JUMP JUMPDEST SWAP2 POP DUP2 SWAP1 POP SWAP5 SWAP4 POP POP POP POP JUMP JUMPDEST PUSH1 0x0 PUSH2 0x35E1 DUP3 PUSH2 0x3271 JUMP JUMPDEST SWAP2 POP PUSH2 0x35EC DUP3 PUSH2 0x3320 JUMP JUMPDEST SWAP2 POP PUSH2 0x35F8 DUP3 DUP13 PUSH2 0x2E6A JUMP JUMPDEST SWAP2 POP PUSH2 0x3603 DUP3 PUSH2 0x30CD JUMP JUMPDEST SWAP2 POP PUSH2 0x360E DUP3 PUSH2 0x2FD8 JUMP JUMPDEST SWAP2 POP PUSH2 0x3619 DUP3 PUSH2 0x33AC JUMP JUMPDEST SWAP2 POP PUSH2 0x3625 DUP3 DUP12 PUSH2 0x2E6A JUMP JUMPDEST SWAP2 POP PUSH2 0x3630 DUP3 PUSH2 0x2F04 JUMP JUMPDEST SWAP2 POP PUSH2 0x363B DUP3 PUSH2 0x2F6F JUMP JUMPDEST SWAP2 POP PUSH2 0x3647 DUP3 DUP11 PUSH2 0x2E6A JUMP JUMPDEST SWAP2 POP PUSH2 0x3652 DUP3 PUSH2 0x317C JUMP JUMPDEST SWAP2 POP PUSH2 0x365D DUP3 PUSH2 0x34E7 JUMP JUMPDEST SWAP2 POP PUSH2 0x3668 DUP3 PUSH2 0x3041 JUMP JUMPDEST SWAP2 POP PUSH2 0x3674 DUP3 DUP10 PUSH2 0x2E6A JUMP JUMPDEST SWAP2 POP PUSH2 0x367F DUP3 PUSH2 0x317C JUMP JUMPDEST SWAP2 POP PUSH2 0x368A DUP3 PUSH2 0x2E9B JUMP JUMPDEST SWAP2 POP PUSH2 0x3696 DUP3 DUP9 PUSH2 0x2E6A JUMP JUMPDEST SWAP2 POP PUSH2 0x36A1 DUP3 PUSH2 0x317C JUMP JUMPDEST SWAP2 POP PUSH2 0x36AC DUP3 PUSH2 0x3136 JUMP JUMPDEST SWAP2 POP PUSH2 0x36B8 DUP3 DUP8 PUSH2 0x2E6A JUMP JUMPDEST SWAP2 POP PUSH2 0x36C3 DUP3 PUSH2 0x317C JUMP JUMPDEST SWAP2 POP PUSH2 0x36CE DUP3 PUSH2 0x3438 JUMP JUMPDEST SWAP2 POP PUSH2 0x36DA DUP3 DUP7 PUSH2 0x2E6A JUMP JUMPDEST SWAP2 POP PUSH2 0x36E5 DUP3 PUSH2 0x317C JUMP JUMPDEST SWAP2 POP PUSH2 0x36F0 DUP3 PUSH2 0x32FD JUMP JUMPDEST SWAP2 POP PUSH2 0x36FB DUP3 PUSH2 0x3087 JUMP JUMPDEST SWAP2 POP PUSH2 0x3707 DUP3 DUP6 PUSH2 0x2E6A JUMP JUMPDEST SWAP2 POP PUSH2 0x3712 DUP3 PUSH2 0x317C JUMP JUMPDEST SWAP2 POP PUSH2 0x371D DUP3 PUSH2 0x33F2 JUMP JUMPDEST SWAP2 POP PUSH2 0x3728 DUP3 PUSH2 0x324E JUMP JUMPDEST SWAP2 POP PUSH2 0x3733 DUP3 PUSH2 0x31E5 JUMP JUMPDEST SWAP2 POP PUSH2 0x373E DUP3 PUSH2 0x2F4A JUMP JUMPDEST SWAP2 POP PUSH2 0x3749 DUP3 PUSH2 0x32DA JUMP JUMPDEST SWAP2 POP PUSH2 0x3754 DUP3 PUSH2 0x32DA JUMP JUMPDEST SWAP2 POP PUSH2 0x3760 DUP3 DUP5 PUSH2 0x2E6A JUMP JUMPDEST SWAP2 POP PUSH2 0x376B DUP3 PUSH2 0x34C4 JUMP JUMPDEST SWAP2 POP DUP2 SWAP1 POP SWAP11 SWAP10 POP POP POP POP POP POP POP POP POP POP JUMP JUMPDEST PUSH1 0x0 PUSH2 0x3789 DUP3 PUSH2 0x3366 JUMP JUMPDEST SWAP2 POP PUSH2 0x3795 DUP3 DUP5 PUSH2 0x2E6A JUMP JUMPDEST SWAP2 POP DUP2 SWAP1 POP SWAP3 SWAP2 POP POP JUMP JUMPDEST PUSH1 0x0 PUSH2 0x37AB DUP3 PUSH2 0x34A1 JUMP JUMPDEST SWAP2 POP PUSH2 0x37B6 DUP3 PUSH2 0x345B JUMP JUMPDEST SWAP2 POP PUSH2 0x37C2 DUP3 DUP10 PUSH2 0x2E6A JUMP JUMPDEST SWAP2 POP PUSH2 0x37CD DUP3 PUSH2 0x30CD JUMP JUMPDEST SWAP2 POP PUSH2 0x37D9 DUP3 DUP9 PUSH2 0x2E6A JUMP JUMPDEST SWAP2 POP PUSH2 0x37E4 DUP3 PUSH2 0x32DA JUMP JUMPDEST SWAP2 POP PUSH2 0x37EF DUP3 PUSH2 0x347E JUMP JUMPDEST SWAP2 POP PUSH2 0x37FA DUP3 PUSH2 0x345B JUMP JUMPDEST SWAP2 POP PUSH2 0x3806 DUP3 DUP8 PUSH2 0x2E6A JUMP JUMPDEST SWAP2 POP PUSH2 0x3811 DUP3 PUSH2 0x30CD JUMP JUMPDEST SWAP2 POP PUSH2 0x381D DUP3 DUP7 PUSH2 0x2E6A JUMP JUMPDEST SWAP2 POP PUSH2 0x3828 DUP3 PUSH2 0x32DA JUMP JUMPDEST SWAP2 POP PUSH2 0x3833 DUP3 PUSH2 0x2FB5 JUMP JUMPDEST SWAP2 POP PUSH2 0x383E DUP3 PUSH2 0x345B JUMP JUMPDEST SWAP2 POP PUSH2 0x384A DUP3 DUP6 PUSH2 0x2E6A JUMP JUMPDEST SWAP2 POP PUSH2 0x3855 DUP3 PUSH2 0x30CD JUMP JUMPDEST SWAP2 POP PUSH2 0x3861 DUP3 DUP5 PUSH2 0x2E6A JUMP JUMPDEST SWAP2 POP PUSH2 0x386C DUP3 PUSH2 0x32DA JUMP JUMPDEST SWAP2 POP DUP2 SWAP1 POP SWAP8 SWAP7 POP POP POP POP POP POP POP JUMP JUMPDEST PUSH1 0x0 PUSH2 0x3888 DUP3 DUP7 PUSH2 0x353C JUMP JUMPDEST PUSH1 0x20 DUP3 ADD SWAP2 POP PUSH2 0x3898 DUP3 DUP6 PUSH2 0x353C JUMP JUMPDEST PUSH1 0x20 DUP3 ADD SWAP2 POP PUSH2 0x38A8 DUP3 DUP5 PUSH2 0x2DBB JUMP JUMPDEST PUSH1 0x14 DUP3 ADD SWAP2 POP DUP2 SWAP1 POP SWAP5 SWAP4 POP POP POP POP JUMP JUMPDEST PUSH1 0x0 PUSH1 0x20 DUP3 ADD SWAP1 POP PUSH2 0x38CE PUSH1 0x0 DUP4 ADD DUP5 PUSH2 0x2DAC JUMP JUMPDEST SWAP3 SWAP2 POP POP JUMP JUMPDEST PUSH1 0x0 PUSH1 0x80 DUP3 ADD SWAP1 POP PUSH2 0x38E9 PUSH1 0x0 DUP4 ADD DUP8 PUSH2 0x2DAC JUMP JUMPDEST PUSH2 0x38F6 PUSH1 0x20 DUP4 ADD DUP7 PUSH2 0x2DAC JUMP JUMPDEST PUSH2 0x3903 PUSH1 0x40 DUP4 ADD DUP6 PUSH2 0x352D JUMP JUMPDEST DUP2 DUP2 SUB PUSH1 0x60 DUP4 ADD MSTORE PUSH2 0x3915 DUP2 DUP5 PUSH2 0x2DF8 JUMP JUMPDEST SWAP1 POP SWAP6 SWAP5 POP POP POP POP POP JUMP JUMPDEST PUSH1 0x0 PUSH1 0x40 DUP3 ADD SWAP1 POP PUSH2 0x3935 PUSH1 0x0 DUP4 ADD DUP6 PUSH2 0x2DAC JUMP JUMPDEST PUSH2 0x3942 PUSH1 0x20 DUP4 ADD DUP5 PUSH2 0x352D JUMP JUMPDEST SWAP4 SWAP3 POP POP POP JUMP JUMPDEST PUSH1 0x0 PUSH1 0x20 DUP3 ADD SWAP1 POP PUSH2 0x395E PUSH1 0x0 DUP4 ADD DUP5 PUSH2 0x2DD2 JUMP JUMPDEST SWAP3 SWAP2 POP POP JUMP JUMPDEST PUSH1 0x0 PUSH1 0x20 DUP3 ADD SWAP1 POP DUP2 DUP2 SUB PUSH1 0x0 DUP4 ADD MSTORE PUSH2 0x397E DUP2 DUP5 PUSH2 0x2E31 JUMP JUMPDEST SWAP1 POP SWAP3 SWAP2 POP POP JUMP JUMPDEST PUSH1 0x0 PUSH1 0x20 DUP3 ADD SWAP1 POP DUP2 DUP2 SUB PUSH1 0x0 DUP4 ADD MSTORE PUSH2 0x399F DUP2 PUSH2 0x2EBE JUMP JUMPDEST SWAP1 POP SWAP2 SWAP1 POP JUMP JUMPDEST PUSH1 0x0 PUSH1 0x20 DUP3 ADD SWAP1 POP DUP2 DUP2 SUB PUSH1 0x0 DUP4 ADD MSTORE PUSH2 0x39BF DUP2 PUSH2 0x2F27 JUMP JUMPDEST SWAP1 POP SWAP2 SWAP1 POP JUMP JUMPDEST PUSH1 0x0 PUSH1 0x20 DUP3 ADD SWAP1 POP DUP2 DUP2 SUB PUSH1 0x0 DUP4 ADD MSTORE PUSH2 0x39DF DUP2 PUSH2 0x2F92 JUMP JUMPDEST SWAP1 POP SWAP2 SWAP1 POP JUMP JUMPDEST PUSH1 0x0 PUSH1 0x20 DUP3 ADD SWAP1 POP DUP2 DUP2 SUB PUSH1 0x0 DUP4 ADD MSTORE PUSH2 0x39FF DUP2 PUSH2 0x2FFB JUMP JUMPDEST SWAP1 POP SWAP2 SWAP1 POP JUMP JUMPDEST PUSH1 0x0 PUSH1 0x20 DUP3 ADD SWAP1 POP DUP2 DUP2 SUB PUSH1 0x0 DUP4 ADD MSTORE PUSH2 0x3A1F DUP2 PUSH2 0x301E JUMP JUMPDEST SWAP1 POP SWAP2 SWAP1 POP JUMP JUMPDEST PUSH1 0x0 PUSH1 0x20 DUP3 ADD SWAP1 POP DUP2 DUP2 SUB PUSH1 0x0 DUP4 ADD MSTORE PUSH2 0x3A3F DUP2 PUSH2 0x3064 JUMP JUMPDEST SWAP1 POP SWAP2 SWAP1 POP JUMP JUMPDEST PUSH1 0x0 PUSH1 0x20 DUP3 ADD SWAP1 POP DUP2 DUP2 SUB PUSH1 0x0 DUP4 ADD MSTORE PUSH2 0x3A5F DUP2 PUSH2 0x30AA JUMP JUMPDEST SWAP1 POP SWAP2 SWAP1 POP JUMP JUMPDEST PUSH1 0x0 PUSH1 0x20 DUP3 ADD SWAP1 POP DUP2 DUP2 SUB PUSH1 0x0 DUP4 ADD MSTORE PUSH2 0x3A7F DUP2 PUSH2 0x30F0 JUMP JUMPDEST SWAP1 POP SWAP2 SWAP1 POP JUMP JUMPDEST PUSH1 0x0 PUSH1 0x20 DUP3 ADD SWAP1 POP DUP2 DUP2 SUB PUSH1 0x0 DUP4 ADD MSTORE PUSH2 0x3A9F DUP2 PUSH2 0x3113 JUMP JUMPDEST SWAP1 POP SWAP2 SWAP1 POP JUMP JUMPDEST PUSH1 0x0 PUSH1 0x20 DUP3 ADD SWAP1 POP DUP2 DUP2 SUB PUSH1 0x0 DUP4 ADD MSTORE PUSH2 0x3ABF DUP2 PUSH2 0x319F JUMP JUMPDEST SWAP1 POP SWAP2 SWAP1 POP JUMP JUMPDEST PUSH1 0x0 PUSH1 0x20 DUP3 ADD SWAP1 POP DUP2 DUP2 SUB PUSH1 0x0 DUP4 ADD MSTORE PUSH2 0x3ADF DUP2 PUSH2 0x3208 JUMP JUMPDEST SWAP1 POP SWAP2 SWAP1 POP JUMP JUMPDEST PUSH1 0x0 PUSH1 0x20 DUP3 ADD SWAP1 POP DUP2 DUP2 SUB PUSH1 0x0 DUP4 ADD MSTORE PUSH2 0x3AFF DUP2 PUSH2 0x3294 JUMP JUMPDEST SWAP1 POP SWAP2 SWAP1 POP JUMP JUMPDEST PUSH1 0x0 PUSH1 0x20 DUP3 ADD SWAP1 POP DUP2 DUP2 SUB PUSH1 0x0 DUP4 ADD MSTORE PUSH2 0x3B1F DUP2 PUSH2 0x32B7 JUMP JUMPDEST SWAP1 POP SWAP2 SWAP1 POP JUMP JUMPDEST PUSH1 0x0 PUSH1 0x20 DUP3 ADD SWAP1 POP DUP2 DUP2 SUB PUSH1 0x0 DUP4 ADD MSTORE PUSH2 0x3B3F DUP2 PUSH2 0x3343 JUMP JUMPDEST SWAP1 POP SWAP2 SWAP1 POP JUMP JUMPDEST PUSH1 0x0 PUSH1 0x20 DUP3 ADD SWAP1 POP DUP2 DUP2 SUB PUSH1 0x0 DUP4 ADD MSTORE PUSH2 0x3B5F DUP2 PUSH2 0x3389 JUMP JUMPDEST SWAP1 POP SWAP2 SWAP1 POP JUMP JUMPDEST PUSH1 0x0 PUSH1 0x20 DUP3 ADD SWAP1 POP DUP2 DUP2 SUB PUSH1 0x0 DUP4 ADD MSTORE PUSH2 0x3B7F DUP2 PUSH2 0x33CF JUMP JUMPDEST SWAP1 POP SWAP2 SWAP1 POP JUMP JUMPDEST PUSH1 0x0 PUSH1 0x20 DUP3 ADD SWAP1 POP DUP2 DUP2 SUB PUSH1 0x0 DUP4 ADD MSTORE PUSH2 0x3B9F DUP2 PUSH2 0x3415 JUMP JUMPDEST SWAP1 POP SWAP2 SWAP1 POP JUMP JUMPDEST PUSH1 0x0 PUSH1 0x20 DUP3 ADD SWAP1 POP PUSH2 0x3BBB PUSH1 0x0 DUP4 ADD DUP5 PUSH2 0x352D JUMP JUMPDEST SWAP3 SWAP2 POP POP JUMP JUMPDEST PUSH1 0x0 PUSH2 0x3BCB PUSH2 0x3BDC JUMP JUMPDEST SWAP1 POP PUSH2 0x3BD7 DUP3 DUP3 PUSH2 0x3EC9 JUMP JUMPDEST SWAP2 SWAP1 POP JUMP JUMPDEST PUSH1 0x0 PUSH1 0x40 MLOAD SWAP1 POP SWAP1 JUMP JUMPDEST PUSH1 0x0 PUSH8 0xFFFFFFFFFFFFFFFF DUP3 GT ISZERO PUSH2 0x3C01 JUMPI PUSH2 0x3C00 PUSH2 0x4039 JUMP JUMPDEST JUMPDEST PUSH2 0x3C0A DUP3 PUSH2 0x4068 JUMP JUMPDEST SWAP1 POP PUSH1 0x20 DUP2 ADD SWAP1 POP SWAP2 SWAP1 POP JUMP JUMPDEST PUSH1 0x0 DUP2 MLOAD SWAP1 POP SWAP2 SWAP1 POP JUMP JUMPDEST PUSH1 0x0 DUP2 MLOAD SWAP1 POP SWAP2 SWAP1 POP JUMP JUMPDEST PUSH1 0x0 DUP3 DUP3 MSTORE PUSH1 0x20 DUP3 ADD SWAP1 POP SWAP3 SWAP2 POP POP JUMP JUMPDEST PUSH1 0x0 DUP3 DUP3 MSTORE PUSH1 0x20 DUP3 ADD SWAP1 POP SWAP3 SWAP2 POP POP JUMP JUMPDEST PUSH1 0x0 DUP2 SWAP1 POP SWAP3 SWAP2 POP POP JUMP JUMPDEST PUSH1 0x0 PUSH2 0x3C65 DUP3 PUSH2 0x3E14 JUMP JUMPDEST SWAP2 POP PUSH2 0x3C70 DUP4 PUSH2 0x3E14 JUMP JUMPDEST SWAP3 POP DUP3 PUSH32 0xFFFFFFFFFFFFFFFFFFFFFFFFFFFFFFFFFFFFFFFFFFFFFFFFFFFFFFFFFFFFFFFF SUB DUP3 GT ISZERO PUSH2 0x3CA5 JUMPI PUSH2 0x3CA4 PUSH2 0x3FAC JUMP JUMPDEST JUMPDEST DUP3 DUP3 ADD SWAP1 POP SWAP3 SWAP2 POP POP JUMP JUMPDEST PUSH1 0x0 PUSH2 0x3CBB DUP3 PUSH2 0x3E14 JUMP JUMPDEST SWAP2 POP PUSH2 0x3CC6 DUP4 PUSH2 0x3E14 JUMP JUMPDEST SWAP3 POP DUP3 PUSH2 0x3CD6 JUMPI PUSH2 0x3CD5 PUSH2 0x3FDB JUMP JUMPDEST JUMPDEST DUP3 DUP3 DIV SWAP1 POP SWAP3 SWAP2 POP POP JUMP JUMPDEST PUSH1 0x0 PUSH2 0x3CEC DUP3 PUSH2 0x3E1E JUMP JUMPDEST SWAP2 POP PUSH2 0x3CF7 DUP4 PUSH2 0x3E1E JUMP JUMPDEST SWAP3 POP DUP3 PUSH2 0x3D07 JUMPI PUSH2 0x3D06 PUSH2 0x3FDB JUMP JUMPDEST JUMPDEST DUP3 DUP3 DIV SWAP1 POP SWAP3 SWAP2 POP POP JUMP JUMPDEST PUSH1 0x0 PUSH2 0x3D1D DUP3 PUSH2 0x3E14 JUMP JUMPDEST SWAP2 POP PUSH2 0x3D28 DUP4 PUSH2 0x3E14 JUMP JUMPDEST SWAP3 POP DUP2 PUSH32 0xFFFFFFFFFFFFFFFFFFFFFFFFFFFFFFFFFFFFFFFFFFFFFFFFFFFFFFFFFFFFFFFF DIV DUP4 GT DUP3 ISZERO ISZERO AND ISZERO PUSH2 0x3D61 JUMPI PUSH2 0x3D60 PUSH2 0x3FAC JUMP JUMPDEST JUMPDEST DUP3 DUP3 MUL SWAP1 POP SWAP3 SWAP2 POP POP JUMP JUMPDEST PUSH1 0x0 PUSH2 0x3D77 DUP3 PUSH2 0x3E14 JUMP JUMPDEST SWAP2 POP PUSH2 0x3D82 DUP4 PUSH2 0x3E14 JUMP JUMPDEST SWAP3 POP DUP3 DUP3 LT ISZERO PUSH2 0x3D95 JUMPI PUSH2 0x3D94 PUSH2 0x3FAC JUMP JUMPDEST JUMPDEST DUP3 DUP3 SUB SWAP1 POP SWAP3 SWAP2 POP POP JUMP JUMPDEST PUSH1 0x0 PUSH2 0x3DAB DUP3 PUSH2 0x3DF4 JUMP JUMPDEST SWAP1 POP SWAP2 SWAP1 POP JUMP JUMPDEST PUSH1 0x0 DUP2 ISZERO ISZERO SWAP1 POP SWAP2 SWAP1 POP JUMP JUMPDEST PUSH1 0x0 DUP2 SWAP1 POP SWAP2 SWAP1 POP JUMP JUMPDEST PUSH1 0x0 PUSH32 0xFFFFFFFF00000000000000000000000000000000000000000000000000000000 DUP3 AND SWAP1 POP SWAP2 SWAP1 POP JUMP JUMPDEST PUSH1 0x0 PUSH20 0xFFFFFFFFFFFFFFFFFFFFFFFFFFFFFFFFFFFFFFFF DUP3 AND SWAP1 POP SWAP2 SWAP1 POP JUMP JUMPDEST PUSH1 0x0 DUP2 SWAP1 POP SWAP2 SWAP1 POP JUMP JUMPDEST PUSH1 0x0 PUSH1 0xFF DUP3 AND SWAP1 POP SWAP2 SWAP1 POP JUMP JUMPDEST DUP3 DUP2 DUP4 CALLDATACOPY PUSH1 0x0 DUP4 DUP4 ADD MSTORE POP POP POP JUMP JUMPDEST PUSH1 0x0 JUMPDEST DUP4 DUP2 LT ISZERO PUSH2 0x3E58 JUMPI DUP1 DUP3 ADD MLOAD DUP2 DUP5 ADD MSTORE PUSH1 0x20 DUP2 ADD SWAP1 POP PUSH2 0x3E3D JUMP JUMPDEST DUP4 DUP2 GT ISZERO PUSH2 0x3E67 JUMPI PUSH1 0x0 DUP5 DUP5 ADD MSTORE JUMPDEST POP POP POP POP JUMP JUMPDEST PUSH1 0x0 PUSH2 0x3E78 DUP3 PUSH2 0x3E14 JUMP JUMPDEST SWAP2 POP PUSH1 0x0 DUP3 EQ ISZERO PUSH2 0x3E8C JUMPI PUSH2 0x3E8B PUSH2 0x3FAC JUMP JUMPDEST JUMPDEST PUSH1 0x1 DUP3 SUB SWAP1 POP SWAP2 SWAP1 POP JUMP JUMPDEST PUSH1 0x0 PUSH1 0x2 DUP3 DIV SWAP1 POP PUSH1 0x1 DUP3 AND DUP1 PUSH2 0x3EAF JUMPI PUSH1 0x7F DUP3 AND SWAP2 POP JUMPDEST PUSH1 0x20 DUP3 LT DUP2 EQ ISZERO PUSH2 0x3EC3 JUMPI PUSH2 0x3EC2 PUSH2 0x400A JUMP JUMPDEST JUMPDEST POP SWAP2 SWAP1 POP JUMP JUMPDEST PUSH2 0x3ED2 DUP3 PUSH2 0x4068 JUMP JUMPDEST DUP2 ADD DUP2 DUP2 LT PUSH8 0xFFFFFFFFFFFFFFFF DUP3 GT OR ISZERO PUSH2 0x3EF1 JUMPI PUSH2 0x3EF0 PUSH2 0x4039 JUMP JUMPDEST JUMPDEST DUP1 PUSH1 0x40 MSTORE POP POP POP JUMP JUMPDEST PUSH1 0x0 PUSH2 0x3F05 DUP3 PUSH2 0x3E14 JUMP JUMPDEST SWAP2 POP PUSH32 0xFFFFFFFFFFFFFFFFFFFFFFFFFFFFFFFFFFFFFFFFFFFFFFFFFFFFFFFFFFFFFFFF DUP3 EQ ISZERO PUSH2 0x3F38 JUMPI PUSH2 0x3F37 PUSH2 0x3FAC JUMP JUMPDEST JUMPDEST PUSH1 0x1 DUP3 ADD SWAP1 POP SWAP2 SWAP1 POP JUMP JUMPDEST PUSH1 0x0 PUSH2 0x3F4E DUP3 PUSH2 0x3F5F JUMP JUMPDEST SWAP1 POP SWAP2 SWAP1 POP JUMP JUMPDEST PUSH1 0x0 DUP2 SWAP1 POP SWAP2 SWAP1 POP JUMP JUMPDEST PUSH1 0x0 PUSH2 0x3F6A DUP3 PUSH2 0x4079 JUMP JUMPDEST SWAP1 POP SWAP2 SWAP1 POP JUMP JUMPDEST PUSH1 0x0 DUP2 SWAP1 POP SWAP2 SWAP1 POP JUMP JUMPDEST PUSH1 0x0 PUSH2 0x3F86 DUP3 PUSH2 0x3E14 JUMP JUMPDEST SWAP2 POP PUSH2 0x3F91 DUP4 PUSH2 0x3E14 JUMP JUMPDEST SWAP3 POP DUP3 PUSH2 0x3FA1 JUMPI PUSH2 0x3FA0 PUSH2 0x3FDB JUMP JUMPDEST JUMPDEST DUP3 DUP3 MOD SWAP1 POP SWAP3 SWAP2 POP POP JUMP JUMPDEST PUSH32 0x4E487B7100000000000000000000000000000000000000000000000000000000 PUSH1 0x0 MSTORE PUSH1 0x11 PUSH1 0x4 MSTORE PUSH1 0x24 PUSH1 0x0 REVERT JUMPDEST PUSH32 0x4E487B7100000000000000000000000000000000000000000000000000000000 PUSH1 0x0 MSTORE PUSH1 0x12 PUSH1 0x4 MSTORE PUSH1 0x24 PUSH1 0x0 REVERT JUMPDEST PUSH32 0x4E487B7100000000000000000000000000000000000000000000000000000000 PUSH1 0x0 MSTORE PUSH1 0x22 PUSH1 0x4 MSTORE PUSH1 0x24 PUSH1 0x0 REVERT JUMPDEST PUSH32 0x4E487B7100000000000000000000000000000000000000000000000000000000 PUSH1 0x0 MSTORE PUSH1 0x41 PUSH1 0x4 MSTORE PUSH1 0x24 PUSH1 0x0 REVERT JUMPDEST PUSH1 0x0 PUSH1 0x1F NOT PUSH1 0x1F DUP4 ADD AND SWAP1 POP SWAP2 SWAP1 POP JUMP JUMPDEST PUSH1 0x0 DUP2 PUSH1 0x60 SHL SWAP1 POP SWAP2 SWAP1 POP JUMP JUMPDEST PUSH32 0x3C7465787420783D223330352220793D223134362220666F6E742D73697A653D PUSH1 0x0 DUP3 ADD MSTORE PUSH32 0x2232392220746578742D616E63686F723D22656E64223E312F00000000000000 PUSH1 0x20 DUP3 ADD MSTORE POP JUMP JUMPDEST PUSH32 0x537472696E67733A20686578206C656E67746820696E73756666696369656E74 PUSH1 0x0 DUP3 ADD MSTORE POP JUMP JUMPDEST PUSH32 0x7B226E616D65223A220000000000000000000000000000000000000000000000 PUSH1 0x0 DUP3 ADD MSTORE POP JUMP JUMPDEST PUSH32 0x2220643D224D33302033313068343630763131304833307A22202F3E00000000 PUSH1 0x0 DUP3 ADD MSTORE POP JUMP JUMPDEST PUSH32 0x4552433732313A207472616E7366657220746F206E6F6E204552433732315265 PUSH1 0x0 DUP3 ADD MSTORE PUSH32 0x63656976657220696D706C656D656E7465720000000000000000000000000000 PUSH1 0x20 DUP3 ADD MSTORE POP JUMP JUMPDEST PUSH32 0x3C706174682066696C6C2D72756C653D226576656E6F64642220636C69702D72 PUSH1 0x0 DUP3 ADD MSTORE PUSH32 0x756C653D226576656E6F6464222066696C6C3D22236666662220643D224D3133 PUSH1 0x20 DUP3 ADD MSTORE PUSH32 0x352E33203130362E32632D372E3120302D31322E382D352E372D31322E382D31 PUSH1 0x40 DUP3 ADD MSTORE PUSH32 0x322E3820302D372E3120352E372D31322E382031322E382D31322E3820372E31 PUSH1 0x60 DUP3 ADD MSTORE PUSH32 0x20302031322E3820352E372031322E382031322E38203020372E312D352E3720 PUSH1 0x80 DUP3 ADD MSTORE PUSH32 0x31322E382D31322E382031322E386D302D33326331302E3620302031392E3220 PUSH1 0xA0 DUP3 ADD MSTORE PUSH32 0x382E362031392E322031392E32732D382E362031392E322D31392E322031392E PUSH1 0xC0 DUP3 ADD MSTORE PUSH32 0x322D31392E322D382E362D31392E322D31392E3220382E362D31392E32203139 PUSH1 0xE0 DUP3 ADD MSTORE PUSH32 0x2E322D31392E327A6D31382E332033392E3463312E3320312E3320312E332033 PUSH2 0x100 DUP3 ADD MSTORE PUSH32 0x2E33203020342E356C2D31322E382031322E38632D312E3320312E332D332E33 PUSH2 0x120 DUP3 ADD MSTORE PUSH32 0x20312E332D342E3520302D312E332D312E332D312E332D332E3320302D342E35 PUSH2 0x140 DUP3 ADD MSTORE PUSH32 0x6C31322E382D31322E3863312E322D312E3320332E332D312E3320342E352030 PUSH2 0x160 DUP3 ADD MSTORE PUSH32 0x7A6D372E342D33362E32633020312E382D312E3420332E322D332E3220332E32 PUSH2 0x180 DUP3 ADD MSTORE PUSH32 0x2D312E3820302D332E322D312E342D332E322D332E3273312E342D332E322033 PUSH2 0x1A0 DUP3 ADD MSTORE PUSH32 0x2E322D332E3263312E37203020332E3220312E3420332E3220332E327A222F3E PUSH2 0x1C0 DUP3 ADD MSTORE POP JUMP JUMPDEST PUSH32 0x3C7465787420783D2233302220793D2232382220666F6E742D73697A653D2231 PUSH1 0x0 DUP3 ADD MSTORE PUSH32 0x37223E0000000000000000000000000000000000000000000000000000000000 PUSH1 0x20 DUP3 ADD MSTORE POP JUMP JUMPDEST PUSH32 0x4552433732313A20746F6B656E20616C7265616479206D696E74656400000000 PUSH1 0x0 DUP3 ADD MSTORE POP JUMP JUMPDEST PUSH32 0x3C67207472616E73666F726D3D227472616E736C617465283335332C34343829 PUSH1 0x0 DUP3 ADD MSTORE PUSH32 0x223E000000000000000000000000000000000000000000000000000000000000 PUSH1 0x20 DUP3 ADD MSTORE POP JUMP JUMPDEST PUSH32 0x3C7265637420783D2233302220793D223430222077696474683D223436302220 PUSH1 0x0 DUP3 ADD MSTORE PUSH32 0x6865696768743D22353230222072783D223236222066696C6C3D222366666622 PUSH1 0x20 DUP3 ADD MSTORE PUSH32 0x202F3E0000000000000000000000000000000000000000000000000000000000 PUSH1 0x40 DUP3 ADD MSTORE POP JUMP JUMPDEST PUSH32 0x4552433732313A207472616E7366657220746F20746865207A65726F20616464 PUSH1 0x0 DUP3 ADD MSTORE PUSH32 0x7265737300000000000000000000000000000000000000000000000000000000 PUSH1 0x20 DUP3 ADD MSTORE POP JUMP JUMPDEST PUSH32 0x4552433732313A20617070726F766520746F2063616C6C657200000000000000 PUSH1 0x0 DUP3 ADD MSTORE POP JUMP JUMPDEST PUSH32 0x3C7465787420783D2234322220793D223134362220666F6E742D73697A653D22 PUSH1 0x0 DUP3 ADD MSTORE PUSH32 0x3239223E49443A20000000000000000000000000000000000000000000000000 PUSH1 0x20 DUP3 ADD MSTORE POP JUMP JUMPDEST PUSH32 0x4552433732313A206F70657261746F7220717565727920666F72206E6F6E6578 PUSH1 0x0 DUP3 ADD MSTORE PUSH32 0x697374656E7420746F6B656E0000000000000000000000000000000000000000 PUSH1 0x20 DUP3 ADD MSTORE POP JUMP JUMPDEST PUSH32 0x3C7465787420746578742D616E63686F723D226D6964646C652220783D223235 PUSH1 0x0 DUP3 ADD MSTORE PUSH32 0x302220793D223336392220666F6E742D73697A653D223135223E000000000000 PUSH1 0x20 DUP3 ADD MSTORE POP JUMP JUMPDEST PUSH32 0x4552433732313A20617070726F76652063616C6C6572206973206E6F74206F77 PUSH1 0x0 DUP3 ADD MSTORE PUSH32 0x6E6572206E6F7220617070726F76656420666F7220616C6C0000000000000000 PUSH1 0x20 DUP3 ADD MSTORE POP JUMP JUMPDEST PUSH32 0x22202F3E00000000000000000000000000000000000000000000000000000000 PUSH1 0x0 DUP3 ADD MSTORE POP JUMP JUMPDEST PUSH32 0x4552433732313A2062616C616E636520717565727920666F7220746865207A65 PUSH1 0x0 DUP3 ADD MSTORE PUSH32 0x726F206164647265737300000000000000000000000000000000000000000000 PUSH1 0x20 DUP3 ADD MSTORE POP JUMP JUMPDEST PUSH32 0x4552433732313A206F776E657220717565727920666F72206E6F6E6578697374 PUSH1 0x0 DUP3 ADD MSTORE PUSH32 0x656E7420746F6B656E0000000000000000000000000000000000000000000000 PUSH1 0x20 DUP3 ADD MSTORE POP JUMP JUMPDEST PUSH32 0x3C7465787420783D2234322220793D223139322220666F6E742D73697A653D22 PUSH1 0x0 DUP3 ADD MSTORE PUSH32 0x3239223E54494D45533A20000000000000000000000000000000000000000000 PUSH1 0x20 DUP3 ADD MSTORE POP JUMP JUMPDEST PUSH32 0x227D000000000000000000000000000000000000000000000000000000000000 PUSH1 0x0 DUP3 ADD MSTORE POP JUMP JUMPDEST PUSH32 0x3C2F746578743E00000000000000000000000000000000000000000000000000 PUSH1 0x0 DUP3 ADD MSTORE POP JUMP JUMPDEST PUSH32 0x4552433732313A206D696E7420746F20746865207A65726F2061646472657373 PUSH1 0x0 DUP3 ADD MSTORE POP JUMP JUMPDEST PUSH32 0x222C2022696D616765223A202200000000000000000000000000000000000000 PUSH1 0x0 DUP3 ADD MSTORE POP JUMP JUMPDEST PUSH32 0x3C67207472616E73666F726D3D227472616E736C617465282D3838202D353229 PUSH1 0x0 DUP3 ADD MSTORE PUSH32 0x223E000000000000000000000000000000000000000000000000000000000000 PUSH1 0x20 DUP3 ADD MSTORE POP JUMP JUMPDEST PUSH32 0x4552433732313A20617070726F76656420717565727920666F72206E6F6E6578 PUSH1 0x0 DUP3 ADD MSTORE PUSH32 0x697374656E7420746F6B656E0000000000000000000000000000000000000000 PUSH1 0x20 DUP3 ADD MSTORE POP JUMP JUMPDEST PUSH32 0x222C20226465736372697074696F6E223A220000000000000000000000000000 PUSH1 0x0 DUP3 ADD MSTORE POP JUMP JUMPDEST PUSH32 0x3C636972636C652063783D223438222063793D2234382220723D223438222066 PUSH1 0x0 DUP3 ADD MSTORE PUSH32 0x696C6C3D222336373437656422202F3E00000000000000000000000000000000 PUSH1 0x20 DUP3 ADD MSTORE POP JUMP JUMPDEST PUSH32 0x3C73766720786D6C6E733D22687474703A2F2F7777772E77332E6F72672F3230 PUSH1 0x0 DUP3 ADD MSTORE PUSH32 0x30302F737667222077696474683D2235323022206865696768743D2236303022 PUSH1 0x20 DUP3 ADD MSTORE PUSH32 0x20666F6E742D66616D696C793D22417269616C223E0000000000000000000000 PUSH1 0x40 DUP3 ADD MSTORE POP JUMP JUMPDEST PUSH32 0x4552433732313A207472616E73666572206F6620746F6B656E20746861742069 PUSH1 0x0 DUP3 ADD MSTORE PUSH32 0x73206E6F74206F776E0000000000000000000000000000000000000000000000 PUSH1 0x20 DUP3 ADD MSTORE POP JUMP JUMPDEST PUSH32 0x4552433732314D657461646174613A2055524920717565727920666F72206E6F PUSH1 0x0 DUP3 ADD MSTORE PUSH32 0x6E6578697374656E7420746F6B656E0000000000000000000000000000000000 PUSH1 0x20 DUP3 ADD MSTORE POP JUMP JUMPDEST PUSH32 0x3C2F673E00000000000000000000000000000000000000000000000000000000 PUSH1 0x0 DUP3 ADD MSTORE POP JUMP JUMPDEST PUSH32 0x3C7465787420783D2234322220793D223239362220666F6E742D73697A653D22 PUSH1 0x0 DUP3 ADD MSTORE PUSH32 0x3239223E534E415053484F54544544204F4E3A20323032312E372E33303C2F74 PUSH1 0x20 DUP3 ADD MSTORE PUSH32 0x6578743E00000000000000000000000000000000000000000000000000000000 PUSH1 0x40 DUP3 ADD MSTORE POP JUMP JUMPDEST PUSH32 0x3C726563742077696474683D2235323022206865696768743D22363030222072 PUSH1 0x0 DUP3 ADD MSTORE PUSH32 0x783D223236222066696C6C3D2200000000000000000000000000000000000000 PUSH1 0x20 DUP3 ADD MSTORE POP JUMP JUMPDEST PUSH32 0x4552433732313A20617070726F76616C20746F2063757272656E74206F776E65 PUSH1 0x0 DUP3 ADD MSTORE PUSH32 0x7200000000000000000000000000000000000000000000000000000000000000 PUSH1 0x20 DUP3 ADD MSTORE POP JUMP JUMPDEST PUSH32 0x646174613A6170706C69636174696F6E2F6A736F6E3B6261736536342C000000 PUSH1 0x0 DUP3 ADD MSTORE POP JUMP JUMPDEST PUSH32 0x746F55696E74385F6F766572666C6F7700000000000000000000000000000000 PUSH1 0x0 DUP3 ADD MSTORE POP JUMP JUMPDEST PUSH32 0x3C706174682066696C6C3D220000000000000000000000000000000000000000 PUSH1 0x0 DUP3 ADD MSTORE POP JUMP JUMPDEST PUSH32 0x4552433732313A207472616E736665722063616C6C6572206973206E6F74206F PUSH1 0x0 DUP3 ADD MSTORE PUSH32 0x776E6572206E6F7220617070726F766564000000000000000000000000000000 PUSH1 0x20 DUP3 ADD MSTORE POP JUMP JUMPDEST PUSH32 0x3C67207472616E73666F726D3D227472616E736C617465283334382C36302922 PUSH1 0x0 DUP3 ADD MSTORE PUSH32 0x3E00000000000000000000000000000000000000000000000000000000000000 PUSH1 0x20 DUP3 ADD MSTORE POP JUMP JUMPDEST PUSH32 0x746F55696E74385F6F75744F66426F756E647300000000000000000000000000 PUSH1 0x0 DUP3 ADD MSTORE POP JUMP JUMPDEST PUSH32 0x3C7465787420783D2234322220793D223234322220666F6E742D73697A653D22 PUSH1 0x0 DUP3 ADD MSTORE PUSH32 0x3239223E53544152544544204F4E3A2000000000000000000000000000000000 PUSH1 0x20 DUP3 ADD MSTORE POP JUMP JUMPDEST PUSH32 0x3C726563742077696474683D22383822206865696768743D223838222072783D PUSH1 0x0 DUP3 ADD MSTORE PUSH32 0x223136222066696C6C3D22000000000000000000000000000000000000000000 PUSH1 0x20 DUP3 ADD MSTORE POP JUMP JUMPDEST PUSH32 0x3C67207472616E73666F726D3D227472616E736C617465283231362C34343829 PUSH1 0x0 DUP3 ADD MSTORE PUSH32 0x223E000000000000000000000000000000000000000000000000000000000000 PUSH1 0x20 DUP3 ADD MSTORE POP JUMP JUMPDEST PUSH32 0x3C67207472616E73666F726D3D227472616E736C6174652837392C3434382922 PUSH1 0x0 DUP3 ADD MSTORE PUSH32 0x3E00000000000000000000000000000000000000000000000000000000000000 PUSH1 0x20 DUP3 ADD MSTORE POP JUMP JUMPDEST PUSH32 0x3C2F7376673E0000000000000000000000000000000000000000000000000000 PUSH1 0x0 DUP3 ADD MSTORE POP JUMP JUMPDEST PUSH32 0x3C7465787420783D2234322220793D2239362220666F6E742D73697A653D2233 PUSH1 0x0 DUP3 ADD MSTORE PUSH32 0x31223E5468652047726170682043757261746F723C2F746578743E0000000000 PUSH1 0x20 DUP3 ADD MSTORE POP JUMP JUMPDEST PUSH32 0x646174613A696D6167652F7376672B786D6C3B6261736536342C000000000000 PUSH1 0x0 DUP3 ADD MSTORE POP JUMP JUMPDEST PUSH2 0x4F1A DUP2 PUSH2 0x3DA0 JUMP JUMPDEST DUP2 EQ PUSH2 0x4F25 JUMPI PUSH1 0x0 DUP1 REVERT JUMPDEST POP JUMP JUMPDEST PUSH2 0x4F31 DUP2 PUSH2 0x3DB2 JUMP JUMPDEST DUP2 EQ PUSH2 0x4F3C JUMPI PUSH1 0x0 DUP1 REVERT JUMPDEST POP JUMP JUMPDEST PUSH2 0x4F48 DUP2 PUSH2 0x3DC8 JUMP JUMPDEST DUP2 EQ PUSH2 0x4F53 JUMPI PUSH1 0x0 DUP1 REVERT JUMPDEST POP JUMP JUMPDEST PUSH2 0x4F5F DUP2 PUSH2 0x3E14 JUMP JUMPDEST DUP2 EQ PUSH2 0x4F6A JUMPI PUSH1 0x0 DUP1 REVERT JUMPDEST POP JUMP JUMPDEST PUSH2 0x4F76 DUP2 PUSH2 0x3E1E JUMP JUMPDEST DUP2 EQ PUSH2 0x4F81 JUMPI PUSH1 0x0 DUP1 REVERT JUMPDEST POP JUMP INVALID COINBASE TIMESTAMP NUMBER DIFFICULTY GASLIMIT CHAINID SELFBALANCE 0x48 0x49 0x4A 0x4B 0x4C 0x4D 0x4E 0x4F POP MLOAD MSTORE MSTORE8 SLOAD SSTORE JUMP JUMPI PC MSIZE GAS PUSH2 0x6263 PUSH5 0x6566676869 PUSH11 0x6B6C6D6E6F707172737475 PUSH23 0x7778797A303132333435363738392B2F43757261746F72 PUSH20 0x20757365207468656972206B6E6F776C65646765 KECCAK256 PUSH16 0x662074686520776562332065636F7379 PUSH20 0x74656D20746F2061737365737320616E64207369 PUSH8 0x6E616C206F6E2074 PUSH9 0x652073756267726170 PUSH9 0x732074686174207368 PUSH16 0x756C6420626520696E64657865642062 PUSH26 0x20546865204772617068204E6574776F726B2E204D6574616669 PUSH4 0x61746520 PUSH10 0x7320616E206F6E2D6368 PUSH2 0x696E KECCAK256 PUSH8 0x656E657261746976 PUSH6 0x206172742061 PUSH15 0x6420646563656E7472616C697A6564 KECCAK256 PUSH4 0x65727469 PUSH7 0x69636174652063 PUSH19 0x656174656420666F7220746865206D65746176 PUSH6 0x72736520616E PUSH5 0x2074686520 PUSH24 0x6562203320776F726C642EA2646970667358221220FB3546 PUSH3 0x4EC4AF 0xCC 0xA5 SWAP12 SAR ADDMOD EXTCODESIZE 0xD1 0xBA RETURNDATASIZE GASPRICE PUSH24 0xBC76170D18D37007A35009EE14D264736F6C634300080400 CALLER EXTCODECOPY PUSH8 0x207472616E73666F PUSH19 0x6D3D226D6174726978282E313120302030202E BALANCE BALANCE KECCAK256 BALANCE CALLDATASIZE 0x2E CALLDATALOAD KECCAK256 BALANCE CALLDATASIZE 0x2E CALLDATALOAD 0x29 0x22 RETURNDATACOPY EXTCODECOPY PUSH17 0x6174682066696C6C3D2223666666222064 RETURNDATASIZE 0x22 0x4D BALANCE CODECOPY CALLDATASIZE 0x2E CODESIZE KECCAK256 CALLDATALOAD CALLVALUE 0x2E CODESIZE PUSH20 0x312E312D2E3420322E322D2E366331302E322D31 0x2E CODESIZE KECCAK256 CALLER ORIGIN 0x2E CALLVALUE KECCAK256 BALANCE CALLDATALOAD 0x2E ORIGIN KECCAK256 CALLER CALLER 0x2E CALLDATASIZE KECCAK256 BALANCE CALLDATASIZE 0x2E BALANCE KECCAK256 BALANCE CALLDATASIZE 0x2E CALLER KECCAK256 BALANCE ORIGIN 0x2E CALLDATACOPY KECCAK256 ORIGIN CALLVALUE 0x2E CALLVALUE KECCAK256 BALANCE CODECOPY KECCAK256 ORIGIN CALLDATACOPY 0x2E BALANCE KECCAK256 ORIGIN ORIGIN 0x2E CALLVALUE KECCAK256 CALLDATASIZE 0x2E CALLER KECCAK256 CALLDATACOPY 0x2E CODESIZE KECCAK256 CODECOPY 0x2E CALLDATACOPY KECCAK256 BALANCE CALLDATALOAD 0x2E BALANCE KECCAK256 ORIGIN ADDRESS 0x2E CALLDATACOPY KECCAK256 ORIGIN CALLDATASIZE 0x2E CODECOPY KECCAK256 CALLDATALOAD 0x2E CODECOPY KECCAK256 CALLDATASIZE 0x2E CALLVALUE KECCAK256 CODECOPY 0x2E CALLER KECCAK256 CODECOPY 0x2E CODECOPY KECCAK256 BALANCE BALANCE KECCAK256 CODECOPY KECCAK256 CALLVALUE 0x2E CALLDATASIZE 0x2D ORIGIN 0x2E CALLVALUE 0x2D BALANCE ORIGIN 0x2E CALLDATALOAD 0x2D CALLER ADDRESS 0x2E CALLDATACOPY 0x2D BALANCE ADDRESS 0x2D CALLDATASIZE CALLDATACOPY KECCAK256 BALANCE 0x2E CALLVALUE 0x2D BALANCE CODECOPY 0x2E CODECOPY KECCAK256 CODESIZE 0x2E CALLDATASIZE 0x2D CALLVALUE ORIGIN 0x2E ORIGIN KECCAK256 BALANCE CALLDATALOAD 0x2E CALLDATACOPY 0x2D CALLVALUE ORIGIN 0x2E ORIGIN KECCAK256 CALLDATASIZE 0x2E CALLDATACOPY KECCAK256 ADDRESS KECCAK256 BALANCE BALANCE 0x2E CODECOPY KECCAK256 ORIGIN ADDRESS 0x2E BALANCE KECCAK256 BALANCE CALLER 0x2E CODECOPY KECCAK256 ORIGIN CALLDATACOPY 0x2E CODECOPY KECCAK256 BALANCE ORIGIN 0x2E CALLDATACOPY KECCAK256 CALLVALUE CODECOPY 0x2E CALLDATALOAD 0x2D CODESIZE 0x2E BALANCE KECCAK256 CALLDATASIZE CODESIZE 0x2E CODESIZE KECCAK256 CALLDATASIZE KECCAK256 BALANCE ADDRESS CALLDATACOPY 0x2E BALANCE KECCAK256 BALANCE ADDRESS 0x2E CALLDATACOPY KECCAK256 ORIGIN CODECOPY 0x2E ORIGIN KECCAK256 BALANCE CALLVALUE 0x2E CODESIZE KECCAK256 CALLER CALLDATASIZE 0x2E CALLDATASIZE KECCAK256 BALANCE CALLVALUE 0x2E CODESIZE KECCAK256 CALLER CALLDATASIZE 0x2E CALLDATASIZE KECCAK256 ORIGIN 0x2E CALLER KECCAK256 CALLVALUE 0x2E BALANCE KECCAK256 CALLDATACOPY 0x2E CALLDATACOPY KECCAK256 BALANCE CALLER 0x2E CODESIZE KECCAK256 CODECOPY 0x2E CODECOPY KECCAK256 ORIGIN CALLDATACOPY 0x2E CALLER KECCAK256 BALANCE 0x2E BALANCE KECCAK256 CALLDATASIZE 0x2E CALLDATASIZE 0x2E CALLDATACOPY KECCAK256 BALANCE ADDRESS 0x2E CALLER 0x2D 0x2E CALLER KECCAK256 BALANCE CALLER 0x2E CALLDATACOPY 0x2D 0x2E ORIGIN 0x2E CALLDATALOAD 0x2D CALLVALUE KECCAK256 BALANCE ORIGIN 0x2E ORIGIN 0x2D BALANCE CALLER 0x2E CODECOPY KECCAK256 BALANCE CALLDATALOAD 0x2E ORIGIN 0x2D CODESIZE 0x2E CALLDATACOPY KECCAK256 ORIGIN 0x2E CALLDATACOPY 0x2D BALANCE CALLDATASIZE 0x2E CALLER 0x2D CALLER 0x2E ORIGIN 0x2D BALANCE CODECOPY 0x2E CALLER 0x2E CALLDATASIZE 0x2D BALANCE 0x2E CODESIZE KECCAK256 ORIGIN 0x2E CALLER 0x2E BALANCE KECCAK256 CALLDATALOAD 0x2E CALLDATALOAD 0x2D ORIGIN 0x2E CALLVALUE KECCAK256 CODESIZE 0x2E BALANCE 0x2D ORIGIN KECCAK256 ORIGIN 0x2D CALLER 0x2E CODECOPY 0x2E CALLDATACOPY 0x2D CALLDATASIZE KECCAK256 ORIGIN 0x2E ORIGIN 0x2D CALLVALUE 0x2E CALLDATALOAD KECCAK256 CALLER 0x2E BALANCE 0x2D 0x2E BALANCE KECCAK256 BALANCE ORIGIN 0x2E ORIGIN 0x2D CALLER 0x2E CALLDATASIZE KECCAK256 ORIGIN ORIGIN 0x2E CALLVALUE 0x2D 0x2E CALLDATACOPY KECCAK256 ORIGIN 0x2E BALANCE 0x2D ORIGIN 0x2E CALLDATACOPY KECCAK256 CALLVALUE 0x2E CODESIZE 0x2D CALLDATASIZE 0x2E CALLDATASIZE KECCAK256 BALANCE ADDRESS 0x2E ORIGIN 0x2D BALANCE ORIGIN 0x2E CALLDATALOAD KECCAK256 BALANCE CALLDATACOPY 0x2E BALANCE 0x2D BALANCE CODECOPY 0x2E CALLDATALOAD KECCAK256 ORIGIN BALANCE 0x2E CALLDATASIZE 0x2D BALANCE CODESIZE 0x2E BALANCE KECCAK256 ORIGIN CALLDATACOPY 0x2E CALLDATASIZE 0x2E CALLDATASIZE KECCAK256 ORIGIN 0x2E CALLVALUE KECCAK256 ORIGIN 0x2E CALLDATASIZE KECCAK256 CALLDATALOAD 0x2E CALLDATALOAD KECCAK256 BALANCE 0x2E CALLDATALOAD KECCAK256 CODECOPY 0x2E CALLDATASIZE KECCAK256 ADDRESS KECCAK256 ADDRESS 0x2D 0x2E CALLVALUE KECCAK256 BALANCE 0x2E CALLVALUE 0x2D BALANCE 0x2E ORIGIN KECCAK256 ORIGIN 0x2E CODESIZE 0x2D CALLVALUE 0x2E CALLDATALOAD KECCAK256 CALLDATACOPY 0x2E CALLDATALOAD 0x2D ORIGIN CALLDATASIZE 0x2E CALLVALUE KECCAK256 BALANCE CALLDATASIZE 0x2E CALLDATASIZE 0x2D ORIGIN CODECOPY 0x2E CALLER KECCAK256 BALANCE CALLDATACOPY 0x2E CODESIZE 0x2D BALANCE CALLDATASIZE 0x2E CODECOPY KECCAK256 CALLDATACOPY 0x2E BALANCE 0x2D BALANCE CODECOPY 0x2E CALLVALUE KECCAK256 CODECOPY 0x2E CALLDATALOAD 0x2D ORIGIN CALLER 0x2E CALLDATACOPY KECCAK256 CALLDATACOPY 0x2E CALLDATASIZE 0x2D CALLVALUE 0x2E CODECOPY 0x2D ORIGIN 0x2E BALANCE 0x2D CALLVALUE 0x2E CALLDATACOPY 0x2D CALLDATASIZE 0x2E CALLDATALOAD 0x2D BALANCE ORIGIN 0x2E CALLDATACOPY 0x2D BALANCE ADDRESS 0x2E CALLDATASIZE 0x2D CALLER 0x2E CALLVALUE 0x2D BALANCE 0x2E CALLDATACOPY 0x2D CALLVALUE 0x2E CODECOPY 0x2D BALANCE 0x2E CALLDATACOPY 0x2D CODECOPY 0x2E CODECOPY 0x2D CALLVALUE 0x2E CALLER 0x2D CALLDATALOAD 0x2E CODECOPY 0x2D CALLER 0x2E BALANCE 0x2D CALLDATALOAD 0x2E CALLDATASIZE 0x2D CALLVALUE 0x2E BALANCE 0x2D CODESIZE 0x2E BALANCE 0x2D CALLDATALOAD 0x2D CALLDATASIZE 0x2E ORIGIN 0x2D ORIGIN 0x2E BALANCE 0x2D CODECOPY 0x2E ORIGIN KECCAK256 CALLER 0x2E ORIGIN 0x2D ORIGIN ORIGIN 0x2E CALLER KECCAK256 CALLDATACOPY 0x2E CALLDATALOAD 0x2D CODECOPY 0x2E BALANCE KECCAK256 ORIGIN 0x2E CODECOPY 0x2D BALANCE CALLER 0x2E CALLDATASIZE KECCAK256 ORIGIN 0x2E CALLER 0x2D BALANCE CALLDATALOAD 0x2E BALANCE KECCAK256 CALLDATALOAD 0x2E CODECOPY 0x2D BALANCE 0x2E CALLDATASIZE KECCAK256 CALLER 0x2E CODESIZE KECCAK256 BALANCE 0x2E CALLDATASIZE KECCAK256 CODECOPY 0x2E CALLVALUE 0x2D 0x2E CALLER KECCAK256 BALANCE ADDRESS 0x2E CALLDATASIZE 0x2D BALANCE KECCAK256 0x2E CALLDATASIZE 0x2D ORIGIN 0x2E ORIGIN 0x2D 0x2E CALLDATALOAD 0x2D CALLER 0x2E CALLER 0x2E CALLER 0x2D BALANCE 0x2E ORIGIN 0x2E CODECOPY 0x2D 0x2E CALLER KECCAK256 ORIGIN 0x2E CODESIZE 0x2D BALANCE 0x2E ORIGIN KECCAK256 CALLVALUE 0x2D BALANCE 0x2E CALLDATASIZE KECCAK256 ORIGIN 0x2E ORIGIN 0x2D CALLDATACOPY 0x2E CALLDATALOAD 0x2E CALLVALUE 0x2D CALLDATACOPY 0x2E CODESIZE 0x2E CALLER 0x2D BALANCE BALANCE 0x2E CODESIZE 0x2D CALLER 0x2E CALLDATACOPY 0x2D ORIGIN CALLVALUE 0x2E CALLDATASIZE 0x2D ORIGIN 0x2E CALLER 0x2D CALLER CALLDATASIZE 0x2E CODESIZE 0x2D CALLVALUE 0x2E CALLDATACOPY 0x2D CALLER ADDRESS 0x2E CODESIZE 0x2D CALLDATASIZE 0x2D CALLVALUE CODESIZE 0x2E CALLVALUE 0x2D BALANCE 0x2E CALLER 0x2D CALLDATALOAD BALANCE 0x2E CALLDATALOAD 0x2D CODECOPY 0x2E CODECOPY 0x2D BALANCE 0x2E BALANCE 0x2D CALLER 0x2E BALANCE 0x2E CODESIZE 0x2D CALLVALUE 0x2E CALLVALUE 0x2D 0x2E CALLDATASIZE 0x2D CODECOPY 0x2D BALANCE 0x2E CODESIZE 0x2D CALLDATALOAD 0x2E CALLDATACOPY 0x2D CALLDATALOAD 0x2E CODESIZE 0x2D CALLDATACOPY 0x2E CALLER 0x2D BALANCE CALLVALUE 0x2E ORIGIN 0x2D BALANCE CALLVALUE 0x2E CALLER 0x2D CODECOPY 0x2D CALLDATACOPY 0x2E CALLVALUE 0x2D BALANCE CALLER 0x2E CALLDATASIZE 0x2D BALANCE BALANCE 0x2E CALLVALUE 0x2D BALANCE CALLDATALOAD 0x2E CALLER 0x2D BALANCE CALLDATACOPY 0x2E CALLDATACOPY 0x2D BALANCE 0x2E CALLVALUE 0x2D CALLDATALOAD 0x2D 0x2E CALLER 0x2D CODECOPY KECCAK256 0x2E CALLDATASIZE 0x2D BALANCE CALLER 0x2E BALANCE KECCAK256 CALLVALUE 0x2E CALLDATASIZE 0x2D ORIGIN ADDRESS 0x2E CODECOPY 0x2E ORIGIN 0x2D ORIGIN ADDRESS 0x2E BALANCE KECCAK256 CALLVALUE 0x2E CODESIZE 0x2D CALLVALUE ORIGIN 0x2E CODESIZE KECCAK256 ORIGIN 0x2E ORIGIN 0x2D BALANCE ADDRESS 0x2E CODESIZE KECCAK256 CALLDATALOAD 0x2E BALANCE 0x2D BALANCE CODECOPY 0x2E BALANCE KECCAK256 BALANCE ADDRESS 0x2E CODECOPY 0x2D CALLER CALLDATALOAD 0x2E CALLDATACOPY KECCAK256 CALLDATASIZE 0x2E CODESIZE 0x2D BALANCE CODECOPY 0x2E CALLDATASIZE KECCAK256 BALANCE ADDRESS 0x2E ORIGIN 0x2D ORIGIN CODECOPY 0x2E CALLVALUE KECCAK256 BALANCE CALLVALUE 0x2E ORIGIN 0x2D CALLER CALLER 0x2E CODESIZE KECCAK256 CALLVALUE 0x2E CODECOPY 0x2D CALLDATALOAD 0x2E CALLDATALOAD KECCAK256 CODECOPY 0x2D CALLDATACOPY KECCAK256 CALLVALUE CALLDATACOPY 0x2D BALANCE CALLDATACOPY 0x2E CALLVALUE KECCAK256 CALLER CALLER 0x2E CALLDATACOPY 0x2D CODECOPY 0x2E ORIGIN KECCAK256 CALLER CODECOPY 0x2E BALANCE 0x2D BALANCE ADDRESS 0x2E CALLVALUE KECCAK256 CALLVALUE CODESIZE 0x2E CALLDATALOAD 0x2D CODECOPY 0x2E CODECOPY KECCAK256 CODESIZE 0x2E CALLDATALOAD 0x2E CALLDATALOAD KECCAK256 BALANCE CALLDATALOAD 0x2E CALLDATASIZE KECCAK256 ORIGIN 0x2E BALANCE KECCAK256 ORIGIN CODECOPY 0x2E CALLDATALOAD KECCAK256 CALLDATALOAD 0x2E CALLER KECCAK256 ORIGIN ADDRESS 0x2E CODECOPY KECCAK256 CALLVALUE 0x2E CODESIZE KECCAK256 ORIGIN BALANCE 0x2E CALLVALUE KECCAK256 CALLDATACOPY 0x2E BALANCE KECCAK256 CALLER CALLER 0x2E CODESIZE KECCAK256 CODESIZE 0x2E CALLVALUE KECCAK256 BALANCE CALLDATALOAD KECCAK256 BALANCE 0x2E CALLDATALOAD KECCAK256 CALLER ORIGIN 0x2E ORIGIN KECCAK256 ADDRESS KECCAK256 CALLER ORIGIN 0x2E CALLER KECCAK256 ADDRESS KECCAK256 ADDRESS KECCAK256 ADDRESS KECCAK256 BALANCE BALANCE 0x2E ORIGIN 0x2D BALANCE CALLER 0x2E ORIGIN KECCAK256 CODECOPY 0x2E CODECOPY 0x2D ORIGIN CALLER 0x2E CODECOPY 0x2D 0x2E CALLDATACOPY 0x2D CALLDATALOAD 0x2E CODECOPY 0x2D CALLDATALOAD 0x2D CODECOPY 0x2E CALLDATASIZE 0x2D BALANCE BALANCE 0x2E ORIGIN 0x2D BALANCE CALLVALUE 0x2E CODECOPY 0x2D BALANCE CODESIZE 0x2E BALANCE 0x2D BALANCE CALLDATALOAD 0x2E CALLDATASIZE 0x2D CALLER CALLVALUE 0x2E ORIGIN 0x2D CALLER ADDRESS 0x2E BALANCE 0x2D CALLVALUE CALLDATALOAD 0x2E CODESIZE 0x2D CALLVALUE CALLDATASIZE 0x2E CALLER 0x2D CALLDATALOAD 0x2E CALLER 0x2D CALLDATACOPY 0x2E CALLVALUE 0x2D CODESIZE 0x2E CODESIZE 0x2D BALANCE CALLER 0x2E CODECOPY 0x2D CALLDATASIZE 0x2E CODECOPY 0x2D BALANCE CODECOPY 0x2E CODECOPY 0x2E CODECOPY 0x2D CALLER KECCAK256 CALLVALUE 0x2E BALANCE 0x2D CODESIZE 0x2E CALLVALUE KECCAK256 CODECOPY 0x2E CALLDATALOAD 0x2D BALANCE ADDRESS 0x2E CALLVALUE PUSH27 0x22202F3E3C656C6C697073652066696C6C3D222366666622206378 RETURNDATASIZE 0x22 CALLER BALANCE CODECOPY 0x22 KECCAK256 PUSH4 0x793D2233 CODECOPY CALLVALUE 0x2E ORIGIN 0x22 KECCAK256 PUSH19 0x783D223135322E37222072793D2238362E3522 KECCAK256 0x2F RETURNDATACOPY EXTCODECOPY 0x2F PUSH8 0x3E496E2072657475 PUSH19 0x6E2C2063757261746F7273206561726E207175 PUSH6 0x727920666565 PUSH20 0x2E3C706174682066696C6C3D2223666666222064 RETURNDATASIZE 0x22 0x4D ORIGIN BALANCE 0x2E CALLVALUE CALLVALUE KECCAK256 CALLDATASIZE CALLER 0x2E CALLDATALOAD ORIGIN PUSH4 0x312E3620 BALANCE 0x2E CALLDATACOPY ORIGIN KECCAK256 CALLDATALOAD 0x2E ADDRESS CALLVALUE 0x2E CODECOPY ORIGIN KECCAK256 CODECOPY 0x2E ORIGIN CODESIZE 0x2D BALANCE 0x2E CALLVALUE CALLVALUE 0x2D CALLER 0x2E CODESIZE CODESIZE 0x2D ORIGIN 0x2E CALLDATASIZE 0x2D CALLDATASIZE 0x2E CODESIZE CODESIZE 0x2D CALLDATASIZE 0x2E CALLVALUE 0x2D CODESIZE 0x2E CALLDATALOAD CALLDATASIZE 0x2D BALANCE ADDRESS 0x2E CODESIZE CALLVALUE 0x2D ORIGIN 0x2E CALLVALUE CODESIZE KECCAK256 CALLDATALOAD 0x2E BALANCE ORIGIN 0x2D CALLER 0x2E BALANCE CALLDATASIZE KECCAK256 CODECOPY 0x2E CALLDATASIZE CALLVALUE 0x2D 0x2E CALLDATACOPY ORIGIN KECCAK256 BALANCE ORIGIN 0x2E ORIGIN CODESIZE PUSH27 0x6D34302E342D33332E333663312E39362D332E383420322E35362D CALLDATASIZE 0x2E CODECOPY CALLDATASIZE KECCAK256 BALANCE 0x2E ADDRESS CODESIZE 0x2D CODESIZE 0x2E CALLDATASIZE 0x2D ORIGIN 0x2E ORIGIN CODESIZE 0x2D ORIGIN 0x2E CALLDATALOAD ORIGIN 0x2D CALLDATASIZE 0x2E CALLDATALOAD CALLDATASIZE 0x2D BALANCE 0x2E CODECOPY ORIGIN 0x2D BALANCE BALANCE 0x2E CALLDATASIZE 0x2E CALLDATALOAD ORIGIN KECCAK256 CALLVALUE 0x2E ORIGIN CALLVALUE KECCAK256 BALANCE 0x2E CALLDATASIZE KECCAK256 CALLDATACOPY 0x2E CODECOPY ORIGIN KECCAK256 CALLVALUE 0x2E CALLVALUE CALLVALUE KECCAK256 BALANCE ADDRESS 0x2E CALLDATALOAD ORIGIN KECCAK256 CODESIZE 0x2E ADDRESS CODESIZE PUSH27 0x4D34332E342032302E363863312E36203020332E31322E31362034 0x2E CALLDATASIZE CALLVALUE 0x2E CALLVALUE CODESIZE KECCAK256 CALLDATASIZE 0x2E CODESIZE CODESIZE 0x2D CALLER 0x2E CODESIZE CODESIZE KECCAK256 BALANCE CALLER 0x2E BALANCE CALLDATASIZE 0x2D CALLDATALOAD KECCAK256 BALANCE CALLDATASIZE 0x2E CALLDATASIZE CALLVALUE 0x2D BALANCE 0x2E ORIGIN KECCAK256 ORIGIN 0x2E ORIGIN CALLVALUE KECCAK256 ORIGIN 0x2E CALLVALUE CALLVALUE KECCAK256 BALANCE 0x2E CALLVALUE CODESIZE KECCAK256 CALLDATASIZE 0x2E CODESIZE 0x2D BALANCE 0x2E BALANCE CALLDATASIZE KECCAK256 BALANCE BALANCE 0x2E CODECOPY ORIGIN PUSH23 0x2E30346C2D2E32342E34382E30342E3034632D352E3634 KECCAK256 BALANCE ORIGIN 0x2E CALLVALUE CALLVALUE 0x2D BALANCE CALLDATASIZE 0x2E CALLDATALOAD CALLDATASIZE KECCAK256 ORIGIN CALLER 0x2D ORIGIN CODECOPY 0x2E CALLER ORIGIN KECCAK256 CALLER ADDRESS 0x2E CALLDATALOAD ORIGIN PUSH13 0x2D2E38342E3532632D352E3820 CALLER 0x2E CALLVALUE 0x2D BALANCE ADDRESS 0x2E CALLDATACOPY CALLDATASIZE KECCAK256 CALLVALUE 0x2E CALLDATALOAD ORIGIN 0x2D BALANCE CALLER 0x2E CALLVALUE KECCAK256 BALANCE 0x2E CALLDATASIZE CODESIZE 0x2D CALLER 0x2E CALLDATALOAD ORIGIN 0x2D CALLER 0x2E CODESIZE CALLVALUE 0x2D ORIGIN 0x2E ORIGIN CODESIZE 0x2D BALANCE ADDRESS 0x2E ORIGIN CALLVALUE KECCAK256 BALANCE 0x2E CALLDATALOAD CALLDATASIZE 0x2D BALANCE CALLDATACOPY 0x2E BALANCE ORIGIN 0x2D 0x2E CALLER ORIGIN 0x2D BALANCE 0x2E CALLDATALOAD ORIGIN 0x2D 0x2E CALLVALUE CODESIZE 0x2D CALLER 0x2E ADDRESS CODESIZE 0x2D 0x2E CALLVALUE CODESIZE 0x2D CALLVALUE 0x2E CALLDATASIZE CODESIZE 0x2D 0x2E ADDRESS CODESIZE 0x2D BALANCE ORIGIN 0x2E CALLDATALOAD CALLDATASIZE KECCAK256 BALANCE ADDRESS 0x2E ADDRESS CALLVALUE 0x2D ORIGIN ORIGIN 0x2E CALLDATASIZE CODESIZE KECCAK256 ORIGIN ORIGIN 0x2E CALLDATALOAD CALLDATASIZE 0x2D ORIGIN ORIGIN 0x2E CALLDATASIZE CODESIZE PUSH27 0x6D32312E36342031352E3936632E363420322E3132203120342E33 CALLDATASIZE KECCAK256 BALANCE KECCAK256 CALLDATASIZE 0x2E CALLDATASIZE CODESIZE KECCAK256 ADDRESS KECCAK256 BALANCE ORIGIN 0x2E CALLDATALOAD ORIGIN 0x2D BALANCE ADDRESS 0x2E BALANCE ORIGIN KECCAK256 ORIGIN ORIGIN 0x2E CALLDATASIZE CALLVALUE 0x2D ORIGIN ORIGIN 0x2E CALLDATASIZE CALLVALUE KECCAK256 ORIGIN ORIGIN 0x2E CALLDATASIZE CALLVALUE 0x2D ORIGIN 0x2E CALLER CALLDATASIZE KECCAK256 ADDRESS 0x2D CALLVALUE 0x2E CALLDATASIZE 0x2D 0x2E CALLER CALLDATASIZE 0x2D CALLDATASIZE 0x2E CALLDATACOPY ORIGIN 0x2D BALANCE KECCAK256 BALANCE ORIGIN 0x2E CALLDATASIZE 0x2D CALLDATACOPY 0x2E CALLDATALOAD ORIGIN KECCAK256 ORIGIN ORIGIN 0x2E BALANCE CALLDATASIZE 0x2D BALANCE CALLDATASIZE 0x2E CODESIZE CODESIZE KECCAK256 ORIGIN CODESIZE 0x2E CALLER CALLDATASIZE 0x2D ORIGIN CODESIZE 0x2E CALLER ORIGIN PUSH27 0x22202F3E43757261746F72732061726520637269746963616C2074 PUSH16 0x2074686520477261706820646563656E PUSH21 0x72616C697A65642065636F6E6F6D792E4375726174 PUSH16 0x7273206D616B65205468652047726170 PUSH9 0x206E6574776F726B20 PUSH6 0x666669636965 PUSH15 0x742E4372656174696E672061207375 PUSH3 0x677261 PUSH17 0x68206973207065726D697373696F6E6C65 PUSH20 0x732E412073756267726170682063616E20666169 PUSH13 0x2064756520746F206120627567 0x2E NUMBER PUSH22 0x7261746F7273206172652065636F6E6F6D6963616C6C PUSH26 0x20696E63656E746976697A656420746F207369676E616C206561 PUSH19 0x6C792E3C706174682066696C6C3D2223666666 0x22 KECCAK256 PUSH5 0x3D224D3432 0x2E CODECOPY CALLDATALOAD KECCAK256 CALLER CALLDATACOPY 0x2E ADDRESS CALLDATALOAD PUSH4 0x332E3520 ADDRESS KECCAK256 CALLDATASIZE 0x2E CALLDATASIZE KECCAK256 BALANCE 0x2E CALLDATALOAD KECCAK256 CODESIZE 0x2E CODECOPY KECCAK256 CALLER 0x2E CODESIZE CALLDATALOAD KECCAK256 ORIGIN 0x2E CALLER KECCAK256 ORIGIN 0x2E CALLVALUE KECCAK256 CALLER 0x2E CALLDATACOPY KECCAK256 CALLDATALOAD 0x2E CALLDATACOPY KECCAK256 CALLER 0x2E CALLDATACOPY KECCAK256 CODECOPY 0x2E CALLER KECCAK256 ADDRESS KECCAK256 0x2E CODECOPY CALLDATALOAD 0x2D 0x2E BALANCE KECCAK256 BALANCE 0x2E CODECOPY 0x2D 0x2E CALLER KECCAK256 ORIGIN 0x2E CODESIZE CALLDATALOAD PUSH9 0x31352E3863312E3035 KECCAK256 ADDRESS KECCAK256 BALANCE 0x2E CALLER 0x2E CALLDATASIZE KECCAK256 BALANCE 0x2E CALLER KECCAK256 BALANCE 0x2E CALLER PUSH20 0x2D2E323520312E332D312E3320312E33682D3535 PUSH4 0x2D312E30 CALLDATALOAD KECCAK256 ADDRESS 0x2D BALANCE 0x2E CALLER 0x2D 0x2E CALLDATASIZE 0x2D BALANCE 0x2E CALLER 0x2D BALANCE 0x2E CALLER PUSH20 0x2E32352D312E3320312E332D312E336831342E36 PUSH4 0x2D2E322D 0x2E CODECOPY 0x2D 0x2E CALLER 0x2D BALANCE 0x2E CODESIZE CALLDATALOAD 0x2D 0x2E CALLER 0x2D ORIGIN 0x2E CODESIZE CALLDATALOAD KECCAK256 ADDRESS 0x2D CALLER 0x2E CALLDATASIZE CALLDATALOAD KECCAK256 BALANCE 0x2E CALLVALUE 0x2D CALLDATASIZE 0x2E CODECOPY CALLDATALOAD KECCAK256 CALLER 0x2E CALLDATACOPY 0x2D CODECOPY 0x2E CALLER KECCAK256 ORIGIN 0x2E CALLER 0x2D ORIGIN 0x2E CALLER CALLDATALOAD KECCAK256 CALLDATALOAD 0x2E CALLVALUE CALLDATALOAD 0x2D CALLER 0x2E CODESIZE CALLDATALOAD KECCAK256 CODESIZE 0x2E CODECOPY 0x2D CALLER 0x2E CODESIZE CALLDATALOAD PUSH27 0x4D34342E322036322E37632D312E303520302D312E332D2E362D31 0x2E CALLER 0x2D BALANCE 0x2E CALLER PUSH20 0x2E32352D312E3320312E332D312E336832382E34 CALLDATALOAD PUSH4 0x312E3035 KECCAK256 ADDRESS KECCAK256 BALANCE 0x2E CALLER 0x2E CALLDATASIZE KECCAK256 BALANCE 0x2E CALLER KECCAK256 BALANCE 0x2E CALLER PUSH20 0x2D2E323520312E332D312E3320312E334834342E ORIGIN PUSH27 0x6D2D33302E342030632D312E303520302D312E332D2E362D312E33 0x2D BALANCE 0x2E CALLER PUSH20 0x2E32352D312E3320312E332D312E336831342E37 CALLDATALOAD PUSH4 0x312E3035 KECCAK256 ADDRESS KECCAK256 BALANCE 0x2E CALLER 0x2E CALLDATASIZE KECCAK256 BALANCE 0x2E CALLER KECCAK256 BALANCE 0x2E CALLER PUSH20 0x2D2E323520312E332D312E3320312E334831332E CODESIZE PUSH27 0x6D31372E392D33302E3435632D2E342D2E372D2E31352D312E3535 0x2E CALLDATALOAD 0x2D BALANCE 0x2E CODECOPY PUSH20 0x312E35352D2E313520312E392E354C33352E3920 CALLER CALLVALUE PUSH4 0x2E342E37 0x2E BALANCE CALLDATALOAD KECCAK256 BALANCE 0x2E CALLDATALOAD CALLDATALOAD 0x2D 0x2E CALLDATALOAD KECCAK256 BALANCE 0x2E CODECOPY CALLDATALOAD PUSH20 0x2D312E35352E31352D312E392D2E356C2D312E38 0x2D CALLER 0x2E ORIGIN PUSH27 0x6D31302E31352D332E333563302D2E382E36352D312E3420312E34 0x2D BALANCE 0x2E CALLVALUE PUSH20 0x312E342E363520312E3420312E3476332E366330 KECCAK256 0x2E CODESIZE 0x2D 0x2E CALLDATASIZE CALLDATALOAD KECCAK256 BALANCE 0x2E CALLVALUE 0x2D BALANCE 0x2E CALLVALUE KECCAK256 BALANCE 0x2E CALLVALUE PUSH20 0x2D312E342D2E36352D312E342D312E34762D332E CALLDATASIZE PUSH27 0x6D31302E343520322E32632E342D2E363520312E32352D2E392031 0x2E CODECOPY 0x2D 0x2E CALLDATALOAD PUSH20 0x2E3920312E32352E3520312E396C2D312E382033 0x2E BALANCE CALLDATALOAD PUSH4 0x2D2E342E CALLDATACOPY 0x2D BALANCE 0x2E ORIGIN CALLDATALOAD 0x2E CODECOPY 0x2D BALANCE 0x2E CODECOPY 0x2E CALLDATALOAD 0x2D 0x2E CALLDATASIZE CALLDATALOAD 0x2D 0x2E CALLVALUE 0x2D 0x2E CODECOPY 0x2D BALANCE 0x2E ORIGIN CALLDATALOAD 0x2D 0x2E CALLDATALOAD 0x2D BALANCE 0x2E CODECOPY PUSH13 0x312E382D332E31357A6D372E39 KECCAK256 CALLDATACOPY 0x2E BALANCE CALLDATALOAD PUSH4 0x2E36352D 0x2E CALLVALUE KECCAK256 BALANCE 0x2E CALLDATALOAD CALLDATALOAD 0x2D 0x2E BALANCE CALLDATALOAD KECCAK256 BALANCE 0x2E CODECOPY 0x2E CALLDATALOAD PUSH20 0x2E313520312E35352D2E3520312E39356C2D332E BALANCE KECCAK256 BALANCE 0x2E CODESIZE PUSH4 0x2D2E3635 0x2E CALLVALUE 0x2D BALANCE 0x2E CALLDATALOAD CALLDATALOAD 0x2E BALANCE CALLDATALOAD 0x2D BALANCE 0x2E CODECOPY 0x2D 0x2E CALLDATALOAD PUSH20 0x2D2E31352D312E35352E352D312E39356C332E31 0x2D BALANCE 0x2E CODESIZE PUSH27 0x6D332E33352031302E3135632E38203020312E342E363520312E34 KECCAK256 BALANCE 0x2E CALLVALUE KECCAK256 ADDRESS KECCAK256 0x2E CODESIZE 0x2D 0x2E CALLDATASIZE CALLDATALOAD KECCAK256 BALANCE 0x2E CALLVALUE 0x2D BALANCE 0x2E CALLVALUE KECCAK256 BALANCE 0x2E CALLVALUE PUSH9 0x2D332E36632D2E3820 ADDRESS 0x2D BALANCE 0x2E CALLVALUE 0x2D 0x2E CALLDATASIZE CALLDATALOAD 0x2D BALANCE 0x2E CALLVALUE 0x2D BALANCE 0x2E CALLVALUE PUSH20 0x2E36352D312E3420312E342D312E3468332E367A PUSH14 0x2D34312E3220322E3235632D2E38 KECCAK256 ADDRESS 0x2D BALANCE 0x2E CALLVALUE 0x2D 0x2E CALLDATASIZE CALLDATALOAD 0x2D BALANCE 0x2E CALLVALUE 0x2D BALANCE 0x2E CALLVALUE PUSH20 0x2E36352D312E3420312E342D312E34483236632E CODESIZE KECCAK256 ADDRESS KECCAK256 BALANCE 0x2E CALLVALUE 0x2E CALLDATASIZE CALLDATALOAD KECCAK256 BALANCE 0x2E CALLVALUE KECCAK256 BALANCE 0x2E CALLVALUE PUSH20 0x2D2E363520312E342D312E3420312E34682D332E CALLDATASIZE CALLDATALOAD PUSH27 0x6D322E322D31302E3435632D2E372D2E342D2E392D312E32352D2E CALLDATALOAD 0x2D BALANCE 0x2E CODECOPY 0x2E CALLVALUE 0x2D 0x2E CALLDATACOPY KECCAK256 BALANCE 0x2E ORIGIN CALLDATALOAD 0x2D 0x2E CODECOPY KECCAK256 BALANCE 0x2E CODECOPY 0x2D 0x2E CALLDATALOAD PUSH13 0x332E313520312E38632E36352E CALLVALUE 0x2E CODECOPY KECCAK256 BALANCE 0x2E ORIGIN CALLDATALOAD 0x2E CALLDATALOAD KECCAK256 BALANCE 0x2E CODECOPY PUSH20 0x2D312E32352E392D312E392E356C2D332E31352D BALANCE 0x2E CODESIZE PUSH27 0x22202F3E0000000000000000000000000000000000000000000000 "
		},
		"gasEstimates": {
			"creation": {
				"codeDepositCost": "4145000",
				"executionCost": "infinite",
				"totalCost": "infinite"
			},
			"external": {
				"addressToString(address)": "infinite",
				"approve(address,uint256)": "infinite",
				"balanceOf(address)": "1646",
				"createIcon(uint8,uint8)": "infinite",
				"createImage(uint256)": "infinite",
				"getApproved(uint256)": "2628",
				"isApprovedForAll(address,address)": "infinite",
				"metas(uint256)": "infinite",
				"mint()": "infinite",
				"name()": "infinite",
				"ownerOf(uint256)": "1722",
				"safeTransferFrom(address,address,uint256)": "infinite",
				"safeTransferFrom(address,address,uint256,bytes)": "infinite",
				"setApprovalForAll(address,bool)": "infinite",
				"supportsInterface(bytes4)": "797",
				"symbol()": "infinite",
				"tokenURI(uint256)": "infinite",
				"transferFrom(address,address,uint256)": "infinite"
			},
			"internal": {
				"toUint8(bytes memory,uint256)": "infinite"
			}
		},
		"methodIdentifiers": {
			"addressToString(address)": "5e57966d",
			"approve(address,uint256)": "095ea7b3",
			"balanceOf(address)": "70a08231",
			"createIcon(uint8,uint8)": "355e88c5",
			"createImage(uint256)": "c75440e1",
			"getApproved(uint256)": "081812fc",
			"isApprovedForAll(address,address)": "e985e9c5",
			"metas(uint256)": "277ecfbb",
			"mint()": "1249c58b",
			"name()": "06fdde03",
			"ownerOf(uint256)": "6352211e",
			"safeTransferFrom(address,address,uint256)": "42842e0e",
			"safeTransferFrom(address,address,uint256,bytes)": "b88d4fde",
			"setApprovalForAll(address,bool)": "a22cb465",
			"supportsInterface(bytes4)": "01ffc9a7",
			"symbol()": "95d89b41",
			"tokenURI(uint256)": "c87b56dd",
			"transferFrom(address,address,uint256)": "23b872dd"
		}
	},
	"abi": [
		{
			"inputs": [],
			"stateMutability": "nonpayable",
			"type": "constructor"
		},
		{
			"anonymous": false,
			"inputs": [
				{
					"indexed": true,
					"internalType": "address",
					"name": "owner",
					"type": "address"
				},
				{
					"indexed": true,
					"internalType": "address",
					"name": "approved",
					"type": "address"
				},
				{
					"indexed": true,
					"internalType": "uint256",
					"name": "tokenId",
					"type": "uint256"
				}
			],
			"name": "Approval",
			"type": "event"
		},
		{
			"anonymous": false,
			"inputs": [
				{
					"indexed": true,
					"internalType": "address",
					"name": "owner",
					"type": "address"
				},
				{
					"indexed": true,
					"internalType": "address",
					"name": "operator",
					"type": "address"
				},
				{
					"indexed": false,
					"internalType": "bool",
					"name": "approved",
					"type": "bool"
				}
			],
			"name": "ApprovalForAll",
			"type": "event"
		},
		{
			"anonymous": false,
			"inputs": [
				{
					"indexed": true,
					"internalType": "address",
					"name": "from",
					"type": "address"
				},
				{
					"indexed": true,
					"internalType": "address",
					"name": "to",
					"type": "address"
				},
				{
					"indexed": true,
					"internalType": "uint256",
					"name": "tokenId",
					"type": "uint256"
				}
			],
			"name": "Transfer",
			"type": "event"
		},
		{
			"inputs": [
				{
					"internalType": "address",
					"name": "_addr",
					"type": "address"
				}
			],
			"name": "addressToString",
			"outputs": [
				{
					"internalType": "string",
					"name": "",
					"type": "string"
				}
			],
			"stateMutability": "pure",
			"type": "function"
		},
		{
			"inputs": [
				{
					"internalType": "address",
					"name": "to",
					"type": "address"
				},
				{
					"internalType": "uint256",
					"name": "tokenId",
					"type": "uint256"
				}
			],
			"name": "approve",
			"outputs": [],
			"stateMutability": "nonpayable",
			"type": "function"
		},
		{
			"inputs": [
				{
					"internalType": "address",
					"name": "owner",
					"type": "address"
				}
			],
			"name": "balanceOf",
			"outputs": [
				{
					"internalType": "uint256",
					"name": "",
					"type": "uint256"
				}
			],
			"stateMutability": "view",
			"type": "function"
		},
		{
			"inputs": [
				{
					"internalType": "uint8",
					"name": "color_index",
					"type": "uint8"
				},
				{
					"internalType": "uint8",
					"name": "order_index",
					"type": "uint8"
				}
			],
			"name": "createIcon",
			"outputs": [
				{
					"internalType": "string",
					"name": "",
					"type": "string"
				}
			],
			"stateMutability": "view",
			"type": "function"
		},
		{
			"inputs": [
				{
					"internalType": "uint256",
					"name": "tokenId",
					"type": "uint256"
				}
			],
			"name": "createImage",
			"outputs": [
				{
					"internalType": "string",
					"name": "",
					"type": "string"
				}
			],
			"stateMutability": "view",
			"type": "function"
		},
		{
			"inputs": [
				{
					"internalType": "uint256",
					"name": "tokenId",
					"type": "uint256"
				}
			],
			"name": "getApproved",
			"outputs": [
				{
					"internalType": "address",
					"name": "",
					"type": "address"
				}
			],
			"stateMutability": "view",
			"type": "function"
		},
		{
			"inputs": [
				{
					"internalType": "address",
					"name": "owner",
					"type": "address"
				},
				{
					"internalType": "address",
					"name": "operator",
					"type": "address"
				}
			],
			"name": "isApprovedForAll",
			"outputs": [
				{
					"internalType": "bool",
					"name": "",
					"type": "bool"
				}
			],
			"stateMutability": "view",
			"type": "function"
		},
		{
			"inputs": [
				{
					"internalType": "uint256",
					"name": "",
					"type": "uint256"
				}
			],
			"name": "metas",
			"outputs": [
				{
					"internalType": "address",
					"name": "addr",
					"type": "address"
				},
				{
					"internalType": "uint256",
					"name": "key",
					"type": "uint256"
				}
			],
			"stateMutability": "view",
			"type": "function"
		},
		{
			"inputs": [],
			"name": "mint",
			"outputs": [
				{
					"internalType": "uint256",
					"name": "tokenId",
					"type": "uint256"
				}
			],
			"stateMutability": "nonpayable",
			"type": "function"
		},
		{
			"inputs": [],
			"name": "name",
			"outputs": [
				{
					"internalType": "string",
					"name": "",
					"type": "string"
				}
			],
			"stateMutability": "view",
			"type": "function"
		},
		{
			"inputs": [
				{
					"internalType": "uint256",
					"name": "tokenId",
					"type": "uint256"
				}
			],
			"name": "ownerOf",
			"outputs": [
				{
					"internalType": "address",
					"name": "",
					"type": "address"
				}
			],
			"stateMutability": "view",
			"type": "function"
		},
		{
			"inputs": [
				{
					"internalType": "address",
					"name": "from",
					"type": "address"
				},
				{
					"internalType": "address",
					"name": "to",
					"type": "address"
				},
				{
					"internalType": "uint256",
					"name": "tokenId",
					"type": "uint256"
				}
			],
			"name": "safeTransferFrom",
			"outputs": [],
			"stateMutability": "nonpayable",
			"type": "function"
		},
		{
			"inputs": [
				{
					"internalType": "address",
					"name": "from",
					"type": "address"
				},
				{
					"internalType": "address",
					"name": "to",
					"type": "address"
				},
				{
					"internalType": "uint256",
					"name": "tokenId",
					"type": "uint256"
				},
				{
					"internalType": "bytes",
					"name": "_data",
					"type": "bytes"
				}
			],
			"name": "safeTransferFrom",
			"outputs": [],
			"stateMutability": "nonpayable",
			"type": "function"
		},
		{
			"inputs": [
				{
					"internalType": "address",
					"name": "operator",
					"type": "address"
				},
				{
					"internalType": "bool",
					"name": "approved",
					"type": "bool"
				}
			],
			"name": "setApprovalForAll",
			"outputs": [],
			"stateMutability": "nonpayable",
			"type": "function"
		},
		{
			"inputs": [
				{
					"internalType": "bytes4",
					"name": "interfaceId",
					"type": "bytes4"
				}
			],
			"name": "supportsInterface",
			"outputs": [
				{
					"internalType": "bool",
					"name": "",
					"type": "bool"
				}
			],
			"stateMutability": "view",
			"type": "function"
		},
		{
			"inputs": [],
			"name": "symbol",
			"outputs": [
				{
					"internalType": "string",
					"name": "",
					"type": "string"
				}
			],
			"stateMutability": "view",
			"type": "function"
		},
		{
			"inputs": [
				{
					"internalType": "uint256",
					"name": "tokenId",
					"type": "uint256"
				}
			],
			"name": "tokenURI",
			"outputs": [
				{
					"internalType": "string",
					"name": "",
					"type": "string"
				}
			],
			"stateMutability": "view",
			"type": "function"
		},
		{
			"inputs": [
				{
					"internalType": "address",
					"name": "from",
					"type": "address"
				},
				{
					"internalType": "address",
					"name": "to",
					"type": "address"
				},
				{
					"internalType": "uint256",
					"name": "tokenId",
					"type": "uint256"
				}
			],
			"name": "transferFrom",
			"outputs": [],
			"stateMutability": "nonpayable",
			"type": "function"
		}
	]
}